{
	"contracts/Counter.sol": {
		"Counter": {
			"abi": [
				{
					"inputs": [
						{
							"internalType": "address",
							"name": "",
							"type": "address"
						}
					],
					"name": "balances",
					"outputs": [
						{
							"internalType": "uint256",
							"name": "",
							"type": "uint256"
						}
					],
					"stateMutability": "view",
					"type": "function"
				},
				{
					"inputs": [],
					"name": "getAccount",
					"outputs": [
						{
							"internalType": "uint256",
							"name": "",
							"type": "uint256"
						}
					],
					"stateMutability": "view",
					"type": "function"
				},
				{
					"inputs": [],
					"name": "queryRecord",
					"outputs": [
						{
							"internalType": "uint256",
							"name": "",
							"type": "uint256"
						}
					],
					"stateMutability": "view",
					"type": "function"
				},
				{
					"inputs": [
						{
							"internalType": "uint256",
							"name": "_accout",
							"type": "uint256"
						}
					],
					"name": "saveMoney",
					"outputs": [
						{
							"internalType": "bool",
							"name": "",
							"type": "bool"
						}
					],
					"stateMutability": "payable",
					"type": "function"
				},
				{
					"inputs": [
						{
							"internalType": "uint256",
							"name": "_withdraMoney",
							"type": "uint256"
						}
					],
					"name": "withDraw",
					"outputs": [],
					"stateMutability": "payable",
					"type": "function"
				}
			],
			"devdoc": {
				"kind": "dev",
				"methods": {},
				"version": 1
			},
			"evm": {
				"assembly": "    /* \"contracts/Counter.sol\":61:785  contract Counter {\r... */\n  mstore(0x40, 0x80)\n  callvalue\n  dup1\n  iszero\n  tag_1\n  jumpi\n  0x00\n  dup1\n  revert\ntag_1:\n  pop\n  dataSize(sub_0)\n  dup1\n  dataOffset(sub_0)\n  0x00\n  codecopy\n  0x00\n  return\nstop\n\nsub_0: assembly {\n        /* \"contracts/Counter.sol\":61:785  contract Counter {\r... */\n      mstore(0x40, 0x80)\n      jumpi(tag_1, lt(calldatasize, 0x04))\n      shr(0xe0, calldataload(0x00))\n      dup1\n      0x06684281\n      eq\n      tag_2\n      jumpi\n      dup1\n      0x0a4de2d1\n      eq\n      tag_3\n      jumpi\n      dup1\n      0x14174f33\n      eq\n      tag_4\n      jumpi\n      dup1\n      0x27e235e3\n      eq\n      tag_5\n      jumpi\n      dup1\n      0xdb613e81\n      eq\n      tag_6\n      jumpi\n    tag_1:\n      0x00\n      dup1\n      revert\n        /* \"contracts/Counter.sol\":426:564  function saveMoney(uint _accout) external payable returns(bool){\r... */\n    tag_2:\n      tag_7\n      0x04\n      dup1\n      calldatasize\n      sub\n      dup2\n      add\n      swap1\n      tag_8\n      swap2\n      swap1\n      tag_9\n      jump\t// in\n    tag_8:\n      tag_10\n      jump\t// in\n    tag_7:\n      mload(0x40)\n      tag_11\n      swap2\n      swap1\n      tag_12\n      jump\t// in\n    tag_11:\n      mload(0x40)\n      dup1\n      swap2\n      sub\n      swap1\n      return\n        /* \"contracts/Counter.sol\":303:404  function queryRecord() public view returns(uint256) {\r... */\n    tag_3:\n      callvalue\n      dup1\n      iszero\n      tag_13\n      jumpi\n      0x00\n      dup1\n      revert\n    tag_13:\n      pop\n      tag_14\n      tag_15\n      jump\t// in\n    tag_14:\n      mload(0x40)\n      tag_16\n      swap2\n      swap1\n      tag_17\n      jump\t// in\n    tag_16:\n      mload(0x40)\n      dup1\n      swap2\n      sub\n      swap1\n      return\n        /* \"contracts/Counter.sol\":586:782  function withDraw(uint256 _withdraMoney) external payable{\r... */\n    tag_4:\n      tag_18\n      0x04\n      dup1\n      calldatasize\n      sub\n      dup2\n      add\n      swap1\n      tag_19\n      swap2\n      swap1\n      tag_9\n      jump\t// in\n    tag_19:\n      tag_20\n      jump\t// in\n    tag_18:\n      stop\n        /* \"contracts/Counter.sol\":87:130  mapping(address => uint256) public balances */\n    tag_5:\n      callvalue\n      dup1\n      iszero\n      tag_21\n      jumpi\n      0x00\n      dup1\n      revert\n    tag_21:\n      pop\n      tag_22\n      0x04\n      dup1\n      calldatasize\n      sub\n      dup2\n      add\n      swap1\n      tag_23\n      swap2\n      swap1\n      tag_24\n      jump\t// in\n    tag_23:\n      tag_25\n      jump\t// in\n    tag_22:\n      mload(0x40)\n      tag_26\n      swap2\n      swap1\n      tag_17\n      jump\t// in\n    tag_26:\n      mload(0x40)\n      dup1\n      swap2\n      sub\n      swap1\n      return\n        /* \"contracts/Counter.sol\":153:251  function getAccount() public view returns (uint) {\r... */\n    tag_6:\n      callvalue\n      dup1\n      iszero\n      tag_27\n      jumpi\n      0x00\n      dup1\n      revert\n    tag_27:\n      pop\n      tag_28\n      tag_29\n      jump\t// in\n    tag_28:\n      mload(0x40)\n      tag_30\n      swap2\n      swap1\n      tag_17\n      jump\t// in\n    tag_30:\n      mload(0x40)\n      dup1\n      swap2\n      sub\n      swap1\n      return\n        /* \"contracts/Counter.sol\":426:564  function saveMoney(uint _accout) external payable returns(bool){\r... */\n    tag_10:\n        /* \"contracts/Counter.sol\":484:488  bool */\n      0x00\n        /* \"contracts/Counter.sol\":527:534  _accout */\n      dup2\n        /* \"contracts/Counter.sol\":500:508  balances */\n      0x00\n        /* \"contracts/Counter.sol\":500:523  balances[address(this)] */\n      dup1\n        /* \"contracts/Counter.sol\":517:521  this */\n      address\n        /* \"contracts/Counter.sol\":500:523  balances[address(this)] */\n      0xffffffffffffffffffffffffffffffffffffffff\n      and\n      0xffffffffffffffffffffffffffffffffffffffff\n      and\n      dup2\n      mstore\n      0x20\n      add\n      swap1\n      dup2\n      mstore\n      0x20\n      add\n      0x00\n      keccak256\n      0x00\n        /* \"contracts/Counter.sol\":500:534  balances[address(this)] += _accout */\n      dup3\n      dup3\n      sload\n      tag_32\n      swap2\n      swap1\n      tag_33\n      jump\t// in\n    tag_32:\n      swap3\n      pop\n      pop\n      dup2\n      swap1\n      sstore\n      pop\n        /* \"contracts/Counter.sol\":552:556  true */\n      0x01\n        /* \"contracts/Counter.sol\":545:556  return true */\n      swap1\n      pop\n        /* \"contracts/Counter.sol\":426:564  function saveMoney(uint _accout) external payable returns(bool){\r... */\n      swap2\n      swap1\n      pop\n      jump\t// out\n        /* \"contracts/Counter.sol\":303:404  function queryRecord() public view returns(uint256) {\r... */\n    tag_15:\n        /* \"contracts/Counter.sol\":346:353  uint256 */\n      0x00\n        /* \"contracts/Counter.sol\":373:381  balances */\n      dup1\n        /* \"contracts/Counter.sol\":373:396  balances[address(this)] */\n      0x00\n        /* \"contracts/Counter.sol\":390:394  this */\n      address\n        /* \"contracts/Counter.sol\":373:396  balances[address(this)] */\n      0xffffffffffffffffffffffffffffffffffffffff\n      and\n      0xffffffffffffffffffffffffffffffffffffffff\n      and\n      dup2\n      mstore\n      0x20\n      add\n      swap1\n      dup2\n      mstore\n      0x20\n      add\n      0x00\n      keccak256\n      sload\n        /* \"contracts/Counter.sol\":366:396  return balances[address(this)] */\n      swap1\n      pop\n        /* \"contracts/Counter.sol\":303:404  function queryRecord() public view returns(uint256) {\r... */\n      swap1\n      jump\t// out\n        /* \"contracts/Counter.sol\":586:782  function withDraw(uint256 _withdraMoney) external payable{\r... */\n    tag_20:\n        /* \"contracts/Counter.sol\":689:702  _withdraMoney */\n      dup1\n        /* \"contracts/Counter.sol\":662:670  balances */\n      0x00\n        /* \"contracts/Counter.sol\":662:685  balances[address(this)] */\n      dup1\n        /* \"contracts/Counter.sol\":679:683  this */\n      address\n        /* \"contracts/Counter.sol\":662:685  balances[address(this)] */\n      0xffffffffffffffffffffffffffffffffffffffff\n      and\n      0xffffffffffffffffffffffffffffffffffffffff\n      and\n      dup2\n      mstore\n      0x20\n      add\n      swap1\n      dup2\n      mstore\n      0x20\n      add\n      0x00\n      keccak256\n      sload\n        /* \"contracts/Counter.sol\":662:702  balances[address(this)] >= _withdraMoney */\n      lt\n      iszero\n        /* \"contracts/Counter.sol\":654:723  require(balances[address(this)] >= _withdraMoney,\"not enough money\" ) */\n      tag_36\n      jumpi\n      mload(0x40)\n      0x08c379a000000000000000000000000000000000000000000000000000000000\n      dup2\n      mstore\n      0x04\n      add\n      tag_37\n      swap1\n      tag_38\n      jump\t// in\n    tag_37:\n      mload(0x40)\n      dup1\n      swap2\n      sub\n      swap1\n      revert\n    tag_36:\n        /* \"contracts/Counter.sol\":761:774  _withdraMoney */\n      dup1\n        /* \"contracts/Counter.sol\":734:742  balances */\n      0x00\n        /* \"contracts/Counter.sol\":734:757  balances[address(this)] */\n      dup1\n        /* \"contracts/Counter.sol\":751:755  this */\n      address\n        /* \"contracts/Counter.sol\":734:757  balances[address(this)] */\n      0xffffffffffffffffffffffffffffffffffffffff\n      and\n      0xffffffffffffffffffffffffffffffffffffffff\n      and\n      dup2\n      mstore\n      0x20\n      add\n      swap1\n      dup2\n      mstore\n      0x20\n      add\n      0x00\n      keccak256\n      0x00\n        /* \"contracts/Counter.sol\":734:774  balances[address(this)] -= _withdraMoney */\n      dup3\n      dup3\n      sload\n      tag_39\n      swap2\n      swap1\n      tag_40\n      jump\t// in\n    tag_39:\n      swap3\n      pop\n      pop\n      dup2\n      swap1\n      sstore\n      pop\n        /* \"contracts/Counter.sol\":586:782  function withDraw(uint256 _withdraMoney) external payable{\r... */\n      pop\n      jump\t// out\n        /* \"contracts/Counter.sol\":87:130  mapping(address => uint256) public balances */\n    tag_25:\n      mstore(0x20, 0x00)\n      dup1\n      0x00\n      mstore\n      keccak256(0x00, 0x40)\n      0x00\n      swap2\n      pop\n      swap1\n      pop\n      sload\n      dup2\n      jump\t// out\n        /* \"contracts/Counter.sol\":153:251  function getAccount() public view returns (uint) {\r... */\n    tag_29:\n        /* \"contracts/Counter.sol\":196:200  uint */\n      0x00\n        /* \"contracts/Counter.sol\":220:228  balances */\n      dup1\n        /* \"contracts/Counter.sol\":220:243  balances[address(this)] */\n      0x00\n        /* \"contracts/Counter.sol\":237:241  this */\n      address\n        /* \"contracts/Counter.sol\":220:243  balances[address(this)] */\n      0xffffffffffffffffffffffffffffffffffffffff\n      and\n      0xffffffffffffffffffffffffffffffffffffffff\n      and\n      dup2\n      mstore\n      0x20\n      add\n      swap1\n      dup2\n      mstore\n      0x20\n      add\n      0x00\n      keccak256\n      sload\n        /* \"contracts/Counter.sol\":213:243  return balances[address(this)] */\n      swap1\n      pop\n        /* \"contracts/Counter.sol\":153:251  function getAccount() public view returns (uint) {\r... */\n      swap1\n      jump\t// out\n        /* \"#utility.yul\":7:146   */\n    tag_43:\n      0x00\n        /* \"#utility.yul\":91:97   */\n      dup2\n        /* \"#utility.yul\":78:98   */\n      calldataload\n        /* \"#utility.yul\":69:98   */\n      swap1\n      pop\n        /* \"#utility.yul\":107:140   */\n      tag_45\n        /* \"#utility.yul\":134:139   */\n      dup2\n        /* \"#utility.yul\":107:140   */\n      tag_46\n      jump\t// in\n    tag_45:\n        /* \"#utility.yul\":59:146   */\n      swap3\n      swap2\n      pop\n      pop\n      jump\t// out\n        /* \"#utility.yul\":152:291   */\n    tag_47:\n      0x00\n        /* \"#utility.yul\":236:242   */\n      dup2\n        /* \"#utility.yul\":223:243   */\n      calldataload\n        /* \"#utility.yul\":214:243   */\n      swap1\n      pop\n        /* \"#utility.yul\":252:285   */\n      tag_49\n        /* \"#utility.yul\":279:284   */\n      dup2\n        /* \"#utility.yul\":252:285   */\n      tag_50\n      jump\t// in\n    tag_49:\n        /* \"#utility.yul\":204:291   */\n      swap3\n      swap2\n      pop\n      pop\n      jump\t// out\n        /* \"#utility.yul\":297:559   */\n    tag_24:\n      0x00\n        /* \"#utility.yul\":405:407   */\n      0x20\n        /* \"#utility.yul\":393:402   */\n      dup3\n        /* \"#utility.yul\":384:391   */\n      dup5\n        /* \"#utility.yul\":380:403   */\n      sub\n        /* \"#utility.yul\":376:408   */\n      slt\n        /* \"#utility.yul\":373:375   */\n      iszero\n      tag_52\n      jumpi\n        /* \"#utility.yul\":421:422   */\n      0x00\n        /* \"#utility.yul\":418:419   */\n      dup1\n        /* \"#utility.yul\":411:423   */\n      revert\n        /* \"#utility.yul\":373:375   */\n    tag_52:\n        /* \"#utility.yul\":464:465   */\n      0x00\n        /* \"#utility.yul\":489:542   */\n      tag_53\n        /* \"#utility.yul\":534:541   */\n      dup5\n        /* \"#utility.yul\":525:531   */\n      dup3\n        /* \"#utility.yul\":514:523   */\n      dup6\n        /* \"#utility.yul\":510:532   */\n      add\n        /* \"#utility.yul\":489:542   */\n      tag_43\n      jump\t// in\n    tag_53:\n        /* \"#utility.yul\":479:542   */\n      swap2\n      pop\n        /* \"#utility.yul\":435:552   */\n      pop\n        /* \"#utility.yul\":363:559   */\n      swap3\n      swap2\n      pop\n      pop\n      jump\t// out\n        /* \"#utility.yul\":565:827   */\n    tag_9:\n      0x00\n        /* \"#utility.yul\":673:675   */\n      0x20\n        /* \"#utility.yul\":661:670   */\n      dup3\n        /* \"#utility.yul\":652:659   */\n      dup5\n        /* \"#utility.yul\":648:671   */\n      sub\n        /* \"#utility.yul\":644:676   */\n      slt\n        /* \"#utility.yul\":641:643   */\n      iszero\n      tag_55\n      jumpi\n        /* \"#utility.yul\":689:690   */\n      0x00\n        /* \"#utility.yul\":686:687   */\n      dup1\n        /* \"#utility.yul\":679:691   */\n      revert\n        /* \"#utility.yul\":641:643   */\n    tag_55:\n        /* \"#utility.yul\":732:733   */\n      0x00\n        /* \"#utility.yul\":757:810   */\n      tag_56\n        /* \"#utility.yul\":802:809   */\n      dup5\n        /* \"#utility.yul\":793:799   */\n      dup3\n        /* \"#utility.yul\":782:791   */\n      dup6\n        /* \"#utility.yul\":778:800   */\n      add\n        /* \"#utility.yul\":757:810   */\n      tag_47\n      jump\t// in\n    tag_56:\n        /* \"#utility.yul\":747:810   */\n      swap2\n      pop\n        /* \"#utility.yul\":703:820   */\n      pop\n        /* \"#utility.yul\":631:827   */\n      swap3\n      swap2\n      pop\n      pop\n      jump\t// out\n        /* \"#utility.yul\":833:942   */\n    tag_57:\n        /* \"#utility.yul\":914:935   */\n      tag_59\n        /* \"#utility.yul\":929:934   */\n      dup2\n        /* \"#utility.yul\":914:935   */\n      tag_60\n      jump\t// in\n    tag_59:\n        /* \"#utility.yul\":909:912   */\n      dup3\n        /* \"#utility.yul\":902:936   */\n      mstore\n        /* \"#utility.yul\":892:942   */\n      pop\n      pop\n      jump\t// out\n        /* \"#utility.yul\":948:1262   */\n    tag_61:\n      0x00\n        /* \"#utility.yul\":1111:1178   */\n      tag_63\n        /* \"#utility.yul\":1175:1177   */\n      0x10\n        /* \"#utility.yul\":1170:1173   */\n      dup4\n        /* \"#utility.yul\":1111:1178   */\n      tag_64\n      jump\t// in\n    tag_63:\n        /* \"#utility.yul\":1104:1178   */\n      swap2\n      pop\n        /* \"#utility.yul\":1208:1226   */\n      0x6e6f7420656e6f756768206d6f6e657900000000000000000000000000000000\n        /* \"#utility.yul\":1204:1205   */\n      0x00\n        /* \"#utility.yul\":1199:1202   */\n      dup4\n        /* \"#utility.yul\":1195:1206   */\n      add\n        /* \"#utility.yul\":1188:1227   */\n      mstore\n        /* \"#utility.yul\":1253:1255   */\n      0x20\n        /* \"#utility.yul\":1248:1251   */\n      dup3\n        /* \"#utility.yul\":1244:1256   */\n      add\n        /* \"#utility.yul\":1237:1256   */\n      swap1\n      pop\n        /* \"#utility.yul\":1094:1262   */\n      swap2\n      swap1\n      pop\n      jump\t// out\n        /* \"#utility.yul\":1268:1386   */\n    tag_65:\n        /* \"#utility.yul\":1355:1379   */\n      tag_67\n        /* \"#utility.yul\":1373:1378   */\n      dup2\n        /* \"#utility.yul\":1355:1379   */\n      tag_68\n      jump\t// in\n    tag_67:\n        /* \"#utility.yul\":1350:1353   */\n      dup3\n        /* \"#utility.yul\":1343:1380   */\n      mstore\n        /* \"#utility.yul\":1333:1386   */\n      pop\n      pop\n      jump\t// out\n        /* \"#utility.yul\":1392:1602   */\n    tag_12:\n      0x00\n        /* \"#utility.yul\":1517:1519   */\n      0x20\n        /* \"#utility.yul\":1506:1515   */\n      dup3\n        /* \"#utility.yul\":1502:1520   */\n      add\n        /* \"#utility.yul\":1494:1520   */\n      swap1\n      pop\n        /* \"#utility.yul\":1530:1595   */\n      tag_70\n        /* \"#utility.yul\":1592:1593   */\n      0x00\n        /* \"#utility.yul\":1581:1590   */\n      dup4\n        /* \"#utility.yul\":1577:1594   */\n      add\n        /* \"#utility.yul\":1568:1574   */\n      dup5\n        /* \"#utility.yul\":1530:1595   */\n      tag_57\n      jump\t// in\n    tag_70:\n        /* \"#utility.yul\":1484:1602   */\n      swap3\n      swap2\n      pop\n      pop\n      jump\t// out\n        /* \"#utility.yul\":1608:2027   */\n    tag_38:\n      0x00\n        /* \"#utility.yul\":1812:1814   */\n      0x20\n        /* \"#utility.yul\":1801:1810   */\n      dup3\n        /* \"#utility.yul\":1797:1815   */\n      add\n        /* \"#utility.yul\":1789:1815   */\n      swap1\n      pop\n        /* \"#utility.yul\":1861:1870   */\n      dup2\n        /* \"#utility.yul\":1855:1859   */\n      dup2\n        /* \"#utility.yul\":1851:1871   */\n      sub\n        /* \"#utility.yul\":1847:1848   */\n      0x00\n        /* \"#utility.yul\":1836:1845   */\n      dup4\n        /* \"#utility.yul\":1832:1849   */\n      add\n        /* \"#utility.yul\":1825:1872   */\n      mstore\n        /* \"#utility.yul\":1889:2020   */\n      tag_72\n        /* \"#utility.yul\":2015:2019   */\n      dup2\n        /* \"#utility.yul\":1889:2020   */\n      tag_61\n      jump\t// in\n    tag_72:\n        /* \"#utility.yul\":1881:2020   */\n      swap1\n      pop\n        /* \"#utility.yul\":1779:2027   */\n      swap2\n      swap1\n      pop\n      jump\t// out\n        /* \"#utility.yul\":2033:2255   */\n    tag_17:\n      0x00\n        /* \"#utility.yul\":2164:2166   */\n      0x20\n        /* \"#utility.yul\":2153:2162   */\n      dup3\n        /* \"#utility.yul\":2149:2167   */\n      add\n        /* \"#utility.yul\":2141:2167   */\n      swap1\n      pop\n        /* \"#utility.yul\":2177:2248   */\n      tag_74\n        /* \"#utility.yul\":2245:2246   */\n      0x00\n        /* \"#utility.yul\":2234:2243   */\n      dup4\n        /* \"#utility.yul\":2230:2247   */\n      add\n        /* \"#utility.yul\":2221:2227   */\n      dup5\n        /* \"#utility.yul\":2177:2248   */\n      tag_65\n      jump\t// in\n    tag_74:\n        /* \"#utility.yul\":2131:2255   */\n      swap3\n      swap2\n      pop\n      pop\n      jump\t// out\n        /* \"#utility.yul\":2261:2430   */\n    tag_64:\n      0x00\n        /* \"#utility.yul\":2379:2385   */\n      dup3\n        /* \"#utility.yul\":2374:2377   */\n      dup3\n        /* \"#utility.yul\":2367:2386   */\n      mstore\n        /* \"#utility.yul\":2419:2423   */\n      0x20\n        /* \"#utility.yul\":2414:2417   */\n      dup3\n        /* \"#utility.yul\":2410:2424   */\n      add\n        /* \"#utility.yul\":2395:2424   */\n      swap1\n      pop\n        /* \"#utility.yul\":2357:2430   */\n      swap3\n      swap2\n      pop\n      pop\n      jump\t// out\n        /* \"#utility.yul\":2436:2741   */\n    tag_33:\n      0x00\n        /* \"#utility.yul\":2495:2515   */\n      tag_77\n        /* \"#utility.yul\":2513:2514   */\n      dup3\n        /* \"#utility.yul\":2495:2515   */\n      tag_68\n      jump\t// in\n    tag_77:\n        /* \"#utility.yul\":2490:2515   */\n      swap2\n      pop\n        /* \"#utility.yul\":2529:2549   */\n      tag_78\n        /* \"#utility.yul\":2547:2548   */\n      dup4\n        /* \"#utility.yul\":2529:2549   */\n      tag_68\n      jump\t// in\n    tag_78:\n        /* \"#utility.yul\":2524:2549   */\n      swap3\n      pop\n        /* \"#utility.yul\":2683:2684   */\n      dup3\n        /* \"#utility.yul\":2615:2681   */\n      0xffffffffffffffffffffffffffffffffffffffffffffffffffffffffffffffff\n        /* \"#utility.yul\":2611:2685   */\n      sub\n        /* \"#utility.yul\":2608:2609   */\n      dup3\n        /* \"#utility.yul\":2605:2686   */\n      gt\n        /* \"#utility.yul\":2602:2604   */\n      iszero\n      tag_79\n      jumpi\n        /* \"#utility.yul\":2689:2707   */\n      tag_80\n      tag_81\n      jump\t// in\n    tag_80:\n        /* \"#utility.yul\":2602:2604   */\n    tag_79:\n        /* \"#utility.yul\":2733:2734   */\n      dup3\n        /* \"#utility.yul\":2730:2731   */\n      dup3\n        /* \"#utility.yul\":2726:2735   */\n      add\n        /* \"#utility.yul\":2719:2735   */\n      swap1\n      pop\n        /* \"#utility.yul\":2480:2741   */\n      swap3\n      swap2\n      pop\n      pop\n      jump\t// out\n        /* \"#utility.yul\":2747:2938   */\n    tag_40:\n      0x00\n        /* \"#utility.yul\":2807:2827   */\n      tag_83\n        /* \"#utility.yul\":2825:2826   */\n      dup3\n        /* \"#utility.yul\":2807:2827   */\n      tag_68\n      jump\t// in\n    tag_83:\n        /* \"#utility.yul\":2802:2827   */\n      swap2\n      pop\n        /* \"#utility.yul\":2841:2861   */\n      tag_84\n        /* \"#utility.yul\":2859:2860   */\n      dup4\n        /* \"#utility.yul\":2841:2861   */\n      tag_68\n      jump\t// in\n    tag_84:\n        /* \"#utility.yul\":2836:2861   */\n      swap3\n      pop\n        /* \"#utility.yul\":2880:2881   */\n      dup3\n        /* \"#utility.yul\":2877:2878   */\n      dup3\n        /* \"#utility.yul\":2874:2882   */\n      lt\n        /* \"#utility.yul\":2871:2873   */\n      iszero\n      tag_85\n      jumpi\n        /* \"#utility.yul\":2885:2903   */\n      tag_86\n      tag_81\n      jump\t// in\n    tag_86:\n        /* \"#utility.yul\":2871:2873   */\n    tag_85:\n        /* \"#utility.yul\":2930:2931   */\n      dup3\n        /* \"#utility.yul\":2927:2928   */\n      dup3\n        /* \"#utility.yul\":2923:2932   */\n      sub\n        /* \"#utility.yul\":2915:2932   */\n      swap1\n      pop\n        /* \"#utility.yul\":2792:2938   */\n      swap3\n      swap2\n      pop\n      pop\n      jump\t// out\n        /* \"#utility.yul\":2944:3040   */\n    tag_87:\n      0x00\n        /* \"#utility.yul\":3010:3034   */\n      tag_89\n        /* \"#utility.yul\":3028:3033   */\n      dup3\n        /* \"#utility.yul\":3010:3034   */\n      tag_90\n      jump\t// in\n    tag_89:\n        /* \"#utility.yul\":2999:3034   */\n      swap1\n      pop\n        /* \"#utility.yul\":2989:3040   */\n      swap2\n      swap1\n      pop\n      jump\t// out\n        /* \"#utility.yul\":3046:3136   */\n    tag_60:\n      0x00\n        /* \"#utility.yul\":3123:3128   */\n      dup2\n        /* \"#utility.yul\":3116:3129   */\n      iszero\n        /* \"#utility.yul\":3109:3130   */\n      iszero\n        /* \"#utility.yul\":3098:3130   */\n      swap1\n      pop\n        /* \"#utility.yul\":3088:3136   */\n      swap2\n      swap1\n      pop\n      jump\t// out\n        /* \"#utility.yul\":3142:3268   */\n    tag_90:\n      0x00\n        /* \"#utility.yul\":3219:3261   */\n      0xffffffffffffffffffffffffffffffffffffffff\n        /* \"#utility.yul\":3212:3217   */\n      dup3\n        /* \"#utility.yul\":3208:3262   */\n      and\n        /* \"#utility.yul\":3197:3262   */\n      swap1\n      pop\n        /* \"#utility.yul\":3187:3268   */\n      swap2\n      swap1\n      pop\n      jump\t// out\n        /* \"#utility.yul\":3274:3351   */\n    tag_68:\n      0x00\n        /* \"#utility.yul\":3340:3345   */\n      dup2\n        /* \"#utility.yul\":3329:3345   */\n      swap1\n      pop\n        /* \"#utility.yul\":3319:3351   */\n      swap2\n      swap1\n      pop\n      jump\t// out\n        /* \"#utility.yul\":3357:3537   */\n    tag_81:\n        /* \"#utility.yul\":3405:3482   */\n      0x4e487b7100000000000000000000000000000000000000000000000000000000\n        /* \"#utility.yul\":3402:3403   */\n      0x00\n        /* \"#utility.yul\":3395:3483   */\n      mstore\n        /* \"#utility.yul\":3502:3506   */\n      0x11\n        /* \"#utility.yul\":3499:3500   */\n      0x04\n        /* \"#utility.yul\":3492:3507   */\n      mstore\n        /* \"#utility.yul\":3526:3530   */\n      0x24\n        /* \"#utility.yul\":3523:3524   */\n      0x00\n        /* \"#utility.yul\":3516:3531   */\n      revert\n        /* \"#utility.yul\":3543:3665   */\n    tag_46:\n        /* \"#utility.yul\":3616:3640   */\n      tag_96\n        /* \"#utility.yul\":3634:3639   */\n      dup2\n        /* \"#utility.yul\":3616:3640   */\n      tag_87\n      jump\t// in\n    tag_96:\n        /* \"#utility.yul\":3609:3614   */\n      dup2\n        /* \"#utility.yul\":3606:3641   */\n      eq\n        /* \"#utility.yul\":3596:3598   */\n      tag_97\n      jumpi\n        /* \"#utility.yul\":3655:3656   */\n      0x00\n        /* \"#utility.yul\":3652:3653   */\n      dup1\n        /* \"#utility.yul\":3645:3657   */\n      revert\n        /* \"#utility.yul\":3596:3598   */\n    tag_97:\n        /* \"#utility.yul\":3586:3665   */\n      pop\n      jump\t// out\n        /* \"#utility.yul\":3671:3793   */\n    tag_50:\n        /* \"#utility.yul\":3744:3768   */\n      tag_99\n        /* \"#utility.yul\":3762:3767   */\n      dup2\n        /* \"#utility.yul\":3744:3768   */\n      tag_68\n      jump\t// in\n    tag_99:\n        /* \"#utility.yul\":3737:3742   */\n      dup2\n        /* \"#utility.yul\":3734:3769   */\n      eq\n        /* \"#utility.yul\":3724:3726   */\n      tag_100\n      jumpi\n        /* \"#utility.yul\":3783:3784   */\n      0x00\n        /* \"#utility.yul\":3780:3781   */\n      dup1\n        /* \"#utility.yul\":3773:3785   */\n      revert\n        /* \"#utility.yul\":3724:3726   */\n    tag_100:\n        /* \"#utility.yul\":3714:3793   */\n      pop\n      jump\t// out\n\n    auxdata: 0xa264697066735822122041a3d48c77c5016664e56a8cf9fbdf411f0888e1dde4770827abb89a26b568d964736f6c63430008000033\n}\n",
				"bytecode": {
					"linkReferences": {},
					"object": "608060405234801561001057600080fd5b506105b1806100206000396000f3fe60806040526004361061004a5760003560e01c8063066842811461004f5780630a4de2d11461007f57806314174f33146100aa57806327e235e3146100c6578063db613e8114610103575b600080fd5b6100696004803603810190610064919061035e565b61012e565b60405161007691906103e5565b60405180910390f35b34801561008b57600080fd5b5061009461018e565b6040516100a19190610420565b60405180910390f35b6100c460048036038101906100bf919061035e565b6101d4565b005b3480156100d257600080fd5b506100ed60048036038101906100e89190610335565b6102ad565b6040516100fa9190610420565b60405180910390f35b34801561010f57600080fd5b506101186102c5565b6040516101259190610420565b60405180910390f35b6000816000803073ffffffffffffffffffffffffffffffffffffffff1673ffffffffffffffffffffffffffffffffffffffff168152602001908152602001600020600082825461017e919061044c565b9250508190555060019050919050565b60008060003073ffffffffffffffffffffffffffffffffffffffff1673ffffffffffffffffffffffffffffffffffffffff16815260200190815260200160002054905090565b806000803073ffffffffffffffffffffffffffffffffffffffff1673ffffffffffffffffffffffffffffffffffffffff168152602001908152602001600020541015610255576040517f08c379a000000000000000000000000000000000000000000000000000000000815260040161024c90610400565b60405180910390fd5b806000803073ffffffffffffffffffffffffffffffffffffffff1673ffffffffffffffffffffffffffffffffffffffff16815260200190815260200160002060008282546102a391906104a2565b9250508190555050565b60006020528060005260406000206000915090505481565b60008060003073ffffffffffffffffffffffffffffffffffffffff1673ffffffffffffffffffffffffffffffffffffffff16815260200190815260200160002054905090565b60008135905061031a8161054d565b92915050565b60008135905061032f81610564565b92915050565b60006020828403121561034757600080fd5b60006103558482850161030b565b91505092915050565b60006020828403121561037057600080fd5b600061037e84828501610320565b91505092915050565b610390816104e8565b82525050565b60006103a360108361043b565b91507f6e6f7420656e6f756768206d6f6e6579000000000000000000000000000000006000830152602082019050919050565b6103df81610514565b82525050565b60006020820190506103fa6000830184610387565b92915050565b6000602082019050818103600083015261041981610396565b9050919050565b600060208201905061043560008301846103d6565b92915050565b600082825260208201905092915050565b600061045782610514565b915061046283610514565b9250827fffffffffffffffffffffffffffffffffffffffffffffffffffffffffffffffff038211156104975761049661051e565b5b828201905092915050565b60006104ad82610514565b91506104b883610514565b9250828210156104cb576104ca61051e565b5b828203905092915050565b60006104e1826104f4565b9050919050565b60008115159050919050565b600073ffffffffffffffffffffffffffffffffffffffff82169050919050565b6000819050919050565b7f4e487b7100000000000000000000000000000000000000000000000000000000600052601160045260246000fd5b610556816104d6565b811461056157600080fd5b50565b61056d81610514565b811461057857600080fd5b5056fea264697066735822122041a3d48c77c5016664e56a8cf9fbdf411f0888e1dde4770827abb89a26b568d964736f6c63430008000033",
					"opcodes": "PUSH1 0x80 PUSH1 0x40 MSTORE CALLVALUE DUP1 ISZERO PUSH2 0x10 JUMPI PUSH1 0x0 DUP1 REVERT JUMPDEST POP PUSH2 0x5B1 DUP1 PUSH2 0x20 PUSH1 0x0 CODECOPY PUSH1 0x0 RETURN INVALID PUSH1 0x80 PUSH1 0x40 MSTORE PUSH1 0x4 CALLDATASIZE LT PUSH2 0x4A JUMPI PUSH1 0x0 CALLDATALOAD PUSH1 0xE0 SHR DUP1 PUSH4 0x6684281 EQ PUSH2 0x4F JUMPI DUP1 PUSH4 0xA4DE2D1 EQ PUSH2 0x7F JUMPI DUP1 PUSH4 0x14174F33 EQ PUSH2 0xAA JUMPI DUP1 PUSH4 0x27E235E3 EQ PUSH2 0xC6 JUMPI DUP1 PUSH4 0xDB613E81 EQ PUSH2 0x103 JUMPI JUMPDEST PUSH1 0x0 DUP1 REVERT JUMPDEST PUSH2 0x69 PUSH1 0x4 DUP1 CALLDATASIZE SUB DUP2 ADD SWAP1 PUSH2 0x64 SWAP2 SWAP1 PUSH2 0x35E JUMP JUMPDEST PUSH2 0x12E JUMP JUMPDEST PUSH1 0x40 MLOAD PUSH2 0x76 SWAP2 SWAP1 PUSH2 0x3E5 JUMP JUMPDEST PUSH1 0x40 MLOAD DUP1 SWAP2 SUB SWAP1 RETURN JUMPDEST CALLVALUE DUP1 ISZERO PUSH2 0x8B JUMPI PUSH1 0x0 DUP1 REVERT JUMPDEST POP PUSH2 0x94 PUSH2 0x18E JUMP JUMPDEST PUSH1 0x40 MLOAD PUSH2 0xA1 SWAP2 SWAP1 PUSH2 0x420 JUMP JUMPDEST PUSH1 0x40 MLOAD DUP1 SWAP2 SUB SWAP1 RETURN JUMPDEST PUSH2 0xC4 PUSH1 0x4 DUP1 CALLDATASIZE SUB DUP2 ADD SWAP1 PUSH2 0xBF SWAP2 SWAP1 PUSH2 0x35E JUMP JUMPDEST PUSH2 0x1D4 JUMP JUMPDEST STOP JUMPDEST CALLVALUE DUP1 ISZERO PUSH2 0xD2 JUMPI PUSH1 0x0 DUP1 REVERT JUMPDEST POP PUSH2 0xED PUSH1 0x4 DUP1 CALLDATASIZE SUB DUP2 ADD SWAP1 PUSH2 0xE8 SWAP2 SWAP1 PUSH2 0x335 JUMP JUMPDEST PUSH2 0x2AD JUMP JUMPDEST PUSH1 0x40 MLOAD PUSH2 0xFA SWAP2 SWAP1 PUSH2 0x420 JUMP JUMPDEST PUSH1 0x40 MLOAD DUP1 SWAP2 SUB SWAP1 RETURN JUMPDEST CALLVALUE DUP1 ISZERO PUSH2 0x10F JUMPI PUSH1 0x0 DUP1 REVERT JUMPDEST POP PUSH2 0x118 PUSH2 0x2C5 JUMP JUMPDEST PUSH1 0x40 MLOAD PUSH2 0x125 SWAP2 SWAP1 PUSH2 0x420 JUMP JUMPDEST PUSH1 0x40 MLOAD DUP1 SWAP2 SUB SWAP1 RETURN JUMPDEST PUSH1 0x0 DUP2 PUSH1 0x0 DUP1 ADDRESS PUSH20 0xFFFFFFFFFFFFFFFFFFFFFFFFFFFFFFFFFFFFFFFF AND PUSH20 0xFFFFFFFFFFFFFFFFFFFFFFFFFFFFFFFFFFFFFFFF AND DUP2 MSTORE PUSH1 0x20 ADD SWAP1 DUP2 MSTORE PUSH1 0x20 ADD PUSH1 0x0 KECCAK256 PUSH1 0x0 DUP3 DUP3 SLOAD PUSH2 0x17E SWAP2 SWAP1 PUSH2 0x44C JUMP JUMPDEST SWAP3 POP POP DUP2 SWAP1 SSTORE POP PUSH1 0x1 SWAP1 POP SWAP2 SWAP1 POP JUMP JUMPDEST PUSH1 0x0 DUP1 PUSH1 0x0 ADDRESS PUSH20 0xFFFFFFFFFFFFFFFFFFFFFFFFFFFFFFFFFFFFFFFF AND PUSH20 0xFFFFFFFFFFFFFFFFFFFFFFFFFFFFFFFFFFFFFFFF AND DUP2 MSTORE PUSH1 0x20 ADD SWAP1 DUP2 MSTORE PUSH1 0x20 ADD PUSH1 0x0 KECCAK256 SLOAD SWAP1 POP SWAP1 JUMP JUMPDEST DUP1 PUSH1 0x0 DUP1 ADDRESS PUSH20 0xFFFFFFFFFFFFFFFFFFFFFFFFFFFFFFFFFFFFFFFF AND PUSH20 0xFFFFFFFFFFFFFFFFFFFFFFFFFFFFFFFFFFFFFFFF AND DUP2 MSTORE PUSH1 0x20 ADD SWAP1 DUP2 MSTORE PUSH1 0x20 ADD PUSH1 0x0 KECCAK256 SLOAD LT ISZERO PUSH2 0x255 JUMPI PUSH1 0x40 MLOAD PUSH32 0x8C379A000000000000000000000000000000000000000000000000000000000 DUP2 MSTORE PUSH1 0x4 ADD PUSH2 0x24C SWAP1 PUSH2 0x400 JUMP JUMPDEST PUSH1 0x40 MLOAD DUP1 SWAP2 SUB SWAP1 REVERT JUMPDEST DUP1 PUSH1 0x0 DUP1 ADDRESS PUSH20 0xFFFFFFFFFFFFFFFFFFFFFFFFFFFFFFFFFFFFFFFF AND PUSH20 0xFFFFFFFFFFFFFFFFFFFFFFFFFFFFFFFFFFFFFFFF AND DUP2 MSTORE PUSH1 0x20 ADD SWAP1 DUP2 MSTORE PUSH1 0x20 ADD PUSH1 0x0 KECCAK256 PUSH1 0x0 DUP3 DUP3 SLOAD PUSH2 0x2A3 SWAP2 SWAP1 PUSH2 0x4A2 JUMP JUMPDEST SWAP3 POP POP DUP2 SWAP1 SSTORE POP POP JUMP JUMPDEST PUSH1 0x0 PUSH1 0x20 MSTORE DUP1 PUSH1 0x0 MSTORE PUSH1 0x40 PUSH1 0x0 KECCAK256 PUSH1 0x0 SWAP2 POP SWAP1 POP SLOAD DUP2 JUMP JUMPDEST PUSH1 0x0 DUP1 PUSH1 0x0 ADDRESS PUSH20 0xFFFFFFFFFFFFFFFFFFFFFFFFFFFFFFFFFFFFFFFF AND PUSH20 0xFFFFFFFFFFFFFFFFFFFFFFFFFFFFFFFFFFFFFFFF AND DUP2 MSTORE PUSH1 0x20 ADD SWAP1 DUP2 MSTORE PUSH1 0x20 ADD PUSH1 0x0 KECCAK256 SLOAD SWAP1 POP SWAP1 JUMP JUMPDEST PUSH1 0x0 DUP2 CALLDATALOAD SWAP1 POP PUSH2 0x31A DUP2 PUSH2 0x54D JUMP JUMPDEST SWAP3 SWAP2 POP POP JUMP JUMPDEST PUSH1 0x0 DUP2 CALLDATALOAD SWAP1 POP PUSH2 0x32F DUP2 PUSH2 0x564 JUMP JUMPDEST SWAP3 SWAP2 POP POP JUMP JUMPDEST PUSH1 0x0 PUSH1 0x20 DUP3 DUP5 SUB SLT ISZERO PUSH2 0x347 JUMPI PUSH1 0x0 DUP1 REVERT JUMPDEST PUSH1 0x0 PUSH2 0x355 DUP5 DUP3 DUP6 ADD PUSH2 0x30B JUMP JUMPDEST SWAP2 POP POP SWAP3 SWAP2 POP POP JUMP JUMPDEST PUSH1 0x0 PUSH1 0x20 DUP3 DUP5 SUB SLT ISZERO PUSH2 0x370 JUMPI PUSH1 0x0 DUP1 REVERT JUMPDEST PUSH1 0x0 PUSH2 0x37E DUP5 DUP3 DUP6 ADD PUSH2 0x320 JUMP JUMPDEST SWAP2 POP POP SWAP3 SWAP2 POP POP JUMP JUMPDEST PUSH2 0x390 DUP2 PUSH2 0x4E8 JUMP JUMPDEST DUP3 MSTORE POP POP JUMP JUMPDEST PUSH1 0x0 PUSH2 0x3A3 PUSH1 0x10 DUP4 PUSH2 0x43B JUMP JUMPDEST SWAP2 POP PUSH32 0x6E6F7420656E6F756768206D6F6E657900000000000000000000000000000000 PUSH1 0x0 DUP4 ADD MSTORE PUSH1 0x20 DUP3 ADD SWAP1 POP SWAP2 SWAP1 POP JUMP JUMPDEST PUSH2 0x3DF DUP2 PUSH2 0x514 JUMP JUMPDEST DUP3 MSTORE POP POP JUMP JUMPDEST PUSH1 0x0 PUSH1 0x20 DUP3 ADD SWAP1 POP PUSH2 0x3FA PUSH1 0x0 DUP4 ADD DUP5 PUSH2 0x387 JUMP JUMPDEST SWAP3 SWAP2 POP POP JUMP JUMPDEST PUSH1 0x0 PUSH1 0x20 DUP3 ADD SWAP1 POP DUP2 DUP2 SUB PUSH1 0x0 DUP4 ADD MSTORE PUSH2 0x419 DUP2 PUSH2 0x396 JUMP JUMPDEST SWAP1 POP SWAP2 SWAP1 POP JUMP JUMPDEST PUSH1 0x0 PUSH1 0x20 DUP3 ADD SWAP1 POP PUSH2 0x435 PUSH1 0x0 DUP4 ADD DUP5 PUSH2 0x3D6 JUMP JUMPDEST SWAP3 SWAP2 POP POP JUMP JUMPDEST PUSH1 0x0 DUP3 DUP3 MSTORE PUSH1 0x20 DUP3 ADD SWAP1 POP SWAP3 SWAP2 POP POP JUMP JUMPDEST PUSH1 0x0 PUSH2 0x457 DUP3 PUSH2 0x514 JUMP JUMPDEST SWAP2 POP PUSH2 0x462 DUP4 PUSH2 0x514 JUMP JUMPDEST SWAP3 POP DUP3 PUSH32 0xFFFFFFFFFFFFFFFFFFFFFFFFFFFFFFFFFFFFFFFFFFFFFFFFFFFFFFFFFFFFFFFF SUB DUP3 GT ISZERO PUSH2 0x497 JUMPI PUSH2 0x496 PUSH2 0x51E JUMP JUMPDEST JUMPDEST DUP3 DUP3 ADD SWAP1 POP SWAP3 SWAP2 POP POP JUMP JUMPDEST PUSH1 0x0 PUSH2 0x4AD DUP3 PUSH2 0x514 JUMP JUMPDEST SWAP2 POP PUSH2 0x4B8 DUP4 PUSH2 0x514 JUMP JUMPDEST SWAP3 POP DUP3 DUP3 LT ISZERO PUSH2 0x4CB JUMPI PUSH2 0x4CA PUSH2 0x51E JUMP JUMPDEST JUMPDEST DUP3 DUP3 SUB SWAP1 POP SWAP3 SWAP2 POP POP JUMP JUMPDEST PUSH1 0x0 PUSH2 0x4E1 DUP3 PUSH2 0x4F4 JUMP JUMPDEST SWAP1 POP SWAP2 SWAP1 POP JUMP JUMPDEST PUSH1 0x0 DUP2 ISZERO ISZERO SWAP1 POP SWAP2 SWAP1 POP JUMP JUMPDEST PUSH1 0x0 PUSH20 0xFFFFFFFFFFFFFFFFFFFFFFFFFFFFFFFFFFFFFFFF DUP3 AND SWAP1 POP SWAP2 SWAP1 POP JUMP JUMPDEST PUSH1 0x0 DUP2 SWAP1 POP SWAP2 SWAP1 POP JUMP JUMPDEST PUSH32 0x4E487B7100000000000000000000000000000000000000000000000000000000 PUSH1 0x0 MSTORE PUSH1 0x11 PUSH1 0x4 MSTORE PUSH1 0x24 PUSH1 0x0 REVERT JUMPDEST PUSH2 0x556 DUP2 PUSH2 0x4D6 JUMP JUMPDEST DUP2 EQ PUSH2 0x561 JUMPI PUSH1 0x0 DUP1 REVERT JUMPDEST POP JUMP JUMPDEST PUSH2 0x56D DUP2 PUSH2 0x514 JUMP JUMPDEST DUP2 EQ PUSH2 0x578 JUMPI PUSH1 0x0 DUP1 REVERT JUMPDEST POP JUMP INVALID LOG2 PUSH5 0x6970667358 0x22 SLT KECCAK256 COINBASE LOG3 0xD4 DUP13 PUSH24 0xC5016664E56A8CF9FBDF411F0888E1DDE4770827ABB89A26 0xB5 PUSH9 0xD964736F6C63430008 STOP STOP CALLER "
				},
				"gasEstimates": {
					"creation": {
						"codeDepositCost": "291400",
						"executionCost": "331",
						"totalCost": "291731"
					},
					"external": {
						"balances(address)": "1558",
						"getAccount()": "1292",
						"queryRecord()": "1226",
						"saveMoney(uint256)": "infinite",
						"withDraw(uint256)": "infinite"
					}
				},
				"methodIdentifiers": {
					"balances(address)": "27e235e3",
					"getAccount()": "db613e81",
					"queryRecord()": "0a4de2d1",
					"saveMoney(uint256)": "06684281",
					"withDraw(uint256)": "14174f33"
				}
			},
			"userdoc": {
				"kind": "user",
				"methods": {},
				"version": 1
			}
		}
	}
}