{
	"contracts/Counter.sol": {
		"Counter": {
			"abi": [
				{
					"inputs": [],
					"stateMutability": "nonpayable",
					"type": "constructor"
				},
				{
					"inputs": [
						{
							"internalType": "address",
							"name": "",
							"type": "address"
						}
					],
					"name": "balances",
					"outputs": [
						{
							"internalType": "uint256",
							"name": "",
							"type": "uint256"
						}
					],
					"stateMutability": "view",
					"type": "function"
				},
				{
					"inputs": [],
					"name": "getAccount",
					"outputs": [
						{
							"internalType": "uint256",
							"name": "",
							"type": "uint256"
						}
					],
					"stateMutability": "view",
					"type": "function"
				},
				{
					"inputs": [],
					"name": "owner",
					"outputs": [
						{
							"internalType": "address",
							"name": "",
							"type": "address"
						}
					],
					"stateMutability": "view",
					"type": "function"
				},
				{
					"inputs": [],
					"name": "queryRecord",
					"outputs": [
						{
							"internalType": "uint256",
							"name": "",
							"type": "uint256"
						}
					],
					"stateMutability": "view",
					"type": "function"
				},
				{
					"inputs": [
						{
							"internalType": "uint256",
							"name": "_accout",
							"type": "uint256"
						}
					],
					"name": "saveMoney",
					"outputs": [
						{
							"internalType": "bool",
							"name": "",
							"type": "bool"
						}
					],
					"stateMutability": "payable",
					"type": "function"
				},
				{
					"inputs": [],
					"name": "withDraw",
					"outputs": [],
					"stateMutability": "payable",
					"type": "function"
				}
			],
			"devdoc": {
				"kind": "dev",
				"methods": {},
				"version": 1
			},
			"evm": {
				"assembly": "    /* \"contracts/Counter.sol\":61:807  contract Counter {\r... */\n  mstore(0x40, 0x80)\n    /* \"contracts/Counter.sol\":166:225  constructor(){\r... */\n  callvalue\n  dup1\n  iszero\n  tag_1\n  jumpi\n  0x00\n  dup1\n  revert\ntag_1:\n  pop\n    /* \"contracts/Counter.sol\":206:216  msg.sender */\n  caller\n    /* \"contracts/Counter.sol\":190:195  owner */\n  0x00\n  dup1\n    /* \"contracts/Counter.sol\":190:217  owner = payable(msg.sender) */\n  0x0100\n  exp\n  dup2\n  sload\n  dup2\n  0xffffffffffffffffffffffffffffffffffffffff\n  mul\n  not\n  and\n  swap1\n  dup4\n  0xffffffffffffffffffffffffffffffffffffffff\n  and\n  mul\n  or\n  swap1\n  sstore\n  pop\n    /* \"contracts/Counter.sol\":61:807  contract Counter {\r... */\n  dataSize(sub_0)\n  dup1\n  dataOffset(sub_0)\n  0x00\n  codecopy\n  0x00\n  return\nstop\n\nsub_0: assembly {\n        /* \"contracts/Counter.sol\":61:807  contract Counter {\r... */\n      mstore(0x40, 0x80)\n      jumpi(tag_1, lt(calldatasize, 0x04))\n      shr(0xe0, calldataload(0x00))\n      dup1\n      0x06684281\n      eq\n      tag_2\n      jumpi\n      dup1\n      0x0a4de2d1\n      eq\n      tag_3\n      jumpi\n      dup1\n      0x0fdb1c10\n      eq\n      tag_4\n      jumpi\n      dup1\n      0x27e235e3\n      eq\n      tag_5\n      jumpi\n      dup1\n      0x8da5cb5b\n      eq\n      tag_6\n      jumpi\n      dup1\n      0xdb613e81\n      eq\n      tag_7\n      jumpi\n    tag_1:\n      0x00\n      dup1\n      revert\n        /* \"contracts/Counter.sol\":509:644  function saveMoney(uint _accout) external payable returns(bool){\r... */\n    tag_2:\n      tag_8\n      0x04\n      dup1\n      calldatasize\n      sub\n      dup2\n      add\n      swap1\n      tag_9\n      swap2\n      swap1\n      tag_10\n      jump\t// in\n    tag_9:\n      tag_11\n      jump\t// in\n    tag_8:\n      mload(0x40)\n      tag_12\n      swap2\n      swap1\n      tag_13\n      jump\t// in\n    tag_12:\n      mload(0x40)\n      dup1\n      swap2\n      sub\n      swap1\n      return\n        /* \"contracts/Counter.sol\":394:487  function queryRecord() public view returns(uint256) {\r... */\n    tag_3:\n      callvalue\n      dup1\n      iszero\n      tag_14\n      jumpi\n      0x00\n      dup1\n      revert\n    tag_14:\n      pop\n      tag_15\n      tag_16\n      jump\t// in\n    tag_15:\n      mload(0x40)\n      tag_17\n      swap2\n      swap1\n      tag_18\n      jump\t// in\n    tag_17:\n      mload(0x40)\n      dup1\n      swap2\n      sub\n      swap1\n      return\n        /* \"contracts/Counter.sol\":666:800  function withDraw() external payable{\r... */\n    tag_4:\n      tag_19\n      tag_20\n      jump\t// in\n    tag_19:\n      stop\n        /* \"contracts/Counter.sol\":114:157  mapping(address => uint256) public balances */\n    tag_5:\n      callvalue\n      dup1\n      iszero\n      tag_21\n      jumpi\n      0x00\n      dup1\n      revert\n    tag_21:\n      pop\n      tag_22\n      0x04\n      dup1\n      calldatasize\n      sub\n      dup2\n      add\n      swap1\n      tag_23\n      swap2\n      swap1\n      tag_24\n      jump\t// in\n    tag_23:\n      tag_25\n      jump\t// in\n    tag_22:\n      mload(0x40)\n      tag_26\n      swap2\n      swap1\n      tag_18\n      jump\t// in\n    tag_26:\n      mload(0x40)\n      dup1\n      swap2\n      sub\n      swap1\n      return\n        /* \"contracts/Counter.sol\":87:107  address public owner */\n    tag_6:\n      callvalue\n      dup1\n      iszero\n      tag_27\n      jumpi\n      0x00\n      dup1\n      revert\n    tag_27:\n      pop\n      tag_28\n      tag_29\n      jump\t// in\n    tag_28:\n      mload(0x40)\n      tag_30\n      swap2\n      swap1\n      tag_31\n      jump\t// in\n    tag_30:\n      mload(0x40)\n      dup1\n      swap2\n      sub\n      swap1\n      return\n        /* \"contracts/Counter.sol\":247:342  function getAccount() public view returns (uint) {\r... */\n    tag_7:\n      callvalue\n      dup1\n      iszero\n      tag_32\n      jumpi\n      0x00\n      dup1\n      revert\n    tag_32:\n      pop\n      tag_33\n      tag_34\n      jump\t// in\n    tag_33:\n      mload(0x40)\n      tag_35\n      swap2\n      swap1\n      tag_18\n      jump\t// in\n    tag_35:\n      mload(0x40)\n      dup1\n      swap2\n      sub\n      swap1\n      return\n        /* \"contracts/Counter.sol\":509:644  function saveMoney(uint _accout) external payable returns(bool){\r... */\n    tag_11:\n        /* \"contracts/Counter.sol\":567:571  bool */\n      0x00\n        /* \"contracts/Counter.sol\":607:614  _accout */\n      dup2\n        /* \"contracts/Counter.sol\":583:591  balances */\n      0x01\n        /* \"contracts/Counter.sol\":583:603  balances[msg.sender] */\n      0x00\n        /* \"contracts/Counter.sol\":592:602  msg.sender */\n      caller\n        /* \"contracts/Counter.sol\":583:603  balances[msg.sender] */\n      0xffffffffffffffffffffffffffffffffffffffff\n      and\n      0xffffffffffffffffffffffffffffffffffffffff\n      and\n      dup2\n      mstore\n      0x20\n      add\n      swap1\n      dup2\n      mstore\n      0x20\n      add\n      0x00\n      keccak256\n      0x00\n        /* \"contracts/Counter.sol\":583:614  balances[msg.sender] += _accout */\n      dup3\n      dup3\n      sload\n      tag_37\n      swap2\n      swap1\n      tag_38\n      jump\t// in\n    tag_37:\n      swap3\n      pop\n      pop\n      dup2\n      swap1\n      sstore\n      pop\n        /* \"contracts/Counter.sol\":632:636  true */\n      0x01\n        /* \"contracts/Counter.sol\":625:636  return true */\n      swap1\n      pop\n        /* \"contracts/Counter.sol\":509:644  function saveMoney(uint _accout) external payable returns(bool){\r... */\n      swap2\n      swap1\n      pop\n      jump\t// out\n        /* \"contracts/Counter.sol\":394:487  function queryRecord() public view returns(uint256) {\r... */\n    tag_16:\n        /* \"contracts/Counter.sol\":437:444  uint256 */\n      0x00\n        /* \"contracts/Counter.sol\":464:472  balances */\n      0x01\n        /* \"contracts/Counter.sol\":464:479  balances[owner] */\n      0x00\n        /* \"contracts/Counter.sol\":473:478  owner */\n      dup1\n      0x00\n      swap1\n      sload\n      swap1\n      0x0100\n      exp\n      swap1\n      div\n      0xffffffffffffffffffffffffffffffffffffffff\n      and\n        /* \"contracts/Counter.sol\":464:479  balances[owner] */\n      0xffffffffffffffffffffffffffffffffffffffff\n      and\n      0xffffffffffffffffffffffffffffffffffffffff\n      and\n      dup2\n      mstore\n      0x20\n      add\n      swap1\n      dup2\n      mstore\n      0x20\n      add\n      0x00\n      keccak256\n      sload\n        /* \"contracts/Counter.sol\":457:479  return balances[owner] */\n      swap1\n      pop\n        /* \"contracts/Counter.sol\":394:487  function queryRecord() public view returns(uint256) {\r... */\n      swap1\n      jump\t// out\n        /* \"contracts/Counter.sol\":666:800  function withDraw() external payable{\r... */\n    tag_20:\n        /* \"contracts/Counter.sol\":713:725  uint amounts */\n      0x00\n        /* \"contracts/Counter.sol\":728:749  address(this).balance */\n      selfbalance\n        /* \"contracts/Counter.sol\":713:749  uint amounts = address(this).balance */\n      swap1\n      pop\n        /* \"contracts/Counter.sol\":768:773  owner */\n      0x00\n      dup1\n      sload\n      swap1\n      0x0100\n      exp\n      swap1\n      div\n      0xffffffffffffffffffffffffffffffffffffffff\n      and\n        /* \"contracts/Counter.sol\":760:783  payable(owner).transfer */\n      0xffffffffffffffffffffffffffffffffffffffff\n      and\n        /* \"contracts/Counter.sol\":760:792  payable(owner).transfer(amounts) */\n      0x08fc\n        /* \"contracts/Counter.sol\":784:791  amounts */\n      dup3\n        /* \"contracts/Counter.sol\":760:792  payable(owner).transfer(amounts) */\n      swap1\n      dup2\n      iszero\n      mul\n      swap1\n      mload(0x40)\n      0x00\n      mload(0x40)\n      dup1\n      dup4\n      sub\n      dup2\n      dup6\n      dup9\n      dup9\n      call\n      swap4\n      pop\n      pop\n      pop\n      pop\n      iszero\n      dup1\n      iszero\n      tag_42\n      jumpi\n      returndatasize\n      0x00\n      dup1\n      returndatacopy\n      revert(0x00, returndatasize)\n    tag_42:\n      pop\n        /* \"contracts/Counter.sol\":666:800  function withDraw() external payable{\r... */\n      pop\n      jump\t// out\n        /* \"contracts/Counter.sol\":114:157  mapping(address => uint256) public balances */\n    tag_25:\n      mstore(0x20, 0x01)\n      dup1\n      0x00\n      mstore\n      keccak256(0x00, 0x40)\n      0x00\n      swap2\n      pop\n      swap1\n      pop\n      sload\n      dup2\n      jump\t// out\n        /* \"contracts/Counter.sol\":87:107  address public owner */\n    tag_29:\n      0x00\n      dup1\n      sload\n      swap1\n      0x0100\n      exp\n      swap1\n      div\n      0xffffffffffffffffffffffffffffffffffffffff\n      and\n      dup2\n      jump\t// out\n        /* \"contracts/Counter.sol\":247:342  function getAccount() public view returns (uint) {\r... */\n    tag_34:\n        /* \"contracts/Counter.sol\":290:294  uint */\n      0x00\n        /* \"contracts/Counter.sol\":314:322  balances */\n      0x01\n        /* \"contracts/Counter.sol\":314:334  balances[msg.sender] */\n      0x00\n        /* \"contracts/Counter.sol\":323:333  msg.sender */\n      caller\n        /* \"contracts/Counter.sol\":314:334  balances[msg.sender] */\n      0xffffffffffffffffffffffffffffffffffffffff\n      and\n      0xffffffffffffffffffffffffffffffffffffffff\n      and\n      dup2\n      mstore\n      0x20\n      add\n      swap1\n      dup2\n      mstore\n      0x20\n      add\n      0x00\n      keccak256\n      sload\n        /* \"contracts/Counter.sol\":307:334  return balances[msg.sender] */\n      swap1\n      pop\n        /* \"contracts/Counter.sol\":247:342  function getAccount() public view returns (uint) {\r... */\n      swap1\n      jump\t// out\n        /* \"#utility.yul\":7:146   */\n    tag_45:\n      0x00\n        /* \"#utility.yul\":91:97   */\n      dup2\n        /* \"#utility.yul\":78:98   */\n      calldataload\n        /* \"#utility.yul\":69:98   */\n      swap1\n      pop\n        /* \"#utility.yul\":107:140   */\n      tag_47\n        /* \"#utility.yul\":134:139   */\n      dup2\n        /* \"#utility.yul\":107:140   */\n      tag_48\n      jump\t// in\n    tag_47:\n        /* \"#utility.yul\":59:146   */\n      swap3\n      swap2\n      pop\n      pop\n      jump\t// out\n        /* \"#utility.yul\":152:291   */\n    tag_49:\n      0x00\n        /* \"#utility.yul\":236:242   */\n      dup2\n        /* \"#utility.yul\":223:243   */\n      calldataload\n        /* \"#utility.yul\":214:243   */\n      swap1\n      pop\n        /* \"#utility.yul\":252:285   */\n      tag_51\n        /* \"#utility.yul\":279:284   */\n      dup2\n        /* \"#utility.yul\":252:285   */\n      tag_52\n      jump\t// in\n    tag_51:\n        /* \"#utility.yul\":204:291   */\n      swap3\n      swap2\n      pop\n      pop\n      jump\t// out\n        /* \"#utility.yul\":297:559   */\n    tag_24:\n      0x00\n        /* \"#utility.yul\":405:407   */\n      0x20\n        /* \"#utility.yul\":393:402   */\n      dup3\n        /* \"#utility.yul\":384:391   */\n      dup5\n        /* \"#utility.yul\":380:403   */\n      sub\n        /* \"#utility.yul\":376:408   */\n      slt\n        /* \"#utility.yul\":373:375   */\n      iszero\n      tag_54\n      jumpi\n        /* \"#utility.yul\":421:422   */\n      0x00\n        /* \"#utility.yul\":418:419   */\n      dup1\n        /* \"#utility.yul\":411:423   */\n      revert\n        /* \"#utility.yul\":373:375   */\n    tag_54:\n        /* \"#utility.yul\":464:465   */\n      0x00\n        /* \"#utility.yul\":489:542   */\n      tag_55\n        /* \"#utility.yul\":534:541   */\n      dup5\n        /* \"#utility.yul\":525:531   */\n      dup3\n        /* \"#utility.yul\":514:523   */\n      dup6\n        /* \"#utility.yul\":510:532   */\n      add\n        /* \"#utility.yul\":489:542   */\n      tag_45\n      jump\t// in\n    tag_55:\n        /* \"#utility.yul\":479:542   */\n      swap2\n      pop\n        /* \"#utility.yul\":435:552   */\n      pop\n        /* \"#utility.yul\":363:559   */\n      swap3\n      swap2\n      pop\n      pop\n      jump\t// out\n        /* \"#utility.yul\":565:827   */\n    tag_10:\n      0x00\n        /* \"#utility.yul\":673:675   */\n      0x20\n        /* \"#utility.yul\":661:670   */\n      dup3\n        /* \"#utility.yul\":652:659   */\n      dup5\n        /* \"#utility.yul\":648:671   */\n      sub\n        /* \"#utility.yul\":644:676   */\n      slt\n        /* \"#utility.yul\":641:643   */\n      iszero\n      tag_57\n      jumpi\n        /* \"#utility.yul\":689:690   */\n      0x00\n        /* \"#utility.yul\":686:687   */\n      dup1\n        /* \"#utility.yul\":679:691   */\n      revert\n        /* \"#utility.yul\":641:643   */\n    tag_57:\n        /* \"#utility.yul\":732:733   */\n      0x00\n        /* \"#utility.yul\":757:810   */\n      tag_58\n        /* \"#utility.yul\":802:809   */\n      dup5\n        /* \"#utility.yul\":793:799   */\n      dup3\n        /* \"#utility.yul\":782:791   */\n      dup6\n        /* \"#utility.yul\":778:800   */\n      add\n        /* \"#utility.yul\":757:810   */\n      tag_49\n      jump\t// in\n    tag_58:\n        /* \"#utility.yul\":747:810   */\n      swap2\n      pop\n        /* \"#utility.yul\":703:820   */\n      pop\n        /* \"#utility.yul\":631:827   */\n      swap3\n      swap2\n      pop\n      pop\n      jump\t// out\n        /* \"#utility.yul\":833:951   */\n    tag_59:\n        /* \"#utility.yul\":920:944   */\n      tag_61\n        /* \"#utility.yul\":938:943   */\n      dup2\n        /* \"#utility.yul\":920:944   */\n      tag_62\n      jump\t// in\n    tag_61:\n        /* \"#utility.yul\":915:918   */\n      dup3\n        /* \"#utility.yul\":908:945   */\n      mstore\n        /* \"#utility.yul\":898:951   */\n      pop\n      pop\n      jump\t// out\n        /* \"#utility.yul\":957:1066   */\n    tag_63:\n        /* \"#utility.yul\":1038:1059   */\n      tag_65\n        /* \"#utility.yul\":1053:1058   */\n      dup2\n        /* \"#utility.yul\":1038:1059   */\n      tag_66\n      jump\t// in\n    tag_65:\n        /* \"#utility.yul\":1033:1036   */\n      dup3\n        /* \"#utility.yul\":1026:1060   */\n      mstore\n        /* \"#utility.yul\":1016:1066   */\n      pop\n      pop\n      jump\t// out\n        /* \"#utility.yul\":1072:1190   */\n    tag_67:\n        /* \"#utility.yul\":1159:1183   */\n      tag_69\n        /* \"#utility.yul\":1177:1182   */\n      dup2\n        /* \"#utility.yul\":1159:1183   */\n      tag_70\n      jump\t// in\n    tag_69:\n        /* \"#utility.yul\":1154:1157   */\n      dup3\n        /* \"#utility.yul\":1147:1184   */\n      mstore\n        /* \"#utility.yul\":1137:1190   */\n      pop\n      pop\n      jump\t// out\n        /* \"#utility.yul\":1196:1418   */\n    tag_31:\n      0x00\n        /* \"#utility.yul\":1327:1329   */\n      0x20\n        /* \"#utility.yul\":1316:1325   */\n      dup3\n        /* \"#utility.yul\":1312:1330   */\n      add\n        /* \"#utility.yul\":1304:1330   */\n      swap1\n      pop\n        /* \"#utility.yul\":1340:1411   */\n      tag_72\n        /* \"#utility.yul\":1408:1409   */\n      0x00\n        /* \"#utility.yul\":1397:1406   */\n      dup4\n        /* \"#utility.yul\":1393:1410   */\n      add\n        /* \"#utility.yul\":1384:1390   */\n      dup5\n        /* \"#utility.yul\":1340:1411   */\n      tag_59\n      jump\t// in\n    tag_72:\n        /* \"#utility.yul\":1294:1418   */\n      swap3\n      swap2\n      pop\n      pop\n      jump\t// out\n        /* \"#utility.yul\":1424:1634   */\n    tag_13:\n      0x00\n        /* \"#utility.yul\":1549:1551   */\n      0x20\n        /* \"#utility.yul\":1538:1547   */\n      dup3\n        /* \"#utility.yul\":1534:1552   */\n      add\n        /* \"#utility.yul\":1526:1552   */\n      swap1\n      pop\n        /* \"#utility.yul\":1562:1627   */\n      tag_74\n        /* \"#utility.yul\":1624:1625   */\n      0x00\n        /* \"#utility.yul\":1613:1622   */\n      dup4\n        /* \"#utility.yul\":1609:1626   */\n      add\n        /* \"#utility.yul\":1600:1606   */\n      dup5\n        /* \"#utility.yul\":1562:1627   */\n      tag_63\n      jump\t// in\n    tag_74:\n        /* \"#utility.yul\":1516:1634   */\n      swap3\n      swap2\n      pop\n      pop\n      jump\t// out\n        /* \"#utility.yul\":1640:1862   */\n    tag_18:\n      0x00\n        /* \"#utility.yul\":1771:1773   */\n      0x20\n        /* \"#utility.yul\":1760:1769   */\n      dup3\n        /* \"#utility.yul\":1756:1774   */\n      add\n        /* \"#utility.yul\":1748:1774   */\n      swap1\n      pop\n        /* \"#utility.yul\":1784:1855   */\n      tag_76\n        /* \"#utility.yul\":1852:1853   */\n      0x00\n        /* \"#utility.yul\":1841:1850   */\n      dup4\n        /* \"#utility.yul\":1837:1854   */\n      add\n        /* \"#utility.yul\":1828:1834   */\n      dup5\n        /* \"#utility.yul\":1784:1855   */\n      tag_67\n      jump\t// in\n    tag_76:\n        /* \"#utility.yul\":1738:1862   */\n      swap3\n      swap2\n      pop\n      pop\n      jump\t// out\n        /* \"#utility.yul\":1868:2173   */\n    tag_38:\n      0x00\n        /* \"#utility.yul\":1927:1947   */\n      tag_78\n        /* \"#utility.yul\":1945:1946   */\n      dup3\n        /* \"#utility.yul\":1927:1947   */\n      tag_70\n      jump\t// in\n    tag_78:\n        /* \"#utility.yul\":1922:1947   */\n      swap2\n      pop\n        /* \"#utility.yul\":1961:1981   */\n      tag_79\n        /* \"#utility.yul\":1979:1980   */\n      dup4\n        /* \"#utility.yul\":1961:1981   */\n      tag_70\n      jump\t// in\n    tag_79:\n        /* \"#utility.yul\":1956:1981   */\n      swap3\n      pop\n        /* \"#utility.yul\":2115:2116   */\n      dup3\n        /* \"#utility.yul\":2047:2113   */\n      0xffffffffffffffffffffffffffffffffffffffffffffffffffffffffffffffff\n        /* \"#utility.yul\":2043:2117   */\n      sub\n        /* \"#utility.yul\":2040:2041   */\n      dup3\n        /* \"#utility.yul\":2037:2118   */\n      gt\n        /* \"#utility.yul\":2034:2036   */\n      iszero\n      tag_80\n      jumpi\n        /* \"#utility.yul\":2121:2139   */\n      tag_81\n      tag_82\n      jump\t// in\n    tag_81:\n        /* \"#utility.yul\":2034:2036   */\n    tag_80:\n        /* \"#utility.yul\":2165:2166   */\n      dup3\n        /* \"#utility.yul\":2162:2163   */\n      dup3\n        /* \"#utility.yul\":2158:2167   */\n      add\n        /* \"#utility.yul\":2151:2167   */\n      swap1\n      pop\n        /* \"#utility.yul\":1912:2173   */\n      swap3\n      swap2\n      pop\n      pop\n      jump\t// out\n        /* \"#utility.yul\":2179:2275   */\n    tag_62:\n      0x00\n        /* \"#utility.yul\":2245:2269   */\n      tag_84\n        /* \"#utility.yul\":2263:2268   */\n      dup3\n        /* \"#utility.yul\":2245:2269   */\n      tag_85\n      jump\t// in\n    tag_84:\n        /* \"#utility.yul\":2234:2269   */\n      swap1\n      pop\n        /* \"#utility.yul\":2224:2275   */\n      swap2\n      swap1\n      pop\n      jump\t// out\n        /* \"#utility.yul\":2281:2371   */\n    tag_66:\n      0x00\n        /* \"#utility.yul\":2358:2363   */\n      dup2\n        /* \"#utility.yul\":2351:2364   */\n      iszero\n        /* \"#utility.yul\":2344:2365   */\n      iszero\n        /* \"#utility.yul\":2333:2365   */\n      swap1\n      pop\n        /* \"#utility.yul\":2323:2371   */\n      swap2\n      swap1\n      pop\n      jump\t// out\n        /* \"#utility.yul\":2377:2503   */\n    tag_85:\n      0x00\n        /* \"#utility.yul\":2454:2496   */\n      0xffffffffffffffffffffffffffffffffffffffff\n        /* \"#utility.yul\":2447:2452   */\n      dup3\n        /* \"#utility.yul\":2443:2497   */\n      and\n        /* \"#utility.yul\":2432:2497   */\n      swap1\n      pop\n        /* \"#utility.yul\":2422:2503   */\n      swap2\n      swap1\n      pop\n      jump\t// out\n        /* \"#utility.yul\":2509:2586   */\n    tag_70:\n      0x00\n        /* \"#utility.yul\":2575:2580   */\n      dup2\n        /* \"#utility.yul\":2564:2580   */\n      swap1\n      pop\n        /* \"#utility.yul\":2554:2586   */\n      swap2\n      swap1\n      pop\n      jump\t// out\n        /* \"#utility.yul\":2592:2772   */\n    tag_82:\n        /* \"#utility.yul\":2640:2717   */\n      0x4e487b7100000000000000000000000000000000000000000000000000000000\n        /* \"#utility.yul\":2637:2638   */\n      0x00\n        /* \"#utility.yul\":2630:2718   */\n      mstore\n        /* \"#utility.yul\":2737:2741   */\n      0x11\n        /* \"#utility.yul\":2734:2735   */\n      0x04\n        /* \"#utility.yul\":2727:2742   */\n      mstore\n        /* \"#utility.yul\":2761:2765   */\n      0x24\n        /* \"#utility.yul\":2758:2759   */\n      0x00\n        /* \"#utility.yul\":2751:2766   */\n      revert\n        /* \"#utility.yul\":2778:2900   */\n    tag_48:\n        /* \"#utility.yul\":2851:2875   */\n      tag_91\n        /* \"#utility.yul\":2869:2874   */\n      dup2\n        /* \"#utility.yul\":2851:2875   */\n      tag_62\n      jump\t// in\n    tag_91:\n        /* \"#utility.yul\":2844:2849   */\n      dup2\n        /* \"#utility.yul\":2841:2876   */\n      eq\n        /* \"#utility.yul\":2831:2833   */\n      tag_92\n      jumpi\n        /* \"#utility.yul\":2890:2891   */\n      0x00\n        /* \"#utility.yul\":2887:2888   */\n      dup1\n        /* \"#utility.yul\":2880:2892   */\n      revert\n        /* \"#utility.yul\":2831:2833   */\n    tag_92:\n        /* \"#utility.yul\":2821:2900   */\n      pop\n      jump\t// out\n        /* \"#utility.yul\":2906:3028   */\n    tag_52:\n        /* \"#utility.yul\":2979:3003   */\n      tag_94\n        /* \"#utility.yul\":2997:3002   */\n      dup2\n        /* \"#utility.yul\":2979:3003   */\n      tag_70\n      jump\t// in\n    tag_94:\n        /* \"#utility.yul\":2972:2977   */\n      dup2\n        /* \"#utility.yul\":2969:3004   */\n      eq\n        /* \"#utility.yul\":2959:2961   */\n      tag_95\n      jumpi\n        /* \"#utility.yul\":3018:3019   */\n      0x00\n        /* \"#utility.yul\":3015:3016   */\n      dup1\n        /* \"#utility.yul\":3008:3020   */\n      revert\n        /* \"#utility.yul\":2959:2961   */\n    tag_95:\n        /* \"#utility.yul\":2949:3028   */\n      pop\n      jump\t// out\n\n    auxdata: 0xa264697066735822122033de321a289faae8f31442facec9c0922abcc16be1cee94caa8d38c68bf2f1a164736f6c63430008000033\n}\n",
				"bytecode": {
					"linkReferences": {},
					"object": "608060405234801561001057600080fd5b50336000806101000a81548173ffffffffffffffffffffffffffffffffffffffff021916908373ffffffffffffffffffffffffffffffffffffffff160217905550610538806100606000396000f3fe6080604052600436106100555760003560e01c8063066842811461005a5780630a4de2d11461008a5780630fdb1c10146100b557806327e235e3146100bf5780638da5cb5b146100fc578063db613e8114610127575b600080fd5b610074600480360381019061006f9190610360565b610152565b60405161008191906103d1565b60405180910390f35b34801561009657600080fd5b5061009f6101b3565b6040516100ac91906103ec565b60405180910390f35b6100bd61021b565b005b3480156100cb57600080fd5b506100e660048036038101906100e19190610337565b61028a565b6040516100f391906103ec565b60405180910390f35b34801561010857600080fd5b506101116102a2565b60405161011e91906103b6565b60405180910390f35b34801561013357600080fd5b5061013c6102c6565b60405161014991906103ec565b60405180910390f35b600081600160003373ffffffffffffffffffffffffffffffffffffffff1673ffffffffffffffffffffffffffffffffffffffff16815260200190815260200160002060008282546101a39190610407565b9250508190555060019050919050565b6000600160008060009054906101000a900473ffffffffffffffffffffffffffffffffffffffff1673ffffffffffffffffffffffffffffffffffffffff1673ffffffffffffffffffffffffffffffffffffffff16815260200190815260200160002054905090565b600047905060008054906101000a900473ffffffffffffffffffffffffffffffffffffffff1673ffffffffffffffffffffffffffffffffffffffff166108fc829081150290604051600060405180830381858888f19350505050158015610286573d6000803e3d6000fd5b5050565b60016020528060005260406000206000915090505481565b60008054906101000a900473ffffffffffffffffffffffffffffffffffffffff1681565b6000600160003373ffffffffffffffffffffffffffffffffffffffff1673ffffffffffffffffffffffffffffffffffffffff16815260200190815260200160002054905090565b60008135905061031c816104d4565b92915050565b600081359050610331816104eb565b92915050565b60006020828403121561034957600080fd5b60006103578482850161030d565b91505092915050565b60006020828403121561037257600080fd5b600061038084828501610322565b91505092915050565b6103928161045d565b82525050565b6103a18161046f565b82525050565b6103b08161049b565b82525050565b60006020820190506103cb6000830184610389565b92915050565b60006020820190506103e66000830184610398565b92915050565b600060208201905061040160008301846103a7565b92915050565b60006104128261049b565b915061041d8361049b565b9250827fffffffffffffffffffffffffffffffffffffffffffffffffffffffffffffffff03821115610452576104516104a5565b5b828201905092915050565b60006104688261047b565b9050919050565b60008115159050919050565b600073ffffffffffffffffffffffffffffffffffffffff82169050919050565b6000819050919050565b7f4e487b7100000000000000000000000000000000000000000000000000000000600052601160045260246000fd5b6104dd8161045d565b81146104e857600080fd5b50565b6104f48161049b565b81146104ff57600080fd5b5056fea264697066735822122033de321a289faae8f31442facec9c0922abcc16be1cee94caa8d38c68bf2f1a164736f6c63430008000033",
					"opcodes": "PUSH1 0x80 PUSH1 0x40 MSTORE CALLVALUE DUP1 ISZERO PUSH2 0x10 JUMPI PUSH1 0x0 DUP1 REVERT JUMPDEST POP CALLER PUSH1 0x0 DUP1 PUSH2 0x100 EXP DUP2 SLOAD DUP2 PUSH20 0xFFFFFFFFFFFFFFFFFFFFFFFFFFFFFFFFFFFFFFFF MUL NOT AND SWAP1 DUP4 PUSH20 0xFFFFFFFFFFFFFFFFFFFFFFFFFFFFFFFFFFFFFFFF AND MUL OR SWAP1 SSTORE POP PUSH2 0x538 DUP1 PUSH2 0x60 PUSH1 0x0 CODECOPY PUSH1 0x0 RETURN INVALID PUSH1 0x80 PUSH1 0x40 MSTORE PUSH1 0x4 CALLDATASIZE LT PUSH2 0x55 JUMPI PUSH1 0x0 CALLDATALOAD PUSH1 0xE0 SHR DUP1 PUSH4 0x6684281 EQ PUSH2 0x5A JUMPI DUP1 PUSH4 0xA4DE2D1 EQ PUSH2 0x8A JUMPI DUP1 PUSH4 0xFDB1C10 EQ PUSH2 0xB5 JUMPI DUP1 PUSH4 0x27E235E3 EQ PUSH2 0xBF JUMPI DUP1 PUSH4 0x8DA5CB5B EQ PUSH2 0xFC JUMPI DUP1 PUSH4 0xDB613E81 EQ PUSH2 0x127 JUMPI JUMPDEST PUSH1 0x0 DUP1 REVERT JUMPDEST PUSH2 0x74 PUSH1 0x4 DUP1 CALLDATASIZE SUB DUP2 ADD SWAP1 PUSH2 0x6F SWAP2 SWAP1 PUSH2 0x360 JUMP JUMPDEST PUSH2 0x152 JUMP JUMPDEST PUSH1 0x40 MLOAD PUSH2 0x81 SWAP2 SWAP1 PUSH2 0x3D1 JUMP JUMPDEST PUSH1 0x40 MLOAD DUP1 SWAP2 SUB SWAP1 RETURN JUMPDEST CALLVALUE DUP1 ISZERO PUSH2 0x96 JUMPI PUSH1 0x0 DUP1 REVERT JUMPDEST POP PUSH2 0x9F PUSH2 0x1B3 JUMP JUMPDEST PUSH1 0x40 MLOAD PUSH2 0xAC SWAP2 SWAP1 PUSH2 0x3EC JUMP JUMPDEST PUSH1 0x40 MLOAD DUP1 SWAP2 SUB SWAP1 RETURN JUMPDEST PUSH2 0xBD PUSH2 0x21B JUMP JUMPDEST STOP JUMPDEST CALLVALUE DUP1 ISZERO PUSH2 0xCB JUMPI PUSH1 0x0 DUP1 REVERT JUMPDEST POP PUSH2 0xE6 PUSH1 0x4 DUP1 CALLDATASIZE SUB DUP2 ADD SWAP1 PUSH2 0xE1 SWAP2 SWAP1 PUSH2 0x337 JUMP JUMPDEST PUSH2 0x28A JUMP JUMPDEST PUSH1 0x40 MLOAD PUSH2 0xF3 SWAP2 SWAP1 PUSH2 0x3EC JUMP JUMPDEST PUSH1 0x40 MLOAD DUP1 SWAP2 SUB SWAP1 RETURN JUMPDEST CALLVALUE DUP1 ISZERO PUSH2 0x108 JUMPI PUSH1 0x0 DUP1 REVERT JUMPDEST POP PUSH2 0x111 PUSH2 0x2A2 JUMP JUMPDEST PUSH1 0x40 MLOAD PUSH2 0x11E SWAP2 SWAP1 PUSH2 0x3B6 JUMP JUMPDEST PUSH1 0x40 MLOAD DUP1 SWAP2 SUB SWAP1 RETURN JUMPDEST CALLVALUE DUP1 ISZERO PUSH2 0x133 JUMPI PUSH1 0x0 DUP1 REVERT JUMPDEST POP PUSH2 0x13C PUSH2 0x2C6 JUMP JUMPDEST PUSH1 0x40 MLOAD PUSH2 0x149 SWAP2 SWAP1 PUSH2 0x3EC JUMP JUMPDEST PUSH1 0x40 MLOAD DUP1 SWAP2 SUB SWAP1 RETURN JUMPDEST PUSH1 0x0 DUP2 PUSH1 0x1 PUSH1 0x0 CALLER PUSH20 0xFFFFFFFFFFFFFFFFFFFFFFFFFFFFFFFFFFFFFFFF AND PUSH20 0xFFFFFFFFFFFFFFFFFFFFFFFFFFFFFFFFFFFFFFFF AND DUP2 MSTORE PUSH1 0x20 ADD SWAP1 DUP2 MSTORE PUSH1 0x20 ADD PUSH1 0x0 KECCAK256 PUSH1 0x0 DUP3 DUP3 SLOAD PUSH2 0x1A3 SWAP2 SWAP1 PUSH2 0x407 JUMP JUMPDEST SWAP3 POP POP DUP2 SWAP1 SSTORE POP PUSH1 0x1 SWAP1 POP SWAP2 SWAP1 POP JUMP JUMPDEST PUSH1 0x0 PUSH1 0x1 PUSH1 0x0 DUP1 PUSH1 0x0 SWAP1 SLOAD SWAP1 PUSH2 0x100 EXP SWAP1 DIV PUSH20 0xFFFFFFFFFFFFFFFFFFFFFFFFFFFFFFFFFFFFFFFF AND PUSH20 0xFFFFFFFFFFFFFFFFFFFFFFFFFFFFFFFFFFFFFFFF AND PUSH20 0xFFFFFFFFFFFFFFFFFFFFFFFFFFFFFFFFFFFFFFFF AND DUP2 MSTORE PUSH1 0x20 ADD SWAP1 DUP2 MSTORE PUSH1 0x20 ADD PUSH1 0x0 KECCAK256 SLOAD SWAP1 POP SWAP1 JUMP JUMPDEST PUSH1 0x0 SELFBALANCE SWAP1 POP PUSH1 0x0 DUP1 SLOAD SWAP1 PUSH2 0x100 EXP SWAP1 DIV PUSH20 0xFFFFFFFFFFFFFFFFFFFFFFFFFFFFFFFFFFFFFFFF AND PUSH20 0xFFFFFFFFFFFFFFFFFFFFFFFFFFFFFFFFFFFFFFFF AND PUSH2 0x8FC DUP3 SWAP1 DUP2 ISZERO MUL SWAP1 PUSH1 0x40 MLOAD PUSH1 0x0 PUSH1 0x40 MLOAD DUP1 DUP4 SUB DUP2 DUP6 DUP9 DUP9 CALL SWAP4 POP POP POP POP ISZERO DUP1 ISZERO PUSH2 0x286 JUMPI RETURNDATASIZE PUSH1 0x0 DUP1 RETURNDATACOPY RETURNDATASIZE PUSH1 0x0 REVERT JUMPDEST POP POP JUMP JUMPDEST PUSH1 0x1 PUSH1 0x20 MSTORE DUP1 PUSH1 0x0 MSTORE PUSH1 0x40 PUSH1 0x0 KECCAK256 PUSH1 0x0 SWAP2 POP SWAP1 POP SLOAD DUP2 JUMP JUMPDEST PUSH1 0x0 DUP1 SLOAD SWAP1 PUSH2 0x100 EXP SWAP1 DIV PUSH20 0xFFFFFFFFFFFFFFFFFFFFFFFFFFFFFFFFFFFFFFFF AND DUP2 JUMP JUMPDEST PUSH1 0x0 PUSH1 0x1 PUSH1 0x0 CALLER PUSH20 0xFFFFFFFFFFFFFFFFFFFFFFFFFFFFFFFFFFFFFFFF AND PUSH20 0xFFFFFFFFFFFFFFFFFFFFFFFFFFFFFFFFFFFFFFFF AND DUP2 MSTORE PUSH1 0x20 ADD SWAP1 DUP2 MSTORE PUSH1 0x20 ADD PUSH1 0x0 KECCAK256 SLOAD SWAP1 POP SWAP1 JUMP JUMPDEST PUSH1 0x0 DUP2 CALLDATALOAD SWAP1 POP PUSH2 0x31C DUP2 PUSH2 0x4D4 JUMP JUMPDEST SWAP3 SWAP2 POP POP JUMP JUMPDEST PUSH1 0x0 DUP2 CALLDATALOAD SWAP1 POP PUSH2 0x331 DUP2 PUSH2 0x4EB JUMP JUMPDEST SWAP3 SWAP2 POP POP JUMP JUMPDEST PUSH1 0x0 PUSH1 0x20 DUP3 DUP5 SUB SLT ISZERO PUSH2 0x349 JUMPI PUSH1 0x0 DUP1 REVERT JUMPDEST PUSH1 0x0 PUSH2 0x357 DUP5 DUP3 DUP6 ADD PUSH2 0x30D JUMP JUMPDEST SWAP2 POP POP SWAP3 SWAP2 POP POP JUMP JUMPDEST PUSH1 0x0 PUSH1 0x20 DUP3 DUP5 SUB SLT ISZERO PUSH2 0x372 JUMPI PUSH1 0x0 DUP1 REVERT JUMPDEST PUSH1 0x0 PUSH2 0x380 DUP5 DUP3 DUP6 ADD PUSH2 0x322 JUMP JUMPDEST SWAP2 POP POP SWAP3 SWAP2 POP POP JUMP JUMPDEST PUSH2 0x392 DUP2 PUSH2 0x45D JUMP JUMPDEST DUP3 MSTORE POP POP JUMP JUMPDEST PUSH2 0x3A1 DUP2 PUSH2 0x46F JUMP JUMPDEST DUP3 MSTORE POP POP JUMP JUMPDEST PUSH2 0x3B0 DUP2 PUSH2 0x49B JUMP JUMPDEST DUP3 MSTORE POP POP JUMP JUMPDEST PUSH1 0x0 PUSH1 0x20 DUP3 ADD SWAP1 POP PUSH2 0x3CB PUSH1 0x0 DUP4 ADD DUP5 PUSH2 0x389 JUMP JUMPDEST SWAP3 SWAP2 POP POP JUMP JUMPDEST PUSH1 0x0 PUSH1 0x20 DUP3 ADD SWAP1 POP PUSH2 0x3E6 PUSH1 0x0 DUP4 ADD DUP5 PUSH2 0x398 JUMP JUMPDEST SWAP3 SWAP2 POP POP JUMP JUMPDEST PUSH1 0x0 PUSH1 0x20 DUP3 ADD SWAP1 POP PUSH2 0x401 PUSH1 0x0 DUP4 ADD DUP5 PUSH2 0x3A7 JUMP JUMPDEST SWAP3 SWAP2 POP POP JUMP JUMPDEST PUSH1 0x0 PUSH2 0x412 DUP3 PUSH2 0x49B JUMP JUMPDEST SWAP2 POP PUSH2 0x41D DUP4 PUSH2 0x49B JUMP JUMPDEST SWAP3 POP DUP3 PUSH32 0xFFFFFFFFFFFFFFFFFFFFFFFFFFFFFFFFFFFFFFFFFFFFFFFFFFFFFFFFFFFFFFFF SUB DUP3 GT ISZERO PUSH2 0x452 JUMPI PUSH2 0x451 PUSH2 0x4A5 JUMP JUMPDEST JUMPDEST DUP3 DUP3 ADD SWAP1 POP SWAP3 SWAP2 POP POP JUMP JUMPDEST PUSH1 0x0 PUSH2 0x468 DUP3 PUSH2 0x47B JUMP JUMPDEST SWAP1 POP SWAP2 SWAP1 POP JUMP JUMPDEST PUSH1 0x0 DUP2 ISZERO ISZERO SWAP1 POP SWAP2 SWAP1 POP JUMP JUMPDEST PUSH1 0x0 PUSH20 0xFFFFFFFFFFFFFFFFFFFFFFFFFFFFFFFFFFFFFFFF DUP3 AND SWAP1 POP SWAP2 SWAP1 POP JUMP JUMPDEST PUSH1 0x0 DUP2 SWAP1 POP SWAP2 SWAP1 POP JUMP JUMPDEST PUSH32 0x4E487B7100000000000000000000000000000000000000000000000000000000 PUSH1 0x0 MSTORE PUSH1 0x11 PUSH1 0x4 MSTORE PUSH1 0x24 PUSH1 0x0 REVERT JUMPDEST PUSH2 0x4DD DUP2 PUSH2 0x45D JUMP JUMPDEST DUP2 EQ PUSH2 0x4E8 JUMPI PUSH1 0x0 DUP1 REVERT JUMPDEST POP JUMP JUMPDEST PUSH2 0x4F4 DUP2 PUSH2 0x49B JUMP JUMPDEST DUP2 EQ PUSH2 0x4FF JUMPI PUSH1 0x0 DUP1 REVERT JUMPDEST POP JUMP INVALID LOG2 PUSH5 0x6970667358 0x22 SLT KECCAK256 CALLER 0xDE ORIGIN BYTE 0x28 SWAP16 0xAA 0xE8 RETURN EQ TIMESTAMP STATICCALL 0xCE 0xC9 0xC0 SWAP3 0x2A 0xBC 0xC1 PUSH12 0xE1CEE94CAA8D38C68BF2F1A1 PUSH5 0x736F6C6343 STOP ADDMOD STOP STOP CALLER "
				},
				"gasEstimates": {
					"creation": {
						"codeDepositCost": "267200",
						"executionCost": "21172",
						"totalCost": "288372"
					},
					"external": {
						"balances(address)": "1558",
						"getAccount()": "1314",
						"owner()": "1277",
						"queryRecord()": "2063",
						"saveMoney(uint256)": "infinite",
						"withDraw()": "infinite"
					}
				},
				"methodIdentifiers": {
					"balances(address)": "27e235e3",
					"getAccount()": "db613e81",
					"owner()": "8da5cb5b",
					"queryRecord()": "0a4de2d1",
					"saveMoney(uint256)": "06684281",
					"withDraw()": "0fdb1c10"
				}
			},
			"userdoc": {
				"kind": "user",
				"methods": {},
				"version": 1
			}
		}
	}
}