{
	"contracts/Counter.sol": {
		"Counter": {
			"abi": [
				{
					"inputs": [],
					"stateMutability": "nonpayable",
					"type": "constructor"
				},
				{
					"inputs": [
						{
							"internalType": "address",
							"name": "",
							"type": "address"
						}
					],
					"name": "balances",
					"outputs": [
						{
							"internalType": "uint256",
							"name": "",
							"type": "uint256"
						}
					],
					"stateMutability": "view",
					"type": "function"
				},
				{
					"inputs": [],
					"name": "getAccount",
					"outputs": [
						{
							"internalType": "uint256",
							"name": "",
							"type": "uint256"
						}
					],
					"stateMutability": "view",
					"type": "function"
				},
				{
					"inputs": [],
					"name": "owner",
					"outputs": [
						{
							"internalType": "address",
							"name": "",
							"type": "address"
						}
					],
					"stateMutability": "view",
					"type": "function"
				},
				{
					"inputs": [],
					"name": "queryRecord",
					"outputs": [
						{
							"internalType": "uint256",
							"name": "",
							"type": "uint256"
						}
					],
					"stateMutability": "view",
					"type": "function"
				},
				{
					"inputs": [
						{
							"internalType": "uint256",
							"name": "_accout",
							"type": "uint256"
						}
					],
					"name": "saveMoney",
					"outputs": [
						{
							"internalType": "bool",
							"name": "",
							"type": "bool"
						}
					],
					"stateMutability": "payable",
					"type": "function"
				},
				{
					"inputs": [],
					"name": "withDraw",
					"outputs": [],
					"stateMutability": "payable",
					"type": "function"
				}
			],
			"devdoc": {
				"kind": "dev",
				"methods": {},
				"version": 1
			},
			"evm": {
				"assembly": "    /* \"contracts/Counter.sol\":61:869  contract Counter {\r... */\n  mstore(0x40, 0x80)\n    /* \"contracts/Counter.sol\":166:225  constructor(){\r... */\n  callvalue\n  dup1\n  iszero\n  tag_1\n  jumpi\n  0x00\n  dup1\n  revert\ntag_1:\n  pop\n    /* \"contracts/Counter.sol\":206:216  msg.sender */\n  caller\n    /* \"contracts/Counter.sol\":190:195  owner */\n  0x00\n  dup1\n    /* \"contracts/Counter.sol\":190:217  owner = payable(msg.sender) */\n  0x0100\n  exp\n  dup2\n  sload\n  dup2\n  0xffffffffffffffffffffffffffffffffffffffff\n  mul\n  not\n  and\n  swap1\n  dup4\n  0xffffffffffffffffffffffffffffffffffffffff\n  and\n  mul\n  or\n  swap1\n  sstore\n  pop\n    /* \"contracts/Counter.sol\":61:869  contract Counter {\r... */\n  dataSize(sub_0)\n  dup1\n  dataOffset(sub_0)\n  0x00\n  codecopy\n  0x00\n  return\nstop\n\nsub_0: assembly {\n        /* \"contracts/Counter.sol\":61:869  contract Counter {\r... */\n      mstore(0x40, 0x80)\n      jumpi(tag_1, lt(calldatasize, 0x04))\n      shr(0xe0, calldataload(0x00))\n      dup1\n      0x06684281\n      eq\n      tag_2\n      jumpi\n      dup1\n      0x0a4de2d1\n      eq\n      tag_3\n      jumpi\n      dup1\n      0x0fdb1c10\n      eq\n      tag_4\n      jumpi\n      dup1\n      0x27e235e3\n      eq\n      tag_5\n      jumpi\n      dup1\n      0x8da5cb5b\n      eq\n      tag_6\n      jumpi\n      dup1\n      0xdb613e81\n      eq\n      tag_7\n      jumpi\n    tag_1:\n      0x00\n      dup1\n      revert\n        /* \"contracts/Counter.sol\":509:644  function saveMoney(uint _accout) external payable returns(bool){\r... */\n    tag_2:\n      tag_8\n      0x04\n      dup1\n      calldatasize\n      sub\n      dup2\n      add\n      swap1\n      tag_9\n      swap2\n      swap1\n      tag_10\n      jump\t// in\n    tag_9:\n      tag_11\n      jump\t// in\n    tag_8:\n      mload(0x40)\n      tag_12\n      swap2\n      swap1\n      tag_13\n      jump\t// in\n    tag_12:\n      mload(0x40)\n      dup1\n      swap2\n      sub\n      swap1\n      return\n        /* \"contracts/Counter.sol\":394:487  function queryRecord() public view returns(uint256) {\r... */\n    tag_3:\n      callvalue\n      dup1\n      iszero\n      tag_14\n      jumpi\n      0x00\n      dup1\n      revert\n    tag_14:\n      pop\n      tag_15\n      tag_16\n      jump\t// in\n    tag_15:\n      mload(0x40)\n      tag_17\n      swap2\n      swap1\n      tag_18\n      jump\t// in\n    tag_17:\n      mload(0x40)\n      dup1\n      swap2\n      sub\n      swap1\n      return\n        /* \"contracts/Counter.sol\":666:862  function withDraw() external payable{\r... */\n    tag_4:\n      tag_19\n      tag_20\n      jump\t// in\n    tag_19:\n      stop\n        /* \"contracts/Counter.sol\":114:157  mapping(address => uint256) public balances */\n    tag_5:\n      callvalue\n      dup1\n      iszero\n      tag_21\n      jumpi\n      0x00\n      dup1\n      revert\n    tag_21:\n      pop\n      tag_22\n      0x04\n      dup1\n      calldatasize\n      sub\n      dup2\n      add\n      swap1\n      tag_23\n      swap2\n      swap1\n      tag_24\n      jump\t// in\n    tag_23:\n      tag_25\n      jump\t// in\n    tag_22:\n      mload(0x40)\n      tag_26\n      swap2\n      swap1\n      tag_18\n      jump\t// in\n    tag_26:\n      mload(0x40)\n      dup1\n      swap2\n      sub\n      swap1\n      return\n        /* \"contracts/Counter.sol\":87:107  address public owner */\n    tag_6:\n      callvalue\n      dup1\n      iszero\n      tag_27\n      jumpi\n      0x00\n      dup1\n      revert\n    tag_27:\n      pop\n      tag_28\n      tag_29\n      jump\t// in\n    tag_28:\n      mload(0x40)\n      tag_30\n      swap2\n      swap1\n      tag_31\n      jump\t// in\n    tag_30:\n      mload(0x40)\n      dup1\n      swap2\n      sub\n      swap1\n      return\n        /* \"contracts/Counter.sol\":247:342  function getAccount() public view returns (uint) {\r... */\n    tag_7:\n      callvalue\n      dup1\n      iszero\n      tag_32\n      jumpi\n      0x00\n      dup1\n      revert\n    tag_32:\n      pop\n      tag_33\n      tag_34\n      jump\t// in\n    tag_33:\n      mload(0x40)\n      tag_35\n      swap2\n      swap1\n      tag_18\n      jump\t// in\n    tag_35:\n      mload(0x40)\n      dup1\n      swap2\n      sub\n      swap1\n      return\n        /* \"contracts/Counter.sol\":509:644  function saveMoney(uint _accout) external payable returns(bool){\r... */\n    tag_11:\n        /* \"contracts/Counter.sol\":567:571  bool */\n      0x00\n        /* \"contracts/Counter.sol\":607:614  _accout */\n      dup2\n        /* \"contracts/Counter.sol\":583:591  balances */\n      0x01\n        /* \"contracts/Counter.sol\":583:603  balances[msg.sender] */\n      0x00\n        /* \"contracts/Counter.sol\":592:602  msg.sender */\n      caller\n        /* \"contracts/Counter.sol\":583:603  balances[msg.sender] */\n      0xffffffffffffffffffffffffffffffffffffffff\n      and\n      0xffffffffffffffffffffffffffffffffffffffff\n      and\n      dup2\n      mstore\n      0x20\n      add\n      swap1\n      dup2\n      mstore\n      0x20\n      add\n      0x00\n      keccak256\n      0x00\n        /* \"contracts/Counter.sol\":583:614  balances[msg.sender] += _accout */\n      dup3\n      dup3\n      sload\n      tag_37\n      swap2\n      swap1\n      tag_38\n      jump\t// in\n    tag_37:\n      swap3\n      pop\n      pop\n      dup2\n      swap1\n      sstore\n      pop\n        /* \"contracts/Counter.sol\":632:636  true */\n      0x01\n        /* \"contracts/Counter.sol\":625:636  return true */\n      swap1\n      pop\n        /* \"contracts/Counter.sol\":509:644  function saveMoney(uint _accout) external payable returns(bool){\r... */\n      swap2\n      swap1\n      pop\n      jump\t// out\n        /* \"contracts/Counter.sol\":394:487  function queryRecord() public view returns(uint256) {\r... */\n    tag_16:\n        /* \"contracts/Counter.sol\":437:444  uint256 */\n      0x00\n        /* \"contracts/Counter.sol\":464:472  balances */\n      0x01\n        /* \"contracts/Counter.sol\":464:479  balances[owner] */\n      0x00\n        /* \"contracts/Counter.sol\":473:478  owner */\n      dup1\n      0x00\n      swap1\n      sload\n      swap1\n      0x0100\n      exp\n      swap1\n      div\n      0xffffffffffffffffffffffffffffffffffffffff\n      and\n        /* \"contracts/Counter.sol\":464:479  balances[owner] */\n      0xffffffffffffffffffffffffffffffffffffffff\n      and\n      0xffffffffffffffffffffffffffffffffffffffff\n      and\n      dup2\n      mstore\n      0x20\n      add\n      swap1\n      dup2\n      mstore\n      0x20\n      add\n      0x00\n      keccak256\n      sload\n        /* \"contracts/Counter.sol\":457:479  return balances[owner] */\n      swap1\n      pop\n        /* \"contracts/Counter.sol\":394:487  function queryRecord() public view returns(uint256) {\r... */\n      swap1\n      jump\t// out\n        /* \"contracts/Counter.sol\":666:862  function withDraw() external payable{\r... */\n    tag_20:\n        /* \"contracts/Counter.sol\":713:725  uint amounts */\n      0x00\n        /* \"contracts/Counter.sol\":728:749  address(this).balance */\n      selfbalance\n        /* \"contracts/Counter.sol\":713:749  uint amounts = address(this).balance */\n      swap1\n      pop\n        /* \"contracts/Counter.sol\":760:772  bool success */\n      0x00\n        /* \"contracts/Counter.sol\":778:783  owner */\n      dup1\n      0x00\n      swap1\n      sload\n      swap1\n      0x0100\n      exp\n      swap1\n      div\n      0xffffffffffffffffffffffffffffffffffffffff\n      and\n        /* \"contracts/Counter.sol\":778:788  owner.call */\n      0xffffffffffffffffffffffffffffffffffffffff\n      and\n        /* \"contracts/Counter.sol\":795:802  amounts */\n      dup3\n        /* \"contracts/Counter.sol\":778:807  owner.call{value:amounts}(\"\") */\n      mload(0x40)\n      tag_41\n      swap1\n      tag_42\n      jump\t// in\n    tag_41:\n      0x00\n      mload(0x40)\n      dup1\n      dup4\n      sub\n      dup2\n      dup6\n      dup8\n      gas\n      call\n      swap3\n      pop\n      pop\n      pop\n      returndatasize\n      dup1\n      0x00\n      dup2\n      eq\n      tag_45\n      jumpi\n      mload(0x40)\n      swap2\n      pop\n      and(add(returndatasize, 0x3f), not(0x1f))\n      dup3\n      add\n      0x40\n      mstore\n      returndatasize\n      dup3\n      mstore\n      returndatasize\n      0x00\n      0x20\n      dup5\n      add\n      returndatacopy\n      jump(tag_44)\n    tag_45:\n      0x60\n      swap2\n      pop\n    tag_44:\n      pop\n        /* \"contracts/Counter.sol\":759:807  (bool success, ) = owner.call{value:amounts}(\"\") */\n      pop\n      swap1\n      pop\n        /* \"contracts/Counter.sol\":825:832  success */\n      dup1\n        /* \"contracts/Counter.sol\":817:852  require(success,\"Fail to withdraw\") */\n      tag_46\n      jumpi\n      mload(0x40)\n      0x08c379a000000000000000000000000000000000000000000000000000000000\n      dup2\n      mstore\n      0x04\n      add\n      tag_47\n      swap1\n      tag_48\n      jump\t// in\n    tag_47:\n      mload(0x40)\n      dup1\n      swap2\n      sub\n      swap1\n      revert\n    tag_46:\n        /* \"contracts/Counter.sol\":666:862  function withDraw() external payable{\r... */\n      pop\n      pop\n      jump\t// out\n        /* \"contracts/Counter.sol\":114:157  mapping(address => uint256) public balances */\n    tag_25:\n      mstore(0x20, 0x01)\n      dup1\n      0x00\n      mstore\n      keccak256(0x00, 0x40)\n      0x00\n      swap2\n      pop\n      swap1\n      pop\n      sload\n      dup2\n      jump\t// out\n        /* \"contracts/Counter.sol\":87:107  address public owner */\n    tag_29:\n      0x00\n      dup1\n      sload\n      swap1\n      0x0100\n      exp\n      swap1\n      div\n      0xffffffffffffffffffffffffffffffffffffffff\n      and\n      dup2\n      jump\t// out\n        /* \"contracts/Counter.sol\":247:342  function getAccount() public view returns (uint) {\r... */\n    tag_34:\n        /* \"contracts/Counter.sol\":290:294  uint */\n      0x00\n        /* \"contracts/Counter.sol\":314:322  balances */\n      0x01\n        /* \"contracts/Counter.sol\":314:334  balances[msg.sender] */\n      0x00\n        /* \"contracts/Counter.sol\":323:333  msg.sender */\n      caller\n        /* \"contracts/Counter.sol\":314:334  balances[msg.sender] */\n      0xffffffffffffffffffffffffffffffffffffffff\n      and\n      0xffffffffffffffffffffffffffffffffffffffff\n      and\n      dup2\n      mstore\n      0x20\n      add\n      swap1\n      dup2\n      mstore\n      0x20\n      add\n      0x00\n      keccak256\n      sload\n        /* \"contracts/Counter.sol\":307:334  return balances[msg.sender] */\n      swap1\n      pop\n        /* \"contracts/Counter.sol\":247:342  function getAccount() public view returns (uint) {\r... */\n      swap1\n      jump\t// out\n        /* \"#utility.yul\":7:146   */\n    tag_51:\n      0x00\n        /* \"#utility.yul\":91:97   */\n      dup2\n        /* \"#utility.yul\":78:98   */\n      calldataload\n        /* \"#utility.yul\":69:98   */\n      swap1\n      pop\n        /* \"#utility.yul\":107:140   */\n      tag_53\n        /* \"#utility.yul\":134:139   */\n      dup2\n        /* \"#utility.yul\":107:140   */\n      tag_54\n      jump\t// in\n    tag_53:\n        /* \"#utility.yul\":59:146   */\n      swap3\n      swap2\n      pop\n      pop\n      jump\t// out\n        /* \"#utility.yul\":152:291   */\n    tag_55:\n      0x00\n        /* \"#utility.yul\":236:242   */\n      dup2\n        /* \"#utility.yul\":223:243   */\n      calldataload\n        /* \"#utility.yul\":214:243   */\n      swap1\n      pop\n        /* \"#utility.yul\":252:285   */\n      tag_57\n        /* \"#utility.yul\":279:284   */\n      dup2\n        /* \"#utility.yul\":252:285   */\n      tag_58\n      jump\t// in\n    tag_57:\n        /* \"#utility.yul\":204:291   */\n      swap3\n      swap2\n      pop\n      pop\n      jump\t// out\n        /* \"#utility.yul\":297:559   */\n    tag_24:\n      0x00\n        /* \"#utility.yul\":405:407   */\n      0x20\n        /* \"#utility.yul\":393:402   */\n      dup3\n        /* \"#utility.yul\":384:391   */\n      dup5\n        /* \"#utility.yul\":380:403   */\n      sub\n        /* \"#utility.yul\":376:408   */\n      slt\n        /* \"#utility.yul\":373:375   */\n      iszero\n      tag_60\n      jumpi\n        /* \"#utility.yul\":421:422   */\n      0x00\n        /* \"#utility.yul\":418:419   */\n      dup1\n        /* \"#utility.yul\":411:423   */\n      revert\n        /* \"#utility.yul\":373:375   */\n    tag_60:\n        /* \"#utility.yul\":464:465   */\n      0x00\n        /* \"#utility.yul\":489:542   */\n      tag_61\n        /* \"#utility.yul\":534:541   */\n      dup5\n        /* \"#utility.yul\":525:531   */\n      dup3\n        /* \"#utility.yul\":514:523   */\n      dup6\n        /* \"#utility.yul\":510:532   */\n      add\n        /* \"#utility.yul\":489:542   */\n      tag_51\n      jump\t// in\n    tag_61:\n        /* \"#utility.yul\":479:542   */\n      swap2\n      pop\n        /* \"#utility.yul\":435:552   */\n      pop\n        /* \"#utility.yul\":363:559   */\n      swap3\n      swap2\n      pop\n      pop\n      jump\t// out\n        /* \"#utility.yul\":565:827   */\n    tag_10:\n      0x00\n        /* \"#utility.yul\":673:675   */\n      0x20\n        /* \"#utility.yul\":661:670   */\n      dup3\n        /* \"#utility.yul\":652:659   */\n      dup5\n        /* \"#utility.yul\":648:671   */\n      sub\n        /* \"#utility.yul\":644:676   */\n      slt\n        /* \"#utility.yul\":641:643   */\n      iszero\n      tag_63\n      jumpi\n        /* \"#utility.yul\":689:690   */\n      0x00\n        /* \"#utility.yul\":686:687   */\n      dup1\n        /* \"#utility.yul\":679:691   */\n      revert\n        /* \"#utility.yul\":641:643   */\n    tag_63:\n        /* \"#utility.yul\":732:733   */\n      0x00\n        /* \"#utility.yul\":757:810   */\n      tag_64\n        /* \"#utility.yul\":802:809   */\n      dup5\n        /* \"#utility.yul\":793:799   */\n      dup3\n        /* \"#utility.yul\":782:791   */\n      dup6\n        /* \"#utility.yul\":778:800   */\n      add\n        /* \"#utility.yul\":757:810   */\n      tag_55\n      jump\t// in\n    tag_64:\n        /* \"#utility.yul\":747:810   */\n      swap2\n      pop\n        /* \"#utility.yul\":703:820   */\n      pop\n        /* \"#utility.yul\":631:827   */\n      swap3\n      swap2\n      pop\n      pop\n      jump\t// out\n        /* \"#utility.yul\":833:951   */\n    tag_65:\n        /* \"#utility.yul\":920:944   */\n      tag_67\n        /* \"#utility.yul\":938:943   */\n      dup2\n        /* \"#utility.yul\":920:944   */\n      tag_68\n      jump\t// in\n    tag_67:\n        /* \"#utility.yul\":915:918   */\n      dup3\n        /* \"#utility.yul\":908:945   */\n      mstore\n        /* \"#utility.yul\":898:951   */\n      pop\n      pop\n      jump\t// out\n        /* \"#utility.yul\":957:1066   */\n    tag_69:\n        /* \"#utility.yul\":1038:1059   */\n      tag_71\n        /* \"#utility.yul\":1053:1058   */\n      dup2\n        /* \"#utility.yul\":1038:1059   */\n      tag_72\n      jump\t// in\n    tag_71:\n        /* \"#utility.yul\":1033:1036   */\n      dup3\n        /* \"#utility.yul\":1026:1060   */\n      mstore\n        /* \"#utility.yul\":1016:1066   */\n      pop\n      pop\n      jump\t// out\n        /* \"#utility.yul\":1072:1386   */\n    tag_73:\n      0x00\n        /* \"#utility.yul\":1235:1302   */\n      tag_75\n        /* \"#utility.yul\":1299:1301   */\n      0x10\n        /* \"#utility.yul\":1294:1297   */\n      dup4\n        /* \"#utility.yul\":1235:1302   */\n      tag_76\n      jump\t// in\n    tag_75:\n        /* \"#utility.yul\":1228:1302   */\n      swap2\n      pop\n        /* \"#utility.yul\":1332:1350   */\n      0x4661696c20746f20776974686472617700000000000000000000000000000000\n        /* \"#utility.yul\":1328:1329   */\n      0x00\n        /* \"#utility.yul\":1323:1326   */\n      dup4\n        /* \"#utility.yul\":1319:1330   */\n      add\n        /* \"#utility.yul\":1312:1351   */\n      mstore\n        /* \"#utility.yul\":1377:1379   */\n      0x20\n        /* \"#utility.yul\":1372:1375   */\n      dup3\n        /* \"#utility.yul\":1368:1380   */\n      add\n        /* \"#utility.yul\":1361:1380   */\n      swap1\n      pop\n        /* \"#utility.yul\":1218:1386   */\n      swap2\n      swap1\n      pop\n      jump\t// out\n        /* \"#utility.yul\":1392:1689   */\n    tag_77:\n      0x00\n        /* \"#utility.yul\":1572:1655   */\n      tag_79\n        /* \"#utility.yul\":1653:1654   */\n      0x00\n        /* \"#utility.yul\":1648:1651   */\n      dup4\n        /* \"#utility.yul\":1572:1655   */\n      tag_80\n      jump\t// in\n    tag_79:\n        /* \"#utility.yul\":1565:1655   */\n      swap2\n      pop\n        /* \"#utility.yul\":1681:1682   */\n      0x00\n        /* \"#utility.yul\":1676:1679   */\n      dup3\n        /* \"#utility.yul\":1672:1683   */\n      add\n        /* \"#utility.yul\":1665:1683   */\n      swap1\n      pop\n        /* \"#utility.yul\":1555:1689   */\n      swap2\n      swap1\n      pop\n      jump\t// out\n        /* \"#utility.yul\":1695:1813   */\n    tag_81:\n        /* \"#utility.yul\":1782:1806   */\n      tag_83\n        /* \"#utility.yul\":1800:1805   */\n      dup2\n        /* \"#utility.yul\":1782:1806   */\n      tag_84\n      jump\t// in\n    tag_83:\n        /* \"#utility.yul\":1777:1780   */\n      dup3\n        /* \"#utility.yul\":1770:1807   */\n      mstore\n        /* \"#utility.yul\":1760:1813   */\n      pop\n      pop\n      jump\t// out\n        /* \"#utility.yul\":1819:2198   */\n    tag_42:\n      0x00\n        /* \"#utility.yul\":2025:2172   */\n      tag_86\n        /* \"#utility.yul\":2168:2171   */\n      dup3\n        /* \"#utility.yul\":2025:2172   */\n      tag_77\n      jump\t// in\n    tag_86:\n        /* \"#utility.yul\":2018:2172   */\n      swap2\n      pop\n        /* \"#utility.yul\":2189:2192   */\n      dup2\n        /* \"#utility.yul\":2182:2192   */\n      swap1\n      pop\n        /* \"#utility.yul\":2007:2198   */\n      swap2\n      swap1\n      pop\n      jump\t// out\n        /* \"#utility.yul\":2204:2426   */\n    tag_31:\n      0x00\n        /* \"#utility.yul\":2335:2337   */\n      0x20\n        /* \"#utility.yul\":2324:2333   */\n      dup3\n        /* \"#utility.yul\":2320:2338   */\n      add\n        /* \"#utility.yul\":2312:2338   */\n      swap1\n      pop\n        /* \"#utility.yul\":2348:2419   */\n      tag_88\n        /* \"#utility.yul\":2416:2417   */\n      0x00\n        /* \"#utility.yul\":2405:2414   */\n      dup4\n        /* \"#utility.yul\":2401:2418   */\n      add\n        /* \"#utility.yul\":2392:2398   */\n      dup5\n        /* \"#utility.yul\":2348:2419   */\n      tag_65\n      jump\t// in\n    tag_88:\n        /* \"#utility.yul\":2302:2426   */\n      swap3\n      swap2\n      pop\n      pop\n      jump\t// out\n        /* \"#utility.yul\":2432:2642   */\n    tag_13:\n      0x00\n        /* \"#utility.yul\":2557:2559   */\n      0x20\n        /* \"#utility.yul\":2546:2555   */\n      dup3\n        /* \"#utility.yul\":2542:2560   */\n      add\n        /* \"#utility.yul\":2534:2560   */\n      swap1\n      pop\n        /* \"#utility.yul\":2570:2635   */\n      tag_90\n        /* \"#utility.yul\":2632:2633   */\n      0x00\n        /* \"#utility.yul\":2621:2630   */\n      dup4\n        /* \"#utility.yul\":2617:2634   */\n      add\n        /* \"#utility.yul\":2608:2614   */\n      dup5\n        /* \"#utility.yul\":2570:2635   */\n      tag_69\n      jump\t// in\n    tag_90:\n        /* \"#utility.yul\":2524:2642   */\n      swap3\n      swap2\n      pop\n      pop\n      jump\t// out\n        /* \"#utility.yul\":2648:3067   */\n    tag_48:\n      0x00\n        /* \"#utility.yul\":2852:2854   */\n      0x20\n        /* \"#utility.yul\":2841:2850   */\n      dup3\n        /* \"#utility.yul\":2837:2855   */\n      add\n        /* \"#utility.yul\":2829:2855   */\n      swap1\n      pop\n        /* \"#utility.yul\":2901:2910   */\n      dup2\n        /* \"#utility.yul\":2895:2899   */\n      dup2\n        /* \"#utility.yul\":2891:2911   */\n      sub\n        /* \"#utility.yul\":2887:2888   */\n      0x00\n        /* \"#utility.yul\":2876:2885   */\n      dup4\n        /* \"#utility.yul\":2872:2889   */\n      add\n        /* \"#utility.yul\":2865:2912   */\n      mstore\n        /* \"#utility.yul\":2929:3060   */\n      tag_92\n        /* \"#utility.yul\":3055:3059   */\n      dup2\n        /* \"#utility.yul\":2929:3060   */\n      tag_73\n      jump\t// in\n    tag_92:\n        /* \"#utility.yul\":2921:3060   */\n      swap1\n      pop\n        /* \"#utility.yul\":2819:3067   */\n      swap2\n      swap1\n      pop\n      jump\t// out\n        /* \"#utility.yul\":3073:3295   */\n    tag_18:\n      0x00\n        /* \"#utility.yul\":3204:3206   */\n      0x20\n        /* \"#utility.yul\":3193:3202   */\n      dup3\n        /* \"#utility.yul\":3189:3207   */\n      add\n        /* \"#utility.yul\":3181:3207   */\n      swap1\n      pop\n        /* \"#utility.yul\":3217:3288   */\n      tag_94\n        /* \"#utility.yul\":3285:3286   */\n      0x00\n        /* \"#utility.yul\":3274:3283   */\n      dup4\n        /* \"#utility.yul\":3270:3287   */\n      add\n        /* \"#utility.yul\":3261:3267   */\n      dup5\n        /* \"#utility.yul\":3217:3288   */\n      tag_81\n      jump\t// in\n    tag_94:\n        /* \"#utility.yul\":3171:3295   */\n      swap3\n      swap2\n      pop\n      pop\n      jump\t// out\n        /* \"#utility.yul\":3301:3448   */\n    tag_80:\n      0x00\n        /* \"#utility.yul\":3439:3442   */\n      dup2\n        /* \"#utility.yul\":3424:3442   */\n      swap1\n      pop\n        /* \"#utility.yul\":3414:3448   */\n      swap3\n      swap2\n      pop\n      pop\n      jump\t// out\n        /* \"#utility.yul\":3454:3623   */\n    tag_76:\n      0x00\n        /* \"#utility.yul\":3572:3578   */\n      dup3\n        /* \"#utility.yul\":3567:3570   */\n      dup3\n        /* \"#utility.yul\":3560:3579   */\n      mstore\n        /* \"#utility.yul\":3612:3616   */\n      0x20\n        /* \"#utility.yul\":3607:3610   */\n      dup3\n        /* \"#utility.yul\":3603:3617   */\n      add\n        /* \"#utility.yul\":3588:3617   */\n      swap1\n      pop\n        /* \"#utility.yul\":3550:3623   */\n      swap3\n      swap2\n      pop\n      pop\n      jump\t// out\n        /* \"#utility.yul\":3629:3934   */\n    tag_38:\n      0x00\n        /* \"#utility.yul\":3688:3708   */\n      tag_98\n        /* \"#utility.yul\":3706:3707   */\n      dup3\n        /* \"#utility.yul\":3688:3708   */\n      tag_84\n      jump\t// in\n    tag_98:\n        /* \"#utility.yul\":3683:3708   */\n      swap2\n      pop\n        /* \"#utility.yul\":3722:3742   */\n      tag_99\n        /* \"#utility.yul\":3740:3741   */\n      dup4\n        /* \"#utility.yul\":3722:3742   */\n      tag_84\n      jump\t// in\n    tag_99:\n        /* \"#utility.yul\":3717:3742   */\n      swap3\n      pop\n        /* \"#utility.yul\":3876:3877   */\n      dup3\n        /* \"#utility.yul\":3808:3874   */\n      0xffffffffffffffffffffffffffffffffffffffffffffffffffffffffffffffff\n        /* \"#utility.yul\":3804:3878   */\n      sub\n        /* \"#utility.yul\":3801:3802   */\n      dup3\n        /* \"#utility.yul\":3798:3879   */\n      gt\n        /* \"#utility.yul\":3795:3797   */\n      iszero\n      tag_100\n      jumpi\n        /* \"#utility.yul\":3882:3900   */\n      tag_101\n      tag_102\n      jump\t// in\n    tag_101:\n        /* \"#utility.yul\":3795:3797   */\n    tag_100:\n        /* \"#utility.yul\":3926:3927   */\n      dup3\n        /* \"#utility.yul\":3923:3924   */\n      dup3\n        /* \"#utility.yul\":3919:3928   */\n      add\n        /* \"#utility.yul\":3912:3928   */\n      swap1\n      pop\n        /* \"#utility.yul\":3673:3934   */\n      swap3\n      swap2\n      pop\n      pop\n      jump\t// out\n        /* \"#utility.yul\":3940:4036   */\n    tag_68:\n      0x00\n        /* \"#utility.yul\":4006:4030   */\n      tag_104\n        /* \"#utility.yul\":4024:4029   */\n      dup3\n        /* \"#utility.yul\":4006:4030   */\n      tag_105\n      jump\t// in\n    tag_104:\n        /* \"#utility.yul\":3995:4030   */\n      swap1\n      pop\n        /* \"#utility.yul\":3985:4036   */\n      swap2\n      swap1\n      pop\n      jump\t// out\n        /* \"#utility.yul\":4042:4132   */\n    tag_72:\n      0x00\n        /* \"#utility.yul\":4119:4124   */\n      dup2\n        /* \"#utility.yul\":4112:4125   */\n      iszero\n        /* \"#utility.yul\":4105:4126   */\n      iszero\n        /* \"#utility.yul\":4094:4126   */\n      swap1\n      pop\n        /* \"#utility.yul\":4084:4132   */\n      swap2\n      swap1\n      pop\n      jump\t// out\n        /* \"#utility.yul\":4138:4264   */\n    tag_105:\n      0x00\n        /* \"#utility.yul\":4215:4257   */\n      0xffffffffffffffffffffffffffffffffffffffff\n        /* \"#utility.yul\":4208:4213   */\n      dup3\n        /* \"#utility.yul\":4204:4258   */\n      and\n        /* \"#utility.yul\":4193:4258   */\n      swap1\n      pop\n        /* \"#utility.yul\":4183:4264   */\n      swap2\n      swap1\n      pop\n      jump\t// out\n        /* \"#utility.yul\":4270:4347   */\n    tag_84:\n      0x00\n        /* \"#utility.yul\":4336:4341   */\n      dup2\n        /* \"#utility.yul\":4325:4341   */\n      swap1\n      pop\n        /* \"#utility.yul\":4315:4347   */\n      swap2\n      swap1\n      pop\n      jump\t// out\n        /* \"#utility.yul\":4353:4533   */\n    tag_102:\n        /* \"#utility.yul\":4401:4478   */\n      0x4e487b7100000000000000000000000000000000000000000000000000000000\n        /* \"#utility.yul\":4398:4399   */\n      0x00\n        /* \"#utility.yul\":4391:4479   */\n      mstore\n        /* \"#utility.yul\":4498:4502   */\n      0x11\n        /* \"#utility.yul\":4495:4496   */\n      0x04\n        /* \"#utility.yul\":4488:4503   */\n      mstore\n        /* \"#utility.yul\":4522:4526   */\n      0x24\n        /* \"#utility.yul\":4519:4520   */\n      0x00\n        /* \"#utility.yul\":4512:4527   */\n      revert\n        /* \"#utility.yul\":4539:4661   */\n    tag_54:\n        /* \"#utility.yul\":4612:4636   */\n      tag_111\n        /* \"#utility.yul\":4630:4635   */\n      dup2\n        /* \"#utility.yul\":4612:4636   */\n      tag_68\n      jump\t// in\n    tag_111:\n        /* \"#utility.yul\":4605:4610   */\n      dup2\n        /* \"#utility.yul\":4602:4637   */\n      eq\n        /* \"#utility.yul\":4592:4594   */\n      tag_112\n      jumpi\n        /* \"#utility.yul\":4651:4652   */\n      0x00\n        /* \"#utility.yul\":4648:4649   */\n      dup1\n        /* \"#utility.yul\":4641:4653   */\n      revert\n        /* \"#utility.yul\":4592:4594   */\n    tag_112:\n        /* \"#utility.yul\":4582:4661   */\n      pop\n      jump\t// out\n        /* \"#utility.yul\":4667:4789   */\n    tag_58:\n        /* \"#utility.yul\":4740:4764   */\n      tag_114\n        /* \"#utility.yul\":4758:4763   */\n      dup2\n        /* \"#utility.yul\":4740:4764   */\n      tag_84\n      jump\t// in\n    tag_114:\n        /* \"#utility.yul\":4733:4738   */\n      dup2\n        /* \"#utility.yul\":4730:4765   */\n      eq\n        /* \"#utility.yul\":4720:4722   */\n      tag_115\n      jumpi\n        /* \"#utility.yul\":4779:4780   */\n      0x00\n        /* \"#utility.yul\":4776:4777   */\n      dup1\n        /* \"#utility.yul\":4769:4781   */\n      revert\n        /* \"#utility.yul\":4720:4722   */\n    tag_115:\n        /* \"#utility.yul\":4710:4789   */\n      pop\n      jump\t// out\n\n    auxdata: 0xa2646970667358221220a5f7c22face6c85142c7f322ececb721a797f0c41bbffb7fafad48198634f47164736f6c63430008000033\n}\n",
				"bytecode": {
					"linkReferences": {},
					"object": "608060405234801561001057600080fd5b50336000806101000a81548173ffffffffffffffffffffffffffffffffffffffff021916908373ffffffffffffffffffffffffffffffffffffffff16021790555061064a806100606000396000f3fe6080604052600436106100555760003560e01c8063066842811461005a5780630a4de2d11461008a5780630fdb1c10146100b557806327e235e3146100bf5780638da5cb5b146100fc578063db613e8114610127575b600080fd5b610074600480360381019061006f91906103c7565b610152565b60405161008191906104a7565b60405180910390f35b34801561009657600080fd5b5061009f6101b3565b6040516100ac91906104e2565b60405180910390f35b6100bd61021b565b005b3480156100cb57600080fd5b506100e660048036038101906100e1919061039e565b6102f1565b6040516100f391906104e2565b60405180910390f35b34801561010857600080fd5b50610111610309565b60405161011e919061048c565b60405180910390f35b34801561013357600080fd5b5061013c61032d565b60405161014991906104e2565b60405180910390f35b600081600160003373ffffffffffffffffffffffffffffffffffffffff1673ffffffffffffffffffffffffffffffffffffffff16815260200190815260200160002060008282546101a39190610519565b9250508190555060019050919050565b6000600160008060009054906101000a900473ffffffffffffffffffffffffffffffffffffffff1673ffffffffffffffffffffffffffffffffffffffff1673ffffffffffffffffffffffffffffffffffffffff16815260200190815260200160002054905090565b600047905060008060009054906101000a900473ffffffffffffffffffffffffffffffffffffffff1673ffffffffffffffffffffffffffffffffffffffff168260405161026790610477565b60006040518083038185875af1925050503d80600081146102a4576040519150601f19603f3d011682016040523d82523d6000602084013e6102a9565b606091505b50509050806102ed576040517f08c379a00000000000000000000000000000000000000000000000000000000081526004016102e4906104c2565b60405180910390fd5b5050565b60016020528060005260406000206000915090505481565b60008054906101000a900473ffffffffffffffffffffffffffffffffffffffff1681565b6000600160003373ffffffffffffffffffffffffffffffffffffffff1673ffffffffffffffffffffffffffffffffffffffff16815260200190815260200160002054905090565b600081359050610383816105e6565b92915050565b600081359050610398816105fd565b92915050565b6000602082840312156103b057600080fd5b60006103be84828501610374565b91505092915050565b6000602082840312156103d957600080fd5b60006103e784828501610389565b91505092915050565b6103f98161056f565b82525050565b61040881610581565b82525050565b600061041b601083610508565b91507f4661696c20746f207769746864726177000000000000000000000000000000006000830152602082019050919050565b600061045b6000836104fd565b9150600082019050919050565b610471816105ad565b82525050565b60006104828261044e565b9150819050919050565b60006020820190506104a160008301846103f0565b92915050565b60006020820190506104bc60008301846103ff565b92915050565b600060208201905081810360008301526104db8161040e565b9050919050565b60006020820190506104f76000830184610468565b92915050565b600081905092915050565b600082825260208201905092915050565b6000610524826105ad565b915061052f836105ad565b9250827fffffffffffffffffffffffffffffffffffffffffffffffffffffffffffffffff03821115610564576105636105b7565b5b828201905092915050565b600061057a8261058d565b9050919050565b60008115159050919050565b600073ffffffffffffffffffffffffffffffffffffffff82169050919050565b6000819050919050565b7f4e487b7100000000000000000000000000000000000000000000000000000000600052601160045260246000fd5b6105ef8161056f565b81146105fa57600080fd5b50565b610606816105ad565b811461061157600080fd5b5056fea2646970667358221220a5f7c22face6c85142c7f322ececb721a797f0c41bbffb7fafad48198634f47164736f6c63430008000033",
					"opcodes": "PUSH1 0x80 PUSH1 0x40 MSTORE CALLVALUE DUP1 ISZERO PUSH2 0x10 JUMPI PUSH1 0x0 DUP1 REVERT JUMPDEST POP CALLER PUSH1 0x0 DUP1 PUSH2 0x100 EXP DUP2 SLOAD DUP2 PUSH20 0xFFFFFFFFFFFFFFFFFFFFFFFFFFFFFFFFFFFFFFFF MUL NOT AND SWAP1 DUP4 PUSH20 0xFFFFFFFFFFFFFFFFFFFFFFFFFFFFFFFFFFFFFFFF AND MUL OR SWAP1 SSTORE POP PUSH2 0x64A DUP1 PUSH2 0x60 PUSH1 0x0 CODECOPY PUSH1 0x0 RETURN INVALID PUSH1 0x80 PUSH1 0x40 MSTORE PUSH1 0x4 CALLDATASIZE LT PUSH2 0x55 JUMPI PUSH1 0x0 CALLDATALOAD PUSH1 0xE0 SHR DUP1 PUSH4 0x6684281 EQ PUSH2 0x5A JUMPI DUP1 PUSH4 0xA4DE2D1 EQ PUSH2 0x8A JUMPI DUP1 PUSH4 0xFDB1C10 EQ PUSH2 0xB5 JUMPI DUP1 PUSH4 0x27E235E3 EQ PUSH2 0xBF JUMPI DUP1 PUSH4 0x8DA5CB5B EQ PUSH2 0xFC JUMPI DUP1 PUSH4 0xDB613E81 EQ PUSH2 0x127 JUMPI JUMPDEST PUSH1 0x0 DUP1 REVERT JUMPDEST PUSH2 0x74 PUSH1 0x4 DUP1 CALLDATASIZE SUB DUP2 ADD SWAP1 PUSH2 0x6F SWAP2 SWAP1 PUSH2 0x3C7 JUMP JUMPDEST PUSH2 0x152 JUMP JUMPDEST PUSH1 0x40 MLOAD PUSH2 0x81 SWAP2 SWAP1 PUSH2 0x4A7 JUMP JUMPDEST PUSH1 0x40 MLOAD DUP1 SWAP2 SUB SWAP1 RETURN JUMPDEST CALLVALUE DUP1 ISZERO PUSH2 0x96 JUMPI PUSH1 0x0 DUP1 REVERT JUMPDEST POP PUSH2 0x9F PUSH2 0x1B3 JUMP JUMPDEST PUSH1 0x40 MLOAD PUSH2 0xAC SWAP2 SWAP1 PUSH2 0x4E2 JUMP JUMPDEST PUSH1 0x40 MLOAD DUP1 SWAP2 SUB SWAP1 RETURN JUMPDEST PUSH2 0xBD PUSH2 0x21B JUMP JUMPDEST STOP JUMPDEST CALLVALUE DUP1 ISZERO PUSH2 0xCB JUMPI PUSH1 0x0 DUP1 REVERT JUMPDEST POP PUSH2 0xE6 PUSH1 0x4 DUP1 CALLDATASIZE SUB DUP2 ADD SWAP1 PUSH2 0xE1 SWAP2 SWAP1 PUSH2 0x39E JUMP JUMPDEST PUSH2 0x2F1 JUMP JUMPDEST PUSH1 0x40 MLOAD PUSH2 0xF3 SWAP2 SWAP1 PUSH2 0x4E2 JUMP JUMPDEST PUSH1 0x40 MLOAD DUP1 SWAP2 SUB SWAP1 RETURN JUMPDEST CALLVALUE DUP1 ISZERO PUSH2 0x108 JUMPI PUSH1 0x0 DUP1 REVERT JUMPDEST POP PUSH2 0x111 PUSH2 0x309 JUMP JUMPDEST PUSH1 0x40 MLOAD PUSH2 0x11E SWAP2 SWAP1 PUSH2 0x48C JUMP JUMPDEST PUSH1 0x40 MLOAD DUP1 SWAP2 SUB SWAP1 RETURN JUMPDEST CALLVALUE DUP1 ISZERO PUSH2 0x133 JUMPI PUSH1 0x0 DUP1 REVERT JUMPDEST POP PUSH2 0x13C PUSH2 0x32D JUMP JUMPDEST PUSH1 0x40 MLOAD PUSH2 0x149 SWAP2 SWAP1 PUSH2 0x4E2 JUMP JUMPDEST PUSH1 0x40 MLOAD DUP1 SWAP2 SUB SWAP1 RETURN JUMPDEST PUSH1 0x0 DUP2 PUSH1 0x1 PUSH1 0x0 CALLER PUSH20 0xFFFFFFFFFFFFFFFFFFFFFFFFFFFFFFFFFFFFFFFF AND PUSH20 0xFFFFFFFFFFFFFFFFFFFFFFFFFFFFFFFFFFFFFFFF AND DUP2 MSTORE PUSH1 0x20 ADD SWAP1 DUP2 MSTORE PUSH1 0x20 ADD PUSH1 0x0 KECCAK256 PUSH1 0x0 DUP3 DUP3 SLOAD PUSH2 0x1A3 SWAP2 SWAP1 PUSH2 0x519 JUMP JUMPDEST SWAP3 POP POP DUP2 SWAP1 SSTORE POP PUSH1 0x1 SWAP1 POP SWAP2 SWAP1 POP JUMP JUMPDEST PUSH1 0x0 PUSH1 0x1 PUSH1 0x0 DUP1 PUSH1 0x0 SWAP1 SLOAD SWAP1 PUSH2 0x100 EXP SWAP1 DIV PUSH20 0xFFFFFFFFFFFFFFFFFFFFFFFFFFFFFFFFFFFFFFFF AND PUSH20 0xFFFFFFFFFFFFFFFFFFFFFFFFFFFFFFFFFFFFFFFF AND PUSH20 0xFFFFFFFFFFFFFFFFFFFFFFFFFFFFFFFFFFFFFFFF AND DUP2 MSTORE PUSH1 0x20 ADD SWAP1 DUP2 MSTORE PUSH1 0x20 ADD PUSH1 0x0 KECCAK256 SLOAD SWAP1 POP SWAP1 JUMP JUMPDEST PUSH1 0x0 SELFBALANCE SWAP1 POP PUSH1 0x0 DUP1 PUSH1 0x0 SWAP1 SLOAD SWAP1 PUSH2 0x100 EXP SWAP1 DIV PUSH20 0xFFFFFFFFFFFFFFFFFFFFFFFFFFFFFFFFFFFFFFFF AND PUSH20 0xFFFFFFFFFFFFFFFFFFFFFFFFFFFFFFFFFFFFFFFF AND DUP3 PUSH1 0x40 MLOAD PUSH2 0x267 SWAP1 PUSH2 0x477 JUMP JUMPDEST PUSH1 0x0 PUSH1 0x40 MLOAD DUP1 DUP4 SUB DUP2 DUP6 DUP8 GAS CALL SWAP3 POP POP POP RETURNDATASIZE DUP1 PUSH1 0x0 DUP2 EQ PUSH2 0x2A4 JUMPI PUSH1 0x40 MLOAD SWAP2 POP PUSH1 0x1F NOT PUSH1 0x3F RETURNDATASIZE ADD AND DUP3 ADD PUSH1 0x40 MSTORE RETURNDATASIZE DUP3 MSTORE RETURNDATASIZE PUSH1 0x0 PUSH1 0x20 DUP5 ADD RETURNDATACOPY PUSH2 0x2A9 JUMP JUMPDEST PUSH1 0x60 SWAP2 POP JUMPDEST POP POP SWAP1 POP DUP1 PUSH2 0x2ED JUMPI PUSH1 0x40 MLOAD PUSH32 0x8C379A000000000000000000000000000000000000000000000000000000000 DUP2 MSTORE PUSH1 0x4 ADD PUSH2 0x2E4 SWAP1 PUSH2 0x4C2 JUMP JUMPDEST PUSH1 0x40 MLOAD DUP1 SWAP2 SUB SWAP1 REVERT JUMPDEST POP POP JUMP JUMPDEST PUSH1 0x1 PUSH1 0x20 MSTORE DUP1 PUSH1 0x0 MSTORE PUSH1 0x40 PUSH1 0x0 KECCAK256 PUSH1 0x0 SWAP2 POP SWAP1 POP SLOAD DUP2 JUMP JUMPDEST PUSH1 0x0 DUP1 SLOAD SWAP1 PUSH2 0x100 EXP SWAP1 DIV PUSH20 0xFFFFFFFFFFFFFFFFFFFFFFFFFFFFFFFFFFFFFFFF AND DUP2 JUMP JUMPDEST PUSH1 0x0 PUSH1 0x1 PUSH1 0x0 CALLER PUSH20 0xFFFFFFFFFFFFFFFFFFFFFFFFFFFFFFFFFFFFFFFF AND PUSH20 0xFFFFFFFFFFFFFFFFFFFFFFFFFFFFFFFFFFFFFFFF AND DUP2 MSTORE PUSH1 0x20 ADD SWAP1 DUP2 MSTORE PUSH1 0x20 ADD PUSH1 0x0 KECCAK256 SLOAD SWAP1 POP SWAP1 JUMP JUMPDEST PUSH1 0x0 DUP2 CALLDATALOAD SWAP1 POP PUSH2 0x383 DUP2 PUSH2 0x5E6 JUMP JUMPDEST SWAP3 SWAP2 POP POP JUMP JUMPDEST PUSH1 0x0 DUP2 CALLDATALOAD SWAP1 POP PUSH2 0x398 DUP2 PUSH2 0x5FD JUMP JUMPDEST SWAP3 SWAP2 POP POP JUMP JUMPDEST PUSH1 0x0 PUSH1 0x20 DUP3 DUP5 SUB SLT ISZERO PUSH2 0x3B0 JUMPI PUSH1 0x0 DUP1 REVERT JUMPDEST PUSH1 0x0 PUSH2 0x3BE DUP5 DUP3 DUP6 ADD PUSH2 0x374 JUMP JUMPDEST SWAP2 POP POP SWAP3 SWAP2 POP POP JUMP JUMPDEST PUSH1 0x0 PUSH1 0x20 DUP3 DUP5 SUB SLT ISZERO PUSH2 0x3D9 JUMPI PUSH1 0x0 DUP1 REVERT JUMPDEST PUSH1 0x0 PUSH2 0x3E7 DUP5 DUP3 DUP6 ADD PUSH2 0x389 JUMP JUMPDEST SWAP2 POP POP SWAP3 SWAP2 POP POP JUMP JUMPDEST PUSH2 0x3F9 DUP2 PUSH2 0x56F JUMP JUMPDEST DUP3 MSTORE POP POP JUMP JUMPDEST PUSH2 0x408 DUP2 PUSH2 0x581 JUMP JUMPDEST DUP3 MSTORE POP POP JUMP JUMPDEST PUSH1 0x0 PUSH2 0x41B PUSH1 0x10 DUP4 PUSH2 0x508 JUMP JUMPDEST SWAP2 POP PUSH32 0x4661696C20746F20776974686472617700000000000000000000000000000000 PUSH1 0x0 DUP4 ADD MSTORE PUSH1 0x20 DUP3 ADD SWAP1 POP SWAP2 SWAP1 POP JUMP JUMPDEST PUSH1 0x0 PUSH2 0x45B PUSH1 0x0 DUP4 PUSH2 0x4FD JUMP JUMPDEST SWAP2 POP PUSH1 0x0 DUP3 ADD SWAP1 POP SWAP2 SWAP1 POP JUMP JUMPDEST PUSH2 0x471 DUP2 PUSH2 0x5AD JUMP JUMPDEST DUP3 MSTORE POP POP JUMP JUMPDEST PUSH1 0x0 PUSH2 0x482 DUP3 PUSH2 0x44E JUMP JUMPDEST SWAP2 POP DUP2 SWAP1 POP SWAP2 SWAP1 POP JUMP JUMPDEST PUSH1 0x0 PUSH1 0x20 DUP3 ADD SWAP1 POP PUSH2 0x4A1 PUSH1 0x0 DUP4 ADD DUP5 PUSH2 0x3F0 JUMP JUMPDEST SWAP3 SWAP2 POP POP JUMP JUMPDEST PUSH1 0x0 PUSH1 0x20 DUP3 ADD SWAP1 POP PUSH2 0x4BC PUSH1 0x0 DUP4 ADD DUP5 PUSH2 0x3FF JUMP JUMPDEST SWAP3 SWAP2 POP POP JUMP JUMPDEST PUSH1 0x0 PUSH1 0x20 DUP3 ADD SWAP1 POP DUP2 DUP2 SUB PUSH1 0x0 DUP4 ADD MSTORE PUSH2 0x4DB DUP2 PUSH2 0x40E JUMP JUMPDEST SWAP1 POP SWAP2 SWAP1 POP JUMP JUMPDEST PUSH1 0x0 PUSH1 0x20 DUP3 ADD SWAP1 POP PUSH2 0x4F7 PUSH1 0x0 DUP4 ADD DUP5 PUSH2 0x468 JUMP JUMPDEST SWAP3 SWAP2 POP POP JUMP JUMPDEST PUSH1 0x0 DUP2 SWAP1 POP SWAP3 SWAP2 POP POP JUMP JUMPDEST PUSH1 0x0 DUP3 DUP3 MSTORE PUSH1 0x20 DUP3 ADD SWAP1 POP SWAP3 SWAP2 POP POP JUMP JUMPDEST PUSH1 0x0 PUSH2 0x524 DUP3 PUSH2 0x5AD JUMP JUMPDEST SWAP2 POP PUSH2 0x52F DUP4 PUSH2 0x5AD JUMP JUMPDEST SWAP3 POP DUP3 PUSH32 0xFFFFFFFFFFFFFFFFFFFFFFFFFFFFFFFFFFFFFFFFFFFFFFFFFFFFFFFFFFFFFFFF SUB DUP3 GT ISZERO PUSH2 0x564 JUMPI PUSH2 0x563 PUSH2 0x5B7 JUMP JUMPDEST JUMPDEST DUP3 DUP3 ADD SWAP1 POP SWAP3 SWAP2 POP POP JUMP JUMPDEST PUSH1 0x0 PUSH2 0x57A DUP3 PUSH2 0x58D JUMP JUMPDEST SWAP1 POP SWAP2 SWAP1 POP JUMP JUMPDEST PUSH1 0x0 DUP2 ISZERO ISZERO SWAP1 POP SWAP2 SWAP1 POP JUMP JUMPDEST PUSH1 0x0 PUSH20 0xFFFFFFFFFFFFFFFFFFFFFFFFFFFFFFFFFFFFFFFF DUP3 AND SWAP1 POP SWAP2 SWAP1 POP JUMP JUMPDEST PUSH1 0x0 DUP2 SWAP1 POP SWAP2 SWAP1 POP JUMP JUMPDEST PUSH32 0x4E487B7100000000000000000000000000000000000000000000000000000000 PUSH1 0x0 MSTORE PUSH1 0x11 PUSH1 0x4 MSTORE PUSH1 0x24 PUSH1 0x0 REVERT JUMPDEST PUSH2 0x5EF DUP2 PUSH2 0x56F JUMP JUMPDEST DUP2 EQ PUSH2 0x5FA JUMPI PUSH1 0x0 DUP1 REVERT JUMPDEST POP JUMP JUMPDEST PUSH2 0x606 DUP2 PUSH2 0x5AD JUMP JUMPDEST DUP2 EQ PUSH2 0x611 JUMPI PUSH1 0x0 DUP1 REVERT JUMPDEST POP JUMP INVALID LOG2 PUSH5 0x6970667358 0x22 SLT KECCAK256 0xA5 0xF7 0xC2 0x2F 0xAC 0xE6 0xC8 MLOAD TIMESTAMP 0xC7 RETURN 0x22 0xEC 0xEC 0xB7 0x21 0xA7 SWAP8 CREATE 0xC4 SHL 0xBF 0xFB PUSH32 0xAFAD48198634F47164736F6C6343000800003300000000000000000000000000 "
				},
				"gasEstimates": {
					"creation": {
						"codeDepositCost": "322000",
						"executionCost": "21228",
						"totalCost": "343228"
					},
					"external": {
						"balances(address)": "1558",
						"getAccount()": "1314",
						"owner()": "1277",
						"queryRecord()": "2063",
						"saveMoney(uint256)": "infinite",
						"withDraw()": "infinite"
					}
				},
				"methodIdentifiers": {
					"balances(address)": "27e235e3",
					"getAccount()": "db613e81",
					"owner()": "8da5cb5b",
					"queryRecord()": "0a4de2d1",
					"saveMoney(uint256)": "06684281",
					"withDraw()": "0fdb1c10"
				}
			},
			"userdoc": {
				"kind": "user",
				"methods": {},
				"version": 1
			}
		}
	}
}