{
	"contracts/Score.sol": {
		"Score": {
			"abi": [
				{
					"inputs": [
						{
							"internalType": "uint256",
							"name": "_studentNum",
							"type": "uint256"
						},
						{
							"internalType": "uint8",
							"name": "_score",
							"type": "uint8"
						}
					],
					"name": "addScore",
					"outputs": [],
					"stateMutability": "nonpayable",
					"type": "function"
				},
				{
					"inputs": [],
					"name": "isTeacher",
					"outputs": [
						{
							"internalType": "bool",
							"name": "",
							"type": "bool"
						}
					],
					"stateMutability": "view",
					"type": "function"
				},
				{
					"inputs": [
						{
							"internalType": "bool",
							"name": "_iden",
							"type": "bool"
						}
					],
					"name": "queryIden",
					"outputs": [],
					"stateMutability": "nonpayable",
					"type": "function"
				},
				{
					"inputs": [
						{
							"internalType": "uint256",
							"name": "_studentNum",
							"type": "uint256"
						}
					],
					"name": "queryScore",
					"outputs": [
						{
							"internalType": "uint8",
							"name": "",
							"type": "uint8"
						}
					],
					"stateMutability": "view",
					"type": "function"
				},
				{
					"inputs": [
						{
							"internalType": "uint256",
							"name": "_studentNum",
							"type": "uint256"
						}
					],
					"name": "removeScore",
					"outputs": [],
					"stateMutability": "nonpayable",
					"type": "function"
				},
				{
					"inputs": [
						{
							"internalType": "uint256",
							"name": "",
							"type": "uint256"
						}
					],
					"name": "studentScore",
					"outputs": [
						{
							"internalType": "uint8",
							"name": "",
							"type": "uint8"
						}
					],
					"stateMutability": "view",
					"type": "function"
				},
				{
					"inputs": [
						{
							"internalType": "uint256",
							"name": "_studentNum",
							"type": "uint256"
						},
						{
							"internalType": "uint8",
							"name": "_score",
							"type": "uint8"
						}
					],
					"name": "updateScore",
					"outputs": [],
					"stateMutability": "nonpayable",
					"type": "function"
				}
			],
			"devdoc": {
				"kind": "dev",
				"methods": {},
				"version": 1
			},
			"evm": {
				"assembly": "    /* \"contracts/Score.sol\":62:1094  contract Score {\r... */\n  mstore(0x40, 0x80)\n  callvalue\n  dup1\n  iszero\n  tag_1\n  jumpi\n  0x00\n  dup1\n  revert\ntag_1:\n  pop\n  dataSize(sub_0)\n  dup1\n  dataOffset(sub_0)\n  0x00\n  codecopy\n  0x00\n  return\nstop\n\nsub_0: assembly {\n        /* \"contracts/Score.sol\":62:1094  contract Score {\r... */\n      mstore(0x40, 0x80)\n      callvalue\n      dup1\n      iszero\n      tag_1\n      jumpi\n      0x00\n      dup1\n      revert\n    tag_1:\n      pop\n      jumpi(tag_2, lt(calldatasize, 0x04))\n      shr(0xe0, calldataload(0x00))\n      dup1\n      0x2d96fd46\n      gt\n      tag_10\n      jumpi\n      dup1\n      0x2d96fd46\n      eq\n      tag_6\n      jumpi\n      dup1\n      0x8e20a9dd\n      eq\n      tag_7\n      jumpi\n      dup1\n      0xc64a4bad\n      eq\n      tag_8\n      jumpi\n      dup1\n      0xd43b8e05\n      eq\n      tag_9\n      jumpi\n      jump(tag_2)\n    tag_10:\n      dup1\n      0x063b3810\n      eq\n      tag_3\n      jumpi\n      dup1\n      0x0efed18b\n      eq\n      tag_4\n      jumpi\n      dup1\n      0x17d9500e\n      eq\n      tag_5\n      jumpi\n    tag_2:\n      0x00\n      dup1\n      revert\n        /* \"contracts/Score.sol\":971:1091  function queryScore(uint256 _studentNum) external view returns(uint8){\r... */\n    tag_3:\n      tag_11\n      0x04\n      dup1\n      calldatasize\n      sub\n      dup2\n      add\n      swap1\n      tag_12\n      swap2\n      swap1\n      tag_13\n      jump\t// in\n    tag_12:\n      tag_14\n      jump\t// in\n    tag_11:\n      mload(0x40)\n      tag_15\n      swap2\n      swap1\n      tag_16\n      jump\t// in\n    tag_15:\n      mload(0x40)\n      dup1\n      swap2\n      sub\n      swap1\n      return\n        /* \"contracts/Score.sol\":368:623  function addScore(uint256 _studentNum,uint8 _score) external onlyTeacher{\r... */\n    tag_4:\n      tag_17\n      0x04\n      dup1\n      calldatasize\n      sub\n      dup2\n      add\n      swap1\n      tag_18\n      swap2\n      swap1\n      tag_19\n      jump\t// in\n    tag_18:\n      tag_20\n      jump\t// in\n    tag_17:\n      stop\n        /* \"contracts/Score.sol\":130:175  mapping(uint256 => uint8) public studentScore */\n    tag_5:\n      tag_21\n      0x04\n      dup1\n      calldatasize\n      sub\n      dup2\n      add\n      swap1\n      tag_22\n      swap2\n      swap1\n      tag_13\n      jump\t// in\n    tag_22:\n      tag_23\n      jump\t// in\n    tag_21:\n      mload(0x40)\n      tag_24\n      swap2\n      swap1\n      tag_16\n      jump\t// in\n    tag_24:\n      mload(0x40)\n      dup1\n      swap2\n      sub\n      swap1\n      return\n        /* \"contracts/Score.sol\":847:949  function removeScore(uint256 _studentNum) external {\r... */\n    tag_6:\n      tag_25\n      0x04\n      dup1\n      calldatasize\n      sub\n      dup2\n      add\n      swap1\n      tag_26\n      swap2\n      swap1\n      tag_13\n      jump\t// in\n    tag_26:\n      tag_27\n      jump\t// in\n    tag_25:\n      stop\n        /* \"contracts/Score.sol\":285:360  function queryIden(bool _iden) external{\r... */\n    tag_7:\n      tag_28\n      0x04\n      dup1\n      calldatasize\n      sub\n      dup2\n      add\n      swap1\n      tag_29\n      swap2\n      swap1\n      tag_30\n      jump\t// in\n    tag_29:\n      tag_31\n      jump\t// in\n    tag_28:\n      stop\n        /* \"contracts/Score.sol\":86:107  bool public isTeacher */\n    tag_8:\n      tag_32\n      tag_33\n      jump\t// in\n    tag_32:\n      mload(0x40)\n      tag_34\n      swap2\n      swap1\n      tag_35\n      jump\t// in\n    tag_34:\n      mload(0x40)\n      dup1\n      swap2\n      sub\n      swap1\n      return\n        /* \"contracts/Score.sol\":645:825  function updateScore(uint256 _studentNum,uint8 _score) external onlyTeacher{\r... */\n    tag_9:\n      tag_36\n      0x04\n      dup1\n      calldatasize\n      sub\n      dup2\n      add\n      swap1\n      tag_37\n      swap2\n      swap1\n      tag_19\n      jump\t// in\n    tag_37:\n      tag_38\n      jump\t// in\n    tag_36:\n      stop\n        /* \"contracts/Score.sol\":971:1091  function queryScore(uint256 _studentNum) external view returns(uint8){\r... */\n    tag_14:\n        /* \"contracts/Score.sol\":1034:1039  uint8 */\n      0x00\n        /* \"contracts/Score.sol\":1058:1070  studentScore */\n      0x01\n        /* \"contracts/Score.sol\":1058:1083  studentScore[_studentNum] */\n      0x00\n        /* \"contracts/Score.sol\":1071:1082  _studentNum */\n      dup4\n        /* \"contracts/Score.sol\":1058:1083  studentScore[_studentNum] */\n      dup2\n      mstore\n      0x20\n      add\n      swap1\n      dup2\n      mstore\n      0x20\n      add\n      0x00\n      keccak256\n      0x00\n      swap1\n      sload\n      swap1\n      0x0100\n      exp\n      swap1\n      div\n      0xff\n      and\n        /* \"contracts/Score.sol\":1051:1083  return studentScore[_studentNum] */\n      swap1\n      pop\n        /* \"contracts/Score.sol\":971:1091  function queryScore(uint256 _studentNum) external view returns(uint8){\r... */\n      swap2\n      swap1\n      pop\n      jump\t// out\n        /* \"contracts/Score.sol\":368:623  function addScore(uint256 _studentNum,uint8 _score) external onlyTeacher{\r... */\n    tag_20:\n        /* \"contracts/Score.sol\":225:234  isTeacher */\n      0x00\n      dup1\n      sload\n      swap1\n      0x0100\n      exp\n      swap1\n      div\n      0xff\n      and\n        /* \"contracts/Score.sol\":217:257  require(isTeacher,\"you are not teacher\") */\n      tag_41\n      jumpi\n      mload(0x40)\n      0x08c379a000000000000000000000000000000000000000000000000000000000\n      dup2\n      mstore\n      0x04\n      add\n      tag_42\n      swap1\n      tag_43\n      jump\t// in\n    tag_42:\n      mload(0x40)\n      dup1\n      swap2\n      sub\n      swap1\n      revert\n    tag_41:\n        /* \"contracts/Score.sol\":451:467  uint8 addedScore */\n      0x00\n        /* \"contracts/Score.sol\":499:505  _score */\n      dup2\n        /* \"contracts/Score.sol\":470:482  studentScore */\n      0x01\n        /* \"contracts/Score.sol\":470:495  studentScore[_studentNum] */\n      0x00\n        /* \"contracts/Score.sol\":483:494  _studentNum */\n      dup6\n        /* \"contracts/Score.sol\":470:495  studentScore[_studentNum] */\n      dup2\n      mstore\n      0x20\n      add\n      swap1\n      dup2\n      mstore\n      0x20\n      add\n      0x00\n      keccak256\n      0x00\n        /* \"contracts/Score.sol\":470:505  studentScore[_studentNum] += _score */\n      dup3\n      dup3\n      dup3\n      swap1\n      sload\n      swap1\n      0x0100\n      exp\n      swap1\n      div\n      0xff\n      and\n      tag_45\n      swap2\n      swap1\n      tag_46\n      jump\t// in\n    tag_45:\n      swap3\n      pop\n      0x0100\n      exp\n      dup2\n      sload\n      dup2\n      0xff\n      mul\n      not\n      and\n      swap1\n      dup4\n      0xff\n      and\n      mul\n      or\n      swap1\n      sstore\n        /* \"contracts/Score.sol\":451:505  uint8 addedScore = studentScore[_studentNum] += _score */\n      swap1\n      pop\n        /* \"contracts/Score.sol\":538:541  100 */\n      0x64\n        /* \"contracts/Score.sol\":524:534  addedScore */\n      dup2\n        /* \"contracts/Score.sol\":524:541  addedScore <= 100 */\n      0xff\n      and\n      gt\n      iszero\n        /* \"contracts/Score.sol\":516:569  require(addedScore <= 100, \"Score cannot exceed 100\") */\n      tag_47\n      jumpi\n      mload(0x40)\n      0x08c379a000000000000000000000000000000000000000000000000000000000\n      dup2\n      mstore\n      0x04\n      add\n      tag_48\n      swap1\n      tag_49\n      jump\t// in\n    tag_48:\n      mload(0x40)\n      dup1\n      swap2\n      sub\n      swap1\n      revert\n    tag_47:\n        /* \"contracts/Score.sol\":609:615  _score */\n      dup2\n        /* \"contracts/Score.sol\":580:592  studentScore */\n      0x01\n        /* \"contracts/Score.sol\":580:605  studentScore[_studentNum] */\n      0x00\n        /* \"contracts/Score.sol\":593:604  _studentNum */\n      dup6\n        /* \"contracts/Score.sol\":580:605  studentScore[_studentNum] */\n      dup2\n      mstore\n      0x20\n      add\n      swap1\n      dup2\n      mstore\n      0x20\n      add\n      0x00\n      keccak256\n      0x00\n        /* \"contracts/Score.sol\":580:615  studentScore[_studentNum] += _score */\n      dup3\n      dup3\n      dup3\n      swap1\n      sload\n      swap1\n      0x0100\n      exp\n      swap1\n      div\n      0xff\n      and\n      tag_50\n      swap2\n      swap1\n      tag_46\n      jump\t// in\n    tag_50:\n      swap3\n      pop\n      0x0100\n      exp\n      dup2\n      sload\n      dup2\n      0xff\n      mul\n      not\n      and\n      swap1\n      dup4\n      0xff\n      and\n      mul\n      or\n      swap1\n      sstore\n      pop\n        /* \"contracts/Score.sol\":440:623  {\r... */\n      pop\n        /* \"contracts/Score.sol\":368:623  function addScore(uint256 _studentNum,uint8 _score) external onlyTeacher{\r... */\n      pop\n      pop\n      jump\t// out\n        /* \"contracts/Score.sol\":130:175  mapping(uint256 => uint8) public studentScore */\n    tag_23:\n      mstore(0x20, 0x01)\n      dup1\n      0x00\n      mstore\n      keccak256(0x00, 0x40)\n      0x00\n      swap2\n      pop\n      sload\n      swap1\n      0x0100\n      exp\n      swap1\n      div\n      0xff\n      and\n      dup2\n      jump\t// out\n        /* \"contracts/Score.sol\":847:949  function removeScore(uint256 _studentNum) external {\r... */\n    tag_27:\n        /* \"contracts/Score.sol\":916:928  studentScore */\n      0x01\n        /* \"contracts/Score.sol\":916:941  studentScore[_studentNum] */\n      0x00\n        /* \"contracts/Score.sol\":929:940  _studentNum */\n      dup3\n        /* \"contracts/Score.sol\":916:941  studentScore[_studentNum] */\n      dup2\n      mstore\n      0x20\n      add\n      swap1\n      dup2\n      mstore\n      0x20\n      add\n      0x00\n      keccak256\n      0x00\n        /* \"contracts/Score.sol\":909:941  delete studentScore[_studentNum] */\n      0x0100\n      exp\n      dup2\n      sload\n      swap1\n      0xff\n      mul\n      not\n      and\n      swap1\n      sstore\n        /* \"contracts/Score.sol\":847:949  function removeScore(uint256 _studentNum) external {\r... */\n      pop\n      jump\t// out\n        /* \"contracts/Score.sol\":285:360  function queryIden(bool _iden) external{\r... */\n    tag_31:\n        /* \"contracts/Score.sol\":347:352  _iden */\n      dup1\n        /* \"contracts/Score.sol\":335:344  isTeacher */\n      0x00\n      dup1\n        /* \"contracts/Score.sol\":335:352  isTeacher = _iden */\n      0x0100\n      exp\n      dup2\n      sload\n      dup2\n      0xff\n      mul\n      not\n      and\n      swap1\n      dup4\n      iszero\n      iszero\n      mul\n      or\n      swap1\n      sstore\n      pop\n        /* \"contracts/Score.sol\":285:360  function queryIden(bool _iden) external{\r... */\n      pop\n      jump\t// out\n        /* \"contracts/Score.sol\":86:107  bool public isTeacher */\n    tag_33:\n      0x00\n      dup1\n      sload\n      swap1\n      0x0100\n      exp\n      swap1\n      div\n      0xff\n      and\n      dup2\n      jump\t// out\n        /* \"contracts/Score.sol\":645:825  function updateScore(uint256 _studentNum,uint8 _score) external onlyTeacher{\r... */\n    tag_38:\n        /* \"contracts/Score.sol\":225:234  isTeacher */\n      0x00\n      dup1\n      sload\n      swap1\n      0x0100\n      exp\n      swap1\n      div\n      0xff\n      and\n        /* \"contracts/Score.sol\":217:257  require(isTeacher,\"you are not teacher\") */\n      tag_54\n      jumpi\n      mload(0x40)\n      0x08c379a000000000000000000000000000000000000000000000000000000000\n      dup2\n      mstore\n      0x04\n      add\n      tag_55\n      swap1\n      tag_43\n      jump\t// in\n    tag_55:\n      mload(0x40)\n      dup1\n      swap2\n      sub\n      swap1\n      revert\n    tag_54:\n        /* \"contracts/Score.sol\":749:752  100 */\n      0x64\n        /* \"contracts/Score.sol\":739:745  _score */\n      dup2\n        /* \"contracts/Score.sol\":739:752  _score <= 100 */\n      0xff\n      and\n      gt\n      iszero\n        /* \"contracts/Score.sol\":731:772  require(_score <= 100,\"max score is 100\") */\n      tag_57\n      jumpi\n      mload(0x40)\n      0x08c379a000000000000000000000000000000000000000000000000000000000\n      dup2\n      mstore\n      0x04\n      add\n      tag_58\n      swap1\n      tag_59\n      jump\t// in\n    tag_58:\n      mload(0x40)\n      dup1\n      swap2\n      sub\n      swap1\n      revert\n    tag_57:\n        /* \"contracts/Score.sol\":811:817  _score */\n      dup1\n        /* \"contracts/Score.sol\":783:795  studentScore */\n      0x01\n        /* \"contracts/Score.sol\":783:808  studentScore[_studentNum] */\n      0x00\n        /* \"contracts/Score.sol\":796:807  _studentNum */\n      dup5\n        /* \"contracts/Score.sol\":783:808  studentScore[_studentNum] */\n      dup2\n      mstore\n      0x20\n      add\n      swap1\n      dup2\n      mstore\n      0x20\n      add\n      0x00\n      keccak256\n      0x00\n        /* \"contracts/Score.sol\":783:817  studentScore[_studentNum] = _score */\n      0x0100\n      exp\n      dup2\n      sload\n      dup2\n      0xff\n      mul\n      not\n      and\n      swap1\n      dup4\n      0xff\n      and\n      mul\n      or\n      swap1\n      sstore\n      pop\n        /* \"contracts/Score.sol\":645:825  function updateScore(uint256 _studentNum,uint8 _score) external onlyTeacher{\r... */\n      pop\n      pop\n      jump\t// out\n        /* \"#utility.yul\":7:140   */\n    tag_61:\n        /* \"#utility.yul\":50:55   */\n      0x00\n        /* \"#utility.yul\":88:94   */\n      dup2\n        /* \"#utility.yul\":75:95   */\n      calldataload\n        /* \"#utility.yul\":66:95   */\n      swap1\n      pop\n        /* \"#utility.yul\":104:134   */\n      tag_63\n        /* \"#utility.yul\":128:133   */\n      dup2\n        /* \"#utility.yul\":104:134   */\n      tag_64\n      jump\t// in\n    tag_63:\n        /* \"#utility.yul\":7:140   */\n      swap3\n      swap2\n      pop\n      pop\n      jump\t// out\n        /* \"#utility.yul\":146:285   */\n    tag_65:\n        /* \"#utility.yul\":192:197   */\n      0x00\n        /* \"#utility.yul\":230:236   */\n      dup2\n        /* \"#utility.yul\":217:237   */\n      calldataload\n        /* \"#utility.yul\":208:237   */\n      swap1\n      pop\n        /* \"#utility.yul\":246:279   */\n      tag_67\n        /* \"#utility.yul\":273:278   */\n      dup2\n        /* \"#utility.yul\":246:279   */\n      tag_68\n      jump\t// in\n    tag_67:\n        /* \"#utility.yul\":146:285   */\n      swap3\n      swap2\n      pop\n      pop\n      jump\t// out\n        /* \"#utility.yul\":291:426   */\n    tag_69:\n        /* \"#utility.yul\":335:340   */\n      0x00\n        /* \"#utility.yul\":373:379   */\n      dup2\n        /* \"#utility.yul\":360:380   */\n      calldataload\n        /* \"#utility.yul\":351:380   */\n      swap1\n      pop\n        /* \"#utility.yul\":389:420   */\n      tag_71\n        /* \"#utility.yul\":414:419   */\n      dup2\n        /* \"#utility.yul\":389:420   */\n      tag_72\n      jump\t// in\n    tag_71:\n        /* \"#utility.yul\":291:426   */\n      swap3\n      swap2\n      pop\n      pop\n      jump\t// out\n        /* \"#utility.yul\":432:755   */\n    tag_30:\n        /* \"#utility.yul\":488:494   */\n      0x00\n        /* \"#utility.yul\":537:539   */\n      0x20\n        /* \"#utility.yul\":525:534   */\n      dup3\n        /* \"#utility.yul\":516:523   */\n      dup5\n        /* \"#utility.yul\":512:535   */\n      sub\n        /* \"#utility.yul\":508:540   */\n      slt\n        /* \"#utility.yul\":505:624   */\n      iszero\n      tag_74\n      jumpi\n        /* \"#utility.yul\":543:622   */\n      tag_75\n      tag_76\n      jump\t// in\n    tag_75:\n        /* \"#utility.yul\":505:624   */\n    tag_74:\n        /* \"#utility.yul\":663:664   */\n      0x00\n        /* \"#utility.yul\":688:738   */\n      tag_77\n        /* \"#utility.yul\":730:737   */\n      dup5\n        /* \"#utility.yul\":721:727   */\n      dup3\n        /* \"#utility.yul\":710:719   */\n      dup6\n        /* \"#utility.yul\":706:728   */\n      add\n        /* \"#utility.yul\":688:738   */\n      tag_61\n      jump\t// in\n    tag_77:\n        /* \"#utility.yul\":678:738   */\n      swap2\n      pop\n        /* \"#utility.yul\":634:748   */\n      pop\n        /* \"#utility.yul\":432:755   */\n      swap3\n      swap2\n      pop\n      pop\n      jump\t// out\n        /* \"#utility.yul\":761:1090   */\n    tag_13:\n        /* \"#utility.yul\":820:826   */\n      0x00\n        /* \"#utility.yul\":869:871   */\n      0x20\n        /* \"#utility.yul\":857:866   */\n      dup3\n        /* \"#utility.yul\":848:855   */\n      dup5\n        /* \"#utility.yul\":844:867   */\n      sub\n        /* \"#utility.yul\":840:872   */\n      slt\n        /* \"#utility.yul\":837:956   */\n      iszero\n      tag_79\n      jumpi\n        /* \"#utility.yul\":875:954   */\n      tag_80\n      tag_76\n      jump\t// in\n    tag_80:\n        /* \"#utility.yul\":837:956   */\n    tag_79:\n        /* \"#utility.yul\":995:996   */\n      0x00\n        /* \"#utility.yul\":1020:1073   */\n      tag_81\n        /* \"#utility.yul\":1065:1072   */\n      dup5\n        /* \"#utility.yul\":1056:1062   */\n      dup3\n        /* \"#utility.yul\":1045:1054   */\n      dup6\n        /* \"#utility.yul\":1041:1063   */\n      add\n        /* \"#utility.yul\":1020:1073   */\n      tag_65\n      jump\t// in\n    tag_81:\n        /* \"#utility.yul\":1010:1073   */\n      swap2\n      pop\n        /* \"#utility.yul\":966:1083   */\n      pop\n        /* \"#utility.yul\":761:1090   */\n      swap3\n      swap2\n      pop\n      pop\n      jump\t// out\n        /* \"#utility.yul\":1096:1566   */\n    tag_19:\n        /* \"#utility.yul\":1162:1168   */\n      0x00\n        /* \"#utility.yul\":1170:1176   */\n      dup1\n        /* \"#utility.yul\":1219:1221   */\n      0x40\n        /* \"#utility.yul\":1207:1216   */\n      dup4\n        /* \"#utility.yul\":1198:1205   */\n      dup6\n        /* \"#utility.yul\":1194:1217   */\n      sub\n        /* \"#utility.yul\":1190:1222   */\n      slt\n        /* \"#utility.yul\":1187:1306   */\n      iszero\n      tag_83\n      jumpi\n        /* \"#utility.yul\":1225:1304   */\n      tag_84\n      tag_76\n      jump\t// in\n    tag_84:\n        /* \"#utility.yul\":1187:1306   */\n    tag_83:\n        /* \"#utility.yul\":1345:1346   */\n      0x00\n        /* \"#utility.yul\":1370:1423   */\n      tag_85\n        /* \"#utility.yul\":1415:1422   */\n      dup6\n        /* \"#utility.yul\":1406:1412   */\n      dup3\n        /* \"#utility.yul\":1395:1404   */\n      dup7\n        /* \"#utility.yul\":1391:1413   */\n      add\n        /* \"#utility.yul\":1370:1423   */\n      tag_65\n      jump\t// in\n    tag_85:\n        /* \"#utility.yul\":1360:1423   */\n      swap3\n      pop\n        /* \"#utility.yul\":1316:1433   */\n      pop\n        /* \"#utility.yul\":1472:1474   */\n      0x20\n        /* \"#utility.yul\":1498:1549   */\n      tag_86\n        /* \"#utility.yul\":1541:1548   */\n      dup6\n        /* \"#utility.yul\":1532:1538   */\n      dup3\n        /* \"#utility.yul\":1521:1530   */\n      dup7\n        /* \"#utility.yul\":1517:1539   */\n      add\n        /* \"#utility.yul\":1498:1549   */\n      tag_69\n      jump\t// in\n    tag_86:\n        /* \"#utility.yul\":1488:1549   */\n      swap2\n      pop\n        /* \"#utility.yul\":1443:1559   */\n      pop\n        /* \"#utility.yul\":1096:1566   */\n      swap3\n      pop\n      swap3\n      swap1\n      pop\n      jump\t// out\n        /* \"#utility.yul\":1572:1681   */\n    tag_87:\n        /* \"#utility.yul\":1653:1674   */\n      tag_89\n        /* \"#utility.yul\":1668:1673   */\n      dup2\n        /* \"#utility.yul\":1653:1674   */\n      tag_90\n      jump\t// in\n    tag_89:\n        /* \"#utility.yul\":1648:1651   */\n      dup3\n        /* \"#utility.yul\":1641:1675   */\n      mstore\n        /* \"#utility.yul\":1572:1681   */\n      pop\n      pop\n      jump\t// out\n        /* \"#utility.yul\":1687:2053   */\n    tag_91:\n        /* \"#utility.yul\":1829:1832   */\n      0x00\n        /* \"#utility.yul\":1850:1917   */\n      tag_93\n        /* \"#utility.yul\":1914:1916   */\n      0x17\n        /* \"#utility.yul\":1909:1912   */\n      dup4\n        /* \"#utility.yul\":1850:1917   */\n      tag_94\n      jump\t// in\n    tag_93:\n        /* \"#utility.yul\":1843:1917   */\n      swap2\n      pop\n        /* \"#utility.yul\":1926:2019   */\n      tag_95\n        /* \"#utility.yul\":2015:2018   */\n      dup3\n        /* \"#utility.yul\":1926:2019   */\n      tag_96\n      jump\t// in\n    tag_95:\n        /* \"#utility.yul\":2044:2046   */\n      0x20\n        /* \"#utility.yul\":2039:2042   */\n      dup3\n        /* \"#utility.yul\":2035:2047   */\n      add\n        /* \"#utility.yul\":2028:2047   */\n      swap1\n      pop\n        /* \"#utility.yul\":1687:2053   */\n      swap2\n      swap1\n      pop\n      jump\t// out\n        /* \"#utility.yul\":2059:2425   */\n    tag_97:\n        /* \"#utility.yul\":2201:2204   */\n      0x00\n        /* \"#utility.yul\":2222:2289   */\n      tag_99\n        /* \"#utility.yul\":2286:2288   */\n      0x13\n        /* \"#utility.yul\":2281:2284   */\n      dup4\n        /* \"#utility.yul\":2222:2289   */\n      tag_94\n      jump\t// in\n    tag_99:\n        /* \"#utility.yul\":2215:2289   */\n      swap2\n      pop\n        /* \"#utility.yul\":2298:2391   */\n      tag_100\n        /* \"#utility.yul\":2387:2390   */\n      dup3\n        /* \"#utility.yul\":2298:2391   */\n      tag_101\n      jump\t// in\n    tag_100:\n        /* \"#utility.yul\":2416:2418   */\n      0x20\n        /* \"#utility.yul\":2411:2414   */\n      dup3\n        /* \"#utility.yul\":2407:2419   */\n      add\n        /* \"#utility.yul\":2400:2419   */\n      swap1\n      pop\n        /* \"#utility.yul\":2059:2425   */\n      swap2\n      swap1\n      pop\n      jump\t// out\n        /* \"#utility.yul\":2431:2797   */\n    tag_102:\n        /* \"#utility.yul\":2573:2576   */\n      0x00\n        /* \"#utility.yul\":2594:2661   */\n      tag_104\n        /* \"#utility.yul\":2658:2660   */\n      0x10\n        /* \"#utility.yul\":2653:2656   */\n      dup4\n        /* \"#utility.yul\":2594:2661   */\n      tag_94\n      jump\t// in\n    tag_104:\n        /* \"#utility.yul\":2587:2661   */\n      swap2\n      pop\n        /* \"#utility.yul\":2670:2763   */\n      tag_105\n        /* \"#utility.yul\":2759:2762   */\n      dup3\n        /* \"#utility.yul\":2670:2763   */\n      tag_106\n      jump\t// in\n    tag_105:\n        /* \"#utility.yul\":2788:2790   */\n      0x20\n        /* \"#utility.yul\":2783:2786   */\n      dup3\n        /* \"#utility.yul\":2779:2791   */\n      add\n        /* \"#utility.yul\":2772:2791   */\n      swap1\n      pop\n        /* \"#utility.yul\":2431:2797   */\n      swap2\n      swap1\n      pop\n      jump\t// out\n        /* \"#utility.yul\":2803:2915   */\n    tag_107:\n        /* \"#utility.yul\":2886:2908   */\n      tag_109\n        /* \"#utility.yul\":2902:2907   */\n      dup2\n        /* \"#utility.yul\":2886:2908   */\n      tag_110\n      jump\t// in\n    tag_109:\n        /* \"#utility.yul\":2881:2884   */\n      dup3\n        /* \"#utility.yul\":2874:2909   */\n      mstore\n        /* \"#utility.yul\":2803:2915   */\n      pop\n      pop\n      jump\t// out\n        /* \"#utility.yul\":2921:3131   */\n    tag_35:\n        /* \"#utility.yul\":3008:3012   */\n      0x00\n        /* \"#utility.yul\":3046:3048   */\n      0x20\n        /* \"#utility.yul\":3035:3044   */\n      dup3\n        /* \"#utility.yul\":3031:3049   */\n      add\n        /* \"#utility.yul\":3023:3049   */\n      swap1\n      pop\n        /* \"#utility.yul\":3059:3124   */\n      tag_112\n        /* \"#utility.yul\":3121:3122   */\n      0x00\n        /* \"#utility.yul\":3110:3119   */\n      dup4\n        /* \"#utility.yul\":3106:3123   */\n      add\n        /* \"#utility.yul\":3097:3103   */\n      dup5\n        /* \"#utility.yul\":3059:3124   */\n      tag_87\n      jump\t// in\n    tag_112:\n        /* \"#utility.yul\":2921:3131   */\n      swap3\n      swap2\n      pop\n      pop\n      jump\t// out\n        /* \"#utility.yul\":3137:3556   */\n    tag_49:\n        /* \"#utility.yul\":3303:3307   */\n      0x00\n        /* \"#utility.yul\":3341:3343   */\n      0x20\n        /* \"#utility.yul\":3330:3339   */\n      dup3\n        /* \"#utility.yul\":3326:3344   */\n      add\n        /* \"#utility.yul\":3318:3344   */\n      swap1\n      pop\n        /* \"#utility.yul\":3390:3399   */\n      dup2\n        /* \"#utility.yul\":3384:3388   */\n      dup2\n        /* \"#utility.yul\":3380:3400   */\n      sub\n        /* \"#utility.yul\":3376:3377   */\n      0x00\n        /* \"#utility.yul\":3365:3374   */\n      dup4\n        /* \"#utility.yul\":3361:3378   */\n      add\n        /* \"#utility.yul\":3354:3401   */\n      mstore\n        /* \"#utility.yul\":3418:3549   */\n      tag_114\n        /* \"#utility.yul\":3544:3548   */\n      dup2\n        /* \"#utility.yul\":3418:3549   */\n      tag_91\n      jump\t// in\n    tag_114:\n        /* \"#utility.yul\":3410:3549   */\n      swap1\n      pop\n        /* \"#utility.yul\":3137:3556   */\n      swap2\n      swap1\n      pop\n      jump\t// out\n        /* \"#utility.yul\":3562:3981   */\n    tag_43:\n        /* \"#utility.yul\":3728:3732   */\n      0x00\n        /* \"#utility.yul\":3766:3768   */\n      0x20\n        /* \"#utility.yul\":3755:3764   */\n      dup3\n        /* \"#utility.yul\":3751:3769   */\n      add\n        /* \"#utility.yul\":3743:3769   */\n      swap1\n      pop\n        /* \"#utility.yul\":3815:3824   */\n      dup2\n        /* \"#utility.yul\":3809:3813   */\n      dup2\n        /* \"#utility.yul\":3805:3825   */\n      sub\n        /* \"#utility.yul\":3801:3802   */\n      0x00\n        /* \"#utility.yul\":3790:3799   */\n      dup4\n        /* \"#utility.yul\":3786:3803   */\n      add\n        /* \"#utility.yul\":3779:3826   */\n      mstore\n        /* \"#utility.yul\":3843:3974   */\n      tag_116\n        /* \"#utility.yul\":3969:3973   */\n      dup2\n        /* \"#utility.yul\":3843:3974   */\n      tag_97\n      jump\t// in\n    tag_116:\n        /* \"#utility.yul\":3835:3974   */\n      swap1\n      pop\n        /* \"#utility.yul\":3562:3981   */\n      swap2\n      swap1\n      pop\n      jump\t// out\n        /* \"#utility.yul\":3987:4406   */\n    tag_59:\n        /* \"#utility.yul\":4153:4157   */\n      0x00\n        /* \"#utility.yul\":4191:4193   */\n      0x20\n        /* \"#utility.yul\":4180:4189   */\n      dup3\n        /* \"#utility.yul\":4176:4194   */\n      add\n        /* \"#utility.yul\":4168:4194   */\n      swap1\n      pop\n        /* \"#utility.yul\":4240:4249   */\n      dup2\n        /* \"#utility.yul\":4234:4238   */\n      dup2\n        /* \"#utility.yul\":4230:4250   */\n      sub\n        /* \"#utility.yul\":4226:4227   */\n      0x00\n        /* \"#utility.yul\":4215:4224   */\n      dup4\n        /* \"#utility.yul\":4211:4228   */\n      add\n        /* \"#utility.yul\":4204:4251   */\n      mstore\n        /* \"#utility.yul\":4268:4399   */\n      tag_118\n        /* \"#utility.yul\":4394:4398   */\n      dup2\n        /* \"#utility.yul\":4268:4399   */\n      tag_102\n      jump\t// in\n    tag_118:\n        /* \"#utility.yul\":4260:4399   */\n      swap1\n      pop\n        /* \"#utility.yul\":3987:4406   */\n      swap2\n      swap1\n      pop\n      jump\t// out\n        /* \"#utility.yul\":4412:4626   */\n    tag_16:\n        /* \"#utility.yul\":4501:4505   */\n      0x00\n        /* \"#utility.yul\":4539:4541   */\n      0x20\n        /* \"#utility.yul\":4528:4537   */\n      dup3\n        /* \"#utility.yul\":4524:4542   */\n      add\n        /* \"#utility.yul\":4516:4542   */\n      swap1\n      pop\n        /* \"#utility.yul\":4552:4619   */\n      tag_120\n        /* \"#utility.yul\":4616:4617   */\n      0x00\n        /* \"#utility.yul\":4605:4614   */\n      dup4\n        /* \"#utility.yul\":4601:4618   */\n      add\n        /* \"#utility.yul\":4592:4598   */\n      dup5\n        /* \"#utility.yul\":4552:4619   */\n      tag_107\n      jump\t// in\n    tag_120:\n        /* \"#utility.yul\":4412:4626   */\n      swap3\n      swap2\n      pop\n      pop\n      jump\t// out\n        /* \"#utility.yul\":4713:4882   */\n    tag_94:\n        /* \"#utility.yul\":4797:4808   */\n      0x00\n        /* \"#utility.yul\":4831:4837   */\n      dup3\n        /* \"#utility.yul\":4826:4829   */\n      dup3\n        /* \"#utility.yul\":4819:4838   */\n      mstore\n        /* \"#utility.yul\":4871:4875   */\n      0x20\n        /* \"#utility.yul\":4866:4869   */\n      dup3\n        /* \"#utility.yul\":4862:4876   */\n      add\n        /* \"#utility.yul\":4847:4876   */\n      swap1\n      pop\n        /* \"#utility.yul\":4713:4882   */\n      swap3\n      swap2\n      pop\n      pop\n      jump\t// out\n        /* \"#utility.yul\":4888:5125   */\n    tag_46:\n        /* \"#utility.yul\":4926:4929   */\n      0x00\n        /* \"#utility.yul\":4945:4963   */\n      tag_125\n        /* \"#utility.yul\":4961:4962   */\n      dup3\n        /* \"#utility.yul\":4945:4963   */\n      tag_110\n      jump\t// in\n    tag_125:\n        /* \"#utility.yul\":4940:4963   */\n      swap2\n      pop\n        /* \"#utility.yul\":4977:4995   */\n      tag_126\n        /* \"#utility.yul\":4993:4994   */\n      dup4\n        /* \"#utility.yul\":4977:4995   */\n      tag_110\n      jump\t// in\n    tag_126:\n        /* \"#utility.yul\":4972:4995   */\n      swap3\n      pop\n        /* \"#utility.yul\":5067:5068   */\n      dup3\n        /* \"#utility.yul\":5061:5065   */\n      0xff\n        /* \"#utility.yul\":5057:5069   */\n      sub\n        /* \"#utility.yul\":5054:5055   */\n      dup3\n        /* \"#utility.yul\":5051:5070   */\n      gt\n        /* \"#utility.yul\":5048:5093   */\n      iszero\n      tag_127\n      jumpi\n        /* \"#utility.yul\":5073:5091   */\n      tag_128\n      tag_129\n      jump\t// in\n    tag_128:\n        /* \"#utility.yul\":5048:5093   */\n    tag_127:\n        /* \"#utility.yul\":5117:5118   */\n      dup3\n        /* \"#utility.yul\":5114:5115   */\n      dup3\n        /* \"#utility.yul\":5110:5119   */\n      add\n        /* \"#utility.yul\":5103:5119   */\n      swap1\n      pop\n        /* \"#utility.yul\":4888:5125   */\n      swap3\n      swap2\n      pop\n      pop\n      jump\t// out\n        /* \"#utility.yul\":5131:5221   */\n    tag_90:\n        /* \"#utility.yul\":5165:5172   */\n      0x00\n        /* \"#utility.yul\":5208:5213   */\n      dup2\n        /* \"#utility.yul\":5201:5214   */\n      iszero\n        /* \"#utility.yul\":5194:5215   */\n      iszero\n        /* \"#utility.yul\":5183:5215   */\n      swap1\n      pop\n        /* \"#utility.yul\":5131:5221   */\n      swap2\n      swap1\n      pop\n      jump\t// out\n        /* \"#utility.yul\":5227:5304   */\n    tag_131:\n        /* \"#utility.yul\":5264:5271   */\n      0x00\n        /* \"#utility.yul\":5293:5298   */\n      dup2\n        /* \"#utility.yul\":5282:5298   */\n      swap1\n      pop\n        /* \"#utility.yul\":5227:5304   */\n      swap2\n      swap1\n      pop\n      jump\t// out\n        /* \"#utility.yul\":5310:5396   */\n    tag_110:\n        /* \"#utility.yul\":5345:5352   */\n      0x00\n        /* \"#utility.yul\":5385:5389   */\n      0xff\n        /* \"#utility.yul\":5378:5383   */\n      dup3\n        /* \"#utility.yul\":5374:5390   */\n      and\n        /* \"#utility.yul\":5363:5390   */\n      swap1\n      pop\n        /* \"#utility.yul\":5310:5396   */\n      swap2\n      swap1\n      pop\n      jump\t// out\n        /* \"#utility.yul\":5402:5582   */\n    tag_129:\n        /* \"#utility.yul\":5450:5527   */\n      0x4e487b7100000000000000000000000000000000000000000000000000000000\n        /* \"#utility.yul\":5447:5448   */\n      0x00\n        /* \"#utility.yul\":5440:5528   */\n      mstore\n        /* \"#utility.yul\":5547:5551   */\n      0x11\n        /* \"#utility.yul\":5544:5545   */\n      0x04\n        /* \"#utility.yul\":5537:5552   */\n      mstore\n        /* \"#utility.yul\":5571:5575   */\n      0x24\n        /* \"#utility.yul\":5568:5569   */\n      0x00\n        /* \"#utility.yul\":5561:5576   */\n      revert\n        /* \"#utility.yul\":5711:5828   */\n    tag_76:\n        /* \"#utility.yul\":5820:5821   */\n      0x00\n        /* \"#utility.yul\":5817:5818   */\n      dup1\n        /* \"#utility.yul\":5810:5822   */\n      revert\n        /* \"#utility.yul\":5834:6007   */\n    tag_96:\n        /* \"#utility.yul\":5974:5999   */\n      0x53636f72652063616e6e6f742065786365656420313030000000000000000000\n        /* \"#utility.yul\":5970:5971   */\n      0x00\n        /* \"#utility.yul\":5962:5968   */\n      dup3\n        /* \"#utility.yul\":5958:5972   */\n      add\n        /* \"#utility.yul\":5951:6000   */\n      mstore\n        /* \"#utility.yul\":5834:6007   */\n      pop\n      jump\t// out\n        /* \"#utility.yul\":6013:6182   */\n    tag_101:\n        /* \"#utility.yul\":6153:6174   */\n      0x796f7520617265206e6f74207465616368657200000000000000000000000000\n        /* \"#utility.yul\":6149:6150   */\n      0x00\n        /* \"#utility.yul\":6141:6147   */\n      dup3\n        /* \"#utility.yul\":6137:6151   */\n      add\n        /* \"#utility.yul\":6130:6175   */\n      mstore\n        /* \"#utility.yul\":6013:6182   */\n      pop\n      jump\t// out\n        /* \"#utility.yul\":6188:6354   */\n    tag_106:\n        /* \"#utility.yul\":6328:6346   */\n      0x6d61782073636f72652069732031303000000000000000000000000000000000\n        /* \"#utility.yul\":6324:6325   */\n      0x00\n        /* \"#utility.yul\":6316:6322   */\n      dup3\n        /* \"#utility.yul\":6312:6326   */\n      add\n        /* \"#utility.yul\":6305:6347   */\n      mstore\n        /* \"#utility.yul\":6188:6354   */\n      pop\n      jump\t// out\n        /* \"#utility.yul\":6360:6476   */\n    tag_64:\n        /* \"#utility.yul\":6430:6451   */\n      tag_142\n        /* \"#utility.yul\":6445:6450   */\n      dup2\n        /* \"#utility.yul\":6430:6451   */\n      tag_90\n      jump\t// in\n    tag_142:\n        /* \"#utility.yul\":6423:6428   */\n      dup2\n        /* \"#utility.yul\":6420:6452   */\n      eq\n        /* \"#utility.yul\":6410:6470   */\n      tag_143\n      jumpi\n        /* \"#utility.yul\":6466:6467   */\n      0x00\n        /* \"#utility.yul\":6463:6464   */\n      dup1\n        /* \"#utility.yul\":6456:6468   */\n      revert\n        /* \"#utility.yul\":6410:6470   */\n    tag_143:\n        /* \"#utility.yul\":6360:6476   */\n      pop\n      jump\t// out\n        /* \"#utility.yul\":6482:6604   */\n    tag_68:\n        /* \"#utility.yul\":6555:6579   */\n      tag_145\n        /* \"#utility.yul\":6573:6578   */\n      dup2\n        /* \"#utility.yul\":6555:6579   */\n      tag_131\n      jump\t// in\n    tag_145:\n        /* \"#utility.yul\":6548:6553   */\n      dup2\n        /* \"#utility.yul\":6545:6580   */\n      eq\n        /* \"#utility.yul\":6535:6598   */\n      tag_146\n      jumpi\n        /* \"#utility.yul\":6594:6595   */\n      0x00\n        /* \"#utility.yul\":6591:6592   */\n      dup1\n        /* \"#utility.yul\":6584:6596   */\n      revert\n        /* \"#utility.yul\":6535:6598   */\n    tag_146:\n        /* \"#utility.yul\":6482:6604   */\n      pop\n      jump\t// out\n        /* \"#utility.yul\":6610:6728   */\n    tag_72:\n        /* \"#utility.yul\":6681:6703   */\n      tag_148\n        /* \"#utility.yul\":6697:6702   */\n      dup2\n        /* \"#utility.yul\":6681:6703   */\n      tag_110\n      jump\t// in\n    tag_148:\n        /* \"#utility.yul\":6674:6679   */\n      dup2\n        /* \"#utility.yul\":6671:6704   */\n      eq\n        /* \"#utility.yul\":6661:6722   */\n      tag_149\n      jumpi\n        /* \"#utility.yul\":6718:6719   */\n      0x00\n        /* \"#utility.yul\":6715:6716   */\n      dup1\n        /* \"#utility.yul\":6708:6720   */\n      revert\n        /* \"#utility.yul\":6661:6722   */\n    tag_149:\n        /* \"#utility.yul\":6610:6728   */\n      pop\n      jump\t// out\n\n    auxdata: 0xa2646970667358221220e9d9abfd4bec00fc92c5ad5c24a3529eb79a619a24c60dcd269619d78a8663fd64736f6c63430008070033\n}\n",
				"bytecode": {
					"linkReferences": {},
					"object": "608060405234801561001057600080fd5b50610786806100206000396000f3fe608060405234801561001057600080fd5b506004361061007d5760003560e01c80632d96fd461161005b5780632d96fd46146100fe5780638e20a9dd1461011a578063c64a4bad14610136578063d43b8e05146101545761007d565b8063063b3810146100825780630efed18b146100b257806317d9500e146100ce575b600080fd5b61009c60048036038101906100979190610467565b610170565b6040516100a991906105d6565b60405180910390f35b6100cc60048036038101906100c79190610494565b61019a565b005b6100e860048036038101906100e39190610467565b6102c4565b6040516100f591906105d6565b60405180910390f35b61011860048036038101906101139190610467565b6102e4565b005b610134600480360381019061012f919061043a565b61030a565b005b61013e610326565b60405161014b919061055b565b60405180910390f35b61016e60048036038101906101699190610494565b610337565b005b60006001600083815260200190815260200160002060009054906101000a900460ff169050919050565b60008054906101000a900460ff166101e7576040517f08c379a00000000000000000000000000000000000000000000000000000000081526004016101de90610596565b60405180910390fd5b6000816001600085815260200190815260200160002060008282829054906101000a900460ff166102189190610602565b92506101000a81548160ff021916908360ff1602179055905060648160ff161115610278576040517f08c379a000000000000000000000000000000000000000000000000000000000815260040161026f90610576565b60405180910390fd5b816001600085815260200190815260200160002060008282829054906101000a900460ff166102a79190610602565b92506101000a81548160ff021916908360ff160217905550505050565b60016020528060005260406000206000915054906101000a900460ff1681565b6001600082815260200190815260200160002060006101000a81549060ff021916905550565b806000806101000a81548160ff02191690831515021790555050565b60008054906101000a900460ff1681565b60008054906101000a900460ff16610384576040517f08c379a000000000000000000000000000000000000000000000000000000000815260040161037b90610596565b60405180910390fd5b60648160ff1611156103cb576040517f08c379a00000000000000000000000000000000000000000000000000000000081526004016103c2906105b6565b60405180910390fd5b806001600084815260200190815260200160002060006101000a81548160ff021916908360ff1602179055505050565b60008135905061040a8161070b565b92915050565b60008135905061041f81610722565b92915050565b60008135905061043481610739565b92915050565b6000602082840312156104505761044f61068b565b5b600061045e848285016103fb565b91505092915050565b60006020828403121561047d5761047c61068b565b5b600061048b84828501610410565b91505092915050565b600080604083850312156104ab576104aa61068b565b5b60006104b985828601610410565b92505060206104ca85828601610425565b9150509250929050565b6104dd81610639565b82525050565b60006104f06017836105f1565b91506104fb82610690565b602082019050919050565b60006105136013836105f1565b915061051e826106b9565b602082019050919050565b60006105366010836105f1565b9150610541826106e2565b602082019050919050565b6105558161064f565b82525050565b600060208201905061057060008301846104d4565b92915050565b6000602082019050818103600083015261058f816104e3565b9050919050565b600060208201905081810360008301526105af81610506565b9050919050565b600060208201905081810360008301526105cf81610529565b9050919050565b60006020820190506105eb600083018461054c565b92915050565b600082825260208201905092915050565b600061060d8261064f565b91506106188361064f565b92508260ff0382111561062e5761062d61065c565b5b828201905092915050565b60008115159050919050565b6000819050919050565b600060ff82169050919050565b7f4e487b7100000000000000000000000000000000000000000000000000000000600052601160045260246000fd5b600080fd5b7f53636f72652063616e6e6f742065786365656420313030000000000000000000600082015250565b7f796f7520617265206e6f74207465616368657200000000000000000000000000600082015250565b7f6d61782073636f72652069732031303000000000000000000000000000000000600082015250565b61071481610639565b811461071f57600080fd5b50565b61072b81610645565b811461073657600080fd5b50565b6107428161064f565b811461074d57600080fd5b5056fea2646970667358221220e9d9abfd4bec00fc92c5ad5c24a3529eb79a619a24c60dcd269619d78a8663fd64736f6c63430008070033",
					"opcodes": "PUSH1 0x80 PUSH1 0x40 MSTORE CALLVALUE DUP1 ISZERO PUSH2 0x10 JUMPI PUSH1 0x0 DUP1 REVERT JUMPDEST POP PUSH2 0x786 DUP1 PUSH2 0x20 PUSH1 0x0 CODECOPY PUSH1 0x0 RETURN INVALID PUSH1 0x80 PUSH1 0x40 MSTORE CALLVALUE DUP1 ISZERO PUSH2 0x10 JUMPI PUSH1 0x0 DUP1 REVERT JUMPDEST POP PUSH1 0x4 CALLDATASIZE LT PUSH2 0x7D JUMPI PUSH1 0x0 CALLDATALOAD PUSH1 0xE0 SHR DUP1 PUSH4 0x2D96FD46 GT PUSH2 0x5B JUMPI DUP1 PUSH4 0x2D96FD46 EQ PUSH2 0xFE JUMPI DUP1 PUSH4 0x8E20A9DD EQ PUSH2 0x11A JUMPI DUP1 PUSH4 0xC64A4BAD EQ PUSH2 0x136 JUMPI DUP1 PUSH4 0xD43B8E05 EQ PUSH2 0x154 JUMPI PUSH2 0x7D JUMP JUMPDEST DUP1 PUSH4 0x63B3810 EQ PUSH2 0x82 JUMPI DUP1 PUSH4 0xEFED18B EQ PUSH2 0xB2 JUMPI DUP1 PUSH4 0x17D9500E EQ PUSH2 0xCE JUMPI JUMPDEST PUSH1 0x0 DUP1 REVERT JUMPDEST PUSH2 0x9C PUSH1 0x4 DUP1 CALLDATASIZE SUB DUP2 ADD SWAP1 PUSH2 0x97 SWAP2 SWAP1 PUSH2 0x467 JUMP JUMPDEST PUSH2 0x170 JUMP JUMPDEST PUSH1 0x40 MLOAD PUSH2 0xA9 SWAP2 SWAP1 PUSH2 0x5D6 JUMP JUMPDEST PUSH1 0x40 MLOAD DUP1 SWAP2 SUB SWAP1 RETURN JUMPDEST PUSH2 0xCC PUSH1 0x4 DUP1 CALLDATASIZE SUB DUP2 ADD SWAP1 PUSH2 0xC7 SWAP2 SWAP1 PUSH2 0x494 JUMP JUMPDEST PUSH2 0x19A JUMP JUMPDEST STOP JUMPDEST PUSH2 0xE8 PUSH1 0x4 DUP1 CALLDATASIZE SUB DUP2 ADD SWAP1 PUSH2 0xE3 SWAP2 SWAP1 PUSH2 0x467 JUMP JUMPDEST PUSH2 0x2C4 JUMP JUMPDEST PUSH1 0x40 MLOAD PUSH2 0xF5 SWAP2 SWAP1 PUSH2 0x5D6 JUMP JUMPDEST PUSH1 0x40 MLOAD DUP1 SWAP2 SUB SWAP1 RETURN JUMPDEST PUSH2 0x118 PUSH1 0x4 DUP1 CALLDATASIZE SUB DUP2 ADD SWAP1 PUSH2 0x113 SWAP2 SWAP1 PUSH2 0x467 JUMP JUMPDEST PUSH2 0x2E4 JUMP JUMPDEST STOP JUMPDEST PUSH2 0x134 PUSH1 0x4 DUP1 CALLDATASIZE SUB DUP2 ADD SWAP1 PUSH2 0x12F SWAP2 SWAP1 PUSH2 0x43A JUMP JUMPDEST PUSH2 0x30A JUMP JUMPDEST STOP JUMPDEST PUSH2 0x13E PUSH2 0x326 JUMP JUMPDEST PUSH1 0x40 MLOAD PUSH2 0x14B SWAP2 SWAP1 PUSH2 0x55B JUMP JUMPDEST PUSH1 0x40 MLOAD DUP1 SWAP2 SUB SWAP1 RETURN JUMPDEST PUSH2 0x16E PUSH1 0x4 DUP1 CALLDATASIZE SUB DUP2 ADD SWAP1 PUSH2 0x169 SWAP2 SWAP1 PUSH2 0x494 JUMP JUMPDEST PUSH2 0x337 JUMP JUMPDEST STOP JUMPDEST PUSH1 0x0 PUSH1 0x1 PUSH1 0x0 DUP4 DUP2 MSTORE PUSH1 0x20 ADD SWAP1 DUP2 MSTORE PUSH1 0x20 ADD PUSH1 0x0 KECCAK256 PUSH1 0x0 SWAP1 SLOAD SWAP1 PUSH2 0x100 EXP SWAP1 DIV PUSH1 0xFF AND SWAP1 POP SWAP2 SWAP1 POP JUMP JUMPDEST PUSH1 0x0 DUP1 SLOAD SWAP1 PUSH2 0x100 EXP SWAP1 DIV PUSH1 0xFF AND PUSH2 0x1E7 JUMPI PUSH1 0x40 MLOAD PUSH32 0x8C379A000000000000000000000000000000000000000000000000000000000 DUP2 MSTORE PUSH1 0x4 ADD PUSH2 0x1DE SWAP1 PUSH2 0x596 JUMP JUMPDEST PUSH1 0x40 MLOAD DUP1 SWAP2 SUB SWAP1 REVERT JUMPDEST PUSH1 0x0 DUP2 PUSH1 0x1 PUSH1 0x0 DUP6 DUP2 MSTORE PUSH1 0x20 ADD SWAP1 DUP2 MSTORE PUSH1 0x20 ADD PUSH1 0x0 KECCAK256 PUSH1 0x0 DUP3 DUP3 DUP3 SWAP1 SLOAD SWAP1 PUSH2 0x100 EXP SWAP1 DIV PUSH1 0xFF AND PUSH2 0x218 SWAP2 SWAP1 PUSH2 0x602 JUMP JUMPDEST SWAP3 POP PUSH2 0x100 EXP DUP2 SLOAD DUP2 PUSH1 0xFF MUL NOT AND SWAP1 DUP4 PUSH1 0xFF AND MUL OR SWAP1 SSTORE SWAP1 POP PUSH1 0x64 DUP2 PUSH1 0xFF AND GT ISZERO PUSH2 0x278 JUMPI PUSH1 0x40 MLOAD PUSH32 0x8C379A000000000000000000000000000000000000000000000000000000000 DUP2 MSTORE PUSH1 0x4 ADD PUSH2 0x26F SWAP1 PUSH2 0x576 JUMP JUMPDEST PUSH1 0x40 MLOAD DUP1 SWAP2 SUB SWAP1 REVERT JUMPDEST DUP2 PUSH1 0x1 PUSH1 0x0 DUP6 DUP2 MSTORE PUSH1 0x20 ADD SWAP1 DUP2 MSTORE PUSH1 0x20 ADD PUSH1 0x0 KECCAK256 PUSH1 0x0 DUP3 DUP3 DUP3 SWAP1 SLOAD SWAP1 PUSH2 0x100 EXP SWAP1 DIV PUSH1 0xFF AND PUSH2 0x2A7 SWAP2 SWAP1 PUSH2 0x602 JUMP JUMPDEST SWAP3 POP PUSH2 0x100 EXP DUP2 SLOAD DUP2 PUSH1 0xFF MUL NOT AND SWAP1 DUP4 PUSH1 0xFF AND MUL OR SWAP1 SSTORE POP POP POP POP JUMP JUMPDEST PUSH1 0x1 PUSH1 0x20 MSTORE DUP1 PUSH1 0x0 MSTORE PUSH1 0x40 PUSH1 0x0 KECCAK256 PUSH1 0x0 SWAP2 POP SLOAD SWAP1 PUSH2 0x100 EXP SWAP1 DIV PUSH1 0xFF AND DUP2 JUMP JUMPDEST PUSH1 0x1 PUSH1 0x0 DUP3 DUP2 MSTORE PUSH1 0x20 ADD SWAP1 DUP2 MSTORE PUSH1 0x20 ADD PUSH1 0x0 KECCAK256 PUSH1 0x0 PUSH2 0x100 EXP DUP2 SLOAD SWAP1 PUSH1 0xFF MUL NOT AND SWAP1 SSTORE POP JUMP JUMPDEST DUP1 PUSH1 0x0 DUP1 PUSH2 0x100 EXP DUP2 SLOAD DUP2 PUSH1 0xFF MUL NOT AND SWAP1 DUP4 ISZERO ISZERO MUL OR SWAP1 SSTORE POP POP JUMP JUMPDEST PUSH1 0x0 DUP1 SLOAD SWAP1 PUSH2 0x100 EXP SWAP1 DIV PUSH1 0xFF AND DUP2 JUMP JUMPDEST PUSH1 0x0 DUP1 SLOAD SWAP1 PUSH2 0x100 EXP SWAP1 DIV PUSH1 0xFF AND PUSH2 0x384 JUMPI PUSH1 0x40 MLOAD PUSH32 0x8C379A000000000000000000000000000000000000000000000000000000000 DUP2 MSTORE PUSH1 0x4 ADD PUSH2 0x37B SWAP1 PUSH2 0x596 JUMP JUMPDEST PUSH1 0x40 MLOAD DUP1 SWAP2 SUB SWAP1 REVERT JUMPDEST PUSH1 0x64 DUP2 PUSH1 0xFF AND GT ISZERO PUSH2 0x3CB JUMPI PUSH1 0x40 MLOAD PUSH32 0x8C379A000000000000000000000000000000000000000000000000000000000 DUP2 MSTORE PUSH1 0x4 ADD PUSH2 0x3C2 SWAP1 PUSH2 0x5B6 JUMP JUMPDEST PUSH1 0x40 MLOAD DUP1 SWAP2 SUB SWAP1 REVERT JUMPDEST DUP1 PUSH1 0x1 PUSH1 0x0 DUP5 DUP2 MSTORE PUSH1 0x20 ADD SWAP1 DUP2 MSTORE PUSH1 0x20 ADD PUSH1 0x0 KECCAK256 PUSH1 0x0 PUSH2 0x100 EXP DUP2 SLOAD DUP2 PUSH1 0xFF MUL NOT AND SWAP1 DUP4 PUSH1 0xFF AND MUL OR SWAP1 SSTORE POP POP POP JUMP JUMPDEST PUSH1 0x0 DUP2 CALLDATALOAD SWAP1 POP PUSH2 0x40A DUP2 PUSH2 0x70B JUMP JUMPDEST SWAP3 SWAP2 POP POP JUMP JUMPDEST PUSH1 0x0 DUP2 CALLDATALOAD SWAP1 POP PUSH2 0x41F DUP2 PUSH2 0x722 JUMP JUMPDEST SWAP3 SWAP2 POP POP JUMP JUMPDEST PUSH1 0x0 DUP2 CALLDATALOAD SWAP1 POP PUSH2 0x434 DUP2 PUSH2 0x739 JUMP JUMPDEST SWAP3 SWAP2 POP POP JUMP JUMPDEST PUSH1 0x0 PUSH1 0x20 DUP3 DUP5 SUB SLT ISZERO PUSH2 0x450 JUMPI PUSH2 0x44F PUSH2 0x68B JUMP JUMPDEST JUMPDEST PUSH1 0x0 PUSH2 0x45E DUP5 DUP3 DUP6 ADD PUSH2 0x3FB JUMP JUMPDEST SWAP2 POP POP SWAP3 SWAP2 POP POP JUMP JUMPDEST PUSH1 0x0 PUSH1 0x20 DUP3 DUP5 SUB SLT ISZERO PUSH2 0x47D JUMPI PUSH2 0x47C PUSH2 0x68B JUMP JUMPDEST JUMPDEST PUSH1 0x0 PUSH2 0x48B DUP5 DUP3 DUP6 ADD PUSH2 0x410 JUMP JUMPDEST SWAP2 POP POP SWAP3 SWAP2 POP POP JUMP JUMPDEST PUSH1 0x0 DUP1 PUSH1 0x40 DUP4 DUP6 SUB SLT ISZERO PUSH2 0x4AB JUMPI PUSH2 0x4AA PUSH2 0x68B JUMP JUMPDEST JUMPDEST PUSH1 0x0 PUSH2 0x4B9 DUP6 DUP3 DUP7 ADD PUSH2 0x410 JUMP JUMPDEST SWAP3 POP POP PUSH1 0x20 PUSH2 0x4CA DUP6 DUP3 DUP7 ADD PUSH2 0x425 JUMP JUMPDEST SWAP2 POP POP SWAP3 POP SWAP3 SWAP1 POP JUMP JUMPDEST PUSH2 0x4DD DUP2 PUSH2 0x639 JUMP JUMPDEST DUP3 MSTORE POP POP JUMP JUMPDEST PUSH1 0x0 PUSH2 0x4F0 PUSH1 0x17 DUP4 PUSH2 0x5F1 JUMP JUMPDEST SWAP2 POP PUSH2 0x4FB DUP3 PUSH2 0x690 JUMP JUMPDEST PUSH1 0x20 DUP3 ADD SWAP1 POP SWAP2 SWAP1 POP JUMP JUMPDEST PUSH1 0x0 PUSH2 0x513 PUSH1 0x13 DUP4 PUSH2 0x5F1 JUMP JUMPDEST SWAP2 POP PUSH2 0x51E DUP3 PUSH2 0x6B9 JUMP JUMPDEST PUSH1 0x20 DUP3 ADD SWAP1 POP SWAP2 SWAP1 POP JUMP JUMPDEST PUSH1 0x0 PUSH2 0x536 PUSH1 0x10 DUP4 PUSH2 0x5F1 JUMP JUMPDEST SWAP2 POP PUSH2 0x541 DUP3 PUSH2 0x6E2 JUMP JUMPDEST PUSH1 0x20 DUP3 ADD SWAP1 POP SWAP2 SWAP1 POP JUMP JUMPDEST PUSH2 0x555 DUP2 PUSH2 0x64F JUMP JUMPDEST DUP3 MSTORE POP POP JUMP JUMPDEST PUSH1 0x0 PUSH1 0x20 DUP3 ADD SWAP1 POP PUSH2 0x570 PUSH1 0x0 DUP4 ADD DUP5 PUSH2 0x4D4 JUMP JUMPDEST SWAP3 SWAP2 POP POP JUMP JUMPDEST PUSH1 0x0 PUSH1 0x20 DUP3 ADD SWAP1 POP DUP2 DUP2 SUB PUSH1 0x0 DUP4 ADD MSTORE PUSH2 0x58F DUP2 PUSH2 0x4E3 JUMP JUMPDEST SWAP1 POP SWAP2 SWAP1 POP JUMP JUMPDEST PUSH1 0x0 PUSH1 0x20 DUP3 ADD SWAP1 POP DUP2 DUP2 SUB PUSH1 0x0 DUP4 ADD MSTORE PUSH2 0x5AF DUP2 PUSH2 0x506 JUMP JUMPDEST SWAP1 POP SWAP2 SWAP1 POP JUMP JUMPDEST PUSH1 0x0 PUSH1 0x20 DUP3 ADD SWAP1 POP DUP2 DUP2 SUB PUSH1 0x0 DUP4 ADD MSTORE PUSH2 0x5CF DUP2 PUSH2 0x529 JUMP JUMPDEST SWAP1 POP SWAP2 SWAP1 POP JUMP JUMPDEST PUSH1 0x0 PUSH1 0x20 DUP3 ADD SWAP1 POP PUSH2 0x5EB PUSH1 0x0 DUP4 ADD DUP5 PUSH2 0x54C JUMP JUMPDEST SWAP3 SWAP2 POP POP JUMP JUMPDEST PUSH1 0x0 DUP3 DUP3 MSTORE PUSH1 0x20 DUP3 ADD SWAP1 POP SWAP3 SWAP2 POP POP JUMP JUMPDEST PUSH1 0x0 PUSH2 0x60D DUP3 PUSH2 0x64F JUMP JUMPDEST SWAP2 POP PUSH2 0x618 DUP4 PUSH2 0x64F JUMP JUMPDEST SWAP3 POP DUP3 PUSH1 0xFF SUB DUP3 GT ISZERO PUSH2 0x62E JUMPI PUSH2 0x62D PUSH2 0x65C JUMP JUMPDEST JUMPDEST DUP3 DUP3 ADD SWAP1 POP SWAP3 SWAP2 POP POP JUMP JUMPDEST PUSH1 0x0 DUP2 ISZERO ISZERO SWAP1 POP SWAP2 SWAP1 POP JUMP JUMPDEST PUSH1 0x0 DUP2 SWAP1 POP SWAP2 SWAP1 POP JUMP JUMPDEST PUSH1 0x0 PUSH1 0xFF DUP3 AND SWAP1 POP SWAP2 SWAP1 POP JUMP JUMPDEST PUSH32 0x4E487B7100000000000000000000000000000000000000000000000000000000 PUSH1 0x0 MSTORE PUSH1 0x11 PUSH1 0x4 MSTORE PUSH1 0x24 PUSH1 0x0 REVERT JUMPDEST PUSH1 0x0 DUP1 REVERT JUMPDEST PUSH32 0x53636F72652063616E6E6F742065786365656420313030000000000000000000 PUSH1 0x0 DUP3 ADD MSTORE POP JUMP JUMPDEST PUSH32 0x796F7520617265206E6F74207465616368657200000000000000000000000000 PUSH1 0x0 DUP3 ADD MSTORE POP JUMP JUMPDEST PUSH32 0x6D61782073636F72652069732031303000000000000000000000000000000000 PUSH1 0x0 DUP3 ADD MSTORE POP JUMP JUMPDEST PUSH2 0x714 DUP2 PUSH2 0x639 JUMP JUMPDEST DUP2 EQ PUSH2 0x71F JUMPI PUSH1 0x0 DUP1 REVERT JUMPDEST POP JUMP JUMPDEST PUSH2 0x72B DUP2 PUSH2 0x645 JUMP JUMPDEST DUP2 EQ PUSH2 0x736 JUMPI PUSH1 0x0 DUP1 REVERT JUMPDEST POP JUMP JUMPDEST PUSH2 0x742 DUP2 PUSH2 0x64F JUMP JUMPDEST DUP2 EQ PUSH2 0x74D JUMPI PUSH1 0x0 DUP1 REVERT JUMPDEST POP JUMP INVALID LOG2 PUSH5 0x6970667358 0x22 SLT KECCAK256 0xE9 0xD9 0xAB REVERT 0x4B 0xEC STOP 0xFC SWAP3 0xC5 0xAD 0x5C 0x24 LOG3 MSTORE SWAP15 0xB7 SWAP11 PUSH2 0x9A24 0xC6 0xD 0xCD 0x26 SWAP7 NOT 0xD7 DUP11 DUP7 PUSH4 0xFD64736F PUSH13 0x63430008070033000000000000 "
				},
				"gasEstimates": {
					"creation": {
						"codeDepositCost": "385200",
						"executionCost": "424",
						"totalCost": "385624"
					},
					"external": {
						"addScore(uint256,uint8)": "infinite",
						"isTeacher()": "2512",
						"queryIden(bool)": "24701",
						"queryScore(uint256)": "2823",
						"removeScore(uint256)": "24726",
						"studentScore(uint256)": "2841",
						"updateScore(uint256,uint8)": "27178"
					}
				},
				"methodIdentifiers": {
					"addScore(uint256,uint8)": "0efed18b",
					"isTeacher()": "c64a4bad",
					"queryIden(bool)": "8e20a9dd",
					"queryScore(uint256)": "063b3810",
					"removeScore(uint256)": "2d96fd46",
					"studentScore(uint256)": "17d9500e",
					"updateScore(uint256,uint8)": "d43b8e05"
				}
			},
			"userdoc": {
				"kind": "user",
				"methods": {},
				"version": 1
			}
		}
	}
}