{
	"contracts/Score.sol": {
		"Teacher": {
			"abi": [
				{
					"inputs": [],
					"stateMutability": "nonpayable",
					"type": "constructor"
				},
				{
					"inputs": [],
					"name": "_iden",
					"outputs": [
						{
							"internalType": "bool",
							"name": "",
							"type": "bool"
						}
					],
					"stateMutability": "view",
					"type": "function"
				},
				{
					"inputs": [
						{
							"internalType": "address",
							"name": "_scoreAdd",
							"type": "address"
						},
						{
							"internalType": "bool",
							"name": "_iden",
							"type": "bool"
						}
					],
					"name": "check",
					"outputs": [],
					"stateMutability": "nonpayable",
					"type": "function"
				},
				{
					"inputs": [
						{
							"internalType": "address",
							"name": "_scoreAdd",
							"type": "address"
						}
					],
					"name": "checkTeacher",
					"outputs": [
						{
							"internalType": "bool",
							"name": "",
							"type": "bool"
						}
					],
					"stateMutability": "view",
					"type": "function"
				},
				{
					"inputs": [
						{
							"internalType": "address",
							"name": "_scoreAdd",
							"type": "address"
						},
						{
							"internalType": "uint256",
							"name": "_studentNum",
							"type": "uint256"
						}
					],
					"name": "queryScore",
					"outputs": [
						{
							"internalType": "uint256",
							"name": "",
							"type": "uint256"
						}
					],
					"stateMutability": "view",
					"type": "function"
				},
				{
					"inputs": [
						{
							"internalType": "address",
							"name": "_scoreAdd",
							"type": "address"
						},
						{
							"internalType": "uint256",
							"name": "_studentNum",
							"type": "uint256"
						},
						{
							"internalType": "uint8",
							"name": "_score",
							"type": "uint8"
						}
					],
					"name": "teacherAdd",
					"outputs": [],
					"stateMutability": "nonpayable",
					"type": "function"
				},
				{
					"inputs": [
						{
							"internalType": "address",
							"name": "_scoreAdd",
							"type": "address"
						},
						{
							"internalType": "uint256",
							"name": "_studentNum",
							"type": "uint256"
						},
						{
							"internalType": "uint8",
							"name": "_score",
							"type": "uint8"
						}
					],
					"name": "teacherUpdate",
					"outputs": [],
					"stateMutability": "nonpayable",
					"type": "function"
				}
			],
			"devdoc": {
				"kind": "dev",
				"methods": {},
				"version": 1
			},
			"evm": {
				"assembly": "    /* \"contracts/Score.sol\":1444:2267  contract Teacher {\r... */\n  mstore(0x40, 0x80)\n    /* \"contracts/Score.sol\":1496:1541  constructor(){\r... */\n  callvalue\n  dup1\n  iszero\n  tag_1\n  jumpi\n  0x00\n  dup1\n  revert\ntag_1:\n  pop\n    /* \"contracts/Score.sol\":1528:1533  false */\n  0x00\n    /* \"contracts/Score.sol\":1520:1525  _iden */\n  dup1\n  0x00\n    /* \"contracts/Score.sol\":1520:1533  _iden = false */\n  0x0100\n  exp\n  dup2\n  sload\n  dup2\n  0xff\n  mul\n  not\n  and\n  swap1\n  dup4\n  iszero\n  iszero\n  mul\n  or\n  swap1\n  sstore\n  pop\n    /* \"contracts/Score.sol\":1444:2267  contract Teacher {\r... */\n  dataSize(sub_0)\n  dup1\n  dataOffset(sub_0)\n  0x00\n  codecopy\n  0x00\n  return\nstop\n\nsub_0: assembly {\n        /* \"contracts/Score.sol\":1444:2267  contract Teacher {\r... */\n      mstore(0x40, 0x80)\n      callvalue\n      dup1\n      iszero\n      tag_1\n      jumpi\n      0x00\n      dup1\n      revert\n    tag_1:\n      pop\n      jumpi(tag_2, lt(calldatasize, 0x04))\n      shr(0xe0, calldataload(0x00))\n      dup1\n      0x1622c1b8\n      eq\n      tag_3\n      jumpi\n      dup1\n      0x1cdbb103\n      eq\n      tag_4\n      jumpi\n      dup1\n      0x24d935ad\n      eq\n      tag_5\n      jumpi\n      dup1\n      0x906246e1\n      eq\n      tag_6\n      jumpi\n      dup1\n      0xa1b05986\n      eq\n      tag_7\n      jumpi\n      dup1\n      0xdf514f67\n      eq\n      tag_8\n      jumpi\n    tag_2:\n      0x00\n      dup1\n      revert\n        /* \"contracts/Score.sol\":1795:1950  function queryScore(address _scoreAdd,uint256 _studentNum) external view returns(uint256){\r... */\n    tag_3:\n      tag_9\n      0x04\n      dup1\n      calldatasize\n      sub\n      dup2\n      add\n      swap1\n      tag_10\n      swap2\n      swap1\n      tag_11\n      jump\t// in\n    tag_10:\n      tag_12\n      jump\t// in\n    tag_9:\n      mload(0x40)\n      tag_13\n      swap2\n      swap1\n      tag_14\n      jump\t// in\n    tag_13:\n      mload(0x40)\n      dup1\n      swap2\n      sub\n      swap1\n      return\n        /* \"contracts/Score.sol\":1958:2104  function teacherAdd(address _scoreAdd, uint256 _studentNum,uint8 _score) external{\r... */\n    tag_4:\n      tag_15\n      0x04\n      dup1\n      calldatasize\n      sub\n      dup2\n      add\n      swap1\n      tag_16\n      swap2\n      swap1\n      tag_17\n      jump\t// in\n    tag_16:\n      tag_18\n      jump\t// in\n    tag_15:\n      stop\n        /* \"contracts/Score.sol\":1470:1487  bool public _iden */\n    tag_5:\n      tag_19\n      tag_20\n      jump\t// in\n    tag_19:\n      mload(0x40)\n      tag_21\n      swap2\n      swap1\n      tag_22\n      jump\t// in\n    tag_21:\n      mload(0x40)\n      dup1\n      swap2\n      sub\n      swap1\n      return\n        /* \"contracts/Score.sol\":1550:1658  function check(address _scoreAdd,bool _iden) external{\r... */\n    tag_6:\n      tag_23\n      0x04\n      dup1\n      calldatasize\n      sub\n      dup2\n      add\n      swap1\n      tag_24\n      swap2\n      swap1\n      tag_25\n      jump\t// in\n    tag_24:\n      tag_26\n      jump\t// in\n    tag_23:\n      stop\n        /* \"contracts/Score.sol\":2112:2264  function teacherUpdate(address _scoreAdd, uint256 _studentNum,uint8 _score) external{\r... */\n    tag_7:\n      tag_27\n      0x04\n      dup1\n      calldatasize\n      sub\n      dup2\n      add\n      swap1\n      tag_28\n      swap2\n      swap1\n      tag_17\n      jump\t// in\n    tag_28:\n      tag_29\n      jump\t// in\n    tag_27:\n      stop\n        /* \"contracts/Score.sol\":1666:1789  function checkTeacher(address _scoreAdd) external view returns(bool){\r... */\n    tag_8:\n      tag_30\n      0x04\n      dup1\n      calldatasize\n      sub\n      dup2\n      add\n      swap1\n      tag_31\n      swap2\n      swap1\n      tag_32\n      jump\t// in\n    tag_31:\n      tag_33\n      jump\t// in\n    tag_30:\n      mload(0x40)\n      tag_34\n      swap2\n      swap1\n      tag_22\n      jump\t// in\n    tag_34:\n      mload(0x40)\n      dup1\n      swap2\n      sub\n      swap1\n      return\n        /* \"contracts/Score.sol\":1795:1950  function queryScore(address _scoreAdd,uint256 _studentNum) external view returns(uint256){\r... */\n    tag_12:\n        /* \"contracts/Score.sol\":1876:1883  uint256 */\n      0x00\n        /* \"contracts/Score.sol\":1908:1917  _scoreAdd */\n      dup3\n        /* \"contracts/Score.sol\":1901:1929  IScore(_scoreAdd).queryScore */\n      0xffffffffffffffffffffffffffffffffffffffff\n      and\n      0x063b3810\n        /* \"contracts/Score.sol\":1930:1941  _studentNum */\n      dup4\n        /* \"contracts/Score.sol\":1901:1942  IScore(_scoreAdd).queryScore(_studentNum) */\n      mload(0x40)\n      dup3\n      0xffffffff\n      and\n      0xe0\n      shl\n      dup2\n      mstore\n      0x04\n      add\n      tag_36\n      swap2\n      swap1\n      tag_14\n      jump\t// in\n    tag_36:\n      0x20\n      mload(0x40)\n      dup1\n      dup4\n      sub\n      dup2\n      dup7\n      dup1\n      extcodesize\n      iszero\n      dup1\n      iszero\n      tag_37\n      jumpi\n      0x00\n      dup1\n      revert\n    tag_37:\n      pop\n      gas\n      staticcall\n      iszero\n      dup1\n      iszero\n      tag_39\n      jumpi\n      returndatasize\n      0x00\n      dup1\n      returndatacopy\n      revert(0x00, returndatasize)\n    tag_39:\n      pop\n      pop\n      pop\n      pop\n      mload(0x40)\n      returndatasize\n      not(0x1f)\n      0x1f\n      dup3\n      add\n      and\n      dup3\n      add\n      dup1\n      0x40\n      mstore\n      pop\n      dup2\n      add\n      swap1\n      tag_40\n      swap2\n      swap1\n      tag_41\n      jump\t// in\n    tag_40:\n        /* \"contracts/Score.sol\":1894:1942  return IScore(_scoreAdd).queryScore(_studentNum) */\n      swap1\n      pop\n        /* \"contracts/Score.sol\":1795:1950  function queryScore(address _scoreAdd,uint256 _studentNum) external view returns(uint256){\r... */\n      swap3\n      swap2\n      pop\n      pop\n      jump\t// out\n        /* \"contracts/Score.sol\":1958:2104  function teacherAdd(address _scoreAdd, uint256 _studentNum,uint8 _score) external{\r... */\n    tag_18:\n        /* \"contracts/Score.sol\":2057:2066  _scoreAdd */\n      dup3\n        /* \"contracts/Score.sol\":2050:2076  IScore(_scoreAdd).addScore */\n      0xffffffffffffffffffffffffffffffffffffffff\n      and\n      0x0efed18b\n        /* \"contracts/Score.sol\":2077:2088  _studentNum */\n      dup4\n        /* \"contracts/Score.sol\":2089:2095  _score */\n      dup4\n        /* \"contracts/Score.sol\":2050:2096  IScore(_scoreAdd).addScore(_studentNum,_score) */\n      mload(0x40)\n      dup4\n      0xffffffff\n      and\n      0xe0\n      shl\n      dup2\n      mstore\n      0x04\n      add\n      tag_43\n      swap3\n      swap2\n      swap1\n      tag_44\n      jump\t// in\n    tag_43:\n      0x00\n      mload(0x40)\n      dup1\n      dup4\n      sub\n      dup2\n      0x00\n      dup8\n      dup1\n      extcodesize\n      iszero\n      dup1\n      iszero\n      tag_45\n      jumpi\n      0x00\n      dup1\n      revert\n    tag_45:\n      pop\n      gas\n      call\n      iszero\n      dup1\n      iszero\n      tag_47\n      jumpi\n      returndatasize\n      0x00\n      dup1\n      returndatacopy\n      revert(0x00, returndatasize)\n    tag_47:\n      pop\n      pop\n      pop\n      pop\n        /* \"contracts/Score.sol\":1958:2104  function teacherAdd(address _scoreAdd, uint256 _studentNum,uint8 _score) external{\r... */\n      pop\n      pop\n      pop\n      jump\t// out\n        /* \"contracts/Score.sol\":1470:1487  bool public _iden */\n    tag_20:\n      0x00\n      dup1\n      sload\n      swap1\n      0x0100\n      exp\n      swap1\n      div\n      0xff\n      and\n      dup2\n      jump\t// out\n        /* \"contracts/Score.sol\":1550:1658  function check(address _scoreAdd,bool _iden) external{\r... */\n    tag_26:\n        /* \"contracts/Score.sol\":1622:1631  _scoreAdd */\n      dup2\n        /* \"contracts/Score.sol\":1615:1642  IScore(_scoreAdd).queryIden */\n      0xffffffffffffffffffffffffffffffffffffffff\n      and\n      0x8e20a9dd\n        /* \"contracts/Score.sol\":1643:1648  _iden */\n      dup3\n        /* \"contracts/Score.sol\":1615:1649  IScore(_scoreAdd).queryIden(_iden) */\n      mload(0x40)\n      dup3\n      0xffffffff\n      and\n      0xe0\n      shl\n      dup2\n      mstore\n      0x04\n      add\n      tag_49\n      swap2\n      swap1\n      tag_22\n      jump\t// in\n    tag_49:\n      0x00\n      mload(0x40)\n      dup1\n      dup4\n      sub\n      dup2\n      0x00\n      dup8\n      dup1\n      extcodesize\n      iszero\n      dup1\n      iszero\n      tag_50\n      jumpi\n      0x00\n      dup1\n      revert\n    tag_50:\n      pop\n      gas\n      call\n      iszero\n      dup1\n      iszero\n      tag_52\n      jumpi\n      returndatasize\n      0x00\n      dup1\n      returndatacopy\n      revert(0x00, returndatasize)\n    tag_52:\n      pop\n      pop\n      pop\n      pop\n        /* \"contracts/Score.sol\":1550:1658  function check(address _scoreAdd,bool _iden) external{\r... */\n      pop\n      pop\n      jump\t// out\n        /* \"contracts/Score.sol\":2112:2264  function teacherUpdate(address _scoreAdd, uint256 _studentNum,uint8 _score) external{\r... */\n    tag_29:\n        /* \"contracts/Score.sol\":2214:2223  _scoreAdd */\n      dup3\n        /* \"contracts/Score.sol\":2207:2236  IScore(_scoreAdd).updateScore */\n      0xffffffffffffffffffffffffffffffffffffffff\n      and\n      0xd43b8e05\n        /* \"contracts/Score.sol\":2237:2248  _studentNum */\n      dup4\n        /* \"contracts/Score.sol\":2249:2255  _score */\n      dup4\n        /* \"contracts/Score.sol\":2207:2256  IScore(_scoreAdd).updateScore(_studentNum,_score) */\n      mload(0x40)\n      dup4\n      0xffffffff\n      and\n      0xe0\n      shl\n      dup2\n      mstore\n      0x04\n      add\n      tag_54\n      swap3\n      swap2\n      swap1\n      tag_44\n      jump\t// in\n    tag_54:\n      0x00\n      mload(0x40)\n      dup1\n      dup4\n      sub\n      dup2\n      0x00\n      dup8\n      dup1\n      extcodesize\n      iszero\n      dup1\n      iszero\n      tag_55\n      jumpi\n      0x00\n      dup1\n      revert\n    tag_55:\n      pop\n      gas\n      call\n      iszero\n      dup1\n      iszero\n      tag_57\n      jumpi\n      returndatasize\n      0x00\n      dup1\n      returndatacopy\n      revert(0x00, returndatasize)\n    tag_57:\n      pop\n      pop\n      pop\n      pop\n        /* \"contracts/Score.sol\":2112:2264  function teacherUpdate(address _scoreAdd, uint256 _studentNum,uint8 _score) external{\r... */\n      pop\n      pop\n      pop\n      jump\t// out\n        /* \"contracts/Score.sol\":1666:1789  function checkTeacher(address _scoreAdd) external view returns(bool){\r... */\n    tag_33:\n        /* \"contracts/Score.sol\":1729:1733  bool */\n      0x00\n        /* \"contracts/Score.sol\":1759:1768  _scoreAdd */\n      dup2\n        /* \"contracts/Score.sol\":1752:1779  IScore(_scoreAdd).isTeacher */\n      0xffffffffffffffffffffffffffffffffffffffff\n      and\n      0xc64a4bad\n        /* \"contracts/Score.sol\":1752:1781  IScore(_scoreAdd).isTeacher() */\n      mload(0x40)\n      dup2\n      0xffffffff\n      and\n      0xe0\n      shl\n      dup2\n      mstore\n      0x04\n      add\n      0x20\n      mload(0x40)\n      dup1\n      dup4\n      sub\n      dup2\n      dup7\n      dup1\n      extcodesize\n      iszero\n      dup1\n      iszero\n      tag_59\n      jumpi\n      0x00\n      dup1\n      revert\n    tag_59:\n      pop\n      gas\n      staticcall\n      iszero\n      dup1\n      iszero\n      tag_61\n      jumpi\n      returndatasize\n      0x00\n      dup1\n      returndatacopy\n      revert(0x00, returndatasize)\n    tag_61:\n      pop\n      pop\n      pop\n      pop\n      mload(0x40)\n      returndatasize\n      not(0x1f)\n      0x1f\n      dup3\n      add\n      and\n      dup3\n      add\n      dup1\n      0x40\n      mstore\n      pop\n      dup2\n      add\n      swap1\n      tag_62\n      swap2\n      swap1\n      tag_63\n      jump\t// in\n    tag_62:\n        /* \"contracts/Score.sol\":1745:1781  return IScore(_scoreAdd).isTeacher() */\n      swap1\n      pop\n        /* \"contracts/Score.sol\":1666:1789  function checkTeacher(address _scoreAdd) external view returns(bool){\r... */\n      swap2\n      swap1\n      pop\n      jump\t// out\n        /* \"#utility.yul\":7:146   */\n    tag_65:\n        /* \"#utility.yul\":53:58   */\n      0x00\n        /* \"#utility.yul\":91:97   */\n      dup2\n        /* \"#utility.yul\":78:98   */\n      calldataload\n        /* \"#utility.yul\":69:98   */\n      swap1\n      pop\n        /* \"#utility.yul\":107:140   */\n      tag_67\n        /* \"#utility.yul\":134:139   */\n      dup2\n        /* \"#utility.yul\":107:140   */\n      tag_68\n      jump\t// in\n    tag_67:\n        /* \"#utility.yul\":7:146   */\n      swap3\n      swap2\n      pop\n      pop\n      jump\t// out\n        /* \"#utility.yul\":152:285   */\n    tag_69:\n        /* \"#utility.yul\":195:200   */\n      0x00\n        /* \"#utility.yul\":233:239   */\n      dup2\n        /* \"#utility.yul\":220:240   */\n      calldataload\n        /* \"#utility.yul\":211:240   */\n      swap1\n      pop\n        /* \"#utility.yul\":249:279   */\n      tag_71\n        /* \"#utility.yul\":273:278   */\n      dup2\n        /* \"#utility.yul\":249:279   */\n      tag_72\n      jump\t// in\n    tag_71:\n        /* \"#utility.yul\":152:285   */\n      swap3\n      swap2\n      pop\n      pop\n      jump\t// out\n        /* \"#utility.yul\":291:428   */\n    tag_73:\n        /* \"#utility.yul\":345:350   */\n      0x00\n        /* \"#utility.yul\":376:382   */\n      dup2\n        /* \"#utility.yul\":370:383   */\n      mload\n        /* \"#utility.yul\":361:383   */\n      swap1\n      pop\n        /* \"#utility.yul\":392:422   */\n      tag_75\n        /* \"#utility.yul\":416:421   */\n      dup2\n        /* \"#utility.yul\":392:422   */\n      tag_72\n      jump\t// in\n    tag_75:\n        /* \"#utility.yul\":291:428   */\n      swap3\n      swap2\n      pop\n      pop\n      jump\t// out\n        /* \"#utility.yul\":434:573   */\n    tag_76:\n        /* \"#utility.yul\":480:485   */\n      0x00\n        /* \"#utility.yul\":518:524   */\n      dup2\n        /* \"#utility.yul\":505:525   */\n      calldataload\n        /* \"#utility.yul\":496:525   */\n      swap1\n      pop\n        /* \"#utility.yul\":534:567   */\n      tag_78\n        /* \"#utility.yul\":561:566   */\n      dup2\n        /* \"#utility.yul\":534:567   */\n      tag_79\n      jump\t// in\n    tag_78:\n        /* \"#utility.yul\":434:573   */\n      swap3\n      swap2\n      pop\n      pop\n      jump\t// out\n        /* \"#utility.yul\":579:722   */\n    tag_80:\n        /* \"#utility.yul\":636:641   */\n      0x00\n        /* \"#utility.yul\":667:673   */\n      dup2\n        /* \"#utility.yul\":661:674   */\n      mload\n        /* \"#utility.yul\":652:674   */\n      swap1\n      pop\n        /* \"#utility.yul\":683:716   */\n      tag_82\n        /* \"#utility.yul\":710:715   */\n      dup2\n        /* \"#utility.yul\":683:716   */\n      tag_79\n      jump\t// in\n    tag_82:\n        /* \"#utility.yul\":579:722   */\n      swap3\n      swap2\n      pop\n      pop\n      jump\t// out\n        /* \"#utility.yul\":728:863   */\n    tag_83:\n        /* \"#utility.yul\":772:777   */\n      0x00\n        /* \"#utility.yul\":810:816   */\n      dup2\n        /* \"#utility.yul\":797:817   */\n      calldataload\n        /* \"#utility.yul\":788:817   */\n      swap1\n      pop\n        /* \"#utility.yul\":826:857   */\n      tag_85\n        /* \"#utility.yul\":851:856   */\n      dup2\n        /* \"#utility.yul\":826:857   */\n      tag_86\n      jump\t// in\n    tag_85:\n        /* \"#utility.yul\":728:863   */\n      swap3\n      swap2\n      pop\n      pop\n      jump\t// out\n        /* \"#utility.yul\":869:1198   */\n    tag_32:\n        /* \"#utility.yul\":928:934   */\n      0x00\n        /* \"#utility.yul\":977:979   */\n      0x20\n        /* \"#utility.yul\":965:974   */\n      dup3\n        /* \"#utility.yul\":956:963   */\n      dup5\n        /* \"#utility.yul\":952:975   */\n      sub\n        /* \"#utility.yul\":948:980   */\n      slt\n        /* \"#utility.yul\":945:1064   */\n      iszero\n      tag_88\n      jumpi\n        /* \"#utility.yul\":983:1062   */\n      tag_89\n      tag_90\n      jump\t// in\n    tag_89:\n        /* \"#utility.yul\":945:1064   */\n    tag_88:\n        /* \"#utility.yul\":1103:1104   */\n      0x00\n        /* \"#utility.yul\":1128:1181   */\n      tag_91\n        /* \"#utility.yul\":1173:1180   */\n      dup5\n        /* \"#utility.yul\":1164:1170   */\n      dup3\n        /* \"#utility.yul\":1153:1162   */\n      dup6\n        /* \"#utility.yul\":1149:1171   */\n      add\n        /* \"#utility.yul\":1128:1181   */\n      tag_65\n      jump\t// in\n    tag_91:\n        /* \"#utility.yul\":1118:1181   */\n      swap2\n      pop\n        /* \"#utility.yul\":1074:1191   */\n      pop\n        /* \"#utility.yul\":869:1198   */\n      swap3\n      swap2\n      pop\n      pop\n      jump\t// out\n        /* \"#utility.yul\":1204:1672   */\n    tag_25:\n        /* \"#utility.yul\":1269:1275   */\n      0x00\n        /* \"#utility.yul\":1277:1283   */\n      dup1\n        /* \"#utility.yul\":1326:1328   */\n      0x40\n        /* \"#utility.yul\":1314:1323   */\n      dup4\n        /* \"#utility.yul\":1305:1312   */\n      dup6\n        /* \"#utility.yul\":1301:1324   */\n      sub\n        /* \"#utility.yul\":1297:1329   */\n      slt\n        /* \"#utility.yul\":1294:1413   */\n      iszero\n      tag_93\n      jumpi\n        /* \"#utility.yul\":1332:1411   */\n      tag_94\n      tag_90\n      jump\t// in\n    tag_94:\n        /* \"#utility.yul\":1294:1413   */\n    tag_93:\n        /* \"#utility.yul\":1452:1453   */\n      0x00\n        /* \"#utility.yul\":1477:1530   */\n      tag_95\n        /* \"#utility.yul\":1522:1529   */\n      dup6\n        /* \"#utility.yul\":1513:1519   */\n      dup3\n        /* \"#utility.yul\":1502:1511   */\n      dup7\n        /* \"#utility.yul\":1498:1520   */\n      add\n        /* \"#utility.yul\":1477:1530   */\n      tag_65\n      jump\t// in\n    tag_95:\n        /* \"#utility.yul\":1467:1530   */\n      swap3\n      pop\n        /* \"#utility.yul\":1423:1540   */\n      pop\n        /* \"#utility.yul\":1579:1581   */\n      0x20\n        /* \"#utility.yul\":1605:1655   */\n      tag_96\n        /* \"#utility.yul\":1647:1654   */\n      dup6\n        /* \"#utility.yul\":1638:1644   */\n      dup3\n        /* \"#utility.yul\":1627:1636   */\n      dup7\n        /* \"#utility.yul\":1623:1645   */\n      add\n        /* \"#utility.yul\":1605:1655   */\n      tag_69\n      jump\t// in\n    tag_96:\n        /* \"#utility.yul\":1595:1655   */\n      swap2\n      pop\n        /* \"#utility.yul\":1550:1665   */\n      pop\n        /* \"#utility.yul\":1204:1672   */\n      swap3\n      pop\n      swap3\n      swap1\n      pop\n      jump\t// out\n        /* \"#utility.yul\":1678:2152   */\n    tag_11:\n        /* \"#utility.yul\":1746:1752   */\n      0x00\n        /* \"#utility.yul\":1754:1760   */\n      dup1\n        /* \"#utility.yul\":1803:1805   */\n      0x40\n        /* \"#utility.yul\":1791:1800   */\n      dup4\n        /* \"#utility.yul\":1782:1789   */\n      dup6\n        /* \"#utility.yul\":1778:1801   */\n      sub\n        /* \"#utility.yul\":1774:1806   */\n      slt\n        /* \"#utility.yul\":1771:1890   */\n      iszero\n      tag_98\n      jumpi\n        /* \"#utility.yul\":1809:1888   */\n      tag_99\n      tag_90\n      jump\t// in\n    tag_99:\n        /* \"#utility.yul\":1771:1890   */\n    tag_98:\n        /* \"#utility.yul\":1929:1930   */\n      0x00\n        /* \"#utility.yul\":1954:2007   */\n      tag_100\n        /* \"#utility.yul\":1999:2006   */\n      dup6\n        /* \"#utility.yul\":1990:1996   */\n      dup3\n        /* \"#utility.yul\":1979:1988   */\n      dup7\n        /* \"#utility.yul\":1975:1997   */\n      add\n        /* \"#utility.yul\":1954:2007   */\n      tag_65\n      jump\t// in\n    tag_100:\n        /* \"#utility.yul\":1944:2007   */\n      swap3\n      pop\n        /* \"#utility.yul\":1900:2017   */\n      pop\n        /* \"#utility.yul\":2056:2058   */\n      0x20\n        /* \"#utility.yul\":2082:2135   */\n      tag_101\n        /* \"#utility.yul\":2127:2134   */\n      dup6\n        /* \"#utility.yul\":2118:2124   */\n      dup3\n        /* \"#utility.yul\":2107:2116   */\n      dup7\n        /* \"#utility.yul\":2103:2125   */\n      add\n        /* \"#utility.yul\":2082:2135   */\n      tag_76\n      jump\t// in\n    tag_101:\n        /* \"#utility.yul\":2072:2135   */\n      swap2\n      pop\n        /* \"#utility.yul\":2027:2145   */\n      pop\n        /* \"#utility.yul\":1678:2152   */\n      swap3\n      pop\n      swap3\n      swap1\n      pop\n      jump\t// out\n        /* \"#utility.yul\":2158:2773   */\n    tag_17:\n        /* \"#utility.yul\":2233:2239   */\n      0x00\n        /* \"#utility.yul\":2241:2247   */\n      dup1\n        /* \"#utility.yul\":2249:2255   */\n      0x00\n        /* \"#utility.yul\":2298:2300   */\n      0x60\n        /* \"#utility.yul\":2286:2295   */\n      dup5\n        /* \"#utility.yul\":2277:2284   */\n      dup7\n        /* \"#utility.yul\":2273:2296   */\n      sub\n        /* \"#utility.yul\":2269:2301   */\n      slt\n        /* \"#utility.yul\":2266:2385   */\n      iszero\n      tag_103\n      jumpi\n        /* \"#utility.yul\":2304:2383   */\n      tag_104\n      tag_90\n      jump\t// in\n    tag_104:\n        /* \"#utility.yul\":2266:2385   */\n    tag_103:\n        /* \"#utility.yul\":2424:2425   */\n      0x00\n        /* \"#utility.yul\":2449:2502   */\n      tag_105\n        /* \"#utility.yul\":2494:2501   */\n      dup7\n        /* \"#utility.yul\":2485:2491   */\n      dup3\n        /* \"#utility.yul\":2474:2483   */\n      dup8\n        /* \"#utility.yul\":2470:2492   */\n      add\n        /* \"#utility.yul\":2449:2502   */\n      tag_65\n      jump\t// in\n    tag_105:\n        /* \"#utility.yul\":2439:2502   */\n      swap4\n      pop\n        /* \"#utility.yul\":2395:2512   */\n      pop\n        /* \"#utility.yul\":2551:2553   */\n      0x20\n        /* \"#utility.yul\":2577:2630   */\n      tag_106\n        /* \"#utility.yul\":2622:2629   */\n      dup7\n        /* \"#utility.yul\":2613:2619   */\n      dup3\n        /* \"#utility.yul\":2602:2611   */\n      dup8\n        /* \"#utility.yul\":2598:2620   */\n      add\n        /* \"#utility.yul\":2577:2630   */\n      tag_76\n      jump\t// in\n    tag_106:\n        /* \"#utility.yul\":2567:2630   */\n      swap3\n      pop\n        /* \"#utility.yul\":2522:2640   */\n      pop\n        /* \"#utility.yul\":2679:2681   */\n      0x40\n        /* \"#utility.yul\":2705:2756   */\n      tag_107\n        /* \"#utility.yul\":2748:2755   */\n      dup7\n        /* \"#utility.yul\":2739:2745   */\n      dup3\n        /* \"#utility.yul\":2728:2737   */\n      dup8\n        /* \"#utility.yul\":2724:2746   */\n      add\n        /* \"#utility.yul\":2705:2756   */\n      tag_83\n      jump\t// in\n    tag_107:\n        /* \"#utility.yul\":2695:2756   */\n      swap2\n      pop\n        /* \"#utility.yul\":2650:2766   */\n      pop\n        /* \"#utility.yul\":2158:2773   */\n      swap3\n      pop\n      swap3\n      pop\n      swap3\n      jump\t// out\n        /* \"#utility.yul\":2779:3124   */\n    tag_63:\n        /* \"#utility.yul\":2846:2852   */\n      0x00\n        /* \"#utility.yul\":2895:2897   */\n      0x20\n        /* \"#utility.yul\":2883:2892   */\n      dup3\n        /* \"#utility.yul\":2874:2881   */\n      dup5\n        /* \"#utility.yul\":2870:2893   */\n      sub\n        /* \"#utility.yul\":2866:2898   */\n      slt\n        /* \"#utility.yul\":2863:2982   */\n      iszero\n      tag_109\n      jumpi\n        /* \"#utility.yul\":2901:2980   */\n      tag_110\n      tag_90\n      jump\t// in\n    tag_110:\n        /* \"#utility.yul\":2863:2982   */\n    tag_109:\n        /* \"#utility.yul\":3021:3022   */\n      0x00\n        /* \"#utility.yul\":3046:3107   */\n      tag_111\n        /* \"#utility.yul\":3099:3106   */\n      dup5\n        /* \"#utility.yul\":3090:3096   */\n      dup3\n        /* \"#utility.yul\":3079:3088   */\n      dup6\n        /* \"#utility.yul\":3075:3097   */\n      add\n        /* \"#utility.yul\":3046:3107   */\n      tag_73\n      jump\t// in\n    tag_111:\n        /* \"#utility.yul\":3036:3107   */\n      swap2\n      pop\n        /* \"#utility.yul\":2992:3117   */\n      pop\n        /* \"#utility.yul\":2779:3124   */\n      swap3\n      swap2\n      pop\n      pop\n      jump\t// out\n        /* \"#utility.yul\":3130:3481   */\n    tag_41:\n        /* \"#utility.yul\":3200:3206   */\n      0x00\n        /* \"#utility.yul\":3249:3251   */\n      0x20\n        /* \"#utility.yul\":3237:3246   */\n      dup3\n        /* \"#utility.yul\":3228:3235   */\n      dup5\n        /* \"#utility.yul\":3224:3247   */\n      sub\n        /* \"#utility.yul\":3220:3252   */\n      slt\n        /* \"#utility.yul\":3217:3336   */\n      iszero\n      tag_113\n      jumpi\n        /* \"#utility.yul\":3255:3334   */\n      tag_114\n      tag_90\n      jump\t// in\n    tag_114:\n        /* \"#utility.yul\":3217:3336   */\n    tag_113:\n        /* \"#utility.yul\":3375:3376   */\n      0x00\n        /* \"#utility.yul\":3400:3464   */\n      tag_115\n        /* \"#utility.yul\":3456:3463   */\n      dup5\n        /* \"#utility.yul\":3447:3453   */\n      dup3\n        /* \"#utility.yul\":3436:3445   */\n      dup6\n        /* \"#utility.yul\":3432:3454   */\n      add\n        /* \"#utility.yul\":3400:3464   */\n      tag_80\n      jump\t// in\n    tag_115:\n        /* \"#utility.yul\":3390:3464   */\n      swap2\n      pop\n        /* \"#utility.yul\":3346:3474   */\n      pop\n        /* \"#utility.yul\":3130:3481   */\n      swap3\n      swap2\n      pop\n      pop\n      jump\t// out\n        /* \"#utility.yul\":3487:3596   */\n    tag_116:\n        /* \"#utility.yul\":3568:3589   */\n      tag_118\n        /* \"#utility.yul\":3583:3588   */\n      dup2\n        /* \"#utility.yul\":3568:3589   */\n      tag_119\n      jump\t// in\n    tag_118:\n        /* \"#utility.yul\":3563:3566   */\n      dup3\n        /* \"#utility.yul\":3556:3590   */\n      mstore\n        /* \"#utility.yul\":3487:3596   */\n      pop\n      pop\n      jump\t// out\n        /* \"#utility.yul\":3602:3720   */\n    tag_120:\n        /* \"#utility.yul\":3689:3713   */\n      tag_122\n        /* \"#utility.yul\":3707:3712   */\n      dup2\n        /* \"#utility.yul\":3689:3713   */\n      tag_123\n      jump\t// in\n    tag_122:\n        /* \"#utility.yul\":3684:3687   */\n      dup3\n        /* \"#utility.yul\":3677:3714   */\n      mstore\n        /* \"#utility.yul\":3602:3720   */\n      pop\n      pop\n      jump\t// out\n        /* \"#utility.yul\":3726:3838   */\n    tag_124:\n        /* \"#utility.yul\":3809:3831   */\n      tag_126\n        /* \"#utility.yul\":3825:3830   */\n      dup2\n        /* \"#utility.yul\":3809:3831   */\n      tag_127\n      jump\t// in\n    tag_126:\n        /* \"#utility.yul\":3804:3807   */\n      dup3\n        /* \"#utility.yul\":3797:3832   */\n      mstore\n        /* \"#utility.yul\":3726:3838   */\n      pop\n      pop\n      jump\t// out\n        /* \"#utility.yul\":3844:4054   */\n    tag_22:\n        /* \"#utility.yul\":3931:3935   */\n      0x00\n        /* \"#utility.yul\":3969:3971   */\n      0x20\n        /* \"#utility.yul\":3958:3967   */\n      dup3\n        /* \"#utility.yul\":3954:3972   */\n      add\n        /* \"#utility.yul\":3946:3972   */\n      swap1\n      pop\n        /* \"#utility.yul\":3982:4047   */\n      tag_129\n        /* \"#utility.yul\":4044:4045   */\n      0x00\n        /* \"#utility.yul\":4033:4042   */\n      dup4\n        /* \"#utility.yul\":4029:4046   */\n      add\n        /* \"#utility.yul\":4020:4026   */\n      dup5\n        /* \"#utility.yul\":3982:4047   */\n      tag_116\n      jump\t// in\n    tag_129:\n        /* \"#utility.yul\":3844:4054   */\n      swap3\n      swap2\n      pop\n      pop\n      jump\t// out\n        /* \"#utility.yul\":4060:4282   */\n    tag_14:\n        /* \"#utility.yul\":4153:4157   */\n      0x00\n        /* \"#utility.yul\":4191:4193   */\n      0x20\n        /* \"#utility.yul\":4180:4189   */\n      dup3\n        /* \"#utility.yul\":4176:4194   */\n      add\n        /* \"#utility.yul\":4168:4194   */\n      swap1\n      pop\n        /* \"#utility.yul\":4204:4275   */\n      tag_131\n        /* \"#utility.yul\":4272:4273   */\n      0x00\n        /* \"#utility.yul\":4261:4270   */\n      dup4\n        /* \"#utility.yul\":4257:4274   */\n      add\n        /* \"#utility.yul\":4248:4254   */\n      dup5\n        /* \"#utility.yul\":4204:4275   */\n      tag_120\n      jump\t// in\n    tag_131:\n        /* \"#utility.yul\":4060:4282   */\n      swap3\n      swap2\n      pop\n      pop\n      jump\t// out\n        /* \"#utility.yul\":4288:4612   */\n    tag_44:\n        /* \"#utility.yul\":4405:4409   */\n      0x00\n        /* \"#utility.yul\":4443:4445   */\n      0x40\n        /* \"#utility.yul\":4432:4441   */\n      dup3\n        /* \"#utility.yul\":4428:4446   */\n      add\n        /* \"#utility.yul\":4420:4446   */\n      swap1\n      pop\n        /* \"#utility.yul\":4456:4527   */\n      tag_133\n        /* \"#utility.yul\":4524:4525   */\n      0x00\n        /* \"#utility.yul\":4513:4522   */\n      dup4\n        /* \"#utility.yul\":4509:4526   */\n      add\n        /* \"#utility.yul\":4500:4506   */\n      dup6\n        /* \"#utility.yul\":4456:4527   */\n      tag_120\n      jump\t// in\n    tag_133:\n        /* \"#utility.yul\":4537:4605   */\n      tag_134\n        /* \"#utility.yul\":4601:4603   */\n      0x20\n        /* \"#utility.yul\":4590:4599   */\n      dup4\n        /* \"#utility.yul\":4586:4604   */\n      add\n        /* \"#utility.yul\":4577:4583   */\n      dup5\n        /* \"#utility.yul\":4537:4605   */\n      tag_124\n      jump\t// in\n    tag_134:\n        /* \"#utility.yul\":4288:4612   */\n      swap4\n      swap3\n      pop\n      pop\n      pop\n      jump\t// out\n        /* \"#utility.yul\":4699:4795   */\n    tag_137:\n        /* \"#utility.yul\":4736:4743   */\n      0x00\n        /* \"#utility.yul\":4765:4789   */\n      tag_139\n        /* \"#utility.yul\":4783:4788   */\n      dup3\n        /* \"#utility.yul\":4765:4789   */\n      tag_140\n      jump\t// in\n    tag_139:\n        /* \"#utility.yul\":4754:4789   */\n      swap1\n      pop\n        /* \"#utility.yul\":4699:4795   */\n      swap2\n      swap1\n      pop\n      jump\t// out\n        /* \"#utility.yul\":4801:4891   */\n    tag_119:\n        /* \"#utility.yul\":4835:4842   */\n      0x00\n        /* \"#utility.yul\":4878:4883   */\n      dup2\n        /* \"#utility.yul\":4871:4884   */\n      iszero\n        /* \"#utility.yul\":4864:4885   */\n      iszero\n        /* \"#utility.yul\":4853:4885   */\n      swap1\n      pop\n        /* \"#utility.yul\":4801:4891   */\n      swap2\n      swap1\n      pop\n      jump\t// out\n        /* \"#utility.yul\":4897:5023   */\n    tag_140:\n        /* \"#utility.yul\":4934:4941   */\n      0x00\n        /* \"#utility.yul\":4974:5016   */\n      0xffffffffffffffffffffffffffffffffffffffff\n        /* \"#utility.yul\":4967:4972   */\n      dup3\n        /* \"#utility.yul\":4963:5017   */\n      and\n        /* \"#utility.yul\":4952:5017   */\n      swap1\n      pop\n        /* \"#utility.yul\":4897:5023   */\n      swap2\n      swap1\n      pop\n      jump\t// out\n        /* \"#utility.yul\":5029:5106   */\n    tag_123:\n        /* \"#utility.yul\":5066:5073   */\n      0x00\n        /* \"#utility.yul\":5095:5100   */\n      dup2\n        /* \"#utility.yul\":5084:5100   */\n      swap1\n      pop\n        /* \"#utility.yul\":5029:5106   */\n      swap2\n      swap1\n      pop\n      jump\t// out\n        /* \"#utility.yul\":5112:5198   */\n    tag_127:\n        /* \"#utility.yul\":5147:5154   */\n      0x00\n        /* \"#utility.yul\":5187:5191   */\n      0xff\n        /* \"#utility.yul\":5180:5185   */\n      dup3\n        /* \"#utility.yul\":5176:5192   */\n      and\n        /* \"#utility.yul\":5165:5192   */\n      swap1\n      pop\n        /* \"#utility.yul\":5112:5198   */\n      swap2\n      swap1\n      pop\n      jump\t// out\n        /* \"#utility.yul\":5327:5444   */\n    tag_90:\n        /* \"#utility.yul\":5436:5437   */\n      0x00\n        /* \"#utility.yul\":5433:5434   */\n      dup1\n        /* \"#utility.yul\":5426:5438   */\n      revert\n        /* \"#utility.yul\":5450:5572   */\n    tag_68:\n        /* \"#utility.yul\":5523:5547   */\n      tag_149\n        /* \"#utility.yul\":5541:5546   */\n      dup2\n        /* \"#utility.yul\":5523:5547   */\n      tag_137\n      jump\t// in\n    tag_149:\n        /* \"#utility.yul\":5516:5521   */\n      dup2\n        /* \"#utility.yul\":5513:5548   */\n      eq\n        /* \"#utility.yul\":5503:5566   */\n      tag_150\n      jumpi\n        /* \"#utility.yul\":5562:5563   */\n      0x00\n        /* \"#utility.yul\":5559:5560   */\n      dup1\n        /* \"#utility.yul\":5552:5564   */\n      revert\n        /* \"#utility.yul\":5503:5566   */\n    tag_150:\n        /* \"#utility.yul\":5450:5572   */\n      pop\n      jump\t// out\n        /* \"#utility.yul\":5578:5694   */\n    tag_72:\n        /* \"#utility.yul\":5648:5669   */\n      tag_152\n        /* \"#utility.yul\":5663:5668   */\n      dup2\n        /* \"#utility.yul\":5648:5669   */\n      tag_119\n      jump\t// in\n    tag_152:\n        /* \"#utility.yul\":5641:5646   */\n      dup2\n        /* \"#utility.yul\":5638:5670   */\n      eq\n        /* \"#utility.yul\":5628:5688   */\n      tag_153\n      jumpi\n        /* \"#utility.yul\":5684:5685   */\n      0x00\n        /* \"#utility.yul\":5681:5682   */\n      dup1\n        /* \"#utility.yul\":5674:5686   */\n      revert\n        /* \"#utility.yul\":5628:5688   */\n    tag_153:\n        /* \"#utility.yul\":5578:5694   */\n      pop\n      jump\t// out\n        /* \"#utility.yul\":5700:5822   */\n    tag_79:\n        /* \"#utility.yul\":5773:5797   */\n      tag_155\n        /* \"#utility.yul\":5791:5796   */\n      dup2\n        /* \"#utility.yul\":5773:5797   */\n      tag_123\n      jump\t// in\n    tag_155:\n        /* \"#utility.yul\":5766:5771   */\n      dup2\n        /* \"#utility.yul\":5763:5798   */\n      eq\n        /* \"#utility.yul\":5753:5816   */\n      tag_156\n      jumpi\n        /* \"#utility.yul\":5812:5813   */\n      0x00\n        /* \"#utility.yul\":5809:5810   */\n      dup1\n        /* \"#utility.yul\":5802:5814   */\n      revert\n        /* \"#utility.yul\":5753:5816   */\n    tag_156:\n        /* \"#utility.yul\":5700:5822   */\n      pop\n      jump\t// out\n        /* \"#utility.yul\":5828:5946   */\n    tag_86:\n        /* \"#utility.yul\":5899:5921   */\n      tag_158\n        /* \"#utility.yul\":5915:5920   */\n      dup2\n        /* \"#utility.yul\":5899:5921   */\n      tag_127\n      jump\t// in\n    tag_158:\n        /* \"#utility.yul\":5892:5897   */\n      dup2\n        /* \"#utility.yul\":5889:5922   */\n      eq\n        /* \"#utility.yul\":5879:5940   */\n      tag_159\n      jumpi\n        /* \"#utility.yul\":5936:5937   */\n      0x00\n        /* \"#utility.yul\":5933:5934   */\n      dup1\n        /* \"#utility.yul\":5926:5938   */\n      revert\n        /* \"#utility.yul\":5879:5940   */\n    tag_159:\n        /* \"#utility.yul\":5828:5946   */\n      pop\n      jump\t// out\n\n    auxdata: 0xa2646970667358221220aea73c1d8923290136896bf7a55225d54c19228824a3edca5ce52313ffde7c2064736f6c63430008070033\n}\n",
				"bytecode": {
					"linkReferences": {},
					"object": "608060405234801561001057600080fd5b5060008060006101000a81548160ff0219169083151502179055506107078061003a6000396000f3fe608060405234801561001057600080fd5b50600436106100625760003560e01c80631622c1b8146100675780631cdbb1031461009757806324d935ad146100b3578063906246e1146100d1578063a1b05986146100ed578063df514f6714610109575b600080fd5b610081600480360381019061007c91906104a2565b610139565b60405161008e91906105d7565b60405180910390f35b6100b160048036038101906100ac91906104e2565b6101cc565b005b6100bb61023e565b6040516100c891906105bc565b60405180910390f35b6100eb60048036038101906100e69190610462565b61024f565b005b610107600480360381019061010291906104e2565b6102be565b005b610123600480360381019061011e9190610435565b610330565b60405161013091906105bc565b60405180910390f35b60008273ffffffffffffffffffffffffffffffffffffffff1663063b3810836040518263ffffffff1660e01b815260040161017491906105d7565b60206040518083038186803b15801561018c57600080fd5b505afa1580156101a0573d6000803e3d6000fd5b505050506040513d601f19601f820116820180604052508101906101c49190610562565b905092915050565b8273ffffffffffffffffffffffffffffffffffffffff16630efed18b83836040518363ffffffff1660e01b81526004016102079291906105f2565b600060405180830381600087803b15801561022157600080fd5b505af1158015610235573d6000803e3d6000fd5b50505050505050565b60008054906101000a900460ff1681565b8173ffffffffffffffffffffffffffffffffffffffff16638e20a9dd826040518263ffffffff1660e01b815260040161028891906105bc565b600060405180830381600087803b1580156102a257600080fd5b505af11580156102b6573d6000803e3d6000fd5b505050505050565b8273ffffffffffffffffffffffffffffffffffffffff1663d43b8e0583836040518363ffffffff1660e01b81526004016102f99291906105f2565b600060405180830381600087803b15801561031357600080fd5b505af1158015610327573d6000803e3d6000fd5b50505050505050565b60008173ffffffffffffffffffffffffffffffffffffffff1663c64a4bad6040518163ffffffff1660e01b815260040160206040518083038186803b15801561037857600080fd5b505afa15801561038c573d6000803e3d6000fd5b505050506040513d601f19601f820116820180604052508101906103b09190610535565b9050919050565b6000813590506103c681610675565b92915050565b6000813590506103db8161068c565b92915050565b6000815190506103f08161068c565b92915050565b600081359050610405816106a3565b92915050565b60008151905061041a816106a3565b92915050565b60008135905061042f816106ba565b92915050565b60006020828403121561044b5761044a610670565b5b6000610459848285016103b7565b91505092915050565b6000806040838503121561047957610478610670565b5b6000610487858286016103b7565b9250506020610498858286016103cc565b9150509250929050565b600080604083850312156104b9576104b8610670565b5b60006104c7858286016103b7565b92505060206104d8858286016103f6565b9150509250929050565b6000806000606084860312156104fb576104fa610670565b5b6000610509868287016103b7565b935050602061051a868287016103f6565b925050604061052b86828701610420565b9150509250925092565b60006020828403121561054b5761054a610670565b5b6000610559848285016103e1565b91505092915050565b60006020828403121561057857610577610670565b5b60006105868482850161040b565b91505092915050565b6105988161062d565b82525050565b6105a781610659565b82525050565b6105b681610663565b82525050565b60006020820190506105d1600083018461058f565b92915050565b60006020820190506105ec600083018461059e565b92915050565b6000604082019050610607600083018561059e565b61061460208301846105ad565b9392505050565b600061062682610639565b9050919050565b60008115159050919050565b600073ffffffffffffffffffffffffffffffffffffffff82169050919050565b6000819050919050565b600060ff82169050919050565b600080fd5b61067e8161061b565b811461068957600080fd5b50565b6106958161062d565b81146106a057600080fd5b50565b6106ac81610659565b81146106b757600080fd5b50565b6106c381610663565b81146106ce57600080fd5b5056fea2646970667358221220aea73c1d8923290136896bf7a55225d54c19228824a3edca5ce52313ffde7c2064736f6c63430008070033",
					"opcodes": "PUSH1 0x80 PUSH1 0x40 MSTORE CALLVALUE DUP1 ISZERO PUSH2 0x10 JUMPI PUSH1 0x0 DUP1 REVERT JUMPDEST POP PUSH1 0x0 DUP1 PUSH1 0x0 PUSH2 0x100 EXP DUP2 SLOAD DUP2 PUSH1 0xFF MUL NOT AND SWAP1 DUP4 ISZERO ISZERO MUL OR SWAP1 SSTORE POP PUSH2 0x707 DUP1 PUSH2 0x3A PUSH1 0x0 CODECOPY PUSH1 0x0 RETURN INVALID PUSH1 0x80 PUSH1 0x40 MSTORE CALLVALUE DUP1 ISZERO PUSH2 0x10 JUMPI PUSH1 0x0 DUP1 REVERT JUMPDEST POP PUSH1 0x4 CALLDATASIZE LT PUSH2 0x62 JUMPI PUSH1 0x0 CALLDATALOAD PUSH1 0xE0 SHR DUP1 PUSH4 0x1622C1B8 EQ PUSH2 0x67 JUMPI DUP1 PUSH4 0x1CDBB103 EQ PUSH2 0x97 JUMPI DUP1 PUSH4 0x24D935AD EQ PUSH2 0xB3 JUMPI DUP1 PUSH4 0x906246E1 EQ PUSH2 0xD1 JUMPI DUP1 PUSH4 0xA1B05986 EQ PUSH2 0xED JUMPI DUP1 PUSH4 0xDF514F67 EQ PUSH2 0x109 JUMPI JUMPDEST PUSH1 0x0 DUP1 REVERT JUMPDEST PUSH2 0x81 PUSH1 0x4 DUP1 CALLDATASIZE SUB DUP2 ADD SWAP1 PUSH2 0x7C SWAP2 SWAP1 PUSH2 0x4A2 JUMP JUMPDEST PUSH2 0x139 JUMP JUMPDEST PUSH1 0x40 MLOAD PUSH2 0x8E SWAP2 SWAP1 PUSH2 0x5D7 JUMP JUMPDEST PUSH1 0x40 MLOAD DUP1 SWAP2 SUB SWAP1 RETURN JUMPDEST PUSH2 0xB1 PUSH1 0x4 DUP1 CALLDATASIZE SUB DUP2 ADD SWAP1 PUSH2 0xAC SWAP2 SWAP1 PUSH2 0x4E2 JUMP JUMPDEST PUSH2 0x1CC JUMP JUMPDEST STOP JUMPDEST PUSH2 0xBB PUSH2 0x23E JUMP JUMPDEST PUSH1 0x40 MLOAD PUSH2 0xC8 SWAP2 SWAP1 PUSH2 0x5BC JUMP JUMPDEST PUSH1 0x40 MLOAD DUP1 SWAP2 SUB SWAP1 RETURN JUMPDEST PUSH2 0xEB PUSH1 0x4 DUP1 CALLDATASIZE SUB DUP2 ADD SWAP1 PUSH2 0xE6 SWAP2 SWAP1 PUSH2 0x462 JUMP JUMPDEST PUSH2 0x24F JUMP JUMPDEST STOP JUMPDEST PUSH2 0x107 PUSH1 0x4 DUP1 CALLDATASIZE SUB DUP2 ADD SWAP1 PUSH2 0x102 SWAP2 SWAP1 PUSH2 0x4E2 JUMP JUMPDEST PUSH2 0x2BE JUMP JUMPDEST STOP JUMPDEST PUSH2 0x123 PUSH1 0x4 DUP1 CALLDATASIZE SUB DUP2 ADD SWAP1 PUSH2 0x11E SWAP2 SWAP1 PUSH2 0x435 JUMP JUMPDEST PUSH2 0x330 JUMP JUMPDEST PUSH1 0x40 MLOAD PUSH2 0x130 SWAP2 SWAP1 PUSH2 0x5BC JUMP JUMPDEST PUSH1 0x40 MLOAD DUP1 SWAP2 SUB SWAP1 RETURN JUMPDEST PUSH1 0x0 DUP3 PUSH20 0xFFFFFFFFFFFFFFFFFFFFFFFFFFFFFFFFFFFFFFFF AND PUSH4 0x63B3810 DUP4 PUSH1 0x40 MLOAD DUP3 PUSH4 0xFFFFFFFF AND PUSH1 0xE0 SHL DUP2 MSTORE PUSH1 0x4 ADD PUSH2 0x174 SWAP2 SWAP1 PUSH2 0x5D7 JUMP JUMPDEST PUSH1 0x20 PUSH1 0x40 MLOAD DUP1 DUP4 SUB DUP2 DUP7 DUP1 EXTCODESIZE ISZERO DUP1 ISZERO PUSH2 0x18C JUMPI PUSH1 0x0 DUP1 REVERT JUMPDEST POP GAS STATICCALL ISZERO DUP1 ISZERO PUSH2 0x1A0 JUMPI RETURNDATASIZE PUSH1 0x0 DUP1 RETURNDATACOPY RETURNDATASIZE PUSH1 0x0 REVERT JUMPDEST POP POP POP POP PUSH1 0x40 MLOAD RETURNDATASIZE PUSH1 0x1F NOT PUSH1 0x1F DUP3 ADD AND DUP3 ADD DUP1 PUSH1 0x40 MSTORE POP DUP2 ADD SWAP1 PUSH2 0x1C4 SWAP2 SWAP1 PUSH2 0x562 JUMP JUMPDEST SWAP1 POP SWAP3 SWAP2 POP POP JUMP JUMPDEST DUP3 PUSH20 0xFFFFFFFFFFFFFFFFFFFFFFFFFFFFFFFFFFFFFFFF AND PUSH4 0xEFED18B DUP4 DUP4 PUSH1 0x40 MLOAD DUP4 PUSH4 0xFFFFFFFF AND PUSH1 0xE0 SHL DUP2 MSTORE PUSH1 0x4 ADD PUSH2 0x207 SWAP3 SWAP2 SWAP1 PUSH2 0x5F2 JUMP JUMPDEST PUSH1 0x0 PUSH1 0x40 MLOAD DUP1 DUP4 SUB DUP2 PUSH1 0x0 DUP8 DUP1 EXTCODESIZE ISZERO DUP1 ISZERO PUSH2 0x221 JUMPI PUSH1 0x0 DUP1 REVERT JUMPDEST POP GAS CALL ISZERO DUP1 ISZERO PUSH2 0x235 JUMPI RETURNDATASIZE PUSH1 0x0 DUP1 RETURNDATACOPY RETURNDATASIZE PUSH1 0x0 REVERT JUMPDEST POP POP POP POP POP POP POP JUMP JUMPDEST PUSH1 0x0 DUP1 SLOAD SWAP1 PUSH2 0x100 EXP SWAP1 DIV PUSH1 0xFF AND DUP2 JUMP JUMPDEST DUP2 PUSH20 0xFFFFFFFFFFFFFFFFFFFFFFFFFFFFFFFFFFFFFFFF AND PUSH4 0x8E20A9DD DUP3 PUSH1 0x40 MLOAD DUP3 PUSH4 0xFFFFFFFF AND PUSH1 0xE0 SHL DUP2 MSTORE PUSH1 0x4 ADD PUSH2 0x288 SWAP2 SWAP1 PUSH2 0x5BC JUMP JUMPDEST PUSH1 0x0 PUSH1 0x40 MLOAD DUP1 DUP4 SUB DUP2 PUSH1 0x0 DUP8 DUP1 EXTCODESIZE ISZERO DUP1 ISZERO PUSH2 0x2A2 JUMPI PUSH1 0x0 DUP1 REVERT JUMPDEST POP GAS CALL ISZERO DUP1 ISZERO PUSH2 0x2B6 JUMPI RETURNDATASIZE PUSH1 0x0 DUP1 RETURNDATACOPY RETURNDATASIZE PUSH1 0x0 REVERT JUMPDEST POP POP POP POP POP POP JUMP JUMPDEST DUP3 PUSH20 0xFFFFFFFFFFFFFFFFFFFFFFFFFFFFFFFFFFFFFFFF AND PUSH4 0xD43B8E05 DUP4 DUP4 PUSH1 0x40 MLOAD DUP4 PUSH4 0xFFFFFFFF AND PUSH1 0xE0 SHL DUP2 MSTORE PUSH1 0x4 ADD PUSH2 0x2F9 SWAP3 SWAP2 SWAP1 PUSH2 0x5F2 JUMP JUMPDEST PUSH1 0x0 PUSH1 0x40 MLOAD DUP1 DUP4 SUB DUP2 PUSH1 0x0 DUP8 DUP1 EXTCODESIZE ISZERO DUP1 ISZERO PUSH2 0x313 JUMPI PUSH1 0x0 DUP1 REVERT JUMPDEST POP GAS CALL ISZERO DUP1 ISZERO PUSH2 0x327 JUMPI RETURNDATASIZE PUSH1 0x0 DUP1 RETURNDATACOPY RETURNDATASIZE PUSH1 0x0 REVERT JUMPDEST POP POP POP POP POP POP POP JUMP JUMPDEST PUSH1 0x0 DUP2 PUSH20 0xFFFFFFFFFFFFFFFFFFFFFFFFFFFFFFFFFFFFFFFF AND PUSH4 0xC64A4BAD PUSH1 0x40 MLOAD DUP2 PUSH4 0xFFFFFFFF AND PUSH1 0xE0 SHL DUP2 MSTORE PUSH1 0x4 ADD PUSH1 0x20 PUSH1 0x40 MLOAD DUP1 DUP4 SUB DUP2 DUP7 DUP1 EXTCODESIZE ISZERO DUP1 ISZERO PUSH2 0x378 JUMPI PUSH1 0x0 DUP1 REVERT JUMPDEST POP GAS STATICCALL ISZERO DUP1 ISZERO PUSH2 0x38C JUMPI RETURNDATASIZE PUSH1 0x0 DUP1 RETURNDATACOPY RETURNDATASIZE PUSH1 0x0 REVERT JUMPDEST POP POP POP POP PUSH1 0x40 MLOAD RETURNDATASIZE PUSH1 0x1F NOT PUSH1 0x1F DUP3 ADD AND DUP3 ADD DUP1 PUSH1 0x40 MSTORE POP DUP2 ADD SWAP1 PUSH2 0x3B0 SWAP2 SWAP1 PUSH2 0x535 JUMP JUMPDEST SWAP1 POP SWAP2 SWAP1 POP JUMP JUMPDEST PUSH1 0x0 DUP2 CALLDATALOAD SWAP1 POP PUSH2 0x3C6 DUP2 PUSH2 0x675 JUMP JUMPDEST SWAP3 SWAP2 POP POP JUMP JUMPDEST PUSH1 0x0 DUP2 CALLDATALOAD SWAP1 POP PUSH2 0x3DB DUP2 PUSH2 0x68C JUMP JUMPDEST SWAP3 SWAP2 POP POP JUMP JUMPDEST PUSH1 0x0 DUP2 MLOAD SWAP1 POP PUSH2 0x3F0 DUP2 PUSH2 0x68C JUMP JUMPDEST SWAP3 SWAP2 POP POP JUMP JUMPDEST PUSH1 0x0 DUP2 CALLDATALOAD SWAP1 POP PUSH2 0x405 DUP2 PUSH2 0x6A3 JUMP JUMPDEST SWAP3 SWAP2 POP POP JUMP JUMPDEST PUSH1 0x0 DUP2 MLOAD SWAP1 POP PUSH2 0x41A DUP2 PUSH2 0x6A3 JUMP JUMPDEST SWAP3 SWAP2 POP POP JUMP JUMPDEST PUSH1 0x0 DUP2 CALLDATALOAD SWAP1 POP PUSH2 0x42F DUP2 PUSH2 0x6BA JUMP JUMPDEST SWAP3 SWAP2 POP POP JUMP JUMPDEST PUSH1 0x0 PUSH1 0x20 DUP3 DUP5 SUB SLT ISZERO PUSH2 0x44B JUMPI PUSH2 0x44A PUSH2 0x670 JUMP JUMPDEST JUMPDEST PUSH1 0x0 PUSH2 0x459 DUP5 DUP3 DUP6 ADD PUSH2 0x3B7 JUMP JUMPDEST SWAP2 POP POP SWAP3 SWAP2 POP POP JUMP JUMPDEST PUSH1 0x0 DUP1 PUSH1 0x40 DUP4 DUP6 SUB SLT ISZERO PUSH2 0x479 JUMPI PUSH2 0x478 PUSH2 0x670 JUMP JUMPDEST JUMPDEST PUSH1 0x0 PUSH2 0x487 DUP6 DUP3 DUP7 ADD PUSH2 0x3B7 JUMP JUMPDEST SWAP3 POP POP PUSH1 0x20 PUSH2 0x498 DUP6 DUP3 DUP7 ADD PUSH2 0x3CC JUMP JUMPDEST SWAP2 POP POP SWAP3 POP SWAP3 SWAP1 POP JUMP JUMPDEST PUSH1 0x0 DUP1 PUSH1 0x40 DUP4 DUP6 SUB SLT ISZERO PUSH2 0x4B9 JUMPI PUSH2 0x4B8 PUSH2 0x670 JUMP JUMPDEST JUMPDEST PUSH1 0x0 PUSH2 0x4C7 DUP6 DUP3 DUP7 ADD PUSH2 0x3B7 JUMP JUMPDEST SWAP3 POP POP PUSH1 0x20 PUSH2 0x4D8 DUP6 DUP3 DUP7 ADD PUSH2 0x3F6 JUMP JUMPDEST SWAP2 POP POP SWAP3 POP SWAP3 SWAP1 POP JUMP JUMPDEST PUSH1 0x0 DUP1 PUSH1 0x0 PUSH1 0x60 DUP5 DUP7 SUB SLT ISZERO PUSH2 0x4FB JUMPI PUSH2 0x4FA PUSH2 0x670 JUMP JUMPDEST JUMPDEST PUSH1 0x0 PUSH2 0x509 DUP7 DUP3 DUP8 ADD PUSH2 0x3B7 JUMP JUMPDEST SWAP4 POP POP PUSH1 0x20 PUSH2 0x51A DUP7 DUP3 DUP8 ADD PUSH2 0x3F6 JUMP JUMPDEST SWAP3 POP POP PUSH1 0x40 PUSH2 0x52B DUP7 DUP3 DUP8 ADD PUSH2 0x420 JUMP JUMPDEST SWAP2 POP POP SWAP3 POP SWAP3 POP SWAP3 JUMP JUMPDEST PUSH1 0x0 PUSH1 0x20 DUP3 DUP5 SUB SLT ISZERO PUSH2 0x54B JUMPI PUSH2 0x54A PUSH2 0x670 JUMP JUMPDEST JUMPDEST PUSH1 0x0 PUSH2 0x559 DUP5 DUP3 DUP6 ADD PUSH2 0x3E1 JUMP JUMPDEST SWAP2 POP POP SWAP3 SWAP2 POP POP JUMP JUMPDEST PUSH1 0x0 PUSH1 0x20 DUP3 DUP5 SUB SLT ISZERO PUSH2 0x578 JUMPI PUSH2 0x577 PUSH2 0x670 JUMP JUMPDEST JUMPDEST PUSH1 0x0 PUSH2 0x586 DUP5 DUP3 DUP6 ADD PUSH2 0x40B JUMP JUMPDEST SWAP2 POP POP SWAP3 SWAP2 POP POP JUMP JUMPDEST PUSH2 0x598 DUP2 PUSH2 0x62D JUMP JUMPDEST DUP3 MSTORE POP POP JUMP JUMPDEST PUSH2 0x5A7 DUP2 PUSH2 0x659 JUMP JUMPDEST DUP3 MSTORE POP POP JUMP JUMPDEST PUSH2 0x5B6 DUP2 PUSH2 0x663 JUMP JUMPDEST DUP3 MSTORE POP POP JUMP JUMPDEST PUSH1 0x0 PUSH1 0x20 DUP3 ADD SWAP1 POP PUSH2 0x5D1 PUSH1 0x0 DUP4 ADD DUP5 PUSH2 0x58F JUMP JUMPDEST SWAP3 SWAP2 POP POP JUMP JUMPDEST PUSH1 0x0 PUSH1 0x20 DUP3 ADD SWAP1 POP PUSH2 0x5EC PUSH1 0x0 DUP4 ADD DUP5 PUSH2 0x59E JUMP JUMPDEST SWAP3 SWAP2 POP POP JUMP JUMPDEST PUSH1 0x0 PUSH1 0x40 DUP3 ADD SWAP1 POP PUSH2 0x607 PUSH1 0x0 DUP4 ADD DUP6 PUSH2 0x59E JUMP JUMPDEST PUSH2 0x614 PUSH1 0x20 DUP4 ADD DUP5 PUSH2 0x5AD JUMP JUMPDEST SWAP4 SWAP3 POP POP POP JUMP JUMPDEST PUSH1 0x0 PUSH2 0x626 DUP3 PUSH2 0x639 JUMP JUMPDEST SWAP1 POP SWAP2 SWAP1 POP JUMP JUMPDEST PUSH1 0x0 DUP2 ISZERO ISZERO SWAP1 POP SWAP2 SWAP1 POP JUMP JUMPDEST PUSH1 0x0 PUSH20 0xFFFFFFFFFFFFFFFFFFFFFFFFFFFFFFFFFFFFFFFF DUP3 AND SWAP1 POP SWAP2 SWAP1 POP JUMP JUMPDEST PUSH1 0x0 DUP2 SWAP1 POP SWAP2 SWAP1 POP JUMP JUMPDEST PUSH1 0x0 PUSH1 0xFF DUP3 AND SWAP1 POP SWAP2 SWAP1 POP JUMP JUMPDEST PUSH1 0x0 DUP1 REVERT JUMPDEST PUSH2 0x67E DUP2 PUSH2 0x61B JUMP JUMPDEST DUP2 EQ PUSH2 0x689 JUMPI PUSH1 0x0 DUP1 REVERT JUMPDEST POP JUMP JUMPDEST PUSH2 0x695 DUP2 PUSH2 0x62D JUMP JUMPDEST DUP2 EQ PUSH2 0x6A0 JUMPI PUSH1 0x0 DUP1 REVERT JUMPDEST POP JUMP JUMPDEST PUSH2 0x6AC DUP2 PUSH2 0x659 JUMP JUMPDEST DUP2 EQ PUSH2 0x6B7 JUMPI PUSH1 0x0 DUP1 REVERT JUMPDEST POP JUMP JUMPDEST PUSH2 0x6C3 DUP2 PUSH2 0x663 JUMP JUMPDEST DUP2 EQ PUSH2 0x6CE JUMPI PUSH1 0x0 DUP1 REVERT JUMPDEST POP JUMP INVALID LOG2 PUSH5 0x6970667358 0x22 SLT KECCAK256 0xAE 0xA7 EXTCODECOPY SAR DUP10 0x23 0x29 ADD CALLDATASIZE DUP10 PUSH12 0xF7A55225D54C19228824A3ED 0xCA 0x5C 0xE5 0x23 SGT SELFDESTRUCT 0xDE PUSH29 0x2064736F6C634300080700330000000000000000000000000000000000 "
				},
				"gasEstimates": {
					"creation": {
						"codeDepositCost": "359800",
						"executionCost": "24666",
						"totalCost": "384466"
					},
					"external": {
						"_iden()": "2490",
						"check(address,bool)": "infinite",
						"checkTeacher(address)": "infinite",
						"queryScore(address,uint256)": "infinite",
						"teacherAdd(address,uint256,uint8)": "infinite",
						"teacherUpdate(address,uint256,uint8)": "infinite"
					}
				},
				"methodIdentifiers": {
					"_iden()": "24d935ad",
					"check(address,bool)": "906246e1",
					"checkTeacher(address)": "df514f67",
					"queryScore(address,uint256)": "1622c1b8",
					"teacherAdd(address,uint256,uint8)": "1cdbb103",
					"teacherUpdate(address,uint256,uint8)": "a1b05986"
				}
			},
			"userdoc": {
				"kind": "user",
				"methods": {},
				"version": 1
			}
		}
	}
}