{
	"contracts/Score.sol": {
		"Score": {
			"abi": [
				{
					"inputs": [
						{
							"internalType": "uint256",
							"name": "_studentNum",
							"type": "uint256"
						},
						{
							"internalType": "uint8",
							"name": "_score",
							"type": "uint8"
						}
					],
					"name": "addScore",
					"outputs": [],
					"stateMutability": "nonpayable",
					"type": "function"
				},
				{
					"inputs": [],
					"name": "isTeacher",
					"outputs": [
						{
							"internalType": "uint8",
							"name": "",
							"type": "uint8"
						}
					],
					"stateMutability": "view",
					"type": "function"
				},
				{
					"inputs": [
						{
							"internalType": "uint256",
							"name": "_studentNum",
							"type": "uint256"
						}
					],
					"name": "queryScore",
					"outputs": [
						{
							"internalType": "uint8",
							"name": "",
							"type": "uint8"
						}
					],
					"stateMutability": "view",
					"type": "function"
				},
				{
					"inputs": [
						{
							"internalType": "uint256",
							"name": "_studentNum",
							"type": "uint256"
						}
					],
					"name": "removeScore",
					"outputs": [],
					"stateMutability": "nonpayable",
					"type": "function"
				},
				{
					"inputs": [
						{
							"internalType": "uint256",
							"name": "",
							"type": "uint256"
						}
					],
					"name": "studentScore",
					"outputs": [
						{
							"internalType": "uint8",
							"name": "",
							"type": "uint8"
						}
					],
					"stateMutability": "view",
					"type": "function"
				},
				{
					"inputs": [
						{
							"internalType": "uint256",
							"name": "_studentNum",
							"type": "uint256"
						},
						{
							"internalType": "uint8",
							"name": "_score",
							"type": "uint8"
						}
					],
					"name": "updateScore",
					"outputs": [],
					"stateMutability": "nonpayable",
					"type": "function"
				}
			],
			"devdoc": {
				"kind": "dev",
				"methods": {},
				"version": 1
			},
			"evm": {
				"assembly": "    /* \"contracts/Score.sol\":62:1017  contract Score {\r... */\n  mstore(0x40, 0x80)\n  callvalue\n  dup1\n  iszero\n  tag_1\n  jumpi\n  0x00\n  dup1\n  revert\ntag_1:\n  pop\n  dataSize(sub_0)\n  dup1\n  dataOffset(sub_0)\n  0x00\n  codecopy\n  0x00\n  return\nstop\n\nsub_0: assembly {\n        /* \"contracts/Score.sol\":62:1017  contract Score {\r... */\n      mstore(0x40, 0x80)\n      callvalue\n      dup1\n      iszero\n      tag_1\n      jumpi\n      0x00\n      dup1\n      revert\n    tag_1:\n      pop\n      jumpi(tag_2, lt(calldatasize, 0x04))\n      shr(0xe0, calldataload(0x00))\n      dup1\n      0x063b3810\n      eq\n      tag_3\n      jumpi\n      dup1\n      0x0efed18b\n      eq\n      tag_4\n      jumpi\n      dup1\n      0x17d9500e\n      eq\n      tag_5\n      jumpi\n      dup1\n      0x2d96fd46\n      eq\n      tag_6\n      jumpi\n      dup1\n      0xc64a4bad\n      eq\n      tag_7\n      jumpi\n      dup1\n      0xd43b8e05\n      eq\n      tag_8\n      jumpi\n    tag_2:\n      0x00\n      dup1\n      revert\n        /* \"contracts/Score.sol\":894:1014  function queryScore(uint256 _studentNum) external view returns(uint8){\r... */\n    tag_3:\n      tag_9\n      0x04\n      dup1\n      calldatasize\n      sub\n      dup2\n      add\n      swap1\n      tag_10\n      swap2\n      swap1\n      tag_11\n      jump\t// in\n    tag_10:\n      tag_12\n      jump\t// in\n    tag_9:\n      mload(0x40)\n      tag_13\n      swap2\n      swap1\n      tag_14\n      jump\t// in\n    tag_13:\n      mload(0x40)\n      dup1\n      swap2\n      sub\n      swap1\n      return\n        /* \"contracts/Score.sol\":291:546  function addScore(uint256 _studentNum,uint8 _score) external onlyTeacher{\r... */\n    tag_4:\n      tag_15\n      0x04\n      dup1\n      calldatasize\n      sub\n      dup2\n      add\n      swap1\n      tag_16\n      swap2\n      swap1\n      tag_17\n      jump\t// in\n    tag_16:\n      tag_18\n      jump\t// in\n    tag_15:\n      stop\n        /* \"contracts/Score.sol\":131:176  mapping(uint256 => uint8) public studentScore */\n    tag_5:\n      tag_19\n      0x04\n      dup1\n      calldatasize\n      sub\n      dup2\n      add\n      swap1\n      tag_20\n      swap2\n      swap1\n      tag_11\n      jump\t// in\n    tag_20:\n      tag_21\n      jump\t// in\n    tag_19:\n      mload(0x40)\n      tag_22\n      swap2\n      swap1\n      tag_14\n      jump\t// in\n    tag_22:\n      mload(0x40)\n      dup1\n      swap2\n      sub\n      swap1\n      return\n        /* \"contracts/Score.sol\":770:872  function removeScore(uint256 _studentNum) external {\r... */\n    tag_6:\n      tag_23\n      0x04\n      dup1\n      calldatasize\n      sub\n      dup2\n      add\n      swap1\n      tag_24\n      swap2\n      swap1\n      tag_11\n      jump\t// in\n    tag_24:\n      tag_25\n      jump\t// in\n    tag_23:\n      stop\n        /* \"contracts/Score.sol\":86:108  uint8 public isTeacher */\n    tag_7:\n      tag_26\n      tag_27\n      jump\t// in\n    tag_26:\n      mload(0x40)\n      tag_28\n      swap2\n      swap1\n      tag_14\n      jump\t// in\n    tag_28:\n      mload(0x40)\n      dup1\n      swap2\n      sub\n      swap1\n      return\n        /* \"contracts/Score.sol\":568:748  function updateScore(uint256 _studentNum,uint8 _score) external onlyTeacher{\r... */\n    tag_8:\n      tag_29\n      0x04\n      dup1\n      calldatasize\n      sub\n      dup2\n      add\n      swap1\n      tag_30\n      swap2\n      swap1\n      tag_17\n      jump\t// in\n    tag_30:\n      tag_31\n      jump\t// in\n    tag_29:\n      stop\n        /* \"contracts/Score.sol\":894:1014  function queryScore(uint256 _studentNum) external view returns(uint8){\r... */\n    tag_12:\n        /* \"contracts/Score.sol\":957:962  uint8 */\n      0x00\n        /* \"contracts/Score.sol\":981:993  studentScore */\n      0x01\n        /* \"contracts/Score.sol\":981:1006  studentScore[_studentNum] */\n      0x00\n        /* \"contracts/Score.sol\":994:1005  _studentNum */\n      dup4\n        /* \"contracts/Score.sol\":981:1006  studentScore[_studentNum] */\n      dup2\n      mstore\n      0x20\n      add\n      swap1\n      dup2\n      mstore\n      0x20\n      add\n      0x00\n      keccak256\n      0x00\n      swap1\n      sload\n      swap1\n      0x0100\n      exp\n      swap1\n      div\n      0xff\n      and\n        /* \"contracts/Score.sol\":974:1006  return studentScore[_studentNum] */\n      swap1\n      pop\n        /* \"contracts/Score.sol\":894:1014  function queryScore(uint256 _studentNum) external view returns(uint8){\r... */\n      swap2\n      swap1\n      pop\n      jump\t// out\n        /* \"contracts/Score.sol\":291:546  function addScore(uint256 _studentNum,uint8 _score) external onlyTeacher{\r... */\n    tag_18:\n        /* \"contracts/Score.sol\":239:240  0 */\n      0x00\n        /* \"contracts/Score.sol\":226:235  isTeacher */\n      dup1\n      0x00\n      swap1\n      sload\n      swap1\n      0x0100\n      exp\n      swap1\n      div\n      0xff\n      and\n        /* \"contracts/Score.sol\":226:240  isTeacher == 0 */\n      0xff\n      and\n      eq\n        /* \"contracts/Score.sol\":218:263  require(isTeacher == 0,\"you are not teacher\") */\n      tag_34\n      jumpi\n      mload(0x40)\n      0x08c379a000000000000000000000000000000000000000000000000000000000\n      dup2\n      mstore\n      0x04\n      add\n      tag_35\n      swap1\n      tag_36\n      jump\t// in\n    tag_35:\n      mload(0x40)\n      dup1\n      swap2\n      sub\n      swap1\n      revert\n    tag_34:\n        /* \"contracts/Score.sol\":374:390  uint8 addedScore */\n      0x00\n        /* \"contracts/Score.sol\":422:428  _score */\n      dup2\n        /* \"contracts/Score.sol\":393:405  studentScore */\n      0x01\n        /* \"contracts/Score.sol\":393:418  studentScore[_studentNum] */\n      0x00\n        /* \"contracts/Score.sol\":406:417  _studentNum */\n      dup6\n        /* \"contracts/Score.sol\":393:418  studentScore[_studentNum] */\n      dup2\n      mstore\n      0x20\n      add\n      swap1\n      dup2\n      mstore\n      0x20\n      add\n      0x00\n      keccak256\n      0x00\n        /* \"contracts/Score.sol\":393:428  studentScore[_studentNum] += _score */\n      dup3\n      dup3\n      dup3\n      swap1\n      sload\n      swap1\n      0x0100\n      exp\n      swap1\n      div\n      0xff\n      and\n      tag_38\n      swap2\n      swap1\n      tag_39\n      jump\t// in\n    tag_38:\n      swap3\n      pop\n      0x0100\n      exp\n      dup2\n      sload\n      dup2\n      0xff\n      mul\n      not\n      and\n      swap1\n      dup4\n      0xff\n      and\n      mul\n      or\n      swap1\n      sstore\n        /* \"contracts/Score.sol\":374:428  uint8 addedScore = studentScore[_studentNum] += _score */\n      swap1\n      pop\n        /* \"contracts/Score.sol\":461:464  100 */\n      0x64\n        /* \"contracts/Score.sol\":447:457  addedScore */\n      dup2\n        /* \"contracts/Score.sol\":447:464  addedScore <= 100 */\n      0xff\n      and\n      gt\n      iszero\n        /* \"contracts/Score.sol\":439:492  require(addedScore <= 100, \"Score cannot exceed 100\") */\n      tag_40\n      jumpi\n      mload(0x40)\n      0x08c379a000000000000000000000000000000000000000000000000000000000\n      dup2\n      mstore\n      0x04\n      add\n      tag_41\n      swap1\n      tag_42\n      jump\t// in\n    tag_41:\n      mload(0x40)\n      dup1\n      swap2\n      sub\n      swap1\n      revert\n    tag_40:\n        /* \"contracts/Score.sol\":532:538  _score */\n      dup2\n        /* \"contracts/Score.sol\":503:515  studentScore */\n      0x01\n        /* \"contracts/Score.sol\":503:528  studentScore[_studentNum] */\n      0x00\n        /* \"contracts/Score.sol\":516:527  _studentNum */\n      dup6\n        /* \"contracts/Score.sol\":503:528  studentScore[_studentNum] */\n      dup2\n      mstore\n      0x20\n      add\n      swap1\n      dup2\n      mstore\n      0x20\n      add\n      0x00\n      keccak256\n      0x00\n        /* \"contracts/Score.sol\":503:538  studentScore[_studentNum] += _score */\n      dup3\n      dup3\n      dup3\n      swap1\n      sload\n      swap1\n      0x0100\n      exp\n      swap1\n      div\n      0xff\n      and\n      tag_43\n      swap2\n      swap1\n      tag_39\n      jump\t// in\n    tag_43:\n      swap3\n      pop\n      0x0100\n      exp\n      dup2\n      sload\n      dup2\n      0xff\n      mul\n      not\n      and\n      swap1\n      dup4\n      0xff\n      and\n      mul\n      or\n      swap1\n      sstore\n      pop\n        /* \"contracts/Score.sol\":363:546  {\r... */\n      pop\n        /* \"contracts/Score.sol\":291:546  function addScore(uint256 _studentNum,uint8 _score) external onlyTeacher{\r... */\n      pop\n      pop\n      jump\t// out\n        /* \"contracts/Score.sol\":131:176  mapping(uint256 => uint8) public studentScore */\n    tag_21:\n      mstore(0x20, 0x01)\n      dup1\n      0x00\n      mstore\n      keccak256(0x00, 0x40)\n      0x00\n      swap2\n      pop\n      sload\n      swap1\n      0x0100\n      exp\n      swap1\n      div\n      0xff\n      and\n      dup2\n      jump\t// out\n        /* \"contracts/Score.sol\":770:872  function removeScore(uint256 _studentNum) external {\r... */\n    tag_25:\n        /* \"contracts/Score.sol\":839:851  studentScore */\n      0x01\n        /* \"contracts/Score.sol\":839:864  studentScore[_studentNum] */\n      0x00\n        /* \"contracts/Score.sol\":852:863  _studentNum */\n      dup3\n        /* \"contracts/Score.sol\":839:864  studentScore[_studentNum] */\n      dup2\n      mstore\n      0x20\n      add\n      swap1\n      dup2\n      mstore\n      0x20\n      add\n      0x00\n      keccak256\n      0x00\n        /* \"contracts/Score.sol\":832:864  delete studentScore[_studentNum] */\n      0x0100\n      exp\n      dup2\n      sload\n      swap1\n      0xff\n      mul\n      not\n      and\n      swap1\n      sstore\n        /* \"contracts/Score.sol\":770:872  function removeScore(uint256 _studentNum) external {\r... */\n      pop\n      jump\t// out\n        /* \"contracts/Score.sol\":86:108  uint8 public isTeacher */\n    tag_27:\n      0x00\n      dup1\n      sload\n      swap1\n      0x0100\n      exp\n      swap1\n      div\n      0xff\n      and\n      dup2\n      jump\t// out\n        /* \"contracts/Score.sol\":568:748  function updateScore(uint256 _studentNum,uint8 _score) external onlyTeacher{\r... */\n    tag_31:\n        /* \"contracts/Score.sol\":239:240  0 */\n      0x00\n        /* \"contracts/Score.sol\":226:235  isTeacher */\n      dup1\n      0x00\n      swap1\n      sload\n      swap1\n      0x0100\n      exp\n      swap1\n      div\n      0xff\n      and\n        /* \"contracts/Score.sol\":226:240  isTeacher == 0 */\n      0xff\n      and\n      eq\n        /* \"contracts/Score.sol\":218:263  require(isTeacher == 0,\"you are not teacher\") */\n      tag_46\n      jumpi\n      mload(0x40)\n      0x08c379a000000000000000000000000000000000000000000000000000000000\n      dup2\n      mstore\n      0x04\n      add\n      tag_47\n      swap1\n      tag_36\n      jump\t// in\n    tag_47:\n      mload(0x40)\n      dup1\n      swap2\n      sub\n      swap1\n      revert\n    tag_46:\n        /* \"contracts/Score.sol\":672:675  100 */\n      0x64\n        /* \"contracts/Score.sol\":662:668  _score */\n      dup2\n        /* \"contracts/Score.sol\":662:675  _score <= 100 */\n      0xff\n      and\n      gt\n      iszero\n        /* \"contracts/Score.sol\":654:695  require(_score <= 100,\"max score is 100\") */\n      tag_49\n      jumpi\n      mload(0x40)\n      0x08c379a000000000000000000000000000000000000000000000000000000000\n      dup2\n      mstore\n      0x04\n      add\n      tag_50\n      swap1\n      tag_51\n      jump\t// in\n    tag_50:\n      mload(0x40)\n      dup1\n      swap2\n      sub\n      swap1\n      revert\n    tag_49:\n        /* \"contracts/Score.sol\":734:740  _score */\n      dup1\n        /* \"contracts/Score.sol\":706:718  studentScore */\n      0x01\n        /* \"contracts/Score.sol\":706:731  studentScore[_studentNum] */\n      0x00\n        /* \"contracts/Score.sol\":719:730  _studentNum */\n      dup5\n        /* \"contracts/Score.sol\":706:731  studentScore[_studentNum] */\n      dup2\n      mstore\n      0x20\n      add\n      swap1\n      dup2\n      mstore\n      0x20\n      add\n      0x00\n      keccak256\n      0x00\n        /* \"contracts/Score.sol\":706:740  studentScore[_studentNum] = _score */\n      0x0100\n      exp\n      dup2\n      sload\n      dup2\n      0xff\n      mul\n      not\n      and\n      swap1\n      dup4\n      0xff\n      and\n      mul\n      or\n      swap1\n      sstore\n      pop\n        /* \"contracts/Score.sol\":568:748  function updateScore(uint256 _studentNum,uint8 _score) external onlyTeacher{\r... */\n      pop\n      pop\n      jump\t// out\n        /* \"#utility.yul\":7:146   */\n    tag_53:\n        /* \"#utility.yul\":53:58   */\n      0x00\n        /* \"#utility.yul\":91:97   */\n      dup2\n        /* \"#utility.yul\":78:98   */\n      calldataload\n        /* \"#utility.yul\":69:98   */\n      swap1\n      pop\n        /* \"#utility.yul\":107:140   */\n      tag_55\n        /* \"#utility.yul\":134:139   */\n      dup2\n        /* \"#utility.yul\":107:140   */\n      tag_56\n      jump\t// in\n    tag_55:\n        /* \"#utility.yul\":7:146   */\n      swap3\n      swap2\n      pop\n      pop\n      jump\t// out\n        /* \"#utility.yul\":152:287   */\n    tag_57:\n        /* \"#utility.yul\":196:201   */\n      0x00\n        /* \"#utility.yul\":234:240   */\n      dup2\n        /* \"#utility.yul\":221:241   */\n      calldataload\n        /* \"#utility.yul\":212:241   */\n      swap1\n      pop\n        /* \"#utility.yul\":250:281   */\n      tag_59\n        /* \"#utility.yul\":275:280   */\n      dup2\n        /* \"#utility.yul\":250:281   */\n      tag_60\n      jump\t// in\n    tag_59:\n        /* \"#utility.yul\":152:287   */\n      swap3\n      swap2\n      pop\n      pop\n      jump\t// out\n        /* \"#utility.yul\":293:622   */\n    tag_11:\n        /* \"#utility.yul\":352:358   */\n      0x00\n        /* \"#utility.yul\":401:403   */\n      0x20\n        /* \"#utility.yul\":389:398   */\n      dup3\n        /* \"#utility.yul\":380:387   */\n      dup5\n        /* \"#utility.yul\":376:399   */\n      sub\n        /* \"#utility.yul\":372:404   */\n      slt\n        /* \"#utility.yul\":369:488   */\n      iszero\n      tag_62\n      jumpi\n        /* \"#utility.yul\":407:486   */\n      tag_63\n      tag_64\n      jump\t// in\n    tag_63:\n        /* \"#utility.yul\":369:488   */\n    tag_62:\n        /* \"#utility.yul\":527:528   */\n      0x00\n        /* \"#utility.yul\":552:605   */\n      tag_65\n        /* \"#utility.yul\":597:604   */\n      dup5\n        /* \"#utility.yul\":588:594   */\n      dup3\n        /* \"#utility.yul\":577:586   */\n      dup6\n        /* \"#utility.yul\":573:595   */\n      add\n        /* \"#utility.yul\":552:605   */\n      tag_53\n      jump\t// in\n    tag_65:\n        /* \"#utility.yul\":542:605   */\n      swap2\n      pop\n        /* \"#utility.yul\":498:615   */\n      pop\n        /* \"#utility.yul\":293:622   */\n      swap3\n      swap2\n      pop\n      pop\n      jump\t// out\n        /* \"#utility.yul\":628:1098   */\n    tag_17:\n        /* \"#utility.yul\":694:700   */\n      0x00\n        /* \"#utility.yul\":702:708   */\n      dup1\n        /* \"#utility.yul\":751:753   */\n      0x40\n        /* \"#utility.yul\":739:748   */\n      dup4\n        /* \"#utility.yul\":730:737   */\n      dup6\n        /* \"#utility.yul\":726:749   */\n      sub\n        /* \"#utility.yul\":722:754   */\n      slt\n        /* \"#utility.yul\":719:838   */\n      iszero\n      tag_67\n      jumpi\n        /* \"#utility.yul\":757:836   */\n      tag_68\n      tag_64\n      jump\t// in\n    tag_68:\n        /* \"#utility.yul\":719:838   */\n    tag_67:\n        /* \"#utility.yul\":877:878   */\n      0x00\n        /* \"#utility.yul\":902:955   */\n      tag_69\n        /* \"#utility.yul\":947:954   */\n      dup6\n        /* \"#utility.yul\":938:944   */\n      dup3\n        /* \"#utility.yul\":927:936   */\n      dup7\n        /* \"#utility.yul\":923:945   */\n      add\n        /* \"#utility.yul\":902:955   */\n      tag_53\n      jump\t// in\n    tag_69:\n        /* \"#utility.yul\":892:955   */\n      swap3\n      pop\n        /* \"#utility.yul\":848:965   */\n      pop\n        /* \"#utility.yul\":1004:1006   */\n      0x20\n        /* \"#utility.yul\":1030:1081   */\n      tag_70\n        /* \"#utility.yul\":1073:1080   */\n      dup6\n        /* \"#utility.yul\":1064:1070   */\n      dup3\n        /* \"#utility.yul\":1053:1062   */\n      dup7\n        /* \"#utility.yul\":1049:1071   */\n      add\n        /* \"#utility.yul\":1030:1081   */\n      tag_57\n      jump\t// in\n    tag_70:\n        /* \"#utility.yul\":1020:1081   */\n      swap2\n      pop\n        /* \"#utility.yul\":975:1091   */\n      pop\n        /* \"#utility.yul\":628:1098   */\n      swap3\n      pop\n      swap3\n      swap1\n      pop\n      jump\t// out\n        /* \"#utility.yul\":1104:1470   */\n    tag_71:\n        /* \"#utility.yul\":1246:1249   */\n      0x00\n        /* \"#utility.yul\":1267:1334   */\n      tag_73\n        /* \"#utility.yul\":1331:1333   */\n      0x17\n        /* \"#utility.yul\":1326:1329   */\n      dup4\n        /* \"#utility.yul\":1267:1334   */\n      tag_74\n      jump\t// in\n    tag_73:\n        /* \"#utility.yul\":1260:1334   */\n      swap2\n      pop\n        /* \"#utility.yul\":1343:1436   */\n      tag_75\n        /* \"#utility.yul\":1432:1435   */\n      dup3\n        /* \"#utility.yul\":1343:1436   */\n      tag_76\n      jump\t// in\n    tag_75:\n        /* \"#utility.yul\":1461:1463   */\n      0x20\n        /* \"#utility.yul\":1456:1459   */\n      dup3\n        /* \"#utility.yul\":1452:1464   */\n      add\n        /* \"#utility.yul\":1445:1464   */\n      swap1\n      pop\n        /* \"#utility.yul\":1104:1470   */\n      swap2\n      swap1\n      pop\n      jump\t// out\n        /* \"#utility.yul\":1476:1842   */\n    tag_77:\n        /* \"#utility.yul\":1618:1621   */\n      0x00\n        /* \"#utility.yul\":1639:1706   */\n      tag_79\n        /* \"#utility.yul\":1703:1705   */\n      0x13\n        /* \"#utility.yul\":1698:1701   */\n      dup4\n        /* \"#utility.yul\":1639:1706   */\n      tag_74\n      jump\t// in\n    tag_79:\n        /* \"#utility.yul\":1632:1706   */\n      swap2\n      pop\n        /* \"#utility.yul\":1715:1808   */\n      tag_80\n        /* \"#utility.yul\":1804:1807   */\n      dup3\n        /* \"#utility.yul\":1715:1808   */\n      tag_81\n      jump\t// in\n    tag_80:\n        /* \"#utility.yul\":1833:1835   */\n      0x20\n        /* \"#utility.yul\":1828:1831   */\n      dup3\n        /* \"#utility.yul\":1824:1836   */\n      add\n        /* \"#utility.yul\":1817:1836   */\n      swap1\n      pop\n        /* \"#utility.yul\":1476:1842   */\n      swap2\n      swap1\n      pop\n      jump\t// out\n        /* \"#utility.yul\":1848:2214   */\n    tag_82:\n        /* \"#utility.yul\":1990:1993   */\n      0x00\n        /* \"#utility.yul\":2011:2078   */\n      tag_84\n        /* \"#utility.yul\":2075:2077   */\n      0x10\n        /* \"#utility.yul\":2070:2073   */\n      dup4\n        /* \"#utility.yul\":2011:2078   */\n      tag_74\n      jump\t// in\n    tag_84:\n        /* \"#utility.yul\":2004:2078   */\n      swap2\n      pop\n        /* \"#utility.yul\":2087:2180   */\n      tag_85\n        /* \"#utility.yul\":2176:2179   */\n      dup3\n        /* \"#utility.yul\":2087:2180   */\n      tag_86\n      jump\t// in\n    tag_85:\n        /* \"#utility.yul\":2205:2207   */\n      0x20\n        /* \"#utility.yul\":2200:2203   */\n      dup3\n        /* \"#utility.yul\":2196:2208   */\n      add\n        /* \"#utility.yul\":2189:2208   */\n      swap1\n      pop\n        /* \"#utility.yul\":1848:2214   */\n      swap2\n      swap1\n      pop\n      jump\t// out\n        /* \"#utility.yul\":2220:2332   */\n    tag_87:\n        /* \"#utility.yul\":2303:2325   */\n      tag_89\n        /* \"#utility.yul\":2319:2324   */\n      dup2\n        /* \"#utility.yul\":2303:2325   */\n      tag_90\n      jump\t// in\n    tag_89:\n        /* \"#utility.yul\":2298:2301   */\n      dup3\n        /* \"#utility.yul\":2291:2326   */\n      mstore\n        /* \"#utility.yul\":2220:2332   */\n      pop\n      pop\n      jump\t// out\n        /* \"#utility.yul\":2338:2757   */\n    tag_42:\n        /* \"#utility.yul\":2504:2508   */\n      0x00\n        /* \"#utility.yul\":2542:2544   */\n      0x20\n        /* \"#utility.yul\":2531:2540   */\n      dup3\n        /* \"#utility.yul\":2527:2545   */\n      add\n        /* \"#utility.yul\":2519:2545   */\n      swap1\n      pop\n        /* \"#utility.yul\":2591:2600   */\n      dup2\n        /* \"#utility.yul\":2585:2589   */\n      dup2\n        /* \"#utility.yul\":2581:2601   */\n      sub\n        /* \"#utility.yul\":2577:2578   */\n      0x00\n        /* \"#utility.yul\":2566:2575   */\n      dup4\n        /* \"#utility.yul\":2562:2579   */\n      add\n        /* \"#utility.yul\":2555:2602   */\n      mstore\n        /* \"#utility.yul\":2619:2750   */\n      tag_92\n        /* \"#utility.yul\":2745:2749   */\n      dup2\n        /* \"#utility.yul\":2619:2750   */\n      tag_71\n      jump\t// in\n    tag_92:\n        /* \"#utility.yul\":2611:2750   */\n      swap1\n      pop\n        /* \"#utility.yul\":2338:2757   */\n      swap2\n      swap1\n      pop\n      jump\t// out\n        /* \"#utility.yul\":2763:3182   */\n    tag_36:\n        /* \"#utility.yul\":2929:2933   */\n      0x00\n        /* \"#utility.yul\":2967:2969   */\n      0x20\n        /* \"#utility.yul\":2956:2965   */\n      dup3\n        /* \"#utility.yul\":2952:2970   */\n      add\n        /* \"#utility.yul\":2944:2970   */\n      swap1\n      pop\n        /* \"#utility.yul\":3016:3025   */\n      dup2\n        /* \"#utility.yul\":3010:3014   */\n      dup2\n        /* \"#utility.yul\":3006:3026   */\n      sub\n        /* \"#utility.yul\":3002:3003   */\n      0x00\n        /* \"#utility.yul\":2991:3000   */\n      dup4\n        /* \"#utility.yul\":2987:3004   */\n      add\n        /* \"#utility.yul\":2980:3027   */\n      mstore\n        /* \"#utility.yul\":3044:3175   */\n      tag_94\n        /* \"#utility.yul\":3170:3174   */\n      dup2\n        /* \"#utility.yul\":3044:3175   */\n      tag_77\n      jump\t// in\n    tag_94:\n        /* \"#utility.yul\":3036:3175   */\n      swap1\n      pop\n        /* \"#utility.yul\":2763:3182   */\n      swap2\n      swap1\n      pop\n      jump\t// out\n        /* \"#utility.yul\":3188:3607   */\n    tag_51:\n        /* \"#utility.yul\":3354:3358   */\n      0x00\n        /* \"#utility.yul\":3392:3394   */\n      0x20\n        /* \"#utility.yul\":3381:3390   */\n      dup3\n        /* \"#utility.yul\":3377:3395   */\n      add\n        /* \"#utility.yul\":3369:3395   */\n      swap1\n      pop\n        /* \"#utility.yul\":3441:3450   */\n      dup2\n        /* \"#utility.yul\":3435:3439   */\n      dup2\n        /* \"#utility.yul\":3431:3451   */\n      sub\n        /* \"#utility.yul\":3427:3428   */\n      0x00\n        /* \"#utility.yul\":3416:3425   */\n      dup4\n        /* \"#utility.yul\":3412:3429   */\n      add\n        /* \"#utility.yul\":3405:3452   */\n      mstore\n        /* \"#utility.yul\":3469:3600   */\n      tag_96\n        /* \"#utility.yul\":3595:3599   */\n      dup2\n        /* \"#utility.yul\":3469:3600   */\n      tag_82\n      jump\t// in\n    tag_96:\n        /* \"#utility.yul\":3461:3600   */\n      swap1\n      pop\n        /* \"#utility.yul\":3188:3607   */\n      swap2\n      swap1\n      pop\n      jump\t// out\n        /* \"#utility.yul\":3613:3827   */\n    tag_14:\n        /* \"#utility.yul\":3702:3706   */\n      0x00\n        /* \"#utility.yul\":3740:3742   */\n      0x20\n        /* \"#utility.yul\":3729:3738   */\n      dup3\n        /* \"#utility.yul\":3725:3743   */\n      add\n        /* \"#utility.yul\":3717:3743   */\n      swap1\n      pop\n        /* \"#utility.yul\":3753:3820   */\n      tag_98\n        /* \"#utility.yul\":3817:3818   */\n      0x00\n        /* \"#utility.yul\":3806:3815   */\n      dup4\n        /* \"#utility.yul\":3802:3819   */\n      add\n        /* \"#utility.yul\":3793:3799   */\n      dup5\n        /* \"#utility.yul\":3753:3820   */\n      tag_87\n      jump\t// in\n    tag_98:\n        /* \"#utility.yul\":3613:3827   */\n      swap3\n      swap2\n      pop\n      pop\n      jump\t// out\n        /* \"#utility.yul\":3914:4083   */\n    tag_74:\n        /* \"#utility.yul\":3998:4009   */\n      0x00\n        /* \"#utility.yul\":4032:4038   */\n      dup3\n        /* \"#utility.yul\":4027:4030   */\n      dup3\n        /* \"#utility.yul\":4020:4039   */\n      mstore\n        /* \"#utility.yul\":4072:4076   */\n      0x20\n        /* \"#utility.yul\":4067:4070   */\n      dup3\n        /* \"#utility.yul\":4063:4077   */\n      add\n        /* \"#utility.yul\":4048:4077   */\n      swap1\n      pop\n        /* \"#utility.yul\":3914:4083   */\n      swap3\n      swap2\n      pop\n      pop\n      jump\t// out\n        /* \"#utility.yul\":4089:4326   */\n    tag_39:\n        /* \"#utility.yul\":4127:4130   */\n      0x00\n        /* \"#utility.yul\":4146:4164   */\n      tag_103\n        /* \"#utility.yul\":4162:4163   */\n      dup3\n        /* \"#utility.yul\":4146:4164   */\n      tag_90\n      jump\t// in\n    tag_103:\n        /* \"#utility.yul\":4141:4164   */\n      swap2\n      pop\n        /* \"#utility.yul\":4178:4196   */\n      tag_104\n        /* \"#utility.yul\":4194:4195   */\n      dup4\n        /* \"#utility.yul\":4178:4196   */\n      tag_90\n      jump\t// in\n    tag_104:\n        /* \"#utility.yul\":4173:4196   */\n      swap3\n      pop\n        /* \"#utility.yul\":4268:4269   */\n      dup3\n        /* \"#utility.yul\":4262:4266   */\n      0xff\n        /* \"#utility.yul\":4258:4270   */\n      sub\n        /* \"#utility.yul\":4255:4256   */\n      dup3\n        /* \"#utility.yul\":4252:4271   */\n      gt\n        /* \"#utility.yul\":4249:4294   */\n      iszero\n      tag_105\n      jumpi\n        /* \"#utility.yul\":4274:4292   */\n      tag_106\n      tag_107\n      jump\t// in\n    tag_106:\n        /* \"#utility.yul\":4249:4294   */\n    tag_105:\n        /* \"#utility.yul\":4318:4319   */\n      dup3\n        /* \"#utility.yul\":4315:4316   */\n      dup3\n        /* \"#utility.yul\":4311:4320   */\n      add\n        /* \"#utility.yul\":4304:4320   */\n      swap1\n      pop\n        /* \"#utility.yul\":4089:4326   */\n      swap3\n      swap2\n      pop\n      pop\n      jump\t// out\n        /* \"#utility.yul\":4332:4409   */\n    tag_108:\n        /* \"#utility.yul\":4369:4376   */\n      0x00\n        /* \"#utility.yul\":4398:4403   */\n      dup2\n        /* \"#utility.yul\":4387:4403   */\n      swap1\n      pop\n        /* \"#utility.yul\":4332:4409   */\n      swap2\n      swap1\n      pop\n      jump\t// out\n        /* \"#utility.yul\":4415:4501   */\n    tag_90:\n        /* \"#utility.yul\":4450:4457   */\n      0x00\n        /* \"#utility.yul\":4490:4494   */\n      0xff\n        /* \"#utility.yul\":4483:4488   */\n      dup3\n        /* \"#utility.yul\":4479:4495   */\n      and\n        /* \"#utility.yul\":4468:4495   */\n      swap1\n      pop\n        /* \"#utility.yul\":4415:4501   */\n      swap2\n      swap1\n      pop\n      jump\t// out\n        /* \"#utility.yul\":4507:4687   */\n    tag_107:\n        /* \"#utility.yul\":4555:4632   */\n      0x4e487b7100000000000000000000000000000000000000000000000000000000\n        /* \"#utility.yul\":4552:4553   */\n      0x00\n        /* \"#utility.yul\":4545:4633   */\n      mstore\n        /* \"#utility.yul\":4652:4656   */\n      0x11\n        /* \"#utility.yul\":4649:4650   */\n      0x04\n        /* \"#utility.yul\":4642:4657   */\n      mstore\n        /* \"#utility.yul\":4676:4680   */\n      0x24\n        /* \"#utility.yul\":4673:4674   */\n      0x00\n        /* \"#utility.yul\":4666:4681   */\n      revert\n        /* \"#utility.yul\":4816:4933   */\n    tag_64:\n        /* \"#utility.yul\":4925:4926   */\n      0x00\n        /* \"#utility.yul\":4922:4923   */\n      dup1\n        /* \"#utility.yul\":4915:4927   */\n      revert\n        /* \"#utility.yul\":4939:5112   */\n    tag_76:\n        /* \"#utility.yul\":5079:5104   */\n      0x53636f72652063616e6e6f742065786365656420313030000000000000000000\n        /* \"#utility.yul\":5075:5076   */\n      0x00\n        /* \"#utility.yul\":5067:5073   */\n      dup3\n        /* \"#utility.yul\":5063:5077   */\n      add\n        /* \"#utility.yul\":5056:5105   */\n      mstore\n        /* \"#utility.yul\":4939:5112   */\n      pop\n      jump\t// out\n        /* \"#utility.yul\":5118:5287   */\n    tag_81:\n        /* \"#utility.yul\":5258:5279   */\n      0x796f7520617265206e6f74207465616368657200000000000000000000000000\n        /* \"#utility.yul\":5254:5255   */\n      0x00\n        /* \"#utility.yul\":5246:5252   */\n      dup3\n        /* \"#utility.yul\":5242:5256   */\n      add\n        /* \"#utility.yul\":5235:5280   */\n      mstore\n        /* \"#utility.yul\":5118:5287   */\n      pop\n      jump\t// out\n        /* \"#utility.yul\":5293:5459   */\n    tag_86:\n        /* \"#utility.yul\":5433:5451   */\n      0x6d61782073636f72652069732031303000000000000000000000000000000000\n        /* \"#utility.yul\":5429:5430   */\n      0x00\n        /* \"#utility.yul\":5421:5427   */\n      dup3\n        /* \"#utility.yul\":5417:5431   */\n      add\n        /* \"#utility.yul\":5410:5452   */\n      mstore\n        /* \"#utility.yul\":5293:5459   */\n      pop\n      jump\t// out\n        /* \"#utility.yul\":5465:5587   */\n    tag_56:\n        /* \"#utility.yul\":5538:5562   */\n      tag_119\n        /* \"#utility.yul\":5556:5561   */\n      dup2\n        /* \"#utility.yul\":5538:5562   */\n      tag_108\n      jump\t// in\n    tag_119:\n        /* \"#utility.yul\":5531:5536   */\n      dup2\n        /* \"#utility.yul\":5528:5563   */\n      eq\n        /* \"#utility.yul\":5518:5581   */\n      tag_120\n      jumpi\n        /* \"#utility.yul\":5577:5578   */\n      0x00\n        /* \"#utility.yul\":5574:5575   */\n      dup1\n        /* \"#utility.yul\":5567:5579   */\n      revert\n        /* \"#utility.yul\":5518:5581   */\n    tag_120:\n        /* \"#utility.yul\":5465:5587   */\n      pop\n      jump\t// out\n        /* \"#utility.yul\":5593:5711   */\n    tag_60:\n        /* \"#utility.yul\":5664:5686   */\n      tag_122\n        /* \"#utility.yul\":5680:5685   */\n      dup2\n        /* \"#utility.yul\":5664:5686   */\n      tag_90\n      jump\t// in\n    tag_122:\n        /* \"#utility.yul\":5657:5662   */\n      dup2\n        /* \"#utility.yul\":5654:5687   */\n      eq\n        /* \"#utility.yul\":5644:5705   */\n      tag_123\n      jumpi\n        /* \"#utility.yul\":5701:5702   */\n      0x00\n        /* \"#utility.yul\":5698:5699   */\n      dup1\n        /* \"#utility.yul\":5691:5703   */\n      revert\n        /* \"#utility.yul\":5644:5705   */\n    tag_123:\n        /* \"#utility.yul\":5593:5711   */\n      pop\n      jump\t// out\n\n    auxdata: 0xa2646970667358221220479124412e960b9af39db4ef65f62184cf78b9d6a9083a5245e94a485410ecfb64736f6c63430008070033\n}\n",
				"bytecode": {
					"linkReferences": {},
					"object": "608060405234801561001057600080fd5b506106b2806100206000396000f3fe608060405234801561001057600080fd5b50600436106100625760003560e01c8063063b3810146100675780630efed18b1461009757806317d9500e146100b35780632d96fd46146100e3578063c64a4bad146100ff578063d43b8e051461011d575b600080fd5b610081600480360381019061007c91906103e0565b610139565b60405161008e9190610525565b60405180910390f35b6100b160048036038101906100ac919061040d565b610163565b005b6100cd60048036038101906100c891906103e0565b610294565b6040516100da9190610525565b60405180910390f35b6100fd60048036038101906100f891906103e0565b6102b4565b005b6101076102da565b6040516101149190610525565b60405180910390f35b6101376004803603810190610132919061040d565b6102eb565b005b60006001600083815260200190815260200160002060009054906101000a900460ff169050919050565b60008060009054906101000a900460ff1660ff16146101b7576040517f08c379a00000000000000000000000000000000000000000000000000000000081526004016101ae906104e5565b60405180910390fd5b6000816001600085815260200190815260200160002060008282829054906101000a900460ff166101e89190610551565b92506101000a81548160ff021916908360ff1602179055905060648160ff161115610248576040517f08c379a000000000000000000000000000000000000000000000000000000000815260040161023f906104c5565b60405180910390fd5b816001600085815260200190815260200160002060008282829054906101000a900460ff166102779190610551565b92506101000a81548160ff021916908360ff160217905550505050565b60016020528060005260406000206000915054906101000a900460ff1681565b6001600082815260200190815260200160002060006101000a81549060ff021916905550565b60008054906101000a900460ff1681565b60008060009054906101000a900460ff1660ff161461033f576040517f08c379a0000000000000000000000000000000000000000000000000000000008152600401610336906104e5565b60405180910390fd5b60648160ff161115610386576040517f08c379a000000000000000000000000000000000000000000000000000000000815260040161037d90610505565b60405180910390fd5b806001600084815260200190815260200160002060006101000a81548160ff021916908360ff1602179055505050565b6000813590506103c58161064e565b92915050565b6000813590506103da81610665565b92915050565b6000602082840312156103f6576103f56105ce565b5b6000610404848285016103b6565b91505092915050565b60008060408385031215610424576104236105ce565b5b6000610432858286016103b6565b9250506020610443858286016103cb565b9150509250929050565b600061045a601783610540565b9150610465826105d3565b602082019050919050565b600061047d601383610540565b9150610488826105fc565b602082019050919050565b60006104a0601083610540565b91506104ab82610625565b602082019050919050565b6104bf81610592565b82525050565b600060208201905081810360008301526104de8161044d565b9050919050565b600060208201905081810360008301526104fe81610470565b9050919050565b6000602082019050818103600083015261051e81610493565b9050919050565b600060208201905061053a60008301846104b6565b92915050565b600082825260208201905092915050565b600061055c82610592565b915061056783610592565b92508260ff0382111561057d5761057c61059f565b5b828201905092915050565b6000819050919050565b600060ff82169050919050565b7f4e487b7100000000000000000000000000000000000000000000000000000000600052601160045260246000fd5b600080fd5b7f53636f72652063616e6e6f742065786365656420313030000000000000000000600082015250565b7f796f7520617265206e6f74207465616368657200000000000000000000000000600082015250565b7f6d61782073636f72652069732031303000000000000000000000000000000000600082015250565b61065781610588565b811461066257600080fd5b50565b61066e81610592565b811461067957600080fd5b5056fea2646970667358221220479124412e960b9af39db4ef65f62184cf78b9d6a9083a5245e94a485410ecfb64736f6c63430008070033",
					"opcodes": "PUSH1 0x80 PUSH1 0x40 MSTORE CALLVALUE DUP1 ISZERO PUSH2 0x10 JUMPI PUSH1 0x0 DUP1 REVERT JUMPDEST POP PUSH2 0x6B2 DUP1 PUSH2 0x20 PUSH1 0x0 CODECOPY PUSH1 0x0 RETURN INVALID PUSH1 0x80 PUSH1 0x40 MSTORE CALLVALUE DUP1 ISZERO PUSH2 0x10 JUMPI PUSH1 0x0 DUP1 REVERT JUMPDEST POP PUSH1 0x4 CALLDATASIZE LT PUSH2 0x62 JUMPI PUSH1 0x0 CALLDATALOAD PUSH1 0xE0 SHR DUP1 PUSH4 0x63B3810 EQ PUSH2 0x67 JUMPI DUP1 PUSH4 0xEFED18B EQ PUSH2 0x97 JUMPI DUP1 PUSH4 0x17D9500E EQ PUSH2 0xB3 JUMPI DUP1 PUSH4 0x2D96FD46 EQ PUSH2 0xE3 JUMPI DUP1 PUSH4 0xC64A4BAD EQ PUSH2 0xFF JUMPI DUP1 PUSH4 0xD43B8E05 EQ PUSH2 0x11D JUMPI JUMPDEST PUSH1 0x0 DUP1 REVERT JUMPDEST PUSH2 0x81 PUSH1 0x4 DUP1 CALLDATASIZE SUB DUP2 ADD SWAP1 PUSH2 0x7C SWAP2 SWAP1 PUSH2 0x3E0 JUMP JUMPDEST PUSH2 0x139 JUMP JUMPDEST PUSH1 0x40 MLOAD PUSH2 0x8E SWAP2 SWAP1 PUSH2 0x525 JUMP JUMPDEST PUSH1 0x40 MLOAD DUP1 SWAP2 SUB SWAP1 RETURN JUMPDEST PUSH2 0xB1 PUSH1 0x4 DUP1 CALLDATASIZE SUB DUP2 ADD SWAP1 PUSH2 0xAC SWAP2 SWAP1 PUSH2 0x40D JUMP JUMPDEST PUSH2 0x163 JUMP JUMPDEST STOP JUMPDEST PUSH2 0xCD PUSH1 0x4 DUP1 CALLDATASIZE SUB DUP2 ADD SWAP1 PUSH2 0xC8 SWAP2 SWAP1 PUSH2 0x3E0 JUMP JUMPDEST PUSH2 0x294 JUMP JUMPDEST PUSH1 0x40 MLOAD PUSH2 0xDA SWAP2 SWAP1 PUSH2 0x525 JUMP JUMPDEST PUSH1 0x40 MLOAD DUP1 SWAP2 SUB SWAP1 RETURN JUMPDEST PUSH2 0xFD PUSH1 0x4 DUP1 CALLDATASIZE SUB DUP2 ADD SWAP1 PUSH2 0xF8 SWAP2 SWAP1 PUSH2 0x3E0 JUMP JUMPDEST PUSH2 0x2B4 JUMP JUMPDEST STOP JUMPDEST PUSH2 0x107 PUSH2 0x2DA JUMP JUMPDEST PUSH1 0x40 MLOAD PUSH2 0x114 SWAP2 SWAP1 PUSH2 0x525 JUMP JUMPDEST PUSH1 0x40 MLOAD DUP1 SWAP2 SUB SWAP1 RETURN JUMPDEST PUSH2 0x137 PUSH1 0x4 DUP1 CALLDATASIZE SUB DUP2 ADD SWAP1 PUSH2 0x132 SWAP2 SWAP1 PUSH2 0x40D JUMP JUMPDEST PUSH2 0x2EB JUMP JUMPDEST STOP JUMPDEST PUSH1 0x0 PUSH1 0x1 PUSH1 0x0 DUP4 DUP2 MSTORE PUSH1 0x20 ADD SWAP1 DUP2 MSTORE PUSH1 0x20 ADD PUSH1 0x0 KECCAK256 PUSH1 0x0 SWAP1 SLOAD SWAP1 PUSH2 0x100 EXP SWAP1 DIV PUSH1 0xFF AND SWAP1 POP SWAP2 SWAP1 POP JUMP JUMPDEST PUSH1 0x0 DUP1 PUSH1 0x0 SWAP1 SLOAD SWAP1 PUSH2 0x100 EXP SWAP1 DIV PUSH1 0xFF AND PUSH1 0xFF AND EQ PUSH2 0x1B7 JUMPI PUSH1 0x40 MLOAD PUSH32 0x8C379A000000000000000000000000000000000000000000000000000000000 DUP2 MSTORE PUSH1 0x4 ADD PUSH2 0x1AE SWAP1 PUSH2 0x4E5 JUMP JUMPDEST PUSH1 0x40 MLOAD DUP1 SWAP2 SUB SWAP1 REVERT JUMPDEST PUSH1 0x0 DUP2 PUSH1 0x1 PUSH1 0x0 DUP6 DUP2 MSTORE PUSH1 0x20 ADD SWAP1 DUP2 MSTORE PUSH1 0x20 ADD PUSH1 0x0 KECCAK256 PUSH1 0x0 DUP3 DUP3 DUP3 SWAP1 SLOAD SWAP1 PUSH2 0x100 EXP SWAP1 DIV PUSH1 0xFF AND PUSH2 0x1E8 SWAP2 SWAP1 PUSH2 0x551 JUMP JUMPDEST SWAP3 POP PUSH2 0x100 EXP DUP2 SLOAD DUP2 PUSH1 0xFF MUL NOT AND SWAP1 DUP4 PUSH1 0xFF AND MUL OR SWAP1 SSTORE SWAP1 POP PUSH1 0x64 DUP2 PUSH1 0xFF AND GT ISZERO PUSH2 0x248 JUMPI PUSH1 0x40 MLOAD PUSH32 0x8C379A000000000000000000000000000000000000000000000000000000000 DUP2 MSTORE PUSH1 0x4 ADD PUSH2 0x23F SWAP1 PUSH2 0x4C5 JUMP JUMPDEST PUSH1 0x40 MLOAD DUP1 SWAP2 SUB SWAP1 REVERT JUMPDEST DUP2 PUSH1 0x1 PUSH1 0x0 DUP6 DUP2 MSTORE PUSH1 0x20 ADD SWAP1 DUP2 MSTORE PUSH1 0x20 ADD PUSH1 0x0 KECCAK256 PUSH1 0x0 DUP3 DUP3 DUP3 SWAP1 SLOAD SWAP1 PUSH2 0x100 EXP SWAP1 DIV PUSH1 0xFF AND PUSH2 0x277 SWAP2 SWAP1 PUSH2 0x551 JUMP JUMPDEST SWAP3 POP PUSH2 0x100 EXP DUP2 SLOAD DUP2 PUSH1 0xFF MUL NOT AND SWAP1 DUP4 PUSH1 0xFF AND MUL OR SWAP1 SSTORE POP POP POP POP JUMP JUMPDEST PUSH1 0x1 PUSH1 0x20 MSTORE DUP1 PUSH1 0x0 MSTORE PUSH1 0x40 PUSH1 0x0 KECCAK256 PUSH1 0x0 SWAP2 POP SLOAD SWAP1 PUSH2 0x100 EXP SWAP1 DIV PUSH1 0xFF AND DUP2 JUMP JUMPDEST PUSH1 0x1 PUSH1 0x0 DUP3 DUP2 MSTORE PUSH1 0x20 ADD SWAP1 DUP2 MSTORE PUSH1 0x20 ADD PUSH1 0x0 KECCAK256 PUSH1 0x0 PUSH2 0x100 EXP DUP2 SLOAD SWAP1 PUSH1 0xFF MUL NOT AND SWAP1 SSTORE POP JUMP JUMPDEST PUSH1 0x0 DUP1 SLOAD SWAP1 PUSH2 0x100 EXP SWAP1 DIV PUSH1 0xFF AND DUP2 JUMP JUMPDEST PUSH1 0x0 DUP1 PUSH1 0x0 SWAP1 SLOAD SWAP1 PUSH2 0x100 EXP SWAP1 DIV PUSH1 0xFF AND PUSH1 0xFF AND EQ PUSH2 0x33F JUMPI PUSH1 0x40 MLOAD PUSH32 0x8C379A000000000000000000000000000000000000000000000000000000000 DUP2 MSTORE PUSH1 0x4 ADD PUSH2 0x336 SWAP1 PUSH2 0x4E5 JUMP JUMPDEST PUSH1 0x40 MLOAD DUP1 SWAP2 SUB SWAP1 REVERT JUMPDEST PUSH1 0x64 DUP2 PUSH1 0xFF AND GT ISZERO PUSH2 0x386 JUMPI PUSH1 0x40 MLOAD PUSH32 0x8C379A000000000000000000000000000000000000000000000000000000000 DUP2 MSTORE PUSH1 0x4 ADD PUSH2 0x37D SWAP1 PUSH2 0x505 JUMP JUMPDEST PUSH1 0x40 MLOAD DUP1 SWAP2 SUB SWAP1 REVERT JUMPDEST DUP1 PUSH1 0x1 PUSH1 0x0 DUP5 DUP2 MSTORE PUSH1 0x20 ADD SWAP1 DUP2 MSTORE PUSH1 0x20 ADD PUSH1 0x0 KECCAK256 PUSH1 0x0 PUSH2 0x100 EXP DUP2 SLOAD DUP2 PUSH1 0xFF MUL NOT AND SWAP1 DUP4 PUSH1 0xFF AND MUL OR SWAP1 SSTORE POP POP POP JUMP JUMPDEST PUSH1 0x0 DUP2 CALLDATALOAD SWAP1 POP PUSH2 0x3C5 DUP2 PUSH2 0x64E JUMP JUMPDEST SWAP3 SWAP2 POP POP JUMP JUMPDEST PUSH1 0x0 DUP2 CALLDATALOAD SWAP1 POP PUSH2 0x3DA DUP2 PUSH2 0x665 JUMP JUMPDEST SWAP3 SWAP2 POP POP JUMP JUMPDEST PUSH1 0x0 PUSH1 0x20 DUP3 DUP5 SUB SLT ISZERO PUSH2 0x3F6 JUMPI PUSH2 0x3F5 PUSH2 0x5CE JUMP JUMPDEST JUMPDEST PUSH1 0x0 PUSH2 0x404 DUP5 DUP3 DUP6 ADD PUSH2 0x3B6 JUMP JUMPDEST SWAP2 POP POP SWAP3 SWAP2 POP POP JUMP JUMPDEST PUSH1 0x0 DUP1 PUSH1 0x40 DUP4 DUP6 SUB SLT ISZERO PUSH2 0x424 JUMPI PUSH2 0x423 PUSH2 0x5CE JUMP JUMPDEST JUMPDEST PUSH1 0x0 PUSH2 0x432 DUP6 DUP3 DUP7 ADD PUSH2 0x3B6 JUMP JUMPDEST SWAP3 POP POP PUSH1 0x20 PUSH2 0x443 DUP6 DUP3 DUP7 ADD PUSH2 0x3CB JUMP JUMPDEST SWAP2 POP POP SWAP3 POP SWAP3 SWAP1 POP JUMP JUMPDEST PUSH1 0x0 PUSH2 0x45A PUSH1 0x17 DUP4 PUSH2 0x540 JUMP JUMPDEST SWAP2 POP PUSH2 0x465 DUP3 PUSH2 0x5D3 JUMP JUMPDEST PUSH1 0x20 DUP3 ADD SWAP1 POP SWAP2 SWAP1 POP JUMP JUMPDEST PUSH1 0x0 PUSH2 0x47D PUSH1 0x13 DUP4 PUSH2 0x540 JUMP JUMPDEST SWAP2 POP PUSH2 0x488 DUP3 PUSH2 0x5FC JUMP JUMPDEST PUSH1 0x20 DUP3 ADD SWAP1 POP SWAP2 SWAP1 POP JUMP JUMPDEST PUSH1 0x0 PUSH2 0x4A0 PUSH1 0x10 DUP4 PUSH2 0x540 JUMP JUMPDEST SWAP2 POP PUSH2 0x4AB DUP3 PUSH2 0x625 JUMP JUMPDEST PUSH1 0x20 DUP3 ADD SWAP1 POP SWAP2 SWAP1 POP JUMP JUMPDEST PUSH2 0x4BF DUP2 PUSH2 0x592 JUMP JUMPDEST DUP3 MSTORE POP POP JUMP JUMPDEST PUSH1 0x0 PUSH1 0x20 DUP3 ADD SWAP1 POP DUP2 DUP2 SUB PUSH1 0x0 DUP4 ADD MSTORE PUSH2 0x4DE DUP2 PUSH2 0x44D JUMP JUMPDEST SWAP1 POP SWAP2 SWAP1 POP JUMP JUMPDEST PUSH1 0x0 PUSH1 0x20 DUP3 ADD SWAP1 POP DUP2 DUP2 SUB PUSH1 0x0 DUP4 ADD MSTORE PUSH2 0x4FE DUP2 PUSH2 0x470 JUMP JUMPDEST SWAP1 POP SWAP2 SWAP1 POP JUMP JUMPDEST PUSH1 0x0 PUSH1 0x20 DUP3 ADD SWAP1 POP DUP2 DUP2 SUB PUSH1 0x0 DUP4 ADD MSTORE PUSH2 0x51E DUP2 PUSH2 0x493 JUMP JUMPDEST SWAP1 POP SWAP2 SWAP1 POP JUMP JUMPDEST PUSH1 0x0 PUSH1 0x20 DUP3 ADD SWAP1 POP PUSH2 0x53A PUSH1 0x0 DUP4 ADD DUP5 PUSH2 0x4B6 JUMP JUMPDEST SWAP3 SWAP2 POP POP JUMP JUMPDEST PUSH1 0x0 DUP3 DUP3 MSTORE PUSH1 0x20 DUP3 ADD SWAP1 POP SWAP3 SWAP2 POP POP JUMP JUMPDEST PUSH1 0x0 PUSH2 0x55C DUP3 PUSH2 0x592 JUMP JUMPDEST SWAP2 POP PUSH2 0x567 DUP4 PUSH2 0x592 JUMP JUMPDEST SWAP3 POP DUP3 PUSH1 0xFF SUB DUP3 GT ISZERO PUSH2 0x57D JUMPI PUSH2 0x57C PUSH2 0x59F JUMP JUMPDEST JUMPDEST DUP3 DUP3 ADD SWAP1 POP SWAP3 SWAP2 POP POP JUMP JUMPDEST PUSH1 0x0 DUP2 SWAP1 POP SWAP2 SWAP1 POP JUMP JUMPDEST PUSH1 0x0 PUSH1 0xFF DUP3 AND SWAP1 POP SWAP2 SWAP1 POP JUMP JUMPDEST PUSH32 0x4E487B7100000000000000000000000000000000000000000000000000000000 PUSH1 0x0 MSTORE PUSH1 0x11 PUSH1 0x4 MSTORE PUSH1 0x24 PUSH1 0x0 REVERT JUMPDEST PUSH1 0x0 DUP1 REVERT JUMPDEST PUSH32 0x53636F72652063616E6E6F742065786365656420313030000000000000000000 PUSH1 0x0 DUP3 ADD MSTORE POP JUMP JUMPDEST PUSH32 0x796F7520617265206E6F74207465616368657200000000000000000000000000 PUSH1 0x0 DUP3 ADD MSTORE POP JUMP JUMPDEST PUSH32 0x6D61782073636F72652069732031303000000000000000000000000000000000 PUSH1 0x0 DUP3 ADD MSTORE POP JUMP JUMPDEST PUSH2 0x657 DUP2 PUSH2 0x588 JUMP JUMPDEST DUP2 EQ PUSH2 0x662 JUMPI PUSH1 0x0 DUP1 REVERT JUMPDEST POP JUMP JUMPDEST PUSH2 0x66E DUP2 PUSH2 0x592 JUMP JUMPDEST DUP2 EQ PUSH2 0x679 JUMPI PUSH1 0x0 DUP1 REVERT JUMPDEST POP JUMP INVALID LOG2 PUSH5 0x6970667358 0x22 SLT KECCAK256 SELFBALANCE SWAP2 0x24 COINBASE 0x2E SWAP7 SIGNEXTEND SWAP11 RETURN SWAP14 0xB4 0xEF PUSH6 0xF62184CF78B9 0xD6 0xA9 ADDMOD GASPRICE MSTORE GASLIMIT 0xE9 0x4A BASEFEE SLOAD LT 0xEC 0xFB PUSH5 0x736F6C6343 STOP ADDMOD SMOD STOP CALLER "
				},
				"gasEstimates": {
					"creation": {
						"codeDepositCost": "342800",
						"executionCost": "380",
						"totalCost": "343180"
					},
					"external": {
						"addScore(uint256,uint8)": "infinite",
						"isTeacher()": "2534",
						"queryScore(uint256)": "2800",
						"removeScore(uint256)": "24770",
						"studentScore(uint256)": "2818",
						"updateScore(uint256,uint8)": "27215"
					}
				},
				"methodIdentifiers": {
					"addScore(uint256,uint8)": "0efed18b",
					"isTeacher()": "c64a4bad",
					"queryScore(uint256)": "063b3810",
					"removeScore(uint256)": "2d96fd46",
					"studentScore(uint256)": "17d9500e",
					"updateScore(uint256,uint8)": "d43b8e05"
				}
			},
			"userdoc": {
				"kind": "user",
				"methods": {},
				"version": 1
			}
		}
	}
}