{
	"contracts/Score.sol": {
		"Teacher": {
			"abi": [
				{
					"inputs": [],
					"stateMutability": "nonpayable",
					"type": "constructor"
				},
				{
					"inputs": [],
					"name": "isTeacher",
					"outputs": [
						{
							"internalType": "uint8",
							"name": "",
							"type": "uint8"
						}
					],
					"stateMutability": "view",
					"type": "function"
				},
				{
					"inputs": [
						{
							"internalType": "address",
							"name": "_scoreAdd",
							"type": "address"
						},
						{
							"internalType": "uint256",
							"name": "_studentNum",
							"type": "uint256"
						},
						{
							"internalType": "uint8",
							"name": "_score",
							"type": "uint8"
						}
					],
					"name": "teacherAdd",
					"outputs": [],
					"stateMutability": "nonpayable",
					"type": "function"
				},
				{
					"inputs": [
						{
							"internalType": "address",
							"name": "_scoreAdd",
							"type": "address"
						},
						{
							"internalType": "uint256",
							"name": "_studentNum",
							"type": "uint256"
						},
						{
							"internalType": "uint8",
							"name": "_score",
							"type": "uint8"
						}
					],
					"name": "teacherUpdate",
					"outputs": [],
					"stateMutability": "nonpayable",
					"type": "function"
				}
			],
			"devdoc": {
				"kind": "dev",
				"methods": {},
				"version": 1
			},
			"evm": {
				"assembly": "    /* \"contracts/Score.sol\":1320:1739  contract Teacher {\r... */\n  mstore(0x40, 0x80)\n    /* \"contracts/Score.sol\":1377:1422  constructor(){\r... */\n  callvalue\n  dup1\n  iszero\n  tag_1\n  jumpi\n  0x00\n  dup1\n  revert\ntag_1:\n  pop\n    /* \"contracts/Score.sol\":1413:1414  1 */\n  0x01\n    /* \"contracts/Score.sol\":1401:1410  isTeacher */\n  0x00\n  dup1\n    /* \"contracts/Score.sol\":1401:1414  isTeacher = 1 */\n  0x0100\n  exp\n  dup2\n  sload\n  dup2\n  0xff\n  mul\n  not\n  and\n  swap1\n  dup4\n  0xff\n  and\n  mul\n  or\n  swap1\n  sstore\n  pop\n    /* \"contracts/Score.sol\":1320:1739  contract Teacher {\r... */\n  dataSize(sub_0)\n  dup1\n  dataOffset(sub_0)\n  0x00\n  codecopy\n  0x00\n  return\nstop\n\nsub_0: assembly {\n        /* \"contracts/Score.sol\":1320:1739  contract Teacher {\r... */\n      mstore(0x40, 0x80)\n      callvalue\n      dup1\n      iszero\n      tag_1\n      jumpi\n      0x00\n      dup1\n      revert\n    tag_1:\n      pop\n      jumpi(tag_2, lt(calldatasize, 0x04))\n      shr(0xe0, calldataload(0x00))\n      dup1\n      0x1cdbb103\n      eq\n      tag_3\n      jumpi\n      dup1\n      0xa1b05986\n      eq\n      tag_4\n      jumpi\n      dup1\n      0xc64a4bad\n      eq\n      tag_5\n      jumpi\n    tag_2:\n      0x00\n      dup1\n      revert\n        /* \"contracts/Score.sol\":1430:1576  function teacherAdd(address _scoreAdd, uint256 _studentNum,uint8 _score) external{\r... */\n    tag_3:\n      tag_6\n      0x04\n      dup1\n      calldatasize\n      sub\n      dup2\n      add\n      swap1\n      tag_7\n      swap2\n      swap1\n      tag_8\n      jump\t// in\n    tag_7:\n      tag_9\n      jump\t// in\n    tag_6:\n      stop\n        /* \"contracts/Score.sol\":1584:1736  function teacherUpdate(address _scoreAdd, uint256 _studentNum,uint8 _score) external{\r... */\n    tag_4:\n      tag_10\n      0x04\n      dup1\n      calldatasize\n      sub\n      dup2\n      add\n      swap1\n      tag_11\n      swap2\n      swap1\n      tag_8\n      jump\t// in\n    tag_11:\n      tag_12\n      jump\t// in\n    tag_10:\n      stop\n        /* \"contracts/Score.sol\":1346:1368  uint8 public isTeacher */\n    tag_5:\n      tag_13\n      tag_14\n      jump\t// in\n    tag_13:\n      mload(0x40)\n      tag_15\n      swap2\n      swap1\n      tag_16\n      jump\t// in\n    tag_15:\n      mload(0x40)\n      dup1\n      swap2\n      sub\n      swap1\n      return\n        /* \"contracts/Score.sol\":1430:1576  function teacherAdd(address _scoreAdd, uint256 _studentNum,uint8 _score) external{\r... */\n    tag_9:\n        /* \"contracts/Score.sol\":1529:1538  _scoreAdd */\n      dup3\n        /* \"contracts/Score.sol\":1522:1548  IScore(_scoreAdd).addScore */\n      0xffffffffffffffffffffffffffffffffffffffff\n      and\n      0x0efed18b\n        /* \"contracts/Score.sol\":1549:1560  _studentNum */\n      dup4\n        /* \"contracts/Score.sol\":1561:1567  _score */\n      dup4\n        /* \"contracts/Score.sol\":1522:1568  IScore(_scoreAdd).addScore(_studentNum,_score) */\n      mload(0x40)\n      dup4\n      0xffffffff\n      and\n      0xe0\n      shl\n      dup2\n      mstore\n      0x04\n      add\n      tag_18\n      swap3\n      swap2\n      swap1\n      tag_19\n      jump\t// in\n    tag_18:\n      0x00\n      mload(0x40)\n      dup1\n      dup4\n      sub\n      dup2\n      0x00\n      dup8\n      dup1\n      extcodesize\n      iszero\n      dup1\n      iszero\n      tag_20\n      jumpi\n      0x00\n      dup1\n      revert\n    tag_20:\n      pop\n      gas\n      call\n      iszero\n      dup1\n      iszero\n      tag_22\n      jumpi\n      returndatasize\n      0x00\n      dup1\n      returndatacopy\n      revert(0x00, returndatasize)\n    tag_22:\n      pop\n      pop\n      pop\n      pop\n        /* \"contracts/Score.sol\":1430:1576  function teacherAdd(address _scoreAdd, uint256 _studentNum,uint8 _score) external{\r... */\n      pop\n      pop\n      pop\n      jump\t// out\n        /* \"contracts/Score.sol\":1584:1736  function teacherUpdate(address _scoreAdd, uint256 _studentNum,uint8 _score) external{\r... */\n    tag_12:\n        /* \"contracts/Score.sol\":1686:1695  _scoreAdd */\n      dup3\n        /* \"contracts/Score.sol\":1679:1708  IScore(_scoreAdd).updateScore */\n      0xffffffffffffffffffffffffffffffffffffffff\n      and\n      0xd43b8e05\n        /* \"contracts/Score.sol\":1709:1720  _studentNum */\n      dup4\n        /* \"contracts/Score.sol\":1721:1727  _score */\n      dup4\n        /* \"contracts/Score.sol\":1679:1728  IScore(_scoreAdd).updateScore(_studentNum,_score) */\n      mload(0x40)\n      dup4\n      0xffffffff\n      and\n      0xe0\n      shl\n      dup2\n      mstore\n      0x04\n      add\n      tag_24\n      swap3\n      swap2\n      swap1\n      tag_19\n      jump\t// in\n    tag_24:\n      0x00\n      mload(0x40)\n      dup1\n      dup4\n      sub\n      dup2\n      0x00\n      dup8\n      dup1\n      extcodesize\n      iszero\n      dup1\n      iszero\n      tag_25\n      jumpi\n      0x00\n      dup1\n      revert\n    tag_25:\n      pop\n      gas\n      call\n      iszero\n      dup1\n      iszero\n      tag_27\n      jumpi\n      returndatasize\n      0x00\n      dup1\n      returndatacopy\n      revert(0x00, returndatasize)\n    tag_27:\n      pop\n      pop\n      pop\n      pop\n        /* \"contracts/Score.sol\":1584:1736  function teacherUpdate(address _scoreAdd, uint256 _studentNum,uint8 _score) external{\r... */\n      pop\n      pop\n      pop\n      jump\t// out\n        /* \"contracts/Score.sol\":1346:1368  uint8 public isTeacher */\n    tag_14:\n      0x00\n      dup1\n      sload\n      swap1\n      0x0100\n      exp\n      swap1\n      div\n      0xff\n      and\n      dup2\n      jump\t// out\n        /* \"#utility.yul\":7:146   */\n    tag_29:\n        /* \"#utility.yul\":53:58   */\n      0x00\n        /* \"#utility.yul\":91:97   */\n      dup2\n        /* \"#utility.yul\":78:98   */\n      calldataload\n        /* \"#utility.yul\":69:98   */\n      swap1\n      pop\n        /* \"#utility.yul\":107:140   */\n      tag_31\n        /* \"#utility.yul\":134:139   */\n      dup2\n        /* \"#utility.yul\":107:140   */\n      tag_32\n      jump\t// in\n    tag_31:\n        /* \"#utility.yul\":7:146   */\n      swap3\n      swap2\n      pop\n      pop\n      jump\t// out\n        /* \"#utility.yul\":152:291   */\n    tag_33:\n        /* \"#utility.yul\":198:203   */\n      0x00\n        /* \"#utility.yul\":236:242   */\n      dup2\n        /* \"#utility.yul\":223:243   */\n      calldataload\n        /* \"#utility.yul\":214:243   */\n      swap1\n      pop\n        /* \"#utility.yul\":252:285   */\n      tag_35\n        /* \"#utility.yul\":279:284   */\n      dup2\n        /* \"#utility.yul\":252:285   */\n      tag_36\n      jump\t// in\n    tag_35:\n        /* \"#utility.yul\":152:291   */\n      swap3\n      swap2\n      pop\n      pop\n      jump\t// out\n        /* \"#utility.yul\":297:432   */\n    tag_37:\n        /* \"#utility.yul\":341:346   */\n      0x00\n        /* \"#utility.yul\":379:385   */\n      dup2\n        /* \"#utility.yul\":366:386   */\n      calldataload\n        /* \"#utility.yul\":357:386   */\n      swap1\n      pop\n        /* \"#utility.yul\":395:426   */\n      tag_39\n        /* \"#utility.yul\":420:425   */\n      dup2\n        /* \"#utility.yul\":395:426   */\n      tag_40\n      jump\t// in\n    tag_39:\n        /* \"#utility.yul\":297:432   */\n      swap3\n      swap2\n      pop\n      pop\n      jump\t// out\n        /* \"#utility.yul\":438:1053   */\n    tag_8:\n        /* \"#utility.yul\":513:519   */\n      0x00\n        /* \"#utility.yul\":521:527   */\n      dup1\n        /* \"#utility.yul\":529:535   */\n      0x00\n        /* \"#utility.yul\":578:580   */\n      0x60\n        /* \"#utility.yul\":566:575   */\n      dup5\n        /* \"#utility.yul\":557:564   */\n      dup7\n        /* \"#utility.yul\":553:576   */\n      sub\n        /* \"#utility.yul\":549:581   */\n      slt\n        /* \"#utility.yul\":546:665   */\n      iszero\n      tag_42\n      jumpi\n        /* \"#utility.yul\":584:663   */\n      tag_43\n      tag_44\n      jump\t// in\n    tag_43:\n        /* \"#utility.yul\":546:665   */\n    tag_42:\n        /* \"#utility.yul\":704:705   */\n      0x00\n        /* \"#utility.yul\":729:782   */\n      tag_45\n        /* \"#utility.yul\":774:781   */\n      dup7\n        /* \"#utility.yul\":765:771   */\n      dup3\n        /* \"#utility.yul\":754:763   */\n      dup8\n        /* \"#utility.yul\":750:772   */\n      add\n        /* \"#utility.yul\":729:782   */\n      tag_29\n      jump\t// in\n    tag_45:\n        /* \"#utility.yul\":719:782   */\n      swap4\n      pop\n        /* \"#utility.yul\":675:792   */\n      pop\n        /* \"#utility.yul\":831:833   */\n      0x20\n        /* \"#utility.yul\":857:910   */\n      tag_46\n        /* \"#utility.yul\":902:909   */\n      dup7\n        /* \"#utility.yul\":893:899   */\n      dup3\n        /* \"#utility.yul\":882:891   */\n      dup8\n        /* \"#utility.yul\":878:900   */\n      add\n        /* \"#utility.yul\":857:910   */\n      tag_33\n      jump\t// in\n    tag_46:\n        /* \"#utility.yul\":847:910   */\n      swap3\n      pop\n        /* \"#utility.yul\":802:920   */\n      pop\n        /* \"#utility.yul\":959:961   */\n      0x40\n        /* \"#utility.yul\":985:1036   */\n      tag_47\n        /* \"#utility.yul\":1028:1035   */\n      dup7\n        /* \"#utility.yul\":1019:1025   */\n      dup3\n        /* \"#utility.yul\":1008:1017   */\n      dup8\n        /* \"#utility.yul\":1004:1026   */\n      add\n        /* \"#utility.yul\":985:1036   */\n      tag_37\n      jump\t// in\n    tag_47:\n        /* \"#utility.yul\":975:1036   */\n      swap2\n      pop\n        /* \"#utility.yul\":930:1046   */\n      pop\n        /* \"#utility.yul\":438:1053   */\n      swap3\n      pop\n      swap3\n      pop\n      swap3\n      jump\t// out\n        /* \"#utility.yul\":1059:1177   */\n    tag_48:\n        /* \"#utility.yul\":1146:1170   */\n      tag_50\n        /* \"#utility.yul\":1164:1169   */\n      dup2\n        /* \"#utility.yul\":1146:1170   */\n      tag_51\n      jump\t// in\n    tag_50:\n        /* \"#utility.yul\":1141:1144   */\n      dup3\n        /* \"#utility.yul\":1134:1171   */\n      mstore\n        /* \"#utility.yul\":1059:1177   */\n      pop\n      pop\n      jump\t// out\n        /* \"#utility.yul\":1183:1295   */\n    tag_52:\n        /* \"#utility.yul\":1266:1288   */\n      tag_54\n        /* \"#utility.yul\":1282:1287   */\n      dup2\n        /* \"#utility.yul\":1266:1288   */\n      tag_55\n      jump\t// in\n    tag_54:\n        /* \"#utility.yul\":1261:1264   */\n      dup3\n        /* \"#utility.yul\":1254:1289   */\n      mstore\n        /* \"#utility.yul\":1183:1295   */\n      pop\n      pop\n      jump\t// out\n        /* \"#utility.yul\":1301:1625   */\n    tag_19:\n        /* \"#utility.yul\":1418:1422   */\n      0x00\n        /* \"#utility.yul\":1456:1458   */\n      0x40\n        /* \"#utility.yul\":1445:1454   */\n      dup3\n        /* \"#utility.yul\":1441:1459   */\n      add\n        /* \"#utility.yul\":1433:1459   */\n      swap1\n      pop\n        /* \"#utility.yul\":1469:1540   */\n      tag_57\n        /* \"#utility.yul\":1537:1538   */\n      0x00\n        /* \"#utility.yul\":1526:1535   */\n      dup4\n        /* \"#utility.yul\":1522:1539   */\n      add\n        /* \"#utility.yul\":1513:1519   */\n      dup6\n        /* \"#utility.yul\":1469:1540   */\n      tag_48\n      jump\t// in\n    tag_57:\n        /* \"#utility.yul\":1550:1618   */\n      tag_58\n        /* \"#utility.yul\":1614:1616   */\n      0x20\n        /* \"#utility.yul\":1603:1612   */\n      dup4\n        /* \"#utility.yul\":1599:1617   */\n      add\n        /* \"#utility.yul\":1590:1596   */\n      dup5\n        /* \"#utility.yul\":1550:1618   */\n      tag_52\n      jump\t// in\n    tag_58:\n        /* \"#utility.yul\":1301:1625   */\n      swap4\n      swap3\n      pop\n      pop\n      pop\n      jump\t// out\n        /* \"#utility.yul\":1631:1845   */\n    tag_16:\n        /* \"#utility.yul\":1720:1724   */\n      0x00\n        /* \"#utility.yul\":1758:1760   */\n      0x20\n        /* \"#utility.yul\":1747:1756   */\n      dup3\n        /* \"#utility.yul\":1743:1761   */\n      add\n        /* \"#utility.yul\":1735:1761   */\n      swap1\n      pop\n        /* \"#utility.yul\":1771:1838   */\n      tag_60\n        /* \"#utility.yul\":1835:1836   */\n      0x00\n        /* \"#utility.yul\":1824:1833   */\n      dup4\n        /* \"#utility.yul\":1820:1837   */\n      add\n        /* \"#utility.yul\":1811:1817   */\n      dup5\n        /* \"#utility.yul\":1771:1838   */\n      tag_52\n      jump\t// in\n    tag_60:\n        /* \"#utility.yul\":1631:1845   */\n      swap3\n      swap2\n      pop\n      pop\n      jump\t// out\n        /* \"#utility.yul\":1932:2028   */\n    tag_63:\n        /* \"#utility.yul\":1969:1976   */\n      0x00\n        /* \"#utility.yul\":1998:2022   */\n      tag_65\n        /* \"#utility.yul\":2016:2021   */\n      dup3\n        /* \"#utility.yul\":1998:2022   */\n      tag_66\n      jump\t// in\n    tag_65:\n        /* \"#utility.yul\":1987:2022   */\n      swap1\n      pop\n        /* \"#utility.yul\":1932:2028   */\n      swap2\n      swap1\n      pop\n      jump\t// out\n        /* \"#utility.yul\":2034:2160   */\n    tag_66:\n        /* \"#utility.yul\":2071:2078   */\n      0x00\n        /* \"#utility.yul\":2111:2153   */\n      0xffffffffffffffffffffffffffffffffffffffff\n        /* \"#utility.yul\":2104:2109   */\n      dup3\n        /* \"#utility.yul\":2100:2154   */\n      and\n        /* \"#utility.yul\":2089:2154   */\n      swap1\n      pop\n        /* \"#utility.yul\":2034:2160   */\n      swap2\n      swap1\n      pop\n      jump\t// out\n        /* \"#utility.yul\":2166:2243   */\n    tag_51:\n        /* \"#utility.yul\":2203:2210   */\n      0x00\n        /* \"#utility.yul\":2232:2237   */\n      dup2\n        /* \"#utility.yul\":2221:2237   */\n      swap1\n      pop\n        /* \"#utility.yul\":2166:2243   */\n      swap2\n      swap1\n      pop\n      jump\t// out\n        /* \"#utility.yul\":2249:2335   */\n    tag_55:\n        /* \"#utility.yul\":2284:2291   */\n      0x00\n        /* \"#utility.yul\":2324:2328   */\n      0xff\n        /* \"#utility.yul\":2317:2322   */\n      dup3\n        /* \"#utility.yul\":2313:2329   */\n      and\n        /* \"#utility.yul\":2302:2329   */\n      swap1\n      pop\n        /* \"#utility.yul\":2249:2335   */\n      swap2\n      swap1\n      pop\n      jump\t// out\n        /* \"#utility.yul\":2464:2581   */\n    tag_44:\n        /* \"#utility.yul\":2573:2574   */\n      0x00\n        /* \"#utility.yul\":2570:2571   */\n      dup1\n        /* \"#utility.yul\":2563:2575   */\n      revert\n        /* \"#utility.yul\":2587:2709   */\n    tag_32:\n        /* \"#utility.yul\":2660:2684   */\n      tag_74\n        /* \"#utility.yul\":2678:2683   */\n      dup2\n        /* \"#utility.yul\":2660:2684   */\n      tag_63\n      jump\t// in\n    tag_74:\n        /* \"#utility.yul\":2653:2658   */\n      dup2\n        /* \"#utility.yul\":2650:2685   */\n      eq\n        /* \"#utility.yul\":2640:2703   */\n      tag_75\n      jumpi\n        /* \"#utility.yul\":2699:2700   */\n      0x00\n        /* \"#utility.yul\":2696:2697   */\n      dup1\n        /* \"#utility.yul\":2689:2701   */\n      revert\n        /* \"#utility.yul\":2640:2703   */\n    tag_75:\n        /* \"#utility.yul\":2587:2709   */\n      pop\n      jump\t// out\n        /* \"#utility.yul\":2715:2837   */\n    tag_36:\n        /* \"#utility.yul\":2788:2812   */\n      tag_77\n        /* \"#utility.yul\":2806:2811   */\n      dup2\n        /* \"#utility.yul\":2788:2812   */\n      tag_51\n      jump\t// in\n    tag_77:\n        /* \"#utility.yul\":2781:2786   */\n      dup2\n        /* \"#utility.yul\":2778:2813   */\n      eq\n        /* \"#utility.yul\":2768:2831   */\n      tag_78\n      jumpi\n        /* \"#utility.yul\":2827:2828   */\n      0x00\n        /* \"#utility.yul\":2824:2825   */\n      dup1\n        /* \"#utility.yul\":2817:2829   */\n      revert\n        /* \"#utility.yul\":2768:2831   */\n    tag_78:\n        /* \"#utility.yul\":2715:2837   */\n      pop\n      jump\t// out\n        /* \"#utility.yul\":2843:2961   */\n    tag_40:\n        /* \"#utility.yul\":2914:2936   */\n      tag_80\n        /* \"#utility.yul\":2930:2935   */\n      dup2\n        /* \"#utility.yul\":2914:2936   */\n      tag_55\n      jump\t// in\n    tag_80:\n        /* \"#utility.yul\":2907:2912   */\n      dup2\n        /* \"#utility.yul\":2904:2937   */\n      eq\n        /* \"#utility.yul\":2894:2955   */\n      tag_81\n      jumpi\n        /* \"#utility.yul\":2951:2952   */\n      0x00\n        /* \"#utility.yul\":2948:2949   */\n      dup1\n        /* \"#utility.yul\":2941:2953   */\n      revert\n        /* \"#utility.yul\":2894:2955   */\n    tag_81:\n        /* \"#utility.yul\":2843:2961   */\n      pop\n      jump\t// out\n\n    auxdata: 0xa2646970667358221220c1c20af7b5bdfe88b351c178274e3d8790bcd9593dac7c01391baf0ef432ed0a64736f6c63430008070033\n}\n",
				"bytecode": {
					"linkReferences": {},
					"object": "608060405234801561001057600080fd5b5060016000806101000a81548160ff021916908360ff16021790555061034e8061003b6000396000f3fe608060405234801561001057600080fd5b50600436106100415760003560e01c80631cdbb10314610046578063a1b0598614610062578063c64a4bad1461007e575b600080fd5b610060600480360381019061005b91906101d0565b61009c565b005b61007c600480360381019061007791906101d0565b61010e565b005b610086610180565b604051610093919061026a565b60405180910390f35b8273ffffffffffffffffffffffffffffffffffffffff16630efed18b83836040518363ffffffff1660e01b81526004016100d7929190610241565b600060405180830381600087803b1580156100f157600080fd5b505af1158015610105573d6000803e3d6000fd5b50505050505050565b8273ffffffffffffffffffffffffffffffffffffffff1663d43b8e0583836040518363ffffffff1660e01b8152600401610149929190610241565b600060405180830381600087803b15801561016357600080fd5b505af1158015610177573d6000803e3d6000fd5b50505050505050565b60008054906101000a900460ff1681565b6000813590506101a0816102d3565b92915050565b6000813590506101b5816102ea565b92915050565b6000813590506101ca81610301565b92915050565b6000806000606084860312156101e9576101e86102ce565b5b60006101f786828701610191565b9350506020610208868287016101a6565b9250506040610219868287016101bb565b9150509250925092565b61022c816102b7565b82525050565b61023b816102c1565b82525050565b60006040820190506102566000830185610223565b6102636020830184610232565b9392505050565b600060208201905061027f6000830184610232565b92915050565b600061029082610297565b9050919050565b600073ffffffffffffffffffffffffffffffffffffffff82169050919050565b6000819050919050565b600060ff82169050919050565b600080fd5b6102dc81610285565b81146102e757600080fd5b50565b6102f3816102b7565b81146102fe57600080fd5b50565b61030a816102c1565b811461031557600080fd5b5056fea2646970667358221220c1c20af7b5bdfe88b351c178274e3d8790bcd9593dac7c01391baf0ef432ed0a64736f6c63430008070033",
					"opcodes": "PUSH1 0x80 PUSH1 0x40 MSTORE CALLVALUE DUP1 ISZERO PUSH2 0x10 JUMPI PUSH1 0x0 DUP1 REVERT JUMPDEST POP PUSH1 0x1 PUSH1 0x0 DUP1 PUSH2 0x100 EXP DUP2 SLOAD DUP2 PUSH1 0xFF MUL NOT AND SWAP1 DUP4 PUSH1 0xFF AND MUL OR SWAP1 SSTORE POP PUSH2 0x34E DUP1 PUSH2 0x3B PUSH1 0x0 CODECOPY PUSH1 0x0 RETURN INVALID PUSH1 0x80 PUSH1 0x40 MSTORE CALLVALUE DUP1 ISZERO PUSH2 0x10 JUMPI PUSH1 0x0 DUP1 REVERT JUMPDEST POP PUSH1 0x4 CALLDATASIZE LT PUSH2 0x41 JUMPI PUSH1 0x0 CALLDATALOAD PUSH1 0xE0 SHR DUP1 PUSH4 0x1CDBB103 EQ PUSH2 0x46 JUMPI DUP1 PUSH4 0xA1B05986 EQ PUSH2 0x62 JUMPI DUP1 PUSH4 0xC64A4BAD EQ PUSH2 0x7E JUMPI JUMPDEST PUSH1 0x0 DUP1 REVERT JUMPDEST PUSH2 0x60 PUSH1 0x4 DUP1 CALLDATASIZE SUB DUP2 ADD SWAP1 PUSH2 0x5B SWAP2 SWAP1 PUSH2 0x1D0 JUMP JUMPDEST PUSH2 0x9C JUMP JUMPDEST STOP JUMPDEST PUSH2 0x7C PUSH1 0x4 DUP1 CALLDATASIZE SUB DUP2 ADD SWAP1 PUSH2 0x77 SWAP2 SWAP1 PUSH2 0x1D0 JUMP JUMPDEST PUSH2 0x10E JUMP JUMPDEST STOP JUMPDEST PUSH2 0x86 PUSH2 0x180 JUMP JUMPDEST PUSH1 0x40 MLOAD PUSH2 0x93 SWAP2 SWAP1 PUSH2 0x26A JUMP JUMPDEST PUSH1 0x40 MLOAD DUP1 SWAP2 SUB SWAP1 RETURN JUMPDEST DUP3 PUSH20 0xFFFFFFFFFFFFFFFFFFFFFFFFFFFFFFFFFFFFFFFF AND PUSH4 0xEFED18B DUP4 DUP4 PUSH1 0x40 MLOAD DUP4 PUSH4 0xFFFFFFFF AND PUSH1 0xE0 SHL DUP2 MSTORE PUSH1 0x4 ADD PUSH2 0xD7 SWAP3 SWAP2 SWAP1 PUSH2 0x241 JUMP JUMPDEST PUSH1 0x0 PUSH1 0x40 MLOAD DUP1 DUP4 SUB DUP2 PUSH1 0x0 DUP8 DUP1 EXTCODESIZE ISZERO DUP1 ISZERO PUSH2 0xF1 JUMPI PUSH1 0x0 DUP1 REVERT JUMPDEST POP GAS CALL ISZERO DUP1 ISZERO PUSH2 0x105 JUMPI RETURNDATASIZE PUSH1 0x0 DUP1 RETURNDATACOPY RETURNDATASIZE PUSH1 0x0 REVERT JUMPDEST POP POP POP POP POP POP POP JUMP JUMPDEST DUP3 PUSH20 0xFFFFFFFFFFFFFFFFFFFFFFFFFFFFFFFFFFFFFFFF AND PUSH4 0xD43B8E05 DUP4 DUP4 PUSH1 0x40 MLOAD DUP4 PUSH4 0xFFFFFFFF AND PUSH1 0xE0 SHL DUP2 MSTORE PUSH1 0x4 ADD PUSH2 0x149 SWAP3 SWAP2 SWAP1 PUSH2 0x241 JUMP JUMPDEST PUSH1 0x0 PUSH1 0x40 MLOAD DUP1 DUP4 SUB DUP2 PUSH1 0x0 DUP8 DUP1 EXTCODESIZE ISZERO DUP1 ISZERO PUSH2 0x163 JUMPI PUSH1 0x0 DUP1 REVERT JUMPDEST POP GAS CALL ISZERO DUP1 ISZERO PUSH2 0x177 JUMPI RETURNDATASIZE PUSH1 0x0 DUP1 RETURNDATACOPY RETURNDATASIZE PUSH1 0x0 REVERT JUMPDEST POP POP POP POP POP POP POP JUMP JUMPDEST PUSH1 0x0 DUP1 SLOAD SWAP1 PUSH2 0x100 EXP SWAP1 DIV PUSH1 0xFF AND DUP2 JUMP JUMPDEST PUSH1 0x0 DUP2 CALLDATALOAD SWAP1 POP PUSH2 0x1A0 DUP2 PUSH2 0x2D3 JUMP JUMPDEST SWAP3 SWAP2 POP POP JUMP JUMPDEST PUSH1 0x0 DUP2 CALLDATALOAD SWAP1 POP PUSH2 0x1B5 DUP2 PUSH2 0x2EA JUMP JUMPDEST SWAP3 SWAP2 POP POP JUMP JUMPDEST PUSH1 0x0 DUP2 CALLDATALOAD SWAP1 POP PUSH2 0x1CA DUP2 PUSH2 0x301 JUMP JUMPDEST SWAP3 SWAP2 POP POP JUMP JUMPDEST PUSH1 0x0 DUP1 PUSH1 0x0 PUSH1 0x60 DUP5 DUP7 SUB SLT ISZERO PUSH2 0x1E9 JUMPI PUSH2 0x1E8 PUSH2 0x2CE JUMP JUMPDEST JUMPDEST PUSH1 0x0 PUSH2 0x1F7 DUP7 DUP3 DUP8 ADD PUSH2 0x191 JUMP JUMPDEST SWAP4 POP POP PUSH1 0x20 PUSH2 0x208 DUP7 DUP3 DUP8 ADD PUSH2 0x1A6 JUMP JUMPDEST SWAP3 POP POP PUSH1 0x40 PUSH2 0x219 DUP7 DUP3 DUP8 ADD PUSH2 0x1BB JUMP JUMPDEST SWAP2 POP POP SWAP3 POP SWAP3 POP SWAP3 JUMP JUMPDEST PUSH2 0x22C DUP2 PUSH2 0x2B7 JUMP JUMPDEST DUP3 MSTORE POP POP JUMP JUMPDEST PUSH2 0x23B DUP2 PUSH2 0x2C1 JUMP JUMPDEST DUP3 MSTORE POP POP JUMP JUMPDEST PUSH1 0x0 PUSH1 0x40 DUP3 ADD SWAP1 POP PUSH2 0x256 PUSH1 0x0 DUP4 ADD DUP6 PUSH2 0x223 JUMP JUMPDEST PUSH2 0x263 PUSH1 0x20 DUP4 ADD DUP5 PUSH2 0x232 JUMP JUMPDEST SWAP4 SWAP3 POP POP POP JUMP JUMPDEST PUSH1 0x0 PUSH1 0x20 DUP3 ADD SWAP1 POP PUSH2 0x27F PUSH1 0x0 DUP4 ADD DUP5 PUSH2 0x232 JUMP JUMPDEST SWAP3 SWAP2 POP POP JUMP JUMPDEST PUSH1 0x0 PUSH2 0x290 DUP3 PUSH2 0x297 JUMP JUMPDEST SWAP1 POP SWAP2 SWAP1 POP JUMP JUMPDEST PUSH1 0x0 PUSH20 0xFFFFFFFFFFFFFFFFFFFFFFFFFFFFFFFFFFFFFFFF DUP3 AND SWAP1 POP SWAP2 SWAP1 POP JUMP JUMPDEST PUSH1 0x0 DUP2 SWAP1 POP SWAP2 SWAP1 POP JUMP JUMPDEST PUSH1 0x0 PUSH1 0xFF DUP3 AND SWAP1 POP SWAP2 SWAP1 POP JUMP JUMPDEST PUSH1 0x0 DUP1 REVERT JUMPDEST PUSH2 0x2DC DUP2 PUSH2 0x285 JUMP JUMPDEST DUP2 EQ PUSH2 0x2E7 JUMPI PUSH1 0x0 DUP1 REVERT JUMPDEST POP JUMP JUMPDEST PUSH2 0x2F3 DUP2 PUSH2 0x2B7 JUMP JUMPDEST DUP2 EQ PUSH2 0x2FE JUMPI PUSH1 0x0 DUP1 REVERT JUMPDEST POP JUMP JUMPDEST PUSH2 0x30A DUP2 PUSH2 0x2C1 JUMP JUMPDEST DUP2 EQ PUSH2 0x315 JUMPI PUSH1 0x0 DUP1 REVERT JUMPDEST POP JUMP INVALID LOG2 PUSH5 0x6970667358 0x22 SLT KECCAK256 0xC1 0xC2 EXP 0xF7 0xB5 0xBD INVALID DUP9 0xB3 MLOAD 0xC1 PUSH25 0x274E3D8790BCD9593DAC7C01391BAF0EF432ED0A64736F6C63 NUMBER STOP ADDMOD SMOD STOP CALLER "
				},
				"gasEstimates": {
					"creation": {
						"codeDepositCost": "169200",
						"executionCost": "24481",
						"totalCost": "193681"
					},
					"external": {
						"isTeacher()": "2490",
						"teacherAdd(address,uint256,uint8)": "infinite",
						"teacherUpdate(address,uint256,uint8)": "infinite"
					}
				},
				"methodIdentifiers": {
					"isTeacher()": "c64a4bad",
					"teacherAdd(address,uint256,uint8)": "1cdbb103",
					"teacherUpdate(address,uint256,uint8)": "a1b05986"
				}
			},
			"userdoc": {
				"kind": "user",
				"methods": {},
				"version": 1
			}
		}
	}
}