{
	"data": {
		"bytecode": {
			"linkReferences": {},
			"object": "608060405234801561001057600080fd5b50610cd2806100206000396000f3fe6080604052600436106200002c5760003560e01c80636d846aca1462000031578063f7746e361462000051575b600080fd5b6200004f600480360381019062000049919062000261565b62000095565b005b3480156200005e57600080fd5b506200007d6004803603810190620000779190620002a6565b6200018a565b6040516200008c91906200035c565b60405180910390f35b670de0b6b3a76400003411620000e2576040517f08c379a0000000000000000000000000000000000000000000000000000000008152600401620000d990620003ad565b60405180910390fd5b6000348230604051620000f590620001ca565b6200010292919062000379565b6040518091039082f090508015801562000120573d6000803e3d6000fd5b5090506000819080600181540180825580915050600190039060005260206000200160009091909190916101000a81548173ffffffffffffffffffffffffffffffffffffffff021916908373ffffffffffffffffffffffffffffffffffffffff1602179055505050565b600081815481106200019b57600080fd5b906000526020600020016000915054906101000a900473ffffffffffffffffffffffffffffffffffffffff1681565b6106ee80620005af83390190565b6000620001ef620001e984620003f8565b620003cf565b9050828152602081018484840111156200020857600080fd5b62000215848285620004b0565b509392505050565b600082601f8301126200022f57600080fd5b813562000241848260208601620001d8565b91505092915050565b6000813590506200025b8162000594565b92915050565b6000602082840312156200027457600080fd5b600082013567ffffffffffffffff8111156200028f57600080fd5b6200029d848285016200021d565b91505092915050565b600060208284031215620002b957600080fd5b6000620002c9848285016200024a565b91505092915050565b620002dd816200044a565b82525050565b620002ee8162000488565b82525050565b600062000301826200042e565b6200030d818562000439565b93506200031f818560208601620004bf565b6200032a816200055a565b840191505092915050565b60006200034460118362000439565b915062000351826200056b565b602082019050919050565b6000602082019050620003736000830184620002e3565b92915050565b60006040820190508181036000830152620003958185620002f4565b9050620003a66020830184620002d2565b9392505050565b60006020820190508181036000830152620003c88162000335565b9050919050565b6000620003db620003ee565b9050620003e98282620004f5565b919050565b6000604051905090565b600067ffffffffffffffff8211156200041657620004156200052b565b5b62000421826200055a565b9050602081019050919050565b600081519050919050565b600082825260208201905092915050565b600062000457826200045e565b9050919050565b600073ffffffffffffffffffffffffffffffffffffffff82169050919050565b6000819050919050565b600062000495826200049c565b9050919050565b6000620004a9826200045e565b9050919050565b82818337600083830152505050565b60005b83811015620004df578082015181840152602081019050620004c2565b83811115620004ef576000848401525b50505050565b62000500826200055a565b810181811067ffffffffffffffff821117156200052257620005216200052b565b5b80604052505050565b7f4e487b7100000000000000000000000000000000000000000000000000000000600052604160045260246000fd5b6000601f19601f8301169050919050565b7f6e6f7420656e6f756768206d6f6e657279000000000000000000000000000000600082015250565b6200059f816200047e565b8114620005ab57600080fd5b5056fe60806040526040516106ee3803806106ee833981810160405281019061002591906101ab565b816000908051906020019061003b92919061008b565b5080600160006101000a81548173ffffffffffffffffffffffffffffffffffffffff021916908373ffffffffffffffffffffffffffffffffffffffff1602179055503460028190555050506103a3565b828054610097906102ba565b90600052602060002090601f0160209004810192826100b95760008555610100565b82601f106100d257805160ff1916838001178555610100565b82800160010185558215610100579182015b828111156100ff5782518255916020019190600101906100e4565b5b50905061010d9190610111565b5090565b5b8082111561012a576000816000905550600101610112565b5090565b600061014161013c84610224565b6101ff565b90508281526020810184848401111561015957600080fd5b610164848285610287565b509392505050565b60008151905061017b8161038c565b92915050565b600082601f83011261019257600080fd5b81516101a284826020860161012e565b91505092915050565b600080604083850312156101be57600080fd5b600083015167ffffffffffffffff8111156101d857600080fd5b6101e485828601610181565b92505060206101f58582860161016c565b9150509250929050565b600061020961021a565b905061021582826102ec565b919050565b6000604051905090565b600067ffffffffffffffff82111561023f5761023e61034c565b5b6102488261037b565b9050602081019050919050565b600061026082610267565b9050919050565b600073ffffffffffffffffffffffffffffffffffffffff82169050919050565b60005b838110156102a557808201518184015260208101905061028a565b838111156102b4576000848401525b50505050565b600060028204905060018216806102d257607f821691505b602082108114156102e6576102e561031d565b5b50919050565b6102f58261037b565b810181811067ffffffffffffffff821117156103145761031361034c565b5b80604052505050565b7f4e487b7100000000000000000000000000000000000000000000000000000000600052602260045260246000fd5b7f4e487b7100000000000000000000000000000000000000000000000000000000600052604160045260246000fd5b6000601f19601f8301169050919050565b61039581610255565b81146103a057600080fd5b50565b61033c806103b26000396000f3fe608060405234801561001057600080fd5b50600436106100415760003560e01c80630ad9d0521461004657806313faede6146100645780638da5cb5b14610082575b600080fd5b61004e6100a0565b60405161005b91906101cc565b60405180910390f35b61006c61012e565b60405161007991906101ee565b60405180910390f35b61008a610134565b60405161009791906101b1565b60405180910390f35b600080546100ad90610294565b80601f01602080910402602001604051908101604052809291908181526020018280546100d990610294565b80156101265780601f106100fb57610100808354040283529160200191610126565b820191906000526020600020905b81548152906001019060200180831161010957829003601f168201915b505050505081565b60025481565b600160009054906101000a900473ffffffffffffffffffffffffffffffffffffffff1681565b61016381610225565b82525050565b600061017482610209565b61017e8185610214565b935061018e818560208601610261565b610197816102f5565b840191505092915050565b6101ab81610257565b82525050565b60006020820190506101c6600083018461015a565b92915050565b600060208201905081810360008301526101e68184610169565b905092915050565b600060208201905061020360008301846101a2565b92915050565b600081519050919050565b600082825260208201905092915050565b600061023082610237565b9050919050565b600073ffffffffffffffffffffffffffffffffffffffff82169050919050565b6000819050919050565b60005b8381101561027f578082015181840152602081019050610264565b8381111561028e576000848401525b50505050565b600060028204905060018216806102ac57607f821691505b602082108114156102c0576102bf6102c6565b5b50919050565b7f4e487b7100000000000000000000000000000000000000000000000000000000600052602260045260246000fd5b6000601f19601f830116905091905056fea2646970667358221220866307ca0ca0c7533a8389ffdd698e8fa4223f5f27ac9be76e7e1934d3f1cb4764736f6c63430008040033a264697066735822122062539aaaf7dfd8e326bdd73521a5dd0703bb2970978558eb238f975939526d4964736f6c63430008040033",
			"opcodes": "PUSH1 0x80 PUSH1 0x40 MSTORE CALLVALUE DUP1 ISZERO PUSH2 0x10 JUMPI PUSH1 0x0 DUP1 REVERT JUMPDEST POP PUSH2 0xCD2 DUP1 PUSH2 0x20 PUSH1 0x0 CODECOPY PUSH1 0x0 RETURN INVALID PUSH1 0x80 PUSH1 0x40 MSTORE PUSH1 0x4 CALLDATASIZE LT PUSH3 0x2C JUMPI PUSH1 0x0 CALLDATALOAD PUSH1 0xE0 SHR DUP1 PUSH4 0x6D846ACA EQ PUSH3 0x31 JUMPI DUP1 PUSH4 0xF7746E36 EQ PUSH3 0x51 JUMPI JUMPDEST PUSH1 0x0 DUP1 REVERT JUMPDEST PUSH3 0x4F PUSH1 0x4 DUP1 CALLDATASIZE SUB DUP2 ADD SWAP1 PUSH3 0x49 SWAP2 SWAP1 PUSH3 0x261 JUMP JUMPDEST PUSH3 0x95 JUMP JUMPDEST STOP JUMPDEST CALLVALUE DUP1 ISZERO PUSH3 0x5E JUMPI PUSH1 0x0 DUP1 REVERT JUMPDEST POP PUSH3 0x7D PUSH1 0x4 DUP1 CALLDATASIZE SUB DUP2 ADD SWAP1 PUSH3 0x77 SWAP2 SWAP1 PUSH3 0x2A6 JUMP JUMPDEST PUSH3 0x18A JUMP JUMPDEST PUSH1 0x40 MLOAD PUSH3 0x8C SWAP2 SWAP1 PUSH3 0x35C JUMP JUMPDEST PUSH1 0x40 MLOAD DUP1 SWAP2 SUB SWAP1 RETURN JUMPDEST PUSH8 0xDE0B6B3A7640000 CALLVALUE GT PUSH3 0xE2 JUMPI PUSH1 0x40 MLOAD PUSH32 0x8C379A000000000000000000000000000000000000000000000000000000000 DUP2 MSTORE PUSH1 0x4 ADD PUSH3 0xD9 SWAP1 PUSH3 0x3AD JUMP JUMPDEST PUSH1 0x40 MLOAD DUP1 SWAP2 SUB SWAP1 REVERT JUMPDEST PUSH1 0x0 CALLVALUE DUP3 ADDRESS PUSH1 0x40 MLOAD PUSH3 0xF5 SWAP1 PUSH3 0x1CA JUMP JUMPDEST PUSH3 0x102 SWAP3 SWAP2 SWAP1 PUSH3 0x379 JUMP JUMPDEST PUSH1 0x40 MLOAD DUP1 SWAP2 SUB SWAP1 DUP3 CREATE SWAP1 POP DUP1 ISZERO DUP1 ISZERO PUSH3 0x120 JUMPI RETURNDATASIZE PUSH1 0x0 DUP1 RETURNDATACOPY RETURNDATASIZE PUSH1 0x0 REVERT JUMPDEST POP SWAP1 POP PUSH1 0x0 DUP2 SWAP1 DUP1 PUSH1 0x1 DUP2 SLOAD ADD DUP1 DUP3 SSTORE DUP1 SWAP2 POP POP PUSH1 0x1 SWAP1 SUB SWAP1 PUSH1 0x0 MSTORE PUSH1 0x20 PUSH1 0x0 KECCAK256 ADD PUSH1 0x0 SWAP1 SWAP2 SWAP1 SWAP2 SWAP1 SWAP2 PUSH2 0x100 EXP DUP2 SLOAD DUP2 PUSH20 0xFFFFFFFFFFFFFFFFFFFFFFFFFFFFFFFFFFFFFFFF MUL NOT AND SWAP1 DUP4 PUSH20 0xFFFFFFFFFFFFFFFFFFFFFFFFFFFFFFFFFFFFFFFF AND MUL OR SWAP1 SSTORE POP POP POP JUMP JUMPDEST PUSH1 0x0 DUP2 DUP2 SLOAD DUP2 LT PUSH3 0x19B JUMPI PUSH1 0x0 DUP1 REVERT JUMPDEST SWAP1 PUSH1 0x0 MSTORE PUSH1 0x20 PUSH1 0x0 KECCAK256 ADD PUSH1 0x0 SWAP2 POP SLOAD SWAP1 PUSH2 0x100 EXP SWAP1 DIV PUSH20 0xFFFFFFFFFFFFFFFFFFFFFFFFFFFFFFFFFFFFFFFF AND DUP2 JUMP JUMPDEST PUSH2 0x6EE DUP1 PUSH3 0x5AF DUP4 CODECOPY ADD SWAP1 JUMP JUMPDEST PUSH1 0x0 PUSH3 0x1EF PUSH3 0x1E9 DUP5 PUSH3 0x3F8 JUMP JUMPDEST PUSH3 0x3CF JUMP JUMPDEST SWAP1 POP DUP3 DUP2 MSTORE PUSH1 0x20 DUP2 ADD DUP5 DUP5 DUP5 ADD GT ISZERO PUSH3 0x208 JUMPI PUSH1 0x0 DUP1 REVERT JUMPDEST PUSH3 0x215 DUP5 DUP3 DUP6 PUSH3 0x4B0 JUMP JUMPDEST POP SWAP4 SWAP3 POP POP POP JUMP JUMPDEST PUSH1 0x0 DUP3 PUSH1 0x1F DUP4 ADD SLT PUSH3 0x22F JUMPI PUSH1 0x0 DUP1 REVERT JUMPDEST DUP2 CALLDATALOAD PUSH3 0x241 DUP5 DUP3 PUSH1 0x20 DUP7 ADD PUSH3 0x1D8 JUMP JUMPDEST SWAP2 POP POP SWAP3 SWAP2 POP POP JUMP JUMPDEST PUSH1 0x0 DUP2 CALLDATALOAD SWAP1 POP PUSH3 0x25B DUP2 PUSH3 0x594 JUMP JUMPDEST SWAP3 SWAP2 POP POP JUMP JUMPDEST PUSH1 0x0 PUSH1 0x20 DUP3 DUP5 SUB SLT ISZERO PUSH3 0x274 JUMPI PUSH1 0x0 DUP1 REVERT JUMPDEST PUSH1 0x0 DUP3 ADD CALLDATALOAD PUSH8 0xFFFFFFFFFFFFFFFF DUP2 GT ISZERO PUSH3 0x28F JUMPI PUSH1 0x0 DUP1 REVERT JUMPDEST PUSH3 0x29D DUP5 DUP3 DUP6 ADD PUSH3 0x21D JUMP JUMPDEST SWAP2 POP POP SWAP3 SWAP2 POP POP JUMP JUMPDEST PUSH1 0x0 PUSH1 0x20 DUP3 DUP5 SUB SLT ISZERO PUSH3 0x2B9 JUMPI PUSH1 0x0 DUP1 REVERT JUMPDEST PUSH1 0x0 PUSH3 0x2C9 DUP5 DUP3 DUP6 ADD PUSH3 0x24A JUMP JUMPDEST SWAP2 POP POP SWAP3 SWAP2 POP POP JUMP JUMPDEST PUSH3 0x2DD DUP2 PUSH3 0x44A JUMP JUMPDEST DUP3 MSTORE POP POP JUMP JUMPDEST PUSH3 0x2EE DUP2 PUSH3 0x488 JUMP JUMPDEST DUP3 MSTORE POP POP JUMP JUMPDEST PUSH1 0x0 PUSH3 0x301 DUP3 PUSH3 0x42E JUMP JUMPDEST PUSH3 0x30D DUP2 DUP6 PUSH3 0x439 JUMP JUMPDEST SWAP4 POP PUSH3 0x31F DUP2 DUP6 PUSH1 0x20 DUP7 ADD PUSH3 0x4BF JUMP JUMPDEST PUSH3 0x32A DUP2 PUSH3 0x55A JUMP JUMPDEST DUP5 ADD SWAP2 POP POP SWAP3 SWAP2 POP POP JUMP JUMPDEST PUSH1 0x0 PUSH3 0x344 PUSH1 0x11 DUP4 PUSH3 0x439 JUMP JUMPDEST SWAP2 POP PUSH3 0x351 DUP3 PUSH3 0x56B JUMP JUMPDEST PUSH1 0x20 DUP3 ADD SWAP1 POP SWAP2 SWAP1 POP JUMP JUMPDEST PUSH1 0x0 PUSH1 0x20 DUP3 ADD SWAP1 POP PUSH3 0x373 PUSH1 0x0 DUP4 ADD DUP5 PUSH3 0x2E3 JUMP JUMPDEST SWAP3 SWAP2 POP POP JUMP JUMPDEST PUSH1 0x0 PUSH1 0x40 DUP3 ADD SWAP1 POP DUP2 DUP2 SUB PUSH1 0x0 DUP4 ADD MSTORE PUSH3 0x395 DUP2 DUP6 PUSH3 0x2F4 JUMP JUMPDEST SWAP1 POP PUSH3 0x3A6 PUSH1 0x20 DUP4 ADD DUP5 PUSH3 0x2D2 JUMP JUMPDEST SWAP4 SWAP3 POP POP POP JUMP JUMPDEST PUSH1 0x0 PUSH1 0x20 DUP3 ADD SWAP1 POP DUP2 DUP2 SUB PUSH1 0x0 DUP4 ADD MSTORE PUSH3 0x3C8 DUP2 PUSH3 0x335 JUMP JUMPDEST SWAP1 POP SWAP2 SWAP1 POP JUMP JUMPDEST PUSH1 0x0 PUSH3 0x3DB PUSH3 0x3EE JUMP JUMPDEST SWAP1 POP PUSH3 0x3E9 DUP3 DUP3 PUSH3 0x4F5 JUMP JUMPDEST SWAP2 SWAP1 POP JUMP JUMPDEST PUSH1 0x0 PUSH1 0x40 MLOAD SWAP1 POP SWAP1 JUMP JUMPDEST PUSH1 0x0 PUSH8 0xFFFFFFFFFFFFFFFF DUP3 GT ISZERO PUSH3 0x416 JUMPI PUSH3 0x415 PUSH3 0x52B JUMP JUMPDEST JUMPDEST PUSH3 0x421 DUP3 PUSH3 0x55A JUMP JUMPDEST SWAP1 POP PUSH1 0x20 DUP2 ADD SWAP1 POP SWAP2 SWAP1 POP JUMP JUMPDEST PUSH1 0x0 DUP2 MLOAD SWAP1 POP SWAP2 SWAP1 POP JUMP JUMPDEST PUSH1 0x0 DUP3 DUP3 MSTORE PUSH1 0x20 DUP3 ADD SWAP1 POP SWAP3 SWAP2 POP POP JUMP JUMPDEST PUSH1 0x0 PUSH3 0x457 DUP3 PUSH3 0x45E JUMP JUMPDEST SWAP1 POP SWAP2 SWAP1 POP JUMP JUMPDEST PUSH1 0x0 PUSH20 0xFFFFFFFFFFFFFFFFFFFFFFFFFFFFFFFFFFFFFFFF DUP3 AND SWAP1 POP SWAP2 SWAP1 POP JUMP JUMPDEST PUSH1 0x0 DUP2 SWAP1 POP SWAP2 SWAP1 POP JUMP JUMPDEST PUSH1 0x0 PUSH3 0x495 DUP3 PUSH3 0x49C JUMP JUMPDEST SWAP1 POP SWAP2 SWAP1 POP JUMP JUMPDEST PUSH1 0x0 PUSH3 0x4A9 DUP3 PUSH3 0x45E JUMP JUMPDEST SWAP1 POP SWAP2 SWAP1 POP JUMP JUMPDEST DUP3 DUP2 DUP4 CALLDATACOPY PUSH1 0x0 DUP4 DUP4 ADD MSTORE POP POP POP JUMP JUMPDEST PUSH1 0x0 JUMPDEST DUP4 DUP2 LT ISZERO PUSH3 0x4DF JUMPI DUP1 DUP3 ADD MLOAD DUP2 DUP5 ADD MSTORE PUSH1 0x20 DUP2 ADD SWAP1 POP PUSH3 0x4C2 JUMP JUMPDEST DUP4 DUP2 GT ISZERO PUSH3 0x4EF JUMPI PUSH1 0x0 DUP5 DUP5 ADD MSTORE JUMPDEST POP POP POP POP JUMP JUMPDEST PUSH3 0x500 DUP3 PUSH3 0x55A JUMP JUMPDEST DUP2 ADD DUP2 DUP2 LT PUSH8 0xFFFFFFFFFFFFFFFF DUP3 GT OR ISZERO PUSH3 0x522 JUMPI PUSH3 0x521 PUSH3 0x52B JUMP JUMPDEST JUMPDEST DUP1 PUSH1 0x40 MSTORE POP POP POP JUMP JUMPDEST PUSH32 0x4E487B7100000000000000000000000000000000000000000000000000000000 PUSH1 0x0 MSTORE PUSH1 0x41 PUSH1 0x4 MSTORE PUSH1 0x24 PUSH1 0x0 REVERT JUMPDEST PUSH1 0x0 PUSH1 0x1F NOT PUSH1 0x1F DUP4 ADD AND SWAP1 POP SWAP2 SWAP1 POP JUMP JUMPDEST PUSH32 0x6E6F7420656E6F756768206D6F6E657279000000000000000000000000000000 PUSH1 0x0 DUP3 ADD MSTORE POP JUMP JUMPDEST PUSH3 0x59F DUP2 PUSH3 0x47E JUMP JUMPDEST DUP2 EQ PUSH3 0x5AB JUMPI PUSH1 0x0 DUP1 REVERT JUMPDEST POP JUMP INVALID PUSH1 0x80 PUSH1 0x40 MSTORE PUSH1 0x40 MLOAD PUSH2 0x6EE CODESIZE SUB DUP1 PUSH2 0x6EE DUP4 CODECOPY DUP2 DUP2 ADD PUSH1 0x40 MSTORE DUP2 ADD SWAP1 PUSH2 0x25 SWAP2 SWAP1 PUSH2 0x1AB JUMP JUMPDEST DUP2 PUSH1 0x0 SWAP1 DUP1 MLOAD SWAP1 PUSH1 0x20 ADD SWAP1 PUSH2 0x3B SWAP3 SWAP2 SWAP1 PUSH2 0x8B JUMP JUMPDEST POP DUP1 PUSH1 0x1 PUSH1 0x0 PUSH2 0x100 EXP DUP2 SLOAD DUP2 PUSH20 0xFFFFFFFFFFFFFFFFFFFFFFFFFFFFFFFFFFFFFFFF MUL NOT AND SWAP1 DUP4 PUSH20 0xFFFFFFFFFFFFFFFFFFFFFFFFFFFFFFFFFFFFFFFF AND MUL OR SWAP1 SSTORE POP CALLVALUE PUSH1 0x2 DUP2 SWAP1 SSTORE POP POP POP PUSH2 0x3A3 JUMP JUMPDEST DUP3 DUP1 SLOAD PUSH2 0x97 SWAP1 PUSH2 0x2BA JUMP JUMPDEST SWAP1 PUSH1 0x0 MSTORE PUSH1 0x20 PUSH1 0x0 KECCAK256 SWAP1 PUSH1 0x1F ADD PUSH1 0x20 SWAP1 DIV DUP2 ADD SWAP3 DUP3 PUSH2 0xB9 JUMPI PUSH1 0x0 DUP6 SSTORE PUSH2 0x100 JUMP JUMPDEST DUP3 PUSH1 0x1F LT PUSH2 0xD2 JUMPI DUP1 MLOAD PUSH1 0xFF NOT AND DUP4 DUP1 ADD OR DUP6 SSTORE PUSH2 0x100 JUMP JUMPDEST DUP3 DUP1 ADD PUSH1 0x1 ADD DUP6 SSTORE DUP3 ISZERO PUSH2 0x100 JUMPI SWAP2 DUP3 ADD JUMPDEST DUP3 DUP2 GT ISZERO PUSH2 0xFF JUMPI DUP3 MLOAD DUP3 SSTORE SWAP2 PUSH1 0x20 ADD SWAP2 SWAP1 PUSH1 0x1 ADD SWAP1 PUSH2 0xE4 JUMP JUMPDEST JUMPDEST POP SWAP1 POP PUSH2 0x10D SWAP2 SWAP1 PUSH2 0x111 JUMP JUMPDEST POP SWAP1 JUMP JUMPDEST JUMPDEST DUP1 DUP3 GT ISZERO PUSH2 0x12A JUMPI PUSH1 0x0 DUP2 PUSH1 0x0 SWAP1 SSTORE POP PUSH1 0x1 ADD PUSH2 0x112 JUMP JUMPDEST POP SWAP1 JUMP JUMPDEST PUSH1 0x0 PUSH2 0x141 PUSH2 0x13C DUP5 PUSH2 0x224 JUMP JUMPDEST PUSH2 0x1FF JUMP JUMPDEST SWAP1 POP DUP3 DUP2 MSTORE PUSH1 0x20 DUP2 ADD DUP5 DUP5 DUP5 ADD GT ISZERO PUSH2 0x159 JUMPI PUSH1 0x0 DUP1 REVERT JUMPDEST PUSH2 0x164 DUP5 DUP3 DUP6 PUSH2 0x287 JUMP JUMPDEST POP SWAP4 SWAP3 POP POP POP JUMP JUMPDEST PUSH1 0x0 DUP2 MLOAD SWAP1 POP PUSH2 0x17B DUP2 PUSH2 0x38C JUMP JUMPDEST SWAP3 SWAP2 POP POP JUMP JUMPDEST PUSH1 0x0 DUP3 PUSH1 0x1F DUP4 ADD SLT PUSH2 0x192 JUMPI PUSH1 0x0 DUP1 REVERT JUMPDEST DUP2 MLOAD PUSH2 0x1A2 DUP5 DUP3 PUSH1 0x20 DUP7 ADD PUSH2 0x12E JUMP JUMPDEST SWAP2 POP POP SWAP3 SWAP2 POP POP JUMP JUMPDEST PUSH1 0x0 DUP1 PUSH1 0x40 DUP4 DUP6 SUB SLT ISZERO PUSH2 0x1BE JUMPI PUSH1 0x0 DUP1 REVERT JUMPDEST PUSH1 0x0 DUP4 ADD MLOAD PUSH8 0xFFFFFFFFFFFFFFFF DUP2 GT ISZERO PUSH2 0x1D8 JUMPI PUSH1 0x0 DUP1 REVERT JUMPDEST PUSH2 0x1E4 DUP6 DUP3 DUP7 ADD PUSH2 0x181 JUMP JUMPDEST SWAP3 POP POP PUSH1 0x20 PUSH2 0x1F5 DUP6 DUP3 DUP7 ADD PUSH2 0x16C JUMP JUMPDEST SWAP2 POP POP SWAP3 POP SWAP3 SWAP1 POP JUMP JUMPDEST PUSH1 0x0 PUSH2 0x209 PUSH2 0x21A JUMP JUMPDEST SWAP1 POP PUSH2 0x215 DUP3 DUP3 PUSH2 0x2EC JUMP JUMPDEST SWAP2 SWAP1 POP JUMP JUMPDEST PUSH1 0x0 PUSH1 0x40 MLOAD SWAP1 POP SWAP1 JUMP JUMPDEST PUSH1 0x0 PUSH8 0xFFFFFFFFFFFFFFFF DUP3 GT ISZERO PUSH2 0x23F JUMPI PUSH2 0x23E PUSH2 0x34C JUMP JUMPDEST JUMPDEST PUSH2 0x248 DUP3 PUSH2 0x37B JUMP JUMPDEST SWAP1 POP PUSH1 0x20 DUP2 ADD SWAP1 POP SWAP2 SWAP1 POP JUMP JUMPDEST PUSH1 0x0 PUSH2 0x260 DUP3 PUSH2 0x267 JUMP JUMPDEST SWAP1 POP SWAP2 SWAP1 POP JUMP JUMPDEST PUSH1 0x0 PUSH20 0xFFFFFFFFFFFFFFFFFFFFFFFFFFFFFFFFFFFFFFFF DUP3 AND SWAP1 POP SWAP2 SWAP1 POP JUMP JUMPDEST PUSH1 0x0 JUMPDEST DUP4 DUP2 LT ISZERO PUSH2 0x2A5 JUMPI DUP1 DUP3 ADD MLOAD DUP2 DUP5 ADD MSTORE PUSH1 0x20 DUP2 ADD SWAP1 POP PUSH2 0x28A JUMP JUMPDEST DUP4 DUP2 GT ISZERO PUSH2 0x2B4 JUMPI PUSH1 0x0 DUP5 DUP5 ADD MSTORE JUMPDEST POP POP POP POP JUMP JUMPDEST PUSH1 0x0 PUSH1 0x2 DUP3 DIV SWAP1 POP PUSH1 0x1 DUP3 AND DUP1 PUSH2 0x2D2 JUMPI PUSH1 0x7F DUP3 AND SWAP2 POP JUMPDEST PUSH1 0x20 DUP3 LT DUP2 EQ ISZERO PUSH2 0x2E6 JUMPI PUSH2 0x2E5 PUSH2 0x31D JUMP JUMPDEST JUMPDEST POP SWAP2 SWAP1 POP JUMP JUMPDEST PUSH2 0x2F5 DUP3 PUSH2 0x37B JUMP JUMPDEST DUP2 ADD DUP2 DUP2 LT PUSH8 0xFFFFFFFFFFFFFFFF DUP3 GT OR ISZERO PUSH2 0x314 JUMPI PUSH2 0x313 PUSH2 0x34C JUMP JUMPDEST JUMPDEST DUP1 PUSH1 0x40 MSTORE POP POP POP JUMP JUMPDEST PUSH32 0x4E487B7100000000000000000000000000000000000000000000000000000000 PUSH1 0x0 MSTORE PUSH1 0x22 PUSH1 0x4 MSTORE PUSH1 0x24 PUSH1 0x0 REVERT JUMPDEST PUSH32 0x4E487B7100000000000000000000000000000000000000000000000000000000 PUSH1 0x0 MSTORE PUSH1 0x41 PUSH1 0x4 MSTORE PUSH1 0x24 PUSH1 0x0 REVERT JUMPDEST PUSH1 0x0 PUSH1 0x1F NOT PUSH1 0x1F DUP4 ADD AND SWAP1 POP SWAP2 SWAP1 POP JUMP JUMPDEST PUSH2 0x395 DUP2 PUSH2 0x255 JUMP JUMPDEST DUP2 EQ PUSH2 0x3A0 JUMPI PUSH1 0x0 DUP1 REVERT JUMPDEST POP JUMP JUMPDEST PUSH2 0x33C DUP1 PUSH2 0x3B2 PUSH1 0x0 CODECOPY PUSH1 0x0 RETURN INVALID PUSH1 0x80 PUSH1 0x40 MSTORE CALLVALUE DUP1 ISZERO PUSH2 0x10 JUMPI PUSH1 0x0 DUP1 REVERT JUMPDEST POP PUSH1 0x4 CALLDATASIZE LT PUSH2 0x41 JUMPI PUSH1 0x0 CALLDATALOAD PUSH1 0xE0 SHR DUP1 PUSH4 0xAD9D052 EQ PUSH2 0x46 JUMPI DUP1 PUSH4 0x13FAEDE6 EQ PUSH2 0x64 JUMPI DUP1 PUSH4 0x8DA5CB5B EQ PUSH2 0x82 JUMPI JUMPDEST PUSH1 0x0 DUP1 REVERT JUMPDEST PUSH2 0x4E PUSH2 0xA0 JUMP JUMPDEST PUSH1 0x40 MLOAD PUSH2 0x5B SWAP2 SWAP1 PUSH2 0x1CC JUMP JUMPDEST PUSH1 0x40 MLOAD DUP1 SWAP2 SUB SWAP1 RETURN JUMPDEST PUSH2 0x6C PUSH2 0x12E JUMP JUMPDEST PUSH1 0x40 MLOAD PUSH2 0x79 SWAP2 SWAP1 PUSH2 0x1EE JUMP JUMPDEST PUSH1 0x40 MLOAD DUP1 SWAP2 SUB SWAP1 RETURN JUMPDEST PUSH2 0x8A PUSH2 0x134 JUMP JUMPDEST PUSH1 0x40 MLOAD PUSH2 0x97 SWAP2 SWAP1 PUSH2 0x1B1 JUMP JUMPDEST PUSH1 0x40 MLOAD DUP1 SWAP2 SUB SWAP1 RETURN JUMPDEST PUSH1 0x0 DUP1 SLOAD PUSH2 0xAD SWAP1 PUSH2 0x294 JUMP JUMPDEST DUP1 PUSH1 0x1F ADD PUSH1 0x20 DUP1 SWAP2 DIV MUL PUSH1 0x20 ADD PUSH1 0x40 MLOAD SWAP1 DUP2 ADD PUSH1 0x40 MSTORE DUP1 SWAP3 SWAP2 SWAP1 DUP2 DUP2 MSTORE PUSH1 0x20 ADD DUP3 DUP1 SLOAD PUSH2 0xD9 SWAP1 PUSH2 0x294 JUMP JUMPDEST DUP1 ISZERO PUSH2 0x126 JUMPI DUP1 PUSH1 0x1F LT PUSH2 0xFB JUMPI PUSH2 0x100 DUP1 DUP4 SLOAD DIV MUL DUP4 MSTORE SWAP2 PUSH1 0x20 ADD SWAP2 PUSH2 0x126 JUMP JUMPDEST DUP3 ADD SWAP2 SWAP1 PUSH1 0x0 MSTORE PUSH1 0x20 PUSH1 0x0 KECCAK256 SWAP1 JUMPDEST DUP2 SLOAD DUP2 MSTORE SWAP1 PUSH1 0x1 ADD SWAP1 PUSH1 0x20 ADD DUP1 DUP4 GT PUSH2 0x109 JUMPI DUP3 SWAP1 SUB PUSH1 0x1F AND DUP3 ADD SWAP2 JUMPDEST POP POP POP POP POP DUP2 JUMP JUMPDEST PUSH1 0x2 SLOAD DUP2 JUMP JUMPDEST PUSH1 0x1 PUSH1 0x0 SWAP1 SLOAD SWAP1 PUSH2 0x100 EXP SWAP1 DIV PUSH20 0xFFFFFFFFFFFFFFFFFFFFFFFFFFFFFFFFFFFFFFFF AND DUP2 JUMP JUMPDEST PUSH2 0x163 DUP2 PUSH2 0x225 JUMP JUMPDEST DUP3 MSTORE POP POP JUMP JUMPDEST PUSH1 0x0 PUSH2 0x174 DUP3 PUSH2 0x209 JUMP JUMPDEST PUSH2 0x17E DUP2 DUP6 PUSH2 0x214 JUMP JUMPDEST SWAP4 POP PUSH2 0x18E DUP2 DUP6 PUSH1 0x20 DUP7 ADD PUSH2 0x261 JUMP JUMPDEST PUSH2 0x197 DUP2 PUSH2 0x2F5 JUMP JUMPDEST DUP5 ADD SWAP2 POP POP SWAP3 SWAP2 POP POP JUMP JUMPDEST PUSH2 0x1AB DUP2 PUSH2 0x257 JUMP JUMPDEST DUP3 MSTORE POP POP JUMP JUMPDEST PUSH1 0x0 PUSH1 0x20 DUP3 ADD SWAP1 POP PUSH2 0x1C6 PUSH1 0x0 DUP4 ADD DUP5 PUSH2 0x15A JUMP JUMPDEST SWAP3 SWAP2 POP POP JUMP JUMPDEST PUSH1 0x0 PUSH1 0x20 DUP3 ADD SWAP1 POP DUP2 DUP2 SUB PUSH1 0x0 DUP4 ADD MSTORE PUSH2 0x1E6 DUP2 DUP5 PUSH2 0x169 JUMP JUMPDEST SWAP1 POP SWAP3 SWAP2 POP POP JUMP JUMPDEST PUSH1 0x0 PUSH1 0x20 DUP3 ADD SWAP1 POP PUSH2 0x203 PUSH1 0x0 DUP4 ADD DUP5 PUSH2 0x1A2 JUMP JUMPDEST SWAP3 SWAP2 POP POP JUMP JUMPDEST PUSH1 0x0 DUP2 MLOAD SWAP1 POP SWAP2 SWAP1 POP JUMP JUMPDEST PUSH1 0x0 DUP3 DUP3 MSTORE PUSH1 0x20 DUP3 ADD SWAP1 POP SWAP3 SWAP2 POP POP JUMP JUMPDEST PUSH1 0x0 PUSH2 0x230 DUP3 PUSH2 0x237 JUMP JUMPDEST SWAP1 POP SWAP2 SWAP1 POP JUMP JUMPDEST PUSH1 0x0 PUSH20 0xFFFFFFFFFFFFFFFFFFFFFFFFFFFFFFFFFFFFFFFF DUP3 AND SWAP1 POP SWAP2 SWAP1 POP JUMP JUMPDEST PUSH1 0x0 DUP2 SWAP1 POP SWAP2 SWAP1 POP JUMP JUMPDEST PUSH1 0x0 JUMPDEST DUP4 DUP2 LT ISZERO PUSH2 0x27F JUMPI DUP1 DUP3 ADD MLOAD DUP2 DUP5 ADD MSTORE PUSH1 0x20 DUP2 ADD SWAP1 POP PUSH2 0x264 JUMP JUMPDEST DUP4 DUP2 GT ISZERO PUSH2 0x28E JUMPI PUSH1 0x0 DUP5 DUP5 ADD MSTORE JUMPDEST POP POP POP POP JUMP JUMPDEST PUSH1 0x0 PUSH1 0x2 DUP3 DIV SWAP1 POP PUSH1 0x1 DUP3 AND DUP1 PUSH2 0x2AC JUMPI PUSH1 0x7F DUP3 AND SWAP2 POP JUMPDEST PUSH1 0x20 DUP3 LT DUP2 EQ ISZERO PUSH2 0x2C0 JUMPI PUSH2 0x2BF PUSH2 0x2C6 JUMP JUMPDEST JUMPDEST POP SWAP2 SWAP1 POP JUMP JUMPDEST PUSH32 0x4E487B7100000000000000000000000000000000000000000000000000000000 PUSH1 0x0 MSTORE PUSH1 0x22 PUSH1 0x4 MSTORE PUSH1 0x24 PUSH1 0x0 REVERT JUMPDEST PUSH1 0x0 PUSH1 0x1F NOT PUSH1 0x1F DUP4 ADD AND SWAP1 POP SWAP2 SWAP1 POP JUMP INVALID LOG2 PUSH5 0x6970667358 0x22 SLT KECCAK256 DUP7 PUSH4 0x7CA0CA0 0xC7 MSTORE8 GASPRICE DUP4 DUP10 SELFDESTRUCT 0xDD PUSH10 0x8E8FA4223F5F27AC9BE7 PUSH15 0x7E1934D3F1CB4764736F6C63430008 DIV STOP CALLER LOG2 PUSH5 0x6970667358 0x22 SLT KECCAK256 PUSH3 0x539AAA 0xF7 0xDF 0xD8 0xE3 0x26 0xBD 0xD7 CALLDATALOAD 0x21 0xA5 0xDD SMOD SUB 0xBB 0x29 PUSH17 0x978558EB238F975939526D4964736F6C63 NUMBER STOP ADDMOD DIV STOP CALLER "
		},
		"gasEstimates": {
			"creation": {
				"codeDepositCost": "656400",
				"executionCost": "689",
				"totalCost": "657089"
			},
			"external": {
				"cars(uint256)": "2399",
				"memoryWithMoney(string)": "infinite"
			}
		},
		"methodIdentifiers": {
			"cars(uint256)": "f7746e36",
			"memoryWithMoney(string)": "6d846aca"
		}
	},
	"abi": [
		{
			"inputs": [
				{
					"internalType": "uint256",
					"name": "",
					"type": "uint256"
				}
			],
			"name": "cars",
			"outputs": [
				{
					"internalType": "contract Car",
					"name": "",
					"type": "address"
				}
			],
			"stateMutability": "view",
			"type": "function"
		},
		{
			"inputs": [
				{
					"internalType": "string",
					"name": "_model",
					"type": "string"
				}
			],
			"name": "memoryWithMoney",
			"outputs": [],
			"stateMutability": "payable",
			"type": "function"
		}
	]
}