{
	"data": {
		"bytecode": {
			"linkReferences": {},
			"object": "608060405234801561001057600080fd5b5061073f806100206000396000f3fe608060405234801561001057600080fd5b506004361061007d5760003560e01c80632d96fd461161005b5780632d96fd46146100fe5780638e20a9dd1461011a578063c64a4bad14610136578063d43b8e05146101545761007d565b8063063b3810146100825780630efed18b146100b257806317d9500e146100ce575b600080fd5b61009c60048036038101906100979190610420565b610170565b6040516100a9919061058f565b60405180910390f35b6100cc60048036038101906100c7919061044d565b61019a565b005b6100e860048036038101906100e39190610420565b61027d565b6040516100f5919061058f565b60405180910390f35b61011860048036038101906101139190610420565b61029d565b005b610134600480360381019061012f91906103f3565b6102c3565b005b61013e6102df565b60405161014b9190610514565b60405180910390f35b61016e6004803603810190610169919061044d565b6102f0565b005b60006001600083815260200190815260200160002060009054906101000a900460ff169050919050565b60008054906101000a900460ff166101e7576040517f08c379a00000000000000000000000000000000000000000000000000000000081526004016101de9061054f565b60405180910390fd5b6000816001600085815260200190815260200160002060008282829054906101000a900460ff1661021891906105bb565b92506101000a81548160ff021916908360ff1602179055905060648160ff161115610278576040517f08c379a000000000000000000000000000000000000000000000000000000000815260040161026f9061052f565b60405180910390fd5b505050565b60016020528060005260406000206000915054906101000a900460ff1681565b6001600082815260200190815260200160002060006101000a81549060ff021916905550565b806000806101000a81548160ff02191690831515021790555050565b60008054906101000a900460ff1681565b60008054906101000a900460ff1661033d576040517f08c379a00000000000000000000000000000000000000000000000000000000081526004016103349061054f565b60405180910390fd5b60648160ff161115610384576040517f08c379a000000000000000000000000000000000000000000000000000000000815260040161037b9061056f565b60405180910390fd5b806001600084815260200190815260200160002060006101000a81548160ff021916908360ff1602179055505050565b6000813590506103c3816106c4565b92915050565b6000813590506103d8816106db565b92915050565b6000813590506103ed816106f2565b92915050565b60006020828403121561040957610408610644565b5b6000610417848285016103b4565b91505092915050565b60006020828403121561043657610435610644565b5b6000610444848285016103c9565b91505092915050565b6000806040838503121561046457610463610644565b5b6000610472858286016103c9565b9250506020610483858286016103de565b9150509250929050565b610496816105f2565b82525050565b60006104a96017836105aa565b91506104b482610649565b602082019050919050565b60006104cc6013836105aa565b91506104d782610672565b602082019050919050565b60006104ef6010836105aa565b91506104fa8261069b565b602082019050919050565b61050e81610608565b82525050565b6000602082019050610529600083018461048d565b92915050565b600060208201905081810360008301526105488161049c565b9050919050565b60006020820190508181036000830152610568816104bf565b9050919050565b60006020820190508181036000830152610588816104e2565b9050919050565b60006020820190506105a46000830184610505565b92915050565b600082825260208201905092915050565b60006105c682610608565b91506105d183610608565b92508260ff038211156105e7576105e6610615565b5b828201905092915050565b60008115159050919050565b6000819050919050565b600060ff82169050919050565b7f4e487b7100000000000000000000000000000000000000000000000000000000600052601160045260246000fd5b600080fd5b7f53636f72652063616e6e6f742065786365656420313030000000000000000000600082015250565b7f796f7520617265206e6f74207465616368657200000000000000000000000000600082015250565b7f6d61782073636f72652069732031303000000000000000000000000000000000600082015250565b6106cd816105f2565b81146106d857600080fd5b50565b6106e4816105fe565b81146106ef57600080fd5b50565b6106fb81610608565b811461070657600080fd5b5056fea2646970667358221220b29d8a5e4c5157802db26c4bb5e5acd85c1542727f69fa271c6fdd9708579f2f64736f6c63430008070033",
			"opcodes": "PUSH1 0x80 PUSH1 0x40 MSTORE CALLVALUE DUP1 ISZERO PUSH2 0x10 JUMPI PUSH1 0x0 DUP1 REVERT JUMPDEST POP PUSH2 0x73F DUP1 PUSH2 0x20 PUSH1 0x0 CODECOPY PUSH1 0x0 RETURN INVALID PUSH1 0x80 PUSH1 0x40 MSTORE CALLVALUE DUP1 ISZERO PUSH2 0x10 JUMPI PUSH1 0x0 DUP1 REVERT JUMPDEST POP PUSH1 0x4 CALLDATASIZE LT PUSH2 0x7D JUMPI PUSH1 0x0 CALLDATALOAD PUSH1 0xE0 SHR DUP1 PUSH4 0x2D96FD46 GT PUSH2 0x5B JUMPI DUP1 PUSH4 0x2D96FD46 EQ PUSH2 0xFE JUMPI DUP1 PUSH4 0x8E20A9DD EQ PUSH2 0x11A JUMPI DUP1 PUSH4 0xC64A4BAD EQ PUSH2 0x136 JUMPI DUP1 PUSH4 0xD43B8E05 EQ PUSH2 0x154 JUMPI PUSH2 0x7D JUMP JUMPDEST DUP1 PUSH4 0x63B3810 EQ PUSH2 0x82 JUMPI DUP1 PUSH4 0xEFED18B EQ PUSH2 0xB2 JUMPI DUP1 PUSH4 0x17D9500E EQ PUSH2 0xCE JUMPI JUMPDEST PUSH1 0x0 DUP1 REVERT JUMPDEST PUSH2 0x9C PUSH1 0x4 DUP1 CALLDATASIZE SUB DUP2 ADD SWAP1 PUSH2 0x97 SWAP2 SWAP1 PUSH2 0x420 JUMP JUMPDEST PUSH2 0x170 JUMP JUMPDEST PUSH1 0x40 MLOAD PUSH2 0xA9 SWAP2 SWAP1 PUSH2 0x58F JUMP JUMPDEST PUSH1 0x40 MLOAD DUP1 SWAP2 SUB SWAP1 RETURN JUMPDEST PUSH2 0xCC PUSH1 0x4 DUP1 CALLDATASIZE SUB DUP2 ADD SWAP1 PUSH2 0xC7 SWAP2 SWAP1 PUSH2 0x44D JUMP JUMPDEST PUSH2 0x19A JUMP JUMPDEST STOP JUMPDEST PUSH2 0xE8 PUSH1 0x4 DUP1 CALLDATASIZE SUB DUP2 ADD SWAP1 PUSH2 0xE3 SWAP2 SWAP1 PUSH2 0x420 JUMP JUMPDEST PUSH2 0x27D JUMP JUMPDEST PUSH1 0x40 MLOAD PUSH2 0xF5 SWAP2 SWAP1 PUSH2 0x58F JUMP JUMPDEST PUSH1 0x40 MLOAD DUP1 SWAP2 SUB SWAP1 RETURN JUMPDEST PUSH2 0x118 PUSH1 0x4 DUP1 CALLDATASIZE SUB DUP2 ADD SWAP1 PUSH2 0x113 SWAP2 SWAP1 PUSH2 0x420 JUMP JUMPDEST PUSH2 0x29D JUMP JUMPDEST STOP JUMPDEST PUSH2 0x134 PUSH1 0x4 DUP1 CALLDATASIZE SUB DUP2 ADD SWAP1 PUSH2 0x12F SWAP2 SWAP1 PUSH2 0x3F3 JUMP JUMPDEST PUSH2 0x2C3 JUMP JUMPDEST STOP JUMPDEST PUSH2 0x13E PUSH2 0x2DF JUMP JUMPDEST PUSH1 0x40 MLOAD PUSH2 0x14B SWAP2 SWAP1 PUSH2 0x514 JUMP JUMPDEST PUSH1 0x40 MLOAD DUP1 SWAP2 SUB SWAP1 RETURN JUMPDEST PUSH2 0x16E PUSH1 0x4 DUP1 CALLDATASIZE SUB DUP2 ADD SWAP1 PUSH2 0x169 SWAP2 SWAP1 PUSH2 0x44D JUMP JUMPDEST PUSH2 0x2F0 JUMP JUMPDEST STOP JUMPDEST PUSH1 0x0 PUSH1 0x1 PUSH1 0x0 DUP4 DUP2 MSTORE PUSH1 0x20 ADD SWAP1 DUP2 MSTORE PUSH1 0x20 ADD PUSH1 0x0 KECCAK256 PUSH1 0x0 SWAP1 SLOAD SWAP1 PUSH2 0x100 EXP SWAP1 DIV PUSH1 0xFF AND SWAP1 POP SWAP2 SWAP1 POP JUMP JUMPDEST PUSH1 0x0 DUP1 SLOAD SWAP1 PUSH2 0x100 EXP SWAP1 DIV PUSH1 0xFF AND PUSH2 0x1E7 JUMPI PUSH1 0x40 MLOAD PUSH32 0x8C379A000000000000000000000000000000000000000000000000000000000 DUP2 MSTORE PUSH1 0x4 ADD PUSH2 0x1DE SWAP1 PUSH2 0x54F JUMP JUMPDEST PUSH1 0x40 MLOAD DUP1 SWAP2 SUB SWAP1 REVERT JUMPDEST PUSH1 0x0 DUP2 PUSH1 0x1 PUSH1 0x0 DUP6 DUP2 MSTORE PUSH1 0x20 ADD SWAP1 DUP2 MSTORE PUSH1 0x20 ADD PUSH1 0x0 KECCAK256 PUSH1 0x0 DUP3 DUP3 DUP3 SWAP1 SLOAD SWAP1 PUSH2 0x100 EXP SWAP1 DIV PUSH1 0xFF AND PUSH2 0x218 SWAP2 SWAP1 PUSH2 0x5BB JUMP JUMPDEST SWAP3 POP PUSH2 0x100 EXP DUP2 SLOAD DUP2 PUSH1 0xFF MUL NOT AND SWAP1 DUP4 PUSH1 0xFF AND MUL OR SWAP1 SSTORE SWAP1 POP PUSH1 0x64 DUP2 PUSH1 0xFF AND GT ISZERO PUSH2 0x278 JUMPI PUSH1 0x40 MLOAD PUSH32 0x8C379A000000000000000000000000000000000000000000000000000000000 DUP2 MSTORE PUSH1 0x4 ADD PUSH2 0x26F SWAP1 PUSH2 0x52F JUMP JUMPDEST PUSH1 0x40 MLOAD DUP1 SWAP2 SUB SWAP1 REVERT JUMPDEST POP POP POP JUMP JUMPDEST PUSH1 0x1 PUSH1 0x20 MSTORE DUP1 PUSH1 0x0 MSTORE PUSH1 0x40 PUSH1 0x0 KECCAK256 PUSH1 0x0 SWAP2 POP SLOAD SWAP1 PUSH2 0x100 EXP SWAP1 DIV PUSH1 0xFF AND DUP2 JUMP JUMPDEST PUSH1 0x1 PUSH1 0x0 DUP3 DUP2 MSTORE PUSH1 0x20 ADD SWAP1 DUP2 MSTORE PUSH1 0x20 ADD PUSH1 0x0 KECCAK256 PUSH1 0x0 PUSH2 0x100 EXP DUP2 SLOAD SWAP1 PUSH1 0xFF MUL NOT AND SWAP1 SSTORE POP JUMP JUMPDEST DUP1 PUSH1 0x0 DUP1 PUSH2 0x100 EXP DUP2 SLOAD DUP2 PUSH1 0xFF MUL NOT AND SWAP1 DUP4 ISZERO ISZERO MUL OR SWAP1 SSTORE POP POP JUMP JUMPDEST PUSH1 0x0 DUP1 SLOAD SWAP1 PUSH2 0x100 EXP SWAP1 DIV PUSH1 0xFF AND DUP2 JUMP JUMPDEST PUSH1 0x0 DUP1 SLOAD SWAP1 PUSH2 0x100 EXP SWAP1 DIV PUSH1 0xFF AND PUSH2 0x33D JUMPI PUSH1 0x40 MLOAD PUSH32 0x8C379A000000000000000000000000000000000000000000000000000000000 DUP2 MSTORE PUSH1 0x4 ADD PUSH2 0x334 SWAP1 PUSH2 0x54F JUMP JUMPDEST PUSH1 0x40 MLOAD DUP1 SWAP2 SUB SWAP1 REVERT JUMPDEST PUSH1 0x64 DUP2 PUSH1 0xFF AND GT ISZERO PUSH2 0x384 JUMPI PUSH1 0x40 MLOAD PUSH32 0x8C379A000000000000000000000000000000000000000000000000000000000 DUP2 MSTORE PUSH1 0x4 ADD PUSH2 0x37B SWAP1 PUSH2 0x56F JUMP JUMPDEST PUSH1 0x40 MLOAD DUP1 SWAP2 SUB SWAP1 REVERT JUMPDEST DUP1 PUSH1 0x1 PUSH1 0x0 DUP5 DUP2 MSTORE PUSH1 0x20 ADD SWAP1 DUP2 MSTORE PUSH1 0x20 ADD PUSH1 0x0 KECCAK256 PUSH1 0x0 PUSH2 0x100 EXP DUP2 SLOAD DUP2 PUSH1 0xFF MUL NOT AND SWAP1 DUP4 PUSH1 0xFF AND MUL OR SWAP1 SSTORE POP POP POP JUMP JUMPDEST PUSH1 0x0 DUP2 CALLDATALOAD SWAP1 POP PUSH2 0x3C3 DUP2 PUSH2 0x6C4 JUMP JUMPDEST SWAP3 SWAP2 POP POP JUMP JUMPDEST PUSH1 0x0 DUP2 CALLDATALOAD SWAP1 POP PUSH2 0x3D8 DUP2 PUSH2 0x6DB JUMP JUMPDEST SWAP3 SWAP2 POP POP JUMP JUMPDEST PUSH1 0x0 DUP2 CALLDATALOAD SWAP1 POP PUSH2 0x3ED DUP2 PUSH2 0x6F2 JUMP JUMPDEST SWAP3 SWAP2 POP POP JUMP JUMPDEST PUSH1 0x0 PUSH1 0x20 DUP3 DUP5 SUB SLT ISZERO PUSH2 0x409 JUMPI PUSH2 0x408 PUSH2 0x644 JUMP JUMPDEST JUMPDEST PUSH1 0x0 PUSH2 0x417 DUP5 DUP3 DUP6 ADD PUSH2 0x3B4 JUMP JUMPDEST SWAP2 POP POP SWAP3 SWAP2 POP POP JUMP JUMPDEST PUSH1 0x0 PUSH1 0x20 DUP3 DUP5 SUB SLT ISZERO PUSH2 0x436 JUMPI PUSH2 0x435 PUSH2 0x644 JUMP JUMPDEST JUMPDEST PUSH1 0x0 PUSH2 0x444 DUP5 DUP3 DUP6 ADD PUSH2 0x3C9 JUMP JUMPDEST SWAP2 POP POP SWAP3 SWAP2 POP POP JUMP JUMPDEST PUSH1 0x0 DUP1 PUSH1 0x40 DUP4 DUP6 SUB SLT ISZERO PUSH2 0x464 JUMPI PUSH2 0x463 PUSH2 0x644 JUMP JUMPDEST JUMPDEST PUSH1 0x0 PUSH2 0x472 DUP6 DUP3 DUP7 ADD PUSH2 0x3C9 JUMP JUMPDEST SWAP3 POP POP PUSH1 0x20 PUSH2 0x483 DUP6 DUP3 DUP7 ADD PUSH2 0x3DE JUMP JUMPDEST SWAP2 POP POP SWAP3 POP SWAP3 SWAP1 POP JUMP JUMPDEST PUSH2 0x496 DUP2 PUSH2 0x5F2 JUMP JUMPDEST DUP3 MSTORE POP POP JUMP JUMPDEST PUSH1 0x0 PUSH2 0x4A9 PUSH1 0x17 DUP4 PUSH2 0x5AA JUMP JUMPDEST SWAP2 POP PUSH2 0x4B4 DUP3 PUSH2 0x649 JUMP JUMPDEST PUSH1 0x20 DUP3 ADD SWAP1 POP SWAP2 SWAP1 POP JUMP JUMPDEST PUSH1 0x0 PUSH2 0x4CC PUSH1 0x13 DUP4 PUSH2 0x5AA JUMP JUMPDEST SWAP2 POP PUSH2 0x4D7 DUP3 PUSH2 0x672 JUMP JUMPDEST PUSH1 0x20 DUP3 ADD SWAP1 POP SWAP2 SWAP1 POP JUMP JUMPDEST PUSH1 0x0 PUSH2 0x4EF PUSH1 0x10 DUP4 PUSH2 0x5AA JUMP JUMPDEST SWAP2 POP PUSH2 0x4FA DUP3 PUSH2 0x69B JUMP JUMPDEST PUSH1 0x20 DUP3 ADD SWAP1 POP SWAP2 SWAP1 POP JUMP JUMPDEST PUSH2 0x50E DUP2 PUSH2 0x608 JUMP JUMPDEST DUP3 MSTORE POP POP JUMP JUMPDEST PUSH1 0x0 PUSH1 0x20 DUP3 ADD SWAP1 POP PUSH2 0x529 PUSH1 0x0 DUP4 ADD DUP5 PUSH2 0x48D JUMP JUMPDEST SWAP3 SWAP2 POP POP JUMP JUMPDEST PUSH1 0x0 PUSH1 0x20 DUP3 ADD SWAP1 POP DUP2 DUP2 SUB PUSH1 0x0 DUP4 ADD MSTORE PUSH2 0x548 DUP2 PUSH2 0x49C JUMP JUMPDEST SWAP1 POP SWAP2 SWAP1 POP JUMP JUMPDEST PUSH1 0x0 PUSH1 0x20 DUP3 ADD SWAP1 POP DUP2 DUP2 SUB PUSH1 0x0 DUP4 ADD MSTORE PUSH2 0x568 DUP2 PUSH2 0x4BF JUMP JUMPDEST SWAP1 POP SWAP2 SWAP1 POP JUMP JUMPDEST PUSH1 0x0 PUSH1 0x20 DUP3 ADD SWAP1 POP DUP2 DUP2 SUB PUSH1 0x0 DUP4 ADD MSTORE PUSH2 0x588 DUP2 PUSH2 0x4E2 JUMP JUMPDEST SWAP1 POP SWAP2 SWAP1 POP JUMP JUMPDEST PUSH1 0x0 PUSH1 0x20 DUP3 ADD SWAP1 POP PUSH2 0x5A4 PUSH1 0x0 DUP4 ADD DUP5 PUSH2 0x505 JUMP JUMPDEST SWAP3 SWAP2 POP POP JUMP JUMPDEST PUSH1 0x0 DUP3 DUP3 MSTORE PUSH1 0x20 DUP3 ADD SWAP1 POP SWAP3 SWAP2 POP POP JUMP JUMPDEST PUSH1 0x0 PUSH2 0x5C6 DUP3 PUSH2 0x608 JUMP JUMPDEST SWAP2 POP PUSH2 0x5D1 DUP4 PUSH2 0x608 JUMP JUMPDEST SWAP3 POP DUP3 PUSH1 0xFF SUB DUP3 GT ISZERO PUSH2 0x5E7 JUMPI PUSH2 0x5E6 PUSH2 0x615 JUMP JUMPDEST JUMPDEST DUP3 DUP3 ADD SWAP1 POP SWAP3 SWAP2 POP POP JUMP JUMPDEST PUSH1 0x0 DUP2 ISZERO ISZERO SWAP1 POP SWAP2 SWAP1 POP JUMP JUMPDEST PUSH1 0x0 DUP2 SWAP1 POP SWAP2 SWAP1 POP JUMP JUMPDEST PUSH1 0x0 PUSH1 0xFF DUP3 AND SWAP1 POP SWAP2 SWAP1 POP JUMP JUMPDEST PUSH32 0x4E487B7100000000000000000000000000000000000000000000000000000000 PUSH1 0x0 MSTORE PUSH1 0x11 PUSH1 0x4 MSTORE PUSH1 0x24 PUSH1 0x0 REVERT JUMPDEST PUSH1 0x0 DUP1 REVERT JUMPDEST PUSH32 0x53636F72652063616E6E6F742065786365656420313030000000000000000000 PUSH1 0x0 DUP3 ADD MSTORE POP JUMP JUMPDEST PUSH32 0x796F7520617265206E6F74207465616368657200000000000000000000000000 PUSH1 0x0 DUP3 ADD MSTORE POP JUMP JUMPDEST PUSH32 0x6D61782073636F72652069732031303000000000000000000000000000000000 PUSH1 0x0 DUP3 ADD MSTORE POP JUMP JUMPDEST PUSH2 0x6CD DUP2 PUSH2 0x5F2 JUMP JUMPDEST DUP2 EQ PUSH2 0x6D8 JUMPI PUSH1 0x0 DUP1 REVERT JUMPDEST POP JUMP JUMPDEST PUSH2 0x6E4 DUP2 PUSH2 0x5FE JUMP JUMPDEST DUP2 EQ PUSH2 0x6EF JUMPI PUSH1 0x0 DUP1 REVERT JUMPDEST POP JUMP JUMPDEST PUSH2 0x6FB DUP2 PUSH2 0x608 JUMP JUMPDEST DUP2 EQ PUSH2 0x706 JUMPI PUSH1 0x0 DUP1 REVERT JUMPDEST POP JUMP INVALID LOG2 PUSH5 0x6970667358 0x22 SLT KECCAK256 0xB2 SWAP14 DUP11 0x5E 0x4C MLOAD JUMPI DUP1 0x2D 0xB2 PUSH13 0x4BB5E5ACD85C1542727F69FA27 SHR PUSH16 0xDD9708579F2F64736F6C634300080700 CALLER "
		},
		"gasEstimates": {
			"creation": {
				"codeDepositCost": "371000",
				"executionCost": "405",
				"totalCost": "371405"
			},
			"external": {
				"addScore(uint256,uint8)": "infinite",
				"isTeacher()": "2512",
				"queryIden(bool)": "24701",
				"queryScore(uint256)": "2823",
				"removeScore(uint256)": "24726",
				"studentScore(uint256)": "2841",
				"updateScore(uint256,uint8)": "27178"
			}
		},
		"methodIdentifiers": {
			"addScore(uint256,uint8)": "0efed18b",
			"isTeacher()": "c64a4bad",
			"queryIden(bool)": "8e20a9dd",
			"queryScore(uint256)": "063b3810",
			"removeScore(uint256)": "2d96fd46",
			"studentScore(uint256)": "17d9500e",
			"updateScore(uint256,uint8)": "d43b8e05"
		}
	},
	"abi": [
		{
			"inputs": [
				{
					"internalType": "uint256",
					"name": "_studentNum",
					"type": "uint256"
				},
				{
					"internalType": "uint8",
					"name": "_score",
					"type": "uint8"
				}
			],
			"name": "addScore",
			"outputs": [],
			"stateMutability": "nonpayable",
			"type": "function"
		},
		{
			"inputs": [],
			"name": "isTeacher",
			"outputs": [
				{
					"internalType": "bool",
					"name": "",
					"type": "bool"
				}
			],
			"stateMutability": "view",
			"type": "function"
		},
		{
			"inputs": [
				{
					"internalType": "bool",
					"name": "_iden",
					"type": "bool"
				}
			],
			"name": "queryIden",
			"outputs": [],
			"stateMutability": "nonpayable",
			"type": "function"
		},
		{
			"inputs": [
				{
					"internalType": "uint256",
					"name": "_studentNum",
					"type": "uint256"
				}
			],
			"name": "queryScore",
			"outputs": [
				{
					"internalType": "uint8",
					"name": "",
					"type": "uint8"
				}
			],
			"stateMutability": "view",
			"type": "function"
		},
		{
			"inputs": [
				{
					"internalType": "uint256",
					"name": "_studentNum",
					"type": "uint256"
				}
			],
			"name": "removeScore",
			"outputs": [],
			"stateMutability": "nonpayable",
			"type": "function"
		},
		{
			"inputs": [
				{
					"internalType": "uint256",
					"name": "",
					"type": "uint256"
				}
			],
			"name": "studentScore",
			"outputs": [
				{
					"internalType": "uint8",
					"name": "",
					"type": "uint8"
				}
			],
			"stateMutability": "view",
			"type": "function"
		},
		{
			"inputs": [
				{
					"internalType": "uint256",
					"name": "_studentNum",
					"type": "uint256"
				},
				{
					"internalType": "uint8",
					"name": "_score",
					"type": "uint8"
				}
			],
			"name": "updateScore",
			"outputs": [],
			"stateMutability": "nonpayable",
			"type": "function"
		}
	]
}